:020000040800F2
:100000000000022075530008014500080345000860
:1000100005450008074500080945000800000000E4
:10002000000000000000000000000000C1100008F7
:100030000B4500080000000061110008C511000810
:10004000C5530008C5530008C5530008C553000830
:10005000C5530008C5530008C5530008C553000820
:10006000C5530008C5530008C55300080D450008D6
:10007000C5530008C55300081D450008C5530008B6
:100080002D450008C5530008C5530008C553000896
:10009000C5530008C5530008C5530008C5530008E0
:1000A000C55300083D450008C5530008C553000866
:1000B000C5530008C5530008C5530008C5530008C0
:1000C000C5530008C5530008C5530008C5530008B0
:1000D0004D450008C5530008C5530008C553000826
:1000E000C5530008C5530008C5530008C553000890
:1000F000C5530008C5530008C5530008C553000880
:10010000C5530008C5530008C5530008C55300086F
:10011000C5530008C5530008C5530008C55300085F
:10012000C5530008C5530008C5530008C55300084F
:10013000C5530008C5530008C5530008C55300083F
:10014000C5530008C5530008C5530008C55300082F
:10015000C5530008C5530008C5530008C55300081F
:10016000C5530008C5530008C5530008C55300080F
:10017000C5530008C5530008C5530008000000001F
:08018000C5530008C553000837
:1001900053B94AB9002908BF00281CBF4FF0FF31EE
:1001A0004FF0FF3000F00CB8ADF1080C6DE904CE53
:1001B00005F044F9DDF804E0DDE9022304B07047FE
:1001C000704700BF08B5064B1A783AB9054A1AB10C
:1001D0000548AFF30080024B01221A7008BD00BF32
:1001E0001C000020000000005C57000808B5034B0D
:1001F0001BB103490348AFF3008008BD00000000B5
:10020000200000205C570008842801D0033070478C
:1002100000207047EFF30580003818BF01207047B9
:1002200008B504F09FFB002008BD2DE9F04188B01F
:100230000F464469C4B188468569ADB14668076810
:1002400002690592B0F90800FFF7DEFF02950194FC
:1002500000904346059A3946304604F011FB07905A
:10026000079808B0BDE8F081446805680669B0F9F0
:100270000800FFF7C9FF07AB019300903B46B2B2FD
:100280002946204604F03CFB0128E9D00020E8E79D
:1002900008B504F0DFFD08BD08B500B9012004F081
:1002A000B1FC002008BD30B585B005460C460023E2
:1002B00003930293FFF7AEFFB0B103AB009302AB21
:1002C00001222146284604F0BDFF012817D1039BD7
:1002D00093B14FF0E0234FF08052C3F8042DBFF3E9
:1002E0004F8FBFF36F8F07E002AB012221462846F4
:1002F00004F028FF012805D1029805B030BD4FF069
:100300000040FAE74FF00040F7E770B584B00446CC
:100310000E46154600230293FFF77CFF48B1822367
:10032000019304AB13E9070084E80700204604B0FA
:1003300070BD2B4602AA314604F0B8FE012805D054
:100340000DB90195EDE740230193EAE7029B002BED
:1003500002DB08230193E4E786230193E1E708B574
:10036000416819B1012001F057FA08BD012001F0E0
:1003700048FAFAE730B583B00023019310B30D4675
:100380000446FFF747FFA0B101AA0021204601F073
:1003900082FB012818D1019BC3B14FF0E0234FF03D
:1003A0008052C3F8042DBFF34F8FBFF36F8F00202F
:1003B00006E02946204601F098FA012808D10020DD
:1003C00003B030BD8020FBE7FF20F9E71846F7E7D0
:1003D000FF20F5E710B582B0044600230193FFF734
:1003E00019FF98B101A9204601F025FA01281AD178
:1003F000019BD3B14FF0E0234FF08052C3F8042D9E
:10040000BFF34F8FBFF36F8F002008E00346024613
:100410000146204601F025F9012802D0FF2002B054
:1004200010BD0020FBE7FF20F9E71846F7E710B5FD
:1004300082B044687CB1012903D00024204602B078
:1004400010BD03230093234600221146012001F032
:100450009AF80446F2E70129F0D10322214601204F
:1004600001F0DBF804460028E8D000231A461946BC
:1004700001F0F7F8E2E770B582B00023019328B3EA
:100480000E460446FFF7C6FE0546B0B101AA00219C
:10049000204601F000FB01281BD1019B1D4693B1B2
:1004A0004FF0E0234FF08052C3F8042DBFF34F8F7D
:1004B000BFF36F8F00231D4605E03146204601F053
:1004C00014FA012808D1284602B070BD80231D46C9
:1004D000F9E7FF231D46F6E7FF231D46F3E710B5B6
:1004E00082B0044600230193FFF794FE98B101A95E
:1004F000204601F0A0F901281AD1019BD3B14FF099
:10050000E0234FF08052C3F8042DBFF34F8FBFF3A9
:100510006F8F002008E0034602460146204601F0A6
:10052000A0F8012802D0FF2002B010BD0020FBE798
:10053000FF20F9E71846F7E7002312E030F913200F
:1005400007EE902AF8EEE77A67EE807AFDEEE77A1A
:1005500017EE902A20F813205A1C002120F81210C0
:1005600002333F2BEADD7047B7EE006A36EE406A91
:10057000002337E030F9132007EE102AB8EEC77ACF
:10058000991C30F9112007EE902AF8EEE77A20EE58
:10059000077A164AD2ED006A66EE266A37EE267AA8
:1005A00082ED007A60EE277A114AD2ED006A66EE9B
:1005B000266A77EEA67AC2ED007ABDEEC77A17EE0C
:1005C000102A20F8132003F1010C002220F81C202F
:1005D000FDEEE77A17EE90CA20F811C0D91C20F87A
:1005E000112004333F2BC5DD704700BF44000020BD
:1005F000400000202DE9F0410C4601B901244FF0E4
:10060000000E5DE0314E338803F50072121B51423B
:10061000C2F30802C1F3080158BF4A4230F91EC0B4
:100620000EF1020530F9151092B2DFF8B08038F9FA
:10063000127006EE907A264F37F9122007EE102A34
:1006400028F813C027F8131001335A42C3F30803E4
:10065000C2F3080258BF5342338007EE90CAF8EE47
:10066000E77ADFED1C5A67EEA57AF8EEE66A9FEDB1
:100670001A6A66EE866A77EEA67AFDEEE77A17EEDC
:10068000903A20F81E300EF10102002320F81230BB
:1006900007EE901AF8EEE77A67EEA57AB8EEC77A19
:1006A00027EE067A77EE877AFDEEE77A17EE902A44
:1006B00020F815200EF1030220F812300EF1040E7E
:1006C000BEF13F0F9EDDBDE8F08100BF4800002075
:1006D0004C0000203333333F9A99993E4C0400205C
:1006E00008B5044B00221A700121034B1868FFF76C
:1006F000DAFD08BD3C0000203800002008B50121CB
:10070000034B1970034B1868FFF7CDFD08BD00BF00
:100710003C0000203800002030B589B0FFF7B8FD5C
:10072000254B1860254C4FF480720021204604F0C0
:100730004AFE8023224A2146224802F0D5F80AE0E8
:1007400015F0040F04D0BDF81C102046FFF752FF2F
:100750000120FFF7A1FD4FF0FF3201216846FFF7AE
:10076000D4FD194B1B78154C04EBC314802214499B
:1007700001EBC311204604F053FE144D4FF0FF313E
:100780002868FFF7F7FD124B93E8070008AB03E971
:1007900007002868FFF71EFE9DED050A2046FFF7BB
:1007A000CBFE9DF81E5015F0020FC9D09DED060A34
:1007B0002046FFF7D9FEC3E7380000204C08002090
:1007C0004C090020AC4A00203C0000204C0A0020CC
:1007D00000000020034B0360034B0B608023136079
:1007E000704700BF500C0020500A0020124A12F03F
:1007F000070F1ED0D11D21F00701C1F5705313441E
:100800000A460E480260002141601344083B23F071
:1008100007030B48036059601960991A516013600F
:10082000084B1960084B1960084B4FF000421A60E2
:1008300070474FF47053E4E7C40C0020BC0C002058
:10084000B80C0020B00C0020B40C0020A40C002038
:10085000144B1A461B688342FBD3516802EB010C10
:10086000844509D0416800EB010C634509D0036061
:10087000904200D0106070474068014451601046BB
:10088000F0E7DFF824C0DCF800C0634506D05B6801
:100890001944416013681B680360E9E7C0F800C0B1
:1008A000E6E700BFBC0C0020B80C002038B50446B9
:1008B00004F092F8384B1B68B3B1384B1B681C42EC
:1008C00050D1002C50D004F1080214F0070F02D0D0
:1008D00022F007020832002A55D0314B1B689342A0
:1008E00053D330490C6804E0FFF780FFE5E7214669
:1008F0001C466368934202D22368002BF7D1264B33
:100900001B68A34243D00D68083523680B606368F9
:100910009B1A102B10D9A01810F0070F08D04FF019
:10092000500383F31188BFF36F8FBFF34F8FFEE740
:1009300043606260FFF78CFF626819490B689B1A7D
:100940000B60194909688B4201D217490B60134BA0
:100950001B681343636000232360144A1368013348
:10096000136002E0002500E0254604F0CFF815F002
:10097000070F0ED04FF0500383F31188BFF36F8F32
:10098000BFF34F8FFEE71546EFE70025EDE70025A3
:10099000EBE7284638BD00BFB80C0020A40C0020AF
:1009A000B40C0020BC0C0020B00C0020AC0C0020CB
:1009B000002835D038B50446A0F108031D4650F88C
:1009C000043C184A1268134208D14FF0500383F3D5
:1009D0001188BFF36F8FBFF34F8FFEE750F8081CED
:1009E00041B14FF0500383F31188BFF36F8FBFF312
:1009F0004F8FFEE723EA020340F8043C03F0ECFFCC
:100A000054F8041C084A13680B4413602846FFF787
:100A10001FFF064A13680133136004F077F838BDEE
:100A2000704700BFA40C0020B40C0020A80C0020CC
:100A300000F1080343604FF0FF328260C36003613E
:100A400000230360704700230361704743684B60D5
:100A50009A688A6051609960086103680133036095
:100A6000704710B402460846D1F800C0BCF1FF3F01
:100A700011D002F1080319465B681C686445FAD975
:100A80004B6843609860816048600261136801337D
:100A9000136010BC70471169F2E70369416882680E
:100AA0008A60416851605A68824206D00022026121
:100AB0001A68013A1A601868704782685A60F5E748
:100AC0002DE9F04F8DB007AD0024079408940994E8
:100AD0000A940B9401945F4B1A6B42F010021A6354
:100AE0001A6B02F010020192019A02941A6B42F002
:100AF00004021A631A6B02F004020292029A03942F
:100B00001A6B42F080021A631A6B02F080020392A1
:100B1000039A04941A6B42F001021A631A6B02F0F2
:100B200001020492049A05941A6B42F002021A63BD
:100B30001A6B02F002020592059A06941A6B42F0B3
:100B400008021A631B6B03F008030693069B424FCF
:100B500022460821384601F031FCDFF800910122DD
:100B60001146484601F02AFCDFF8F48022464FF295
:100B70001001404601F022FC4FF0080ACDF81CA0FD
:100B80000126089609940A942946384601F012FB7A
:100B90000796089609940A942946484601F00AFBEC
:100BA000CDF81CA0089409942946484601F002FBA0
:100BB00007964FF4901ACDF820A00994A9F5006982
:100BC0002946484601F0F6FA04230793089409944D
:100BD000DFF890B02946584601F0ECFA4FF48063F4
:100BE0000793089409942946584601F0E3FA4FF216
:100BF00010030793089609940A942946404601F089
:100C0000D9FA4FF40073079308940994294648468B
:100C100001F0D0FA4FF4E0530793022608960994A6
:100C20000A940A230B932946484601F0C3FA20236D
:100C30000793089409942946404601F0BBFA0796A9
:100C4000CDF820A009942946384601F0B3FA0DB03A
:100C5000BDE8F08F0038024000100240000802405A
:100C6000000C02400004024010B582B00024019440
:100C7000114B1A6B42F400121A631B6B03F400133E
:100C80000193019B224605210B2001F05FF80B2008
:100C900001F06CF8224605210E2001F057F80E20D5
:100CA00001F064F822460521102001F04FF81020D1
:100CB00001F05CF802B010BD0038024008B54FF4F6
:100CC0008051044801F080FB4FF4FA70FFF7E4FA1A
:100CD000F5E700BF000C02400268144B9A4200D0B6
:100CE000704710B582B0044611490B78DBB2114A47
:100CF00013704B78DBB2104A13704FF400410F4869
:100D000001F062FB0E4B1868FFF7E9FB002301932B
:100D10002368DA6801929B680193019B02220449CF
:100D2000084803F073F802B010BD00BF003800405F
:100D3000C8480020C5480020C4480020000C0240DC
:100D4000CC4800203C49002003680A4A934200D066
:100D5000704700B583B000220192DA6801929B6867
:100D60000193019B02220449044803F04FF803B0A9
:100D700000BD00BF00380040C84800203C490020AA
:100D800008B50268034B9A4200D008BD00F074FF1A
:100D9000FBE700BF0000014072B6FEE708B50A4855
:100DA0000A4B03600A4B436000238360C3604FF427
:100DB0008042026143618361C361036201F00EFB03
:100DC00000B908BDFFF7E8FFF44A002000540040D6
:100DD000A086010008B50C480C4B03604FF400726C
:100DE0004260002383600321C16002614FF4FA4234
:100DF00042618361C3610123036201F0DBFB00B93F
:100E000008BDFFF7C9FF00BFAC4A0020003C00400E
:100E100008B50D480D4B03604FF482734360002307
:100E20008360C360036143614FF400728261C361F8
:100E30000362436283620A23C36202F0D9FE00B9EF
:100E400008BDFFF7A9FF00BF944900200030014012
:100E500008B50A480A4B0360002343608360C360FF
:100E60000361436183610362436283620A23C36255
:100E700002F0BEFE00B908BDFFF78EFF3C4900201E
:100E80000038004010B594B008AC30220021204654
:100E900004F099FA002303930493059306930793B0
:100EA0000193204A116C41F080511164126C02F0E0
:100EB00080520192019A02931B4B1A6842F48042BD
:100EC0001A601B6803F480430293029B012308937A
:100ED0004FF48033099302230E934FF480020F9254
:100EE000082210924FF4A8721192129307231393C1
:100EF000204602F04DF988B90F230393022304938F
:100F000005904FF4A05306934FF4805307930521A7
:100F100003A802F0A9FB18B914B010BDFFF73CFFFD
:100F2000FFF73AFF003802400070004000B59BB068
:100F300000F088FEFFF7A6FFFFF7C2FDFFF794FE63
:100F4000FFF72CFFFFF746FFFFF762FFFFF780FF79
:100F500002222849284802F059FF002518951995C2
:100F600018A8FFF7FCF9254B186016951795012175
:100F700016A8FFF75CFA224B18602946FFF77BFAA8
:100F8000204C0DF13C0CA646BEE80F00ACE80F006B
:100F90009EE807008CE8070029460FA8FFF745F9EF
:100FA000194B18600DF1200C04F11C0EBEE80F0067
:100FB000ACE80F009EE807008CE80700294608A867
:100FC000FFF733F9114B18600DF1040E04F1380CE2
:100FD000BCE80F00AEE80F009CE807008EE80700B1
:100FE000294601A8FFF721F9094B1860FFF718F906
:100FF000FEE700BFC84800203C4900204C0A002002
:10100000CC48002074570008D8480020D44800205D
:10101000D048002082B0002301930D4B1B68B3F130
:10102000FF3F08D04FF0500383F31188BFF36F8F59
:10103000BFF34F8FFEE74FF0500383F31188BFF3E8
:101040006F8FBFF34F8F019B002BFCD002B0704716
:101050000C00002008480068006880F308884FF002
:10106000000080F3148862B661B6BFF34F8FBFF300
:101070006F8F00DF00BF000008ED00E0DFF80C001C
:10108000016841F4700101607047000088ED00E0E4
:101090004FF0807340F8043C21F0010140F8081C37
:1010A000054B40F80C3C40F8202C6FF0020340F850
:1010B000243C4438704700BF1510000800000000B1
:1010C000074B19680868B0E8F04F80F30988BFF350
:1010D0006F8F4FF0000080F311887047AFF30080EE
:1010E000C44C00204FF0500383F31188BFF36F8F7F
:1010F000BFF34F8F0B4A136801331360012B00D0ED
:1011000070474FF0E023D3F8043D13F0FF0FF7D002
:101110004FF0500383F31188BFF36F8FBFF34F8FEE
:10112000FEE700BF0C000020094B1B6843B94FF0DD
:10113000500383F31188BFF36F8FBFF34F8FFEE728
:10114000013B034A13600BB983F31188704700BF5A
:101150000C00002000000000000000000000000063
:10116000EFF30980BFF36F8F154B1A681EF0100F55
:1011700008BF20ED108A20E9F04F106009B44FF04D
:10118000500080F31188BFF34F8FBFF36F8F03F0D0
:101190005FFD4FF0000080F3118809BC19680868F2
:1011A000B0E8F04F1EF0100F08BFB0EC108A80F3CB
:1011B0000988BFF36F8F7047AFF30080AFF30080F3
:1011C000C44C002008B54FF0500383F31188BFF3DF
:1011D0006F8FBFF34F8F03F007FC28B14FF0E02370
:1011E0004FF08052C3F8042D002383F3118808BD0B
:1011F0004FF0E022002313619361054B1B68054902
:10120000A1FB03139B09013B536107231361704743
:1012100018000020D34D62104FF0E023D3F8002DCA
:101220003E4B9A421CD04FF0E023D3F8002D3C4BAC
:101230009A421ED010B582B03A4B1A78D2B20192BF
:10124000FF221A701B78DBB28DF803309DF8033053
:1012500003F05003344A1370344B07221A601BE02A
:101260004FF0500383F31188BFF36F8FBFF34F8F9D
:10127000FEE74FF0500383F31188BFF36F8FBFF386
:101280004F8FFEE7294A1368013B13609DF8033036
:101290005B00DBB28DF803309DF8033013F0800F54
:1012A000F0D1224B1B68032B08D04FF0500383F37F
:1012B0001188BFF36F8FBFF34F8FFEE71B021B4AEE
:1012C000136003F4E0631360019BDBB2154A1370F3
:1012D0004FF0E022D2F8203D43F47003C2F8203DE5
:1012E000D2F8203D43F070431446C2F8203DFFF78A
:1012F0007FFF0F4B00221A60FFF7C0FED4F8343F87
:1013000043F04043C4F8343FFFF7A4FE03F0A0FCD1
:10131000FFF780FE002002B010BD00BF71C20F4178
:1013200070C20F4100E400E04C4B0020484B00200D
:101330000C000020EFF305830F2B0ED9114A9A5CA5
:10134000114B1B789A4208D24FF0500383F3118857
:10135000BFF36F8FBFF34F8FFEE74FF0E023D3F85B
:101360000C3D03F4E063094A1268934208D94FF038
:10137000500383F31188BFF36F8FBFF34F8FFEE7E6
:10138000704700BFF0E300E04C4B0020484B0020CA
:101390000346406A18B11B6B1868C0F1070070471C
:1013A00010B50446FFF79EFEA26BE36B9A4204D091
:1013B0000024FFF7B9FE204610BD0124F9E710B55F
:1013C0000446FFF78FFEA36B2BB901231C46FFF7E2
:1013D000ABFE204610BD00231C46F8E770B504465E
:1013E0001646856B026C5AB903681BB100200135A3
:1013F000A56370BD806803F099FD0023A360F6E744
:101400006EB9406804F00CF86368226C13446360A2
:10141000A268934219D3236863603046E7E7C06847
:1014200003F0FEFFE368226C51429B1AE3602268DE
:10143000934202D2A3680B44E360022E01D0002045
:10144000D5E725B1013D0020D1E73046CFE728465A
:10145000CDE70346026C6AB110B50846D96811445D
:10146000D9609C68A14201D31968D960D96803F09A
:10147000D7FF10BD704738B50546FFF733FE95F826
:10148000454064B201E0013C64B2002C0ADD6B6AA5
:1014900043B105F1240003F03FFC0028F3D003F032
:1014A000D3FCF0E7FF2385F84530FFF73DFEFFF75B
:1014B00019FE95F8444064B201E0013C64B2002C8E
:1014C0000ADD2B6943B105F1100003F025FC00286B
:1014D000F3D003F0B9FCF0E7FF2385F84430FFF7C1
:1014E00023FE38BD38B5E0B10D460446FFF7FAFDDE
:1014F0002368E26B216C01FB0230A0600020A06336
:101500006360013A02FB0133E360FF2384F8443057
:1015100084F84530FDB9236963B9FFF705FE012062
:1015200038BD4FF0500383F31188BFF36F8FBFF3C3
:101530004F8FFEE704F1100003F0EEFB0028ECD023
:101540004FF0E0234FF08052C3F8042DBFF34F8FCC
:10155000BFF36F8FE1E704F11000FFF769FA04F1C0
:101560002400FFF765FAD8E708B5034602988C46D1
:1015700039B90060C363C0F840C00121FFF7B2FF72
:1015800008BD0260F6E740B94FF0500383F31188BD
:10159000BFF36F8FBFF34F8FFEE710B584B01C46CB
:1015A000844653B192B189B94FF0500383F3118847
:1015B000BFF36F8FBFF34F8FFEE74FF0500383F3FE
:1015C0001188BFF36F8FBFF34F8FFEE76AB14823D7
:1015D0000393039B482B13D04FF0500383F31188E0
:1015E000BFF36F8FBFF34F8FFEE70029EFD04FF0AF
:1015F000500383F31188BFF36F8FBFF34F8FFEE764
:10160000039B012384F8463000949DF8183060460F
:10161000FFF7AAFF204604B010BD40B94FF05003B9
:1016200083F31188BFF36F8FBFF34F8FFEE7F0B5E1
:1016300083B0164604460D4601FB00F04830FFF724
:1016400035F90246074648B1002380F8463000903D
:101650003346483229462046FFF786FF384603B016
:10166000F0BDF0B585B0019288B10F461D46044625
:10167000B1B1022D20D1E36B012B1DD04FF05003EF
:1016800083F31188BFF36F8FBFF34F8FFEE74FF0E7
:10169000500383F31188BFF36F8FBFF34F8FFEE7C3
:1016A000036C002BE5D04FF0500383F31188BFF398
:1016B0006F8FBFF34F8FFEE703F0D2FB064658B99A
:1016C000019B002B48D04FF0500383F31188BFF3E8
:1016D0006F8FBFF34F8FFEE700263DE02A46394665
:1016E0002046FFF77BFE636A7BB948B14FF0E023E9
:1016F0004FF08052C3F8042DBFF34F8FBFF36F8FAD
:10170000FFF712FD012005B0F0BD04F1240003F045
:1017100003FB0028F4D04FF0E0234FF08052C3F8D1
:10172000042DBFF34F8FBFF36F8FE9E7FFF7FCFC8A
:101730000020E8E702A803F037FB012619E00023A8
:1017400084F8443021E0002384F8453023E020462B
:10175000FFF791FE03F0DAF9FFF7C4FCA26BE36B2D
:101760009A42BBD3022DB9D0019B002BDED0002EB4
:10177000E0D0FFF7D9FC03F02FF9FFF7B3FC94F8A2
:10178000442052B2B2F1FF3FD9D094F8452052B272
:10179000B2F1FF3FD7D0FFF7C7FC01A902A803F0C1
:1017A0000FFBD8B92046FFF7FBFD0028CFD00199E9
:1017B00004F1100003F098FA2046FFF75CFE03F0F6
:1017C000A5F90028C8D14FF0E0234FF08052C3F8AC
:1017D000042DBFF34F8FBFF36F8FBDE72046FFF798
:1017E0004AFE03F093F900208DE748B108B50021C7
:1017F00081600160C1600B460A46FFF732FF08BDF9
:10180000704710B5024600210120FFF706FF04468D
:10181000FFF7EBFF204610BD10B582B00B460090DD
:10182000002211460120FFF7AEFE0446FFF7DDFF60
:10183000204602B010BD68B170B50D460446036C79
:101840008BB14FF0500383F31188BFF36F8FBFF359
:101850004F8FFEE74FF0500383F31188BFF36F8F74
:10186000BFF34F8FFEE70368F3B1FFF763FDEFF3BC
:1018700011834FF0500282F31188BFF36F8FBFF3D3
:101880004F8F1E46A26BE36B934226D994F84530E6
:101890005BB20132A263B3F1FF3F11D001335BB2FF
:1018A00084F84530012019E08368002BDDD04FF02B
:1018B000500383F31188BFF36F8FBFF34F8FFEE7A1
:1018C000636A0BB9012009E004F1240003F024FA53
:1018D00038B145B10120286000E0002086F311886E
:1018E00070BD0120FAE70120F8E770B584B00191DE
:1018F00058B10446036C8BB14FF0500383F3118849
:10190000BFF36F8FBFF34F8FFEE74FF0500383F3AA
:101910001188BFF36F8FBFF34F8FFEE703F0A0FA7C
:10192000054650B9019B63B14FF0500383F3118812
:10193000BFF36F8FBFF34F8FFEE700231E461D4698
:1019400056E0064654E0013BA363236843B1236994
:1019500053B9FFF7E9FB01231E46304604B070BDC2
:1019600003F096FBA060F2E704F1100003F0D4F955
:101970000028EED04FF0E0234FF08052C3F8042D42
:10198000BFF34F8FBFF36F8FE3E746B14FF05003C4
:1019900083F31188BFF36F8FBFF34F8FFEE7FFF71D
:1019A000C3FBDAE702A803F0FFF901252AE00023D0
:1019B00084F8443032E0002384F8453034E0FFF707
:1019C00091FBA06803F05CFA0646FFF7ADFB3BE035
:1019D0002046FFF750FD03F099F809E02046FFF795
:1019E0004AFD03F093F82046FFF7E9FC002842D1B6
:1019F000FFF778FBA36B002BA5D1019B002BC4D074
:101A0000002DCFD0FFF790FB02F0E6FFFFF76AFB57
:101A100094F844305BB2B3F1FF3FC8D094F845303E
:101A20005BB2B3F1FF3FC6D0FFF77EFB01A902A86E
:101A300003F0C6F90028D1D12046FFF7C0FC0028EA
:101A4000C6D02368002BBAD0019904F1240003F01A
:101A50004BF92046FFF70FFD03F058F80028C7D1D7
:101A60004FF0E0234FF08052C3F8042DBFF34F8FA7
:101A7000BFF36F8FBCE716B900231E466DE7FFF773
:101A800031FB2046FFF784FC0146A06803F0A6FA6C
:101A9000FFF74AFBF0E72DE9F843C0B10E46904648
:101AA0000446E9B1FFF746FCEFF311834FF0500213
:101AB00082F31188BFF36F8FBFF34F8F1F46A36B65
:101AC0009946CBB9184687F31188BDE8F8834FF0E3
:101AD000500383F31188BFF36F8FBFF34F8FFEE77F
:101AE000036C002BDED04FF0500383F31188BFF35B
:101AF0006F8FBFF34F8FFEE794F844305DB23146ED
:101B00002046FFF7A6FC09F1FF33A363B5F1FF3FC1
:101B100006D02B4601335BB284F844300120D2E773
:101B200023690BB90120CEE704F1100003F0F4F8AB
:101B300028B143462BB10120C8F80000C3E70120BB
:101B4000C1E70120BFE7000008B525E0374C0122BE
:101B50004FF40051204600F031FC354D4FF0FF317D
:101B60002868FEF707FC334B1B7807EE903AF8EE37
:101B7000E77AF2EE046A87EEA67A2F4B83ED007ABD
:101B80002868FEF727FC6420FEF786FB00224FF44E
:101B90000051204600F012FC4FF0FF31274B18682F
:101BA000FEF769FC0028F7D1254B1B78012BCDD01F
:101BB000234B1B78022B18D01C4C4FF4804120463D
:101BC00000F002FC4FF40051204600F0FDFB6420C1
:101BD000FEF762FB4FF48041204600F0F5FB4FF426
:101BE0000051204600F0F0FBD6E7104C01224FF4E4
:101BF0008041204600F0E2FB0D4D4FF0FF31286898
:101C0000FEF7B8FB0B4B1B7803EB43031B010A4A9F
:101C100013812868FEF7DEFB6420FEF73DFB0022FF
:101C20004FF48041204600F0C9FBB5E7000C0240AC
:101C30004C0A0020C448002000000020CC480020AE
:101C4000C548002008B50B4B1A6842F400721A60B0
:101C50001A6842F480621A601A6842F480721A604C
:101C6000032000F061F80F2002F0FEFB01F0E0F825
:101C7000002008BD003C0240034A1168034B1B785A
:101C80000B441360704700BF504B00201000002031
:101C9000014B1868704700BF504B0020002807DB3D
:101CA00000F01F02400901239340024A42F820300D
:101CB000704700BF00E100E0002808DB0901C9B25D
:101CC00000F1604000F5614080F80013704700F0BB
:101CD0000F000901C9B2014B1954704714ED00E01F
:101CE00000B500F00700A0F1030CBCF1040F07D809
:101CF000C0F1070E0430062806D84FF0000C03E0B0
:101D00004FF0040E4FF0000C4FF0FF3303FA0EF0CB
:101D100021EA000101FA0CF103FA0CF322EA0302B2
:101D200041EA020000BD0000074AD36823F4E063E3
:101D30001B041B0C000200F4E060034343F0BF638C
:101D400043F40033D360704700ED00E010B5044663
:101D5000054BD868C0F30220FFF7C2FF01462046BA
:101D6000FFF7AAFF10BD00BF00ED00E008B5FFF7C8
:101D700095FF08BD10B5D0F800E0DEF800C02CF4E7
:101D8000802CCEF800C0046863608368402B04D0C8
:101D9000036899600368DA6010BD03689A6003689D
:101DA000D960F9E70368D9B210390A4AA2FB01C227
:101DB0001209DFF824C01CF80220C2655F2905D98A
:101DC0006FF3090304338365806D70476FF3090374
:101DD0008365F9E7ABAAAAAAEC570008836A82696F
:101DE00092B9012B0AD0022B02D00BB10020704710
:101DF000C36A13F0807F2CD100207047C36AB3F10F
:101E0000C07F28D000207047B2F5005F09D0022BB8
:101E10002BD9032B2BD1C36A13F0807F29D100204B
:101E20007047022B19D00AD8CBB1012B05D1C36A58
:101E300013F0807F15D10020704700207047032BDE
:101E400005D1C36AB3F1C07F0DD0002070470020D8
:101E50007047012070470120704701207047012022
:101E60007047012070470120704701207047002013
:101E7000704701207047000070B50446FFF708FF67
:101E8000002C5CD00546022384F83530002384F80A
:101E900034302268136823F00103136023681A6842
:101EA00012F0010F0AD0FFF7F3FE431B052BF5D903
:101EB00020236365032084F8350070BD1A6821492A
:101EC00011406268A0680243E0680243206902434F
:101ED00060690243A0690243E0690243206A024349
:101EE0000A43616A04291FD01A6023681E465D698F
:101EF00025F00705636A1D43042B07D1A36A1D4320
:101F0000E36A1BB12046FFF769FF90B9756120466F
:101F1000FFF748FFE26D3F23934083600020606538
:101F2000012384F83530C8E7E16A206B01430A4396
:101F3000DAE740236365012084F83500BDE701201E
:101F4000BBE700BF3F8010F038B50446806D054602
:101F500094F8340001282AD0012084F8340094F841
:101F60003500012804D0002384F83430022038BD25
:101F7000022084F83500002060652046FFF7FAFE55
:101F8000E26D3F239340AB602268136843F0160371
:101F90001360236C23B12268136843F008031360B5
:101FA0002268136843F0010313600020DFE702207A
:101FB000DDE790F83530022B03D080234365012004
:101FC0007047052380F835300268136823F0010359
:101FD0001360002070470000F0B583B00446002372
:101FE0000193724B1D68724BA3FB0535AD0A876DDB
:101FF0003E68C26D08239340334210D003681A68CC
:1020000012F0040F0BD01A6822F004021A60C26D9D
:1020100008239340BB60436D43F001034365E26DC9
:1020200001239340334209D02268526912F0800F95
:1020300004D0BB60636D43F002036365E26D04236B
:102040009340334209D02268126812F0020F04D084
:10205000BB60636D43F004036365E26D102393403E
:10206000334224D02268126812F0080F1FD0BB60E0
:1020700023681A6812F4802F0DD01B6813F4002F08
:1020800004D1236C9BB12046984710E0A36C73B138
:10209000204698470BE01A6812F4807F03D11A6833
:1020A00022F008021A60236C0BB120469847E26DBB
:1020B00020239340334254D02268126812F0100F4C
:1020C0004FD0BB6094F83530052B0ED023681A68CA
:1020D00012F4802F33D01B6813F4002F2AD1636CC5
:1020E000002B3ED0204698473BE02268136823F03F
:1020F000160313602268536923F080035361236C35
:10210000A3B12268136823F008031360E26D3F2334
:102110009340BB60012384F83530002384F83430C9
:10212000236D002B3FD0204698473CE0A36C002B4A
:10213000E7D1EBE7E36BA3B12046984711E01A68BB
:1021400012F4807F09D11A6822F010021A6001236C
:1021500084F83530002384F83430E36B0BB120462B
:102160009847636DFBB1636D13F0010F17D0052322
:1021700084F835302268136823F001031360019B53
:1021800001330193AB4204D823681B6813F0010F9D
:10219000F5D1012384F83530002384F83430E36C22
:1021A0000BB12046984703B0F0BD00BF18000020D7
:1021B000B5814E1B70B582B08E46002369E08568FC
:1021C0004FEA430C032101FA0CF125EA0105DEF880
:1021D0000C1001FA0CF129438160416821EA0201E7
:1021E000DEF80420C2F300129A400A43426065E020
:1021F000D908083150F8212003F00705AD004FF051
:102200000F0C0CFA05FC22EA0C0CDEF81020AA4098
:1022100042EA0C0240F8212067E0072200E0002299
:1022200002FA0CF22A430231604D45F82120604A3F
:102230009168E24321EA0405DEF8046016F4801F89
:1022400001D044EA01055A498D60C96802EA0105D6
:10225000DEF8046016F4001F01D044EA0105544979
:10226000CD60496802EA0105DEF8046016F4003F1B
:1022700001D044EA01054E494D6009680A40DEF884
:10228000045015F4803F01D044EA010248490A6035
:1022900001330F2B00F2878001229A40DEF80010F4
:1022A00001EA020432EA0101F2D1DEF8041001F081
:1022B000030C0CF1FF3CBCF1010F80D9DEF80420C7
:1022C00002F00302032A0AD0C1685D000322AA407B
:1022D00021EA0201DEF80820AA400A43C260DEF8C3
:1022E000042002F00302022A82D001684FEA430C64
:1022F000032202FA0CF221EA0201DEF8042002F0C5
:10230000030202FA0CF20A430260DEF8042012F41F
:10231000403FBDD000220192264A516C41F48041D9
:102320005164526C02F480420192019A99088D1C0A
:102330001E4A52F8255003F0030C4FEA8C0C0F2272
:1023400002FA0CF225EA02051B4A90423FF467AFFD
:1023500002F5806290421AD002F58062904218D055
:1023600002F58062904216D002F58062904214D04D
:1023700002F58062904212D002F58062904210D045
:1023800002F5806290423FF448AF082248E70122FC
:1023900046E7022244E7032242E7042240E70522FF
:1023A0003EE706223CE702B070BD00BF00380140A6
:1023B000003C014000380240000002400AB1816147
:1023C0007047090481617047436901EA030221EA09
:1023D000030141EA0241816170470000002800F0DA
:1023E000DA8038B5044690F83D30002B51D02423D4
:1023F00084F83D302268136823F0010313602268DB
:10240000136843F4004313602268136823F4004305
:10241000136001F0DFF96268614B9A423ED8614B6C
:1024200098428CBF00230123002B40F0B6805E4908
:10243000A1FB00318B0CD4F800C0DCF8042022F0A2
:102440003F0242EA9142CCF8042021680A6A22F055
:102450003F02DFF84CC16568654525D80133134359
:102460000B622168CA6922F44F4222F0FF02D4F8BD
:1024700004C04B4B9C4522D8431E4FEA4C0CB3FB87
:10248000FCF3013340F6FC70034254D0C3F30B035A
:1024900052E080F83C3000F0EDFCA8E7434B984256
:1024A0008CBF00230123BFE74FF4967C0CFB03F3A2
:1024B000DFF8FCC0ACFB03C39B090133CFE7D4F8C2
:1024C00008E0BEF1000F1AD1431E0CEB4C05B3FB24
:1024D000F5F30133C3F30B03B3FA83F35B09002B6A
:1024E00057D1BEF1000F19D1431E0CEB4C0CB3FBBE
:1024F000FCF30133C3F30B0343F400431CE00CEB88
:102500008C0303EB83031D46431EB3FBF5F301333A
:10251000C3F30B03B3FA83F35B09E0E7431E0CEB51
:102520008C0C0CEB8C0CB3FBFCF30133C3F30B03EF
:1025300043F4404300E004231A43CA6121680B6856
:1025400023F0C003E269206A024313430B60216851
:102550008B6823F4034323F0FF032269E0680243FE
:1025600013438B602168CB6823F0FF036269A06985
:1025700002431343CB602268136843F001031360E6
:1025800000202064202384F83D30206384F83E003E
:1025900038BD0123D0E7012070470120F8E700BFD4
:1025A000A08601007F841E0083DE1B43FF083D00E0
:1025B000D34D6210002800F0C48038B5044690F86E
:1025C0004130002B53D0022284F841202168CB698E
:1025D00023F47B6323F00F03CB6123681A626369E2
:1025E00093426CD0E368002B48D110231D46A368AA
:1025F000202B01D86B001D46012001F0D7F923697B
:10260000B3F5007F3DD0B0FBF5F000EB8000430058
:102610006269B3FBF2F305334B4AA2FB0323C3F316
:10262000C002C2EBD3035B0811029A1EFD2A40D8F8
:1026300022690A4321681A430A622168CB6923F49C
:102640007B6323F00F036268A0680243E0680243E3
:10265000A0690243134343F40063CB61236A012B57
:102660002FD000206064012384F8413038BD80F809
:102670004030364B436300F035FCA4E720231D4671
:10268000B5E7E36853B1AB00B0FBF3F000EB8000BB
:1026900043006269B3FBF2F30533BDE7EB00B0FB27
:1026A000F3F000EB800043006269B3FBF2F3053303
:1026B000B2E7636C43F0100363640120D6E70021A6
:1026C000B6E7234B63632268224B9A4220D04FF037
:1026D0004022D36923F47B6323F00F03D361226884
:1026E0001C4B9A4216D04FF04022022313622268FC
:1026F000184B9A4210D04FF0402CDCF81C309BB2A3
:102700006268B2F5007F0AD0CAB94FF4807008E061
:10271000114ADEE7104AE8E7DFF83CC0EDE74FF486
:102720008070B4F808E0A189228B40EA0E000143D2
:102730000A43134343F40063CCF81C3091E70020B4
:10274000EFE70120704700BFCDCCCCCCD3270008E9
:10275000592C00080038004000340040704708B58C
:10276000426A03681288DA60436A02334362438D27
:102770009BB2013B9BB24385438D9BB203B108BD25
:102780000268536823F0A0035360012380F84130AE
:10279000FFF7E4FFF3E7704708B50368DA68C36A38
:1027A0001A80C36A0233C362438E9BB2013B9BB261
:1027B0004386438E9BB203B108BD0268536823F081
:1027C00060035360012380F84130FFF7E4FFF3E733
:1027D000704710B584B0044603689A68039290F875
:1027E0004120042A05D094F84130032B2CD004B0AA
:1027F00010BD039A12F0010F03D05B6813F0400F75
:102800001FD1039B13F0400FEDD023685A6812F0DC
:10281000200FE8D05A6822F060025A60002301932A
:102820002368DA6801929B680193019B012384F875
:102830004130636C43F0020363642046FFF7C8FF36
:10284000D1E7FFF7A9FFDCE7039B13F0020F04D0E9
:1028500023685B6813F0800F1DD1039B13F0080FF2
:10286000C5D023685A6812F0200FC0D05A6822F0F1
:10287000A0025A600023029323689B680293029B84
:10288000012384F84130636C43F004036364204601
:10289000FFF79EFFABE72046FFF761FFDDE7000093
:1028A00008B5806B0268536823F003035360026825
:1028B0000B4B9A4212D04FF04022536823F003038F
:1028C0005360002343854386012380F84130436CE5
:1028D00043F008034364FFF77BFF08BD014AECE7C0
:1028E000003800400034004070B582B0154690F8C2
:1028F0004120012A40F0BD8004460E46D0B2002996
:1029000000F0B880002D00F0B580002B00F0B28000
:1029100094F84020012A00F0AF80012284F8402082
:102920006162E5622268D26902F00702032A06D0DA
:10293000052A04D0238563852386638605E05B0032
:102940009BB2238563852386638600236364052207
:1029500084F84120E26B49491164E26B4849D16334
:10296000E16B484ACA64A16B0B64A16BCB63A36B98
:10297000DA642268D36903F44073B3F5007F01D0B1
:10298000002B3DD1E06B404B9A4235D04FF04021B7
:10299000238E9BB22A460C31FFF7D6FA22683A4BB7
:1029A0009A422BD04FF04022536843F0010353600A
:1029B0002268238D9BB20C323146A06BFFF7C4FA1C
:1029C0002268536843F002035360002384F84030C8
:1029D0002368DA6912F4806F4CD12B4A934245D0B8
:1029E0004FF04022D36943F48063D3612268D369F6
:1029F00043F48063D3613DE02449C9E7234AD3E728
:102A0000D36903F44073B3F5407F23D0A06B1E4B12
:102A10009A4227D04FF04022238D9BB20C32314690
:102A2000FFF792FA2268184B9A421DD04FF04022CD
:102A3000536843F0020353602168238E9BB22A46F9
:102A40000C31E06BFFF780FA2268536843F0010312
:102A50005360BAE700230193D3680193936801930D
:102A6000019BD3E7094AD7E7084AE1E7A2F580626C
:102A7000B8E7022002B070BD0220FBE7912A0008EF
:102A80009D2A0008A12800080038004000340040BA
:102A900008B5806BFDF724FE08BD000008B50346AD
:102AA000806BDB69F3B90268D36903F44073B3F553
:102AB000007F03D0D36913F4407F18D1144B9A429E
:102AC00013D04FF04022536823F001035360026893
:102AD000536823F002035360002343864385012398
:102AE00080F84130FDF70AFE08BD0A4AEBE753685B
:102AF00023F0010353600268054B9A4206D04FF061
:102B00004022536823F002035360E5E7014AF8E7E7
:102B1000003800400034004008B5436A9A1C426205
:102B200002681B88D360438D9BB2013B9BB24385F7
:102B3000438D9BB23BB90268536823F0A0035360F6
:102B4000438E9BB203B108BD012380F84130FDF7ED
:102B5000D5FDF8E708B50268154B9A421CD04FF036
:102B60004023DA68C36A991CC1621A80438E9BB203
:102B7000013B9BB24386438E9BB263B902680C4B08
:102B80009A420CD04FF04022536823F06003536008
:102B9000438D9BB22BB108BDA3F58063E1E7054AE5
:102BA000F2E7012380F84130FDF7A8FDF3E700BF0D
:102BB000003800400034004008B5436A9A1C426265
:102BC0001A880168134B994218D04FF04023DA60FD
:102BD000438D9BB2013B9BB24385438D9BB263B94E
:102BE00002680C4B9A420CD04FF04022536823F0FD
:102BF000A0035360438E9BB22BB108BDA3F5806345
:102C0000E5E7054AF2E7012380F84130FDF776FD5C
:102C1000F3E700BF003800400034004008B5036807
:102C2000DA68C36A991CC1621A80438E9BB2013B69
:102C30009BB24386438E9BB23BB90268536823F034
:102C400060035360438D9BB203B108BD012380F83C
:102C50004130FDF753FDF8E710B586B00446036830
:102C60009A680592704A93426FD04FF04022916863
:102C700004915B680393536802936368B3F5007F24
:102C800001D0002B70D1059B13F0020F03D0039BE2
:102C900013F0800F5CD1049B13F0010F03D0029B53
:102CA00013F0400F58D1049B13F0400F24D0029B27
:102CB00013F0200F20D022685B4B9A4250D04FF087
:102CC0004022536823F0600353602268536823F066
:102CD000A0035360002300932368DA6800929B6886
:102CE0000093009B012384F84130636C43F002039E
:102CF00063642046FFF76CFD059B13F0080F22D09C
:102D0000039B13F0200F1ED02268536823F0A0030A
:102D100053602268444B9A4224D04FF040225368BB
:102D200023F0600353600023019323689B680193A1
:102D3000019B012384F84130636C43F00403636416
:102D40002046FFF745FD06B010BDA2F580628EE774
:102D50002046FFF7E1FE9EE72046FFF7FBFEA2E7D5
:102D6000324AAEE7314ADAE7049B13F0020F03D090
:102D7000029B13F0800F4AD1059B13F0010F03D083
:102D8000039B13F0400F46D1059B13F0400F1CD05E
:102D9000039B13F0200F18D02268536823F06003C0
:102DA00053602268204B9A4239D04FF0402253683A
:102DB00023F0A0035360012384F84130636C43F097
:102DC000020363642046FFF703FD049B13F0080F22
:102DD000B9D0029B13F0200FB5D02268124B9A4253
:102DE0001FD04FF04022536823F0A00353602268A5
:102DF000536823F060035360012384F84130636C0F
:102E000043F0040363642046FFF7E2FC9BE720469F
:102E1000FFF7D2FEB0E72046FFF700FFB4E7034A12
:102E2000C5E7024ADFE700BF003800400034004039
:102E300000B583B0002200920D4B596C41F48041E3
:102E40005964596C01F48041009100990192196C08
:102E500041F0805119641B6C03F080530193019B76
:102E60000F216FF00100FEF771FF03B000BD00BF3E
:102E70000038024030B589B00023039304930593D2
:102E8000069307930268144B9A4201D009B030BDF3
:102E900000250195114C236B43F002032363236B40
:102EA00003F002030193019B4FF410730393122369
:102EB0000493012305930423079303A90848FFF70C
:102EC00079F90295236C43F400132364236C03F413
:102ED00000130293029BD9E70054004000380240DF
:102EE00000040240F0B58DB00023079308930993C6
:102EF0000A930B93039304930593069302684D4B37
:102F00009A4201D00DB0F0BD044601230393C023C3
:102F100004930223059303A800F09AFC00287FD1B4
:102F200000250095444B1A6C42F400421A641A6C56
:102F300002F400420092009A01951A6B42F00102DD
:102F40001A631A6B02F001020192019A02951A6B40
:102F500042F004021A631B6B03F004030293029B0A
:102F6000102307930226089609950A9506270B97C2
:102F700007A93248FFF71EF94FF4A45307930896A8
:102F800009950A950B9707A92D48FFF713F94FF4F8
:102F900000630793089609950A9505230B9307A9E3
:102FA0002748FFF707F92748274B03604FF0C06316
:102FB00043608560C5604FF4806303614FF48053C4
:102FC00043614FF4804383614FF48073C3614FF4D6
:102FD000403303624562FEF74FFF20BB194BE363AA
:102FE0009C631A481A4B03600023436040228260AE
:102FF000C3604FF4806202614FF4805242614FF42B
:10300000804282614FF48072C2614FF440320262AA
:103010004362FEF731FF48B90C4BA3639C6371E731
:10302000FDF7BAFE7CE7FDF7B7FED7E7FDF7B4FE84
:10303000F2E700BF003C00400038024000000240C0
:10304000000802404C4A002010600240EC49002079
:10305000886002402DE9F0418AB000230593069371
:103060000793089309930368414A934206D0804628
:10307000404A934223D00AB0BDE8F081002100917C
:103080003D4B5A6C42F480525A645A6C02F480529E
:103090000092009A01911A6B42F001021A631B6BB5
:1030A00003F001030193019BE023059302230693A0
:1030B0000523099305A93148FFF77CF8DBE70024D5
:1030C00002942D4B1A6C42F480421A641A6C02F47A
:1030D00080420292029A03941A6B42F004021A632D
:1030E0001A6B02F004020392039A04941A6B42F0E2
:1030F00002021A631B6B03F002030493049B042374
:10310000059302250695032608960527099705A924
:103110001B48FFF74FF84FF430430593069507948B
:103120000896099705A91748FFF744F81648174B62
:10313000036044608460C4604FF480630361446151
:103140008461C46104624462FEF796FE68B90E4B66
:10315000C8F84C30C3F83880002205212420FEF73F
:10316000F5FD2420FEF702FE85E7FDF715FEEEE7EC
:1031700000300140003800400038024000000240AA
:103180000008024000040240DC4800205860024071
:10319000002800F0E28170B582B00446036813F0A5
:1031A000010F3BD09B4B9B6803F00C03042B2CD0EE
:1031B000984B9B6803F00C03082B21D06368B3F590
:1031C000803F4FD0B3F5A02F52D0924B1A6822F413
:1031D00080321A601A6822F480221A606368002B19
:1031E00050D0FEF755FD05468A4B1B6813F4003F8F
:1031F00014D1FEF74DFD401B6428F5D90320B3E13F
:10320000844B5B6813F4800FD8D0824B1B6813F497
:10321000003F03D06368002B00F0A181236813F006
:10322000020F54D07B4B9B6813F00C0F3ED0794BB0
:103230009B6803F00C03082B33D0E368002B68D0A5
:10324000754B01221A60FEF723FD0546714B1B6882
:1032500013F0020F54D1FEF71BFD401B0228F5D9D5
:10326000032081E16B4A136843F480331360B5E7B0
:10327000684B1A6842F480221A601A6842F480325D
:103280001A60ABE7FEF704FD0546624B1B6813F4BA
:10329000003FC3D0FEF7FCFC401B6428F5D9032097
:1032A00062E15C4B5B6813F4800FC6D1594B1B681D
:1032B00013F0020F03D0E368012B40F05281554A0E
:1032C000136823F0F803216943EAC10313602368FC
:1032D00013F0080F42D063696BB34F4B0122C3F860
:1032E000802EFEF7D5FC05464A4B5B6F13F0020FAC
:1032F00034D1FEF7CDFC401B0228F5D9032033E181
:10330000444A136823F0F803216943EAC1031360B8
:10331000DDE7414B00221A60FEF7BAFC05463D4B43
:103320001B6813F0020FD2D0FEF7B2FC401B02283C
:10333000F5D9032018E1384B0022C3F8802EFEF7A0
:10334000A7FC0546334B5B6F13F0020F06D0FEF768
:103350009FFC401B0228F5D9032005E1236813F0E8
:10336000040F79D02B4B1B6C13F0805F34D10023FA
:103370000193284B1A6C42F080521A641B6C03F0C4
:1033800080530193019B01231E46244B1B6813F4B9
:10339000807F24D0A368012B35D0052B40D01D4B56
:1033A0001A6F22F001021A671A6F22F004021A67DC
:1033B000A368002B3ED0FEF76BFC0546154B1B6F38
:1033C00013F0020F47D1FEF763FC401B41F2883334
:1033D0009842F3D90320C7E000231E46D5E70F4AE1
:1033E000136843F480731360FEF752FC05460B4BE1
:1033F0001B6813F4807FCDD1FEF74AFC401B0228E6
:10340000F5D90320B0E0034A136F43F001031367BB
:10341000CEE700BF00380240000047420070004085
:10342000584B1A6F42F004021A671A6F42F00102F9
:103430001A67BDE7FEF72CFC0546524B1B6F13F0D5
:10344000020F08D0FEF724FC401B41F2883398425B
:10345000F3D9032088E0EEB9A369002B00F0838044
:10346000484A926802F00C02082A51D0022B17D069
:10347000454B00221A66FEF70BFC0446414B1B68C5
:1034800013F0007F42D0FEF703FC001B0228F5D9A1
:10349000032069E03B4A136C23F080531364DBE79D
:1034A000394B00221A66FEF7F3FB0546354B1B68C5
:1034B00013F0007F06D0FEF7EBFB401B0228F5D986
:1034C000032051E0E369226A1343626A43EA8213EC
:1034D000A26A5208013A43EA0243E26A43EA0263FB
:1034E000284A5360284B01221A66FEF7D1FB044696
:1034F000244B1B6813F0007F06D1FEF7C9FB001BAD
:103500000228F5D903202FE000202DE000202BE039
:10351000012B2BD01B4B5B6803F48001E2699142C5
:1035200026D103F03F02216A8A4223D1616A47F61D
:10353000C0721A40B2EB811F1ED103F44031A26A5F
:103540005208013AB1EB024F18D103F07063E26AFE
:10355000B3EB026F14D1002006E001207047012078
:1035600002E0012000E0184602B070BD0120FBE738
:103570000120F9E70120F7E70120F5E70120F3E753
:103580000120F1E7003802400000474208B5334B04
:103590009B6803F00C03042B5BD0082B5BD12F4BF3
:1035A0005A6802F03F025B6813F4800F2CD02B4B5B
:1035B0005868C0F388104FEA401CBCEB000C6EEB5F
:1035C0000E0E4FEA8E1343EA9C634FEA8C11B1EB67
:1035D0000C0163EB0E03DB0043EA5173C90011EBEE
:1035E000000C43F10003590200234FEA4C2041EA4A
:1035F000DC51FCF7CDFD194B5B68C3F3014301338C
:103600005B00B0FBF3F008BD144B5868C0F38810A2
:103610004FEA401CBCEB000C6EEB0E0E4FEA8E1313
:1036200043EA9C634FEA8C11B1EB0C0163EB0E0390
:10363000DB0043EA5173C90011EB000C43F10003B6
:10364000990200234FEA8C2041EA9C51FCF7A0FD2F
:10365000D1E70348D7E70348D5E700BF0038024069
:1036600000127A000024F400002800F09B8070B55E
:103670000D4604464F4B1B6803F007038B4208D2EC
:10368000CBB24C4A1370136803F007038B4240F02F
:103690008B80236813F0020F17D013F0040F04D0AF
:1036A000454A936843F4E0539360236813F0080F8E
:1036B00004D0414A936843F4604393603E4A936860
:1036C00023F0F003A1680B439360236813F0010F0C
:1036D00032D06368012B21D09A1E012A25D9364A9F
:1036E000126812F0020F61D033498A6822F0030297
:1036F00013438B60FEF7CCFA06462F4B9B6803F012
:103700000C036268B3EB820F16D0FEF7C1FA801B80
:1037100041F288339842F0D9032042E0264A1268E9
:1037200012F4003FE0D101203BE0234A126812F07E
:10373000007FD9D1012034E01E4B1B6803F0070342
:10374000AB4207D9EAB21B4B1A701B6803F00703A0
:10375000AB422DD1236813F0040F06D0164A9368AC
:1037600023F4E053E1680B439360236813F0080FE0
:1037700007D0114A936823F46043216943EAC103E7
:103780009360FFF703FF0C4B9B68C3F303130B4AD3
:10379000D35CD8400A4B18600A4B186800F064FEEE
:1037A000002070BD012070470120FAE70120F8E7F2
:1037B0000120F6E7003C024000380240FC570008B8
:1037C0001800002014000020014B1868704700BF4B
:1037D0001800002008B5FFF7F7FF044B9B68C3F300
:1037E0008223034AD35CD84008BD00BF00380240A2
:1037F000F457000808B5FFF7E7FF044B9B68C3F3D5
:103800004233034AD35CD84008BD00BF00380240B1
:10381000F45700080F2303600B4B9A6802F0030271
:1038200042609A6802F0F00282609A6802F4E05204
:10383000C2609B68DB0803F4E0530361034B1B6821
:1038400003F007030B60704700380240003C024061
:1038500030B583B00546036813F0010F02D113F0B1
:10386000040F2BD04E4B00229A66FEF711FA044645
:103870004C4B1B6813F0006F06D0FEF709FA031BD0
:10388000022BF5D903201EE06A68AB681B0743EAE8
:103890008213444AC2F88430414B01229A66FEF7F3
:1038A000F7F904463F4B1B6813F0006F06D1FEF793
:1038B000EFF9031B022BF5D9032004E02B6813F06A
:1038C000020F02D1002003B030BD00230193354B1D
:1038D0001A6C42F080521A641B6C03F080530193FF
:1038E000019B314A136843F480731360FEF7D0F9EB
:1038F00004462D4B1B6813F4807F06D1FEF7C8F9F0
:10390000001B0228F5D90320DDE7264B1B6F13F4BB
:10391000407314D0EA6802F440729A420FD0214BEF
:103920001A6F22F440721E490120C1F8400E002097
:10393000C1F8400E1A671B6F13F0010F13D1EB682B
:1039400003F44072B2F5407F1ED0164A936823F408
:10395000F813936013490B6FEA68C2F30B02134329
:103960000B670020AFE7FEF793F904460D4B1B6F82
:1039700013F0020FE3D1FEF78BF9031B41F28832FB
:103980009342F3D903209EE706498A6822F4F8128D
:1039900023F0704323F4407313438B60DAE700BFD6
:1039A000000047420038024000700040012801D06A
:1039B00000207047154B9B6813F4000302D01BB323
:1039C00013487047114B5B6813F4800F14D00F4BF2
:1039D0005A6802F03F020F4BB3FBF2F30B4AD2F8E6
:1039E0008400C0F3881003FB00F0D2F88430C3F3E6
:1039F0000273B0FBF3F07047044B5A6802F03F02C9
:103A0000054BB3FBF2F3E9E7184670470038024074
:103A10000080BB0000127A000024F4002DE9F0437E
:103A200083B004460F4616461D46FEF731F90A9B41
:103A30001B1A03EB0508FEF72BF98146284B1B6880
:103A4000C3F3CB3308FB03F3019323689B6837EA86
:103A500003030CBF01230023B3423DD0B5F1FF3F68
:103A6000F3D0FEF715F94B46C01A404503D2019B2F
:103A700073BB9846E9E72268536823F0E00353607C
:103A80006368B3F5827F0BD0A36AB3F5005F14D0EF
:103A9000012384F85130002384F8503003201CE0C7
:103AA000A368B3F5004F02D0B3F5806FECD1226864
:103AB000136823F040031360E6E72268136823F4D9
:103AC000005313602268136843F400531360DFE768
:103AD000019B013B0193B8E7002003B0BDE8F083F0
:103AE0001800002070B584B004460B460D461646FB
:103AF000009201220221FFF791FFD0B9174B1B68FA
:103B0000174AA2FB03235B0D4FF47A7202FB03F307
:103B100003936368B3F5827F11D0039B3BB1039B92
:103B2000013B039323689B6813F0800FF5D104B029
:103B300070BD636D43F0200363650320F7E70096D3
:103B40002B46002280212046FFF768FF0028EED098
:103B5000636D43F0200363650320E8E7180000204D
:103B6000819F5E1610B582B004460B464168B1F5E0
:103B7000827F14D06168B1F5827F2AD1A168B1F546
:103B8000806F19D00092002280212046FFF746FF67
:103B900030B3636D43F020036365032020E0816848
:103BA000B1F5004F02D0B1F5806FE3D12068016814
:103BB00021F040010160DDE7009200220121204652
:103BC000FFF72CFF60B1636D43F0200363650320B2
:103BD00006E00092002201212046FFF71FFF08B9EE
:103BE00002B010BD636D43F0200363650320F7E767
:103BF00000285AD010B50446436A33B94368B3F578
:103C0000827F05D00023C36102E00023036143618A
:103C10000023A36294F85130002B40D0022384F893
:103C200051302268136823F040031360636803F483
:103C30008273A26802F404421343E26802F4006251
:103C40001343226902F002021343626902F0010287
:103C50001343A26902F400721343E26902F03802CE
:103C60001343226A02F080021343A26A02F4005254
:103C7000216813430B60638B03F00403626A02F054
:103C80001002216813434B602268D36923F4006358
:103C9000D36100206065012384F8513010BD84F8A1
:103CA00050302046FFF7D6F9B8E7012070470000F2
:103CB00010B5044690F85100D4F804C001280DD086
:103CC0005FFA80FEBCF5827F40F08880A068002803
:103CD00040F08680BEF1040F40F08480002900F09F
:103CE0008380002A00F08280002B00F0818094F80D
:103CF000500001287ED0012084F8500094F8510033
:103D0000042802D0052084F851000020606521635A
:103D1000A386E386A263A387E3872064606494F8A4
:103D20005130042B1DD0E36C334A1A64E36C334AE0
:103D3000DA63E36C324ADA64E36C00221A652168C4
:103D4000E38F9BB2A26B0C31E06CFEF7FDF878B10B
:103D5000636D43F010036365002384F85030012045
:103D60003DE0E36C274A1A64E36C274ADA63E0E734
:103D70002268536843F001035360A26C1064A26C84
:103D8000D063A26CD064A26C10652268E38E9BB2F3
:103D90000C32216BA06CFEF7D7F8B0B923681A6813
:103DA00012F0400F03D11A6842F040021A6000235B
:103DB00084F850302268536843F02003536022682F
:103DC000536843F00203536009E0636D43F010034E
:103DD0006365002384F85030012000E0022010BD0C
:103DE0000220FCE70220FAE70120F8E70120F6E7CD
:103DF0000120F4E70220F2E7193F0008B33F000872
:103E0000233F00080D3F0008453F000838B590F8F3
:103E10005130012B6CD10446DDB2002969D0002A53
:103E200067D0806818B96368B3F5827F43D094F88F
:103E30005030012B5FD0012384F85030042384F8E4
:103E4000513000236365A163A287E2872364636422
:103E5000A386E386B0F5004F37D0E36C274A1A6497
:103E6000E36C274ADA63E36C264ADA64E36C0022E7
:103E70001A652168E38F9BB2A26B0C31E06CFEF7F0
:103E800063F8014660BB23681A6812F0400F03D143
:103E90001A6842F040021A60002384F85030226809
:103EA000536843F0200353602268536843F00103D2
:103EB00053600D461DE0042384F8513013460A4632
:103EC0002046FFF7F5FE054613E02268136823F04D
:103ED000400313602268136823F480431360BCE737
:103EE000636D43F010036365002384F8503000E0F5
:103EF0000225284638BD0225FBE700BF0D3F00081C
:103F0000453F0008233F00087047704708B5806BA5
:103F1000FFF7FBFF08BD704708B5806BFFF7FBFF9D
:103F200008BD08B5806B0268536823F00303536033
:103F3000436D43F010034365012380F85130FCF7D3
:103F400003FF08BD38B50546846BFDF7A1FE2B685D
:103F50001B6813F4807F1ED1024621684B6823F052
:103F600020034B60A3681BB96368B3F5827F16D04A
:103F700021684B6823F001034B6064212046FFF762
:103F8000F1FD08B1202363650023E387012384F852
:103F90005130636D4BB92046FCF79EFE38BD216859
:103FA0004B6823F003034B60E7E72046FCF7CCFEA9
:103FB000F4E738B50546846BFDF76AFE2B681B688D
:103FC00013F4807F1BD1024621684B6823F0200345
:103FD0004B6064212046FFF785FD18B1636D43F007
:103FE000200363652268536823F0030353600023B2
:103FF000E386E387012384F85130636D1BB92046C3
:10400000FFF782FF38BD2046FCF79EFEFAE700006E
:1040100010B584B00446026851689368C3F38010F9
:1040200013F0400F05D113F0010F02D011F0400F33
:104030006DD113F0020F02D011F0800F6BD1C3F3DA
:10404000401C13F0200F03D110B913F4807F65D00A
:1040500011F0200F62D070B194F8510003285FD0A6
:10406000606D40F00400606500200090D068009012
:10407000906800900098BCF1000F0CD0606D40F08B
:10408000010060650020029090680290106820F0A6
:1040900040001060029A13F4807F09D0636D43F0F2
:1040A000080363650023039323689B680393039BC2
:1040B000636D002B32D02268536823F0E003536015
:1040C000012384F8513011F0020F02D111F0010FD9
:1040D0002ED02268536823F003035360E36C4BB186
:1040E000154A1A65E06CFDF764FF18B1636D43F083
:1040F00040036365A36C8BB10F4A1A65A06CFDF792
:1041000058FF58B1636D43F04003636506E0236CCC
:104110002046984702E0636C2046984704B010BDE3
:1041200000230193D368019393680193019BF5E702
:104130002046FCF709FEF1E73D41000808B5806B19
:104140000023C387C386FCF7FFFD08BD704700004E
:1041500090F83D30012B37D1022380F83D300268C2
:10416000D36843F00103D3600368194A934220D017
:10417000B3F1804F1DD0A2F57C42934219D002F5D5
:104180008062934215D002F58062934211D002F50D
:10419000784293420DD002F57052934209D0A2F5B5
:1041A0009432934205D01A6842F001021A6000204E
:1041B00070479A6802F00702062A07D01A6842F090
:1041C00001021A60002070470120704700207047EC
:1041D00000000140704770477047704770B5044653
:1041E0000368DE681D6915F0020F10D016F0020F8B
:1041F0000DD06FF002021A610123037703689B69F7
:1042000013F0030F5ED0FFF7E6FF0023237715F0CE
:10421000040F12D016F0040F0FD023686FF00402C1
:104220001A610223237723689B6913F4407F4FD0E0
:104230002046FFF7D0FF0023237715F0080F12D098
:1042400016F0080F0FD023686FF008021A610423DC
:1042500023772368DB6913F0030F40D02046FFF774
:10426000BAFF0023237715F0100F12D016F0100FAD
:104270000FD023686FF010021A6108232377236898
:10428000DB6913F4407F31D02046FFF7A4FF002301
:10429000237715F0010F02D016F0010F2DD115F084
:1042A000800F02D016F0800F2FD115F0400F02D0F2
:1042B00016F0400F31D115F0200F02D016F0200F6C
:1042C00033D170BDFFF786FF2046FFF785FF9CE7DF
:1042D0002046FFF77FFF2046FFF77EFFABE7204633
:1042E000FFF778FF2046FFF777FFBAE72046FFF792
:1042F00071FF2046FFF770FFC9E723686FF00102E6
:104300001A612046FCF73CFDC9E723686FF0800284
:104310001A61204600F0A7F8C7E723686FF0400253
:104320001A612046FFF759FFC5E723686FF02002A6
:104330001A61204600F096F8C3E700000368324A8D
:10434000904212D0B0F1804F0FD0A2F57C42904243
:104350000BD002F58062904207D002F58062904255
:1043600003D002F57842904203D123F070034A68EB
:104370001343254A90422AD0B0F1804F27D0A2F5AE
:104380007C42904223D002F5806290421FD002F519
:10439000806290421BD002F57842904217D002F51D
:1043A0007052904213D002F5806290420FD002F515
:1043B000806290420BD0A2F59832904207D002F56D
:1043C0008062904203D002F58062904203D123F4D0
:1043D0004073CA68134323F080034A6913438A6811
:1043E000C2620A688262084A904203D002F5806283
:1043F000904201D10A690263026842F0040202603D
:1044000001224261036070470000014040B310B5D3
:10441000044690F83D30F3B1022384F83D30214644
:1044200051F8040BFFF78AFF012384F8463084F823
:104430003E3084F83F3084F8403084F8413084F8CE
:10444000423084F8433084F8443084F8453084F8AE
:104450003D30002010BD80F83C30FFF777FEDBE7F1
:10446000012070477047704730B589B00546002479
:1044700001941E4B5A6C42F001025A645B6C03F0CB
:1044800001030193019B02A903A8FFF7C3F9FFF7FA
:10449000B1F94300164AA2FB03239B0C013B1548CC
:1044A000154A026040F2E732C260436004618460F2
:1044B0008461FFF7ABFF044610B1204609B030BD60
:1044C0000C48FFF745FE04460028F6D11920FDF7F9
:1044D0004DFC0F2D01D90124EFE7002229461920B8
:1044E000FDF734FC054B1D60E7E700BF00380240D4
:1044F00083DE1B43544B00200000014014000020C9
:10450000FEE7FEE7FEE7FEE7FEE7704708B5024874
:10451000FDF762FD08BD00BF4C4A002008B5024807
:10452000FDF75AFD08BD00BFDC48002008B5024871
:10453000FDF752FD08BD00BFEC49002008B5024858
:10454000FFF74CFE08BD00BF544B002008B50248E1
:10455000FFF75EFD08BD00BF3C490020034AD2F8CA
:10456000883043F47003C2F88830704700ED00E0F3
:10457000084B1B681B6823B9074B4FF0FF321A60CA
:104580007047044B1B68DB68DB685A68024B1A6093
:10459000704700BF0C4C0020A44B00202DE9F843CD
:1045A00080469946089D0A9C236B02F18042013A9D
:1045B00003EB820323F007031F4699B308464FF02D
:1045C000000CBCF10F0F09D810F80C2004EB0C0301
:1045D00083F8342012B10CF1010CF2E7002384F8C7
:1045E0004330062D00D90625E56265640026A664E1
:1045F000201DFCF728FA04F11800FCF724FA2461C6
:10460000C5F10705A5616462E66484F850604A4616
:1046100041463846FCF73CFD2060099B03B11C6015
:10462000BDE8F883002384F83430DAE738B5002495
:1046300007E004EB84000F4B03EB8000FCF7F8F974
:104640000134062CF5D90C4D2846FCF7F1F90B4C3A
:104650002046FCF7EDF90A48FCF7EAF90948FCF7AF
:10466000E7F90948FCF7E4F9084B1D60084B1C60AA
:1046700038BD00BF384C0020244C0020104C0020D6
:10468000F44B0020E04B0020C84B00200C4C0020D5
:10469000084C002010B50446FCF724FD214A13689D
:1046A00001331360204B1B685BB1204B1B686BB957
:1046B0001D4B1B68DA6AE36A9A4207D81A4B1C60E2
:1046C00004E0194B1C601368012B28D0184A1368AA
:1046D00001331360E06A01238340164A11680B43DB
:1046E000136000EB8000211D134B03EB8000FCF7EF
:1046F000ADF9FCF719FD0D4B1B687BB10A4B1B682C
:10470000DA6AE36A9A4209D24FF0E0234FF080520E
:10471000C3F8042DBFF34F8FBFF36F8F10BDFFF7AA
:1047200085FFD3E7C44B0020C44C0020B84B0020C9
:10473000A84B0020BC4B0020384C002010B504468C
:1047400090F8513063B1012B11D0022B0ED04FF0F5
:10475000500383F31188BFF36F8FBFF34F8FFEE7D2
:10476000006BFCF725F92046FCF722F910BDFCF799
:104770001FF9FBE70F4B1B68D3B110B5FCF7B2FC78
:104780000D4BDB68DC68201DFCF787F90B4A1368CA
:10479000013B1360074A1368013B1360FCF7C4FC3C
:1047A0002046FFF7CBFF034B1B68002BE6D110BD63
:1047B000704700BFDC4B0020E04B0020C44B0020C2
:1047C00008B5FFF7D7FF074B1B68012BF9D94FF04E
:1047D000E0234FF08052C3F8042DBFF34F8FBFF397
:1047E0006F8FEEE7384C002070B504460E461D4B27
:1047F0001D681D4B18680430FCF74FF948B91A4B77
:104800001B68DB6A01229A4018490B6823EA0203FD
:104810000B60B4F1FF3F0DD02C44134B1B685C6060
:10482000A54210D9124B18680F4B19680431FCF7D8
:1048300018F970BD002EEFD00B4B196804310D48EC
:10484000FCF704F9F5E70C4B1868074B19680431BD
:10485000FCF707F9094B1B68A342EAD9074B1C6018
:10486000E7E700BFC04B0020C44C0020BC4B002039
:10487000084C0020C84B00200C4C0020A44B00200A
:1048800010B586B08C46099979B10A99B1B1542115
:104890000491049954291AD04FF0500383F31188DE
:1048A000BFF36F8FBFF34F8FFEE74FF0500383F3DB
:1048B0001188BFF36F8FBFF34F8FFEE74FF05003A8
:1048C00083F31188BFF36F8FBFF34F8FFEE7DDF8DF
:1048D00010E00A99099C0C6302210A9C84F851108B
:1048E00000210391029405A9019108990091614664
:1048F000FFF754FE0A98FFF7CDFE059806B010BDED
:104900002DE9F04385B08146884614461F46900045
:10491000FBF7CCFF00B306465420FBF7C7FF054664
:10492000A0B12E63002380F85130039302900D9BB9
:1049300001930C9B00933B46224641464846FFF7B5
:104940002DFE2846FFF7A6FE012007E03046FCF7C3
:104950002FF84FF0FF3001E04FF0FF3005B0BDE819
:10496000F083000010B588B000240594069407AACF
:1049700006A905A8FBF72EFF059B0293069B019352
:1049800000942346079A0E490E48FFF779FF0E4B15
:10499000186090B14FF0500383F31188BFF36F8F0D
:1049A000BFF34F8F094B4FF0FF321A60084B0122C3
:1049B0001A60084B1C60FCF72FFC08B010BD00BF4C
:1049C000E4570008C1470008A04B0020A44B00207A
:1049D000B84B0020C04B0020024A1368013313601B
:1049E000704700BF9C4B0020F8B53D4B1B68002B67
:1049F0006ED13C4B1D6801351D60C5B93A4B1B6833
:104A00001B6843B14FF0500383F31188BFF36F8FDE
:104A1000BFF34F8FFEE7344A1168344B18681060BB
:104A20001960334A136801331360FFF7A1FD314B5E
:104A30001B68AB4241D900231F462F4B1B68DB6A22
:104A400003EB83039B002D4AD358012B01D901238B
:104A50001F462B4B1B68002B40D001231F463DE017
:104A600001231F46204B1B681B684BB31E4B1B6862
:104A7000DB68DC6863689D4227D3261D3046FCF75F
:104A80000CF8A36A1BB104F11800FCF706F8E06A01
:104A9000012383401B4A11680B43136000EB800025
:104AA0003146164B03EB8000FBF7D0FFE26A124B56
:104AB0001B68DB6A9A42D3D2D4E700231F46D1E7B2
:104AC0000C4B4FF0FF321A60B7E70A4A1360B4E7A5
:104AD0000D4A13680133136000231F463846F8BDA2
:104AE0009C4B0020C04B00200C4C0020084C0020A8
:104AF000AC4B0020A44B0020C44C0020384C0020BC
:104B0000B04B0020BC4B0020B44B002038B5354BD7
:104B10001B6843B94FF0500383F31188BFF36F8FC5
:104B2000BFF34F8FFEE7FCF7DDFA2E4B1A68013A10
:104B30001A601B68002B4FD12B4B1B680BB91C460E
:104B40004BE00024294B1B681BB3284BDB68DC6857
:104B500004F11800FBF7A1FF251D2846FBF79DFF78
:104B6000E06A01238340224A11680B43136000EB83
:104B7000800029461F4B03EB8000FBF767FFE26ACA
:104B80001D4B1B68DB6A9A42DCD31C4B01221A6066
:104B9000D8E70CB1FFF7ECFC194B1C6884B9174B34
:104BA0001C68D4B14FF0E0234FF08052C3F8042DBD
:104BB000BFF34F8FBFF36F8F01240EE0013C07D08E
:104BC000FFF712FF0028F9D00C4B01221A60F5E71D
:104BD0000B4B00221A60E2E70024FCF7A5FA2046FE
:104BE00038BD00BF9C4B0020C44B0020F44B00207C
:104BF000BC4B0020384C0020C44C0020B04B00209F
:104C0000B44B002010B5A8B10446104B1B6843B14B
:104C10004FF0500383F31188BFF36F8FBFF34F8FB3
:104C2000FEE7FFF7D9FE00212046FFF7DDFDFFF785
:104C30006DFF48B94FF0E0234FF08052C3F8042DC8
:104C4000BFF34F8FBFF36F8F10BD00BF9C4B002091
:104C5000204B1B681BB1204B01221A6070471E4B72
:104C600000221A601D4B1B68B3FA83F3DBB2C3F159
:104C70001F0303EB8302920019498A5842B94FF08F
:104C8000500383F31188BFF36F8FBFF34F8FFEE79D
:104C9000134803EB830200EB8202516849685160BC
:104CA00003EB8302920008320244914209D003EBE5
:104CB00083030B4A02EB83035B68DA68094B1A60D3
:104CC0007047486803EB8301054A02EB810250609C
:104CD000EDE700BF9C4B0020B04B0020BC4B0020F8
:104CE000384C0020C44C002058B110B50C46094A7D
:104CF00011681831FBF7B5FE01212046FFF774FD5E
:104D000010BD4FF0500383F31188BFF36F8FBFF3D3
:104D10004F8FFEE7C44C002038B5C368DC6834B35D
:104D200004F118031D461846FBF7B7FE184B1B6825
:104D300033BB231D1D461846FBF7AFFEE06A012377
:104D40008340144A11680B43136000EB800029462E
:104D5000114B03EB8000FBF779FEE26A0F4B1B68F7
:104D6000DB6A9A4211D901200D4B186038BD4FF013
:104D7000500383F31188BFF36F8FBFF34F8FFEE7AC
:104D800029460848FBF762FEE7E70020EEE700BF90
:104D90009C4B0020BC4B0020384C0020C44C002011
:104DA000B04B0020F44B0020034B1B680360034B07
:104DB0001B684360704700BFAC4B0020C04B002015
:104DC000E0B170B50C46064609B3FCF78BF91C4BF5
:104DD00019687368C81A2268B2F1FF3F28D0356895
:104DE000DFF860C0DCF800C0654501D08B4224D9F3
:104DF000824215D80023236001241AE04FF05003AB
:104E000083F31188BFF36F8FBFF34F8FFEE74FF02F
:104E1000500383F31188BFF36F8FBFF34F8FFEE70B
:104E20005B1A134423603046FFF7BEFF002400E006
:104E30000024FCF779F9204670BD0124F9E700BF92
:104E4000C04B0020AC4B0020014B01221A60704780
:104E5000B04B0020014B1868704700BFC44C0020C5
:104E6000054B1B6833B1054B1B680BB10020704725
:104E70000220704701207047B84B00209C4B002057
:104E800000284BD038B50446C36A254A1268D26A56
:104E9000934239D28269002A05DB214A1268D26A1C
:104EA000C2F107028261616903EB83031D4A02EBD1
:104EB0008303994205D01A4B1B68DB6AE362012029
:104EC00038BD231D1D461846FBF7E7FD38B9E36AD8
:104ED00001229A4014490B6823EA02030B60104B2D
:104EE0001B68D86AE062012404FA00F30E4A1168D4
:104EF0000B43136000EB800029460A4B03EB800054
:104F0000FBF7A4FD2046DBE7426C054B1B68DB6A20
:104F10009A4201D30020D3E70120D1E7704700BFB8
:104F2000C44C0020384C0020BC4B002000284ED040
:104F300038B50446264B1B68834208D04FF0500317
:104F400083F31188BFF36F8FBFF34F8FFEE7836C3E
:104F500043B94FF0500383F31188BFF36F8FBFF352
:104F60004F8FFEE7013B8364C16A426C91422CD0B3
:104F70000BB1002038BD031D1D461846FBF78DFD03
:104F800068B9E36A03EB8302920012498A5832B986
:104F900001229A4010490B6823EA02030B60606CFF
:104FA000E062C0F10703A361012404FA00F30A4A96
:104FB00011680B43136000EB80002946054B03EB9F
:104FC0008000FBF743FD2046D4E70020D2E770477E
:104FD000C44C0020384C0020BC4B0020002850D08E
:104FE00038B50446836C43B94FF0500383F31188FE
:104FF000BFF36F8FBFF34F8FFEE7426C8A4200D240
:105000000A46E16A914201D0012B00D038BD1D4B08
:105010001B68A3422CD0E262A369002B02DBC2F121
:105020000702A261626901EB8101174B03EB810367
:105030009A42EBD1231D1D461846FBF72EFD38B9C9
:10504000E36A01229A4011490B6823EA02030B60CC
:10505000E06A012383400D4A11680B43136000EBA3
:1050600080002946084B03EB8000FBF7EFFCCDE7FF
:105070004FF0500383F31188BFF36F8FBFF34F8F4F
:10508000FEE77047C44C0020384C0020BC4B002089
:10509000054B1B6823B1044B1A68936C013393646E
:1050A000014B1868704700BFC44C0020F8B5054696
:1050B0000F4616461C46FCF715F8214B1B6893F863
:1050C0005030022B0AD01E4A1168CB6C23EA05032C
:1050D000CB641368012283F85020CCB9FCF724F884
:1050E000FCF700F81EB1164B1B68DB6C3360144BE9
:1050F0001B6893F85030022B19D000231C46104B2C
:105100001B68002283F85020FCF70EF82046F8BDFB
:1051100011462046FFF768FB4FF0E0234FF0805226
:10512000C3F8042DBFF34F8FBFF36F8FD6E7044B47
:105130001A68D36C23EA0703D36401231C46DEE715
:10514000C44C0020F8B5F0B10F4614461E46054683
:10515000FBF7C8FF0EB1EB6C336095F85030DBB253
:10516000022285F8502094421ED015D824B1012C7B
:1051700020D1EA6C3A43EA64012B28D00124FBF7E2
:10518000D3FF2046F8BD4FF0500383F31188BFF3DF
:105190006F8FBFF34F8FFEE7032C09D0042C09D18A
:1051A000022B44D0EF64E7E7EA6C0132EA64E3E7FC
:1051B000EF64E1E7EA6CB2F1FF3FDDD04FF050035E
:1051C00083F31188BFF36F8FBFF34F8FFEE72C1D62
:1051D0002046FBF762FCE86A01238340164A116807
:1051E0000B43136000EB80002146144B03EB80005F
:1051F000FBF72CFCAB6A43B14FF0500383F31188EB
:10520000BFF36F8FBFF34F8FFEE7EA6A0C4B1B684B
:10521000DB6A9A420DD94FF0E0234FF08052C3F879
:10522000042DBFF34F8FBFF36F8F0124A7E7002436
:10523000A5E70124A3E700BFBC4B0020384C0020A9
:10524000C44C002058B32DE9F0410F4614461E46C9
:105250000546FCF76FF8EFF311834FF0500282F32D
:105260001188BFF36F8FBFF34F8F98460EB1EB6C71
:10527000336095F85030DBB2022285F8502094421A
:105280001ED015D824B1012C20D1EA6C3A43EA642F
:10529000012B28D0012088F31188BDE8F0814FF060
:1052A000500383F31188BFF36F8FBFF34F8FFEE777
:1052B000032C09D0042C09D1022B4AD0EF64E7E774
:1052C000EA6C0132EA64E3E7EF64E1E7EA6CB2F129
:1052D000FF3FDDD04FF0500383F31188BFF36F8F92
:1052E000BFF34F8FFEE7AB6A43B14FF0500383F338
:1052F0001188BFF36F8FBFF34F8FFEE7174B1B680B
:105300000BBB2C1D2046FBF7C8FBE86A012383403A
:10531000134A11680B43136000EB80002146114BC8
:1053200003EB8000FBF792FBEA6A0F4B1B68DB6A1A
:105330009A4210D9069B13B10123069A13600120EB
:105340000A4B1860A7E705F118010948FBF77EFB37
:10535000EAE700209FE701209DE700BF9C4B00206B
:10536000BC4B0020384C0020C44C0020B04B002027
:10537000F44B0020DFF834D0FFF7F0F80C480D496B
:105380000D4A002302E0D458C4500433C4188C42A0
:10539000F9D30A4A0A4C002301E013600432A24206
:1053A000FBD300F019F8FBF7C1FD704700000220A5
:1053B000000000201C0000201C5800081C000020D9
:1053C000C84C0020FEE702440346934200D17047D8
:1053D00003F8011BF9E7000070B50D4B0D4C0026DA
:1053E0001D1BB6EBA50F09D100F0B8F90A4C0B4B09
:1053F00000261D1BB6EBA50F05D170BD54F8043B6C
:1054000098470136EDE754F8043B98470136F1E739
:1054100014580008145800081458000818580008B8
:105420000A44914200F1FF3300D1704710B511F8E2
:10543000014B03F8014F9142F9D110BD2DE9F0471E
:1054400082B00646DDF828E00846B4460D46002B3B
:105450004ED18A4214466DD9B2FA82F242B1C2F1FB
:105460002003954026FA03F394401D4306FA02FCFC
:10547000260CA7B2B5FBF6F14FEA1C4306FB11550B
:1054800043EA054301FB07F0984209D9E31801F10B
:10549000FF3580F00381984240F2008102392344B5
:1054A0001B1A1FFA8CFCB3FBF6F006FB10334CEA18
:1054B000034C00FB07F363450AD914EB0C0C00F115
:1054C000FF3580F0ED80634540F2EA80A444023865
:1054D00040EA0140ACEB030C0021BEF1000F04D008
:1054E0002CFA02F30022CEE9003202B0BDE8F087C8
:1054F0008B4209D9BEF1000F01D0CEE90061002135
:10550000084602B0BDE8F087B3FA83F117460029D8
:105510004DD1834202D3B24200F20F81B6EB070CA9
:1055200060EB030301201D46BEF1000FDDD0CEE984
:1055300000C5DAE7002A00F098801A46B4FA84F32E
:10554000002B40F0AF800B1B270CA6B20121B3FB50
:10555000F7F54FEA1C4007FB153340EA034306FB0F
:1055600005F8984507D9E31805F1FF3002D29845B0
:1055700000F2E8800546A3EB08031FFA8CFCB3FB9E
:10558000F7F007FB10334CEA034C06FB00F36345CE
:1055900008D914EB0C0C00F1FF3602D2634500F27F
:1055A000CE803046ACEB030C40EA054095E7C1F1F4
:1055B00020058B4022FA05FC4CEA030C00FA01F4AA
:1055C00026FA05F3E84002FA01F943EA04084FEA33
:1055D0001C4206FA01FAB0FBF2F71FFA8CF602FB46
:1055E00017004FEA184444EA004407FB06F0A042C3
:1055F0000AD91CEB040407F1FF3380F09C80A04221
:1056000040F29980023F6444241A1FFA88F3B4FBE5
:10561000F2F002FB104443EA044300FB06F69E420C
:1056200009D91CEB030300F1FF3480F082809E4215
:105630007FD90238634440EA0740A0FB09749B1BF2
:10564000A3423E46A04664D361D0BEF1000F0AD00B
:10565000BAEB060263EB080303FA05F5CA401543EB
:10566000CB40CEE9005300213FE7730843EAC17302
:105670004A08190C41EA02414FEAC67C9BB2B2FBD0
:10568000F4F02646A04627461F2243EA0143B1FB19
:10569000F4F1A3EB080341EA004158E72946FFE68D
:1056A000284615E71A46C3F120019C4026FA01F36B
:1056B00020FA01F190400343270C06FA02FCB1FBEB
:1056C000F7F0A6B207FB1015190C41EA054100FBE3
:1056D00006F58D423BD9611801D28D4220D8491B75
:1056E0000138B1FBF7F5019505FB06F8019D9BB26A
:1056F00007FB151143EA0143434526D2E31805F1A0
:10570000FF31C6D24345C4D2A91E2344C1E7BA45DE
:105710009BD2B7EB090664EB0C040138A04694E772
:10572000651B29440238B1FBF7F5019505FB06F826
:10573000DCE720467FE71F4666E70846F4E6A44418
:1057400002382FE7023D234415E70199A1E7491BE1
:10575000B1FBF7F5019505FB06F8C7E7F8B500BF03
:10576000F8BC08BC9E467047F8B500BFF8BC08BC42
:045770009E4670479A
:10577400D8570008BD0C000800000000000000001D
:10578400800000000000000000000000D057000866
:1057940019070008030000000000000000020000D8
:1057A4000000000000000000C8570008491B000862
:1057B40001000000000000000002000000000000E2
:1057C400000000007370695461736B00647370545B
:1057D40061736B0064656661756C745461736B000E
:1057E40049444C450000000000061016000610163F
:1057F400000000000102030400000000000000009B
:08580400010203040607080974
:08580C0030FCFF7F01000000E9
:04581400ED0100089A
:04581800C5010008BE
:10581C00CDCC4C3F0000803F00010100AAAAAAAAEF
:0C582C0001000000100000000024F40047
:040000050800537527
:00000001FF
