:020000040800F2
:1000000000000220055A0008C9470008CB47000835
:10001000CD470008CF470008D14700080000000086
:10002000000000000000000000000000A10D00081A
:10003000D347000800000000410E0008A50E00088C
:10004000555A0008555A0008555A0008555A0008D4
:10005000555A0008555A0008555A0008555A0008C4
:10006000555A0008555A0008555A0008555A0008B4
:10007000555A0008555A0008555A0008555A0008A4
:10008000555A0008555A0008555A0008555A000894
:10009000555A0008555A0008555A0008555A000884
:1000A000555A0008D5470008555A0008555A000807
:1000B000555A0008555A0008555A0008555A000864
:1000C000555A0008555A0008555A0008555A000854
:1000D000555A0008555A0008555A0008555A000844
:1000E000555A0008555A0008555A0008555A000834
:1000F000555A0008555A0008555A0008555A000824
:10010000555A0008555A0008555A0008555A000813
:10011000555A0008555A0008555A0008555A000803
:10012000555A0008555A0008555A0008555A0008F3
:10013000555A0008555A0008555A0008555A0008E3
:10014000555A0008555A0008555A0008E547000856
:10015000555A0008555A0008555A0008555A0008C3
:10016000555A0008555A0008555A0008555A0008B3
:10017000555A0008555A0008555A0008000000005A
:08018000555A0008555A000809
:1001900053B94AB9002908BF00281CBF4FF0FF31EE
:1001A0004FF0FF3000F00CB8ADF1080C6DE904CE53
:1001B00005F08CFCDDF804E0DDE9022304B07047B3
:1001C000704700BF08B5064B1A783AB9054A1AB10C
:1001D0000548AFF30080024B01221A7008BD00BF32
:1001E0001C00002000000000EC5D000808B5034B77
:1001F0001BB103490348AFF3008008BD00000000B5
:1002000020000020EC5D0008842801D003307047F6
:1002100000207047EFF30580003818BF01207047B9
:1002200008B505F051F8002008BD2DE9F04188B06F
:100230000F464469C4B188468569ADB14668076810
:1002400002690592B0F90800FFF7DEFF02950194FC
:1002500000904346059A3946304604F0C3FF0790A4
:10026000079808B0BDE8F081446805680669B0F9F0
:100270000800FFF7C9FF07AB019300903B46B2B2FD
:100280002946204604F0EEFF0128E9D00020E8E7E7
:1002900008B500B9012005F067F9002008BD08B5D0
:1002A000416819B1012001F027F908BD012001F0D2
:1002B00018F9FAE730B583B00023019310B30D4667
:1002C0000446FFF7A7FFA0B101AA0021204601F0D4
:1002D00052FA012818D1019BC3B14FF0E0234FF02F
:1002E0008052C3F8042DBFF34F8FBFF36F8F0020F0
:1002F00006E02946204601F068F9012808D10020CF
:1003000003B030BD8020FBE7FF20F9E71846F7E790
:10031000FF20F5E710B582B0044600230193FFF7F4
:1003200079FF98B101A9204601F0F5F801281AD10A
:10033000019BD3B14FF0E0234FF08052C3F8042D5E
:10034000BFF34F8FBFF36F8F002008E003460246D4
:100350000146204600F0F5FF012802D0FF2002B040
:1003600010BD0020FBE7FF20F9E71846F7E7002360
:100370000EE030F9132007EE902AF8EEE77A67EEE8
:10038000807AFDEEE77A17EE902A20F813200133E9
:100390001F2BEEDD70470000B7EE006A36EE406AB4
:1003A00000232FE030F9132007EE102AB8EEC77AA9
:1003B0005A1C30F9121007EE901AF8EEE77A20EE88
:1003C000077A1249D1ED006A66EE266A37EE267A80
:1003D00081ED007A60EE277A0D49D1ED006A66EE74
:1003E000266A77EEA67AC1ED007ABDEEC77A17EEDF
:1003F000101A20F81310FDEEE77A17EE901A20F885
:10040000121002331F2BCDDD704700BF3C000020CF
:10041000380000202DE9F0410C4601B901244FF0CD
:10042000000E54E02C4E338803F50072121B51422B
:10043000C2F30802C1F3080158BF4A4230F91EC096
:100440000EF1010530F9151092B2DFF89C8038F9F1
:10045000127006EE907A214F37F9122007EE102A1B
:1004600028F813C027F8131001335A42C3F30803C6
:10047000C2F3080258BF5342338007EE90CAF8EE29
:10048000E77ADFED175A67EEA57AF8EEE66A9FED98
:10049000156A66EE866A77EEA67AFDEEE77A17EEC3
:1004A000903A20F81E3007EE901AF8EEE77A67EEE1
:1004B000A57AB8EEC77A27EE067A77EE877AFDEE50
:1004C000E77A17EE903A20F815300EF1020EBEF1E1
:1004D0001F0FA7DDBDE8F081400000204400002090
:1004E0003333333F9A99993E4404002000B587B0D6
:1004F00040220021244805F0AEFA05E014F0020F76
:1005000035D114F0040F38D1204D1F4C4FF0FF3679
:10051000009620232A4621461D4801F065FEA44688
:100520002C460FCCACE80F000FCCACE80F000FCC82
:10053000ACE80F0094E80F008CE80F00154C314632
:100540002068FFF7B7FE144B93E8070006AB03E9FA
:1005500007002068FFF7DEFE9DF8164014F0010F3B
:10056000CCD09DED030A0848FFF701FFC6E79DEDDB
:10057000040A0548FFF710FFC3E7BDF8141002484E
:10058000FFF748FFC0E700BF4408002084080020B0
:10059000DC4C0020C408002000000020034B036056
:1005A000034B0B6080231360704700BFC80A002014
:1005B000C8080020124A12F0070F1ED0D11D21F0EA
:1005C0000701C1F5705313440A460E48026000212A
:1005D00041601344083B23F007030B480360596054
:1005E0001960991A51601360084B1960084B196023
:1005F000084B4FF000421A6070474FF47053E4E725
:100600003C0B0020340B0020300B0020280B002076
:100610002C0B00201C0B0020144B1A461B68834235
:10062000FBD3516802EB010C844509D0416800EB13
:10063000010C634509D00360904200D01060704700
:100640004068014451601046F0E7DFF824C0DCF850
:1006500000C0634506D05B681944416013681B689D
:100660000360E9E7C0F800C0E6E700BF340B0020F4
:10067000300B002038B5044604F060FE384B1B6890
:10068000B3B1384B1B681C4250D1002C50D004F140
:10069000080214F0070F02D022F007020832002AE5
:1006A00055D0314B1B68934253D330490C6804E05A
:1006B000FFF780FFE5E721461C466368934202D2BC
:1006C0002368002BF7D1264B1B68A34243D00D684B
:1006D000083523680B6063689B1A102B10D9A0188B
:1006E00010F0070F08D04FF0500383F31188BFF3C9
:1006F0006F8FBFF34F8FFEE743606260FFF78CFFA1
:10070000626819490B689B1A0B60194909688B428A
:1007100001D217490B60134B1B681343636000231E
:100720002360144A13680133136002E0002500E0DF
:10073000254604F09DFE15F0070F0ED04FF0500334
:1007400083F31188BFF36F8FBFF34F8FFEE715461A
:10075000EFE70025EDE70025EBE7284638BD00BFB1
:10076000300B00201C0B00202C0B0020340B002031
:10077000280B0020240B0020002835D038B5044673
:10078000A0F108031D4650F8043C184A12681342B1
:1007900008D14FF0500383F31188BFF36F8FBFF37D
:1007A0004F8FFEE750F8081C41B14FF0500383F320
:1007B0001188BFF36F8FBFF34F8FFEE723EA020369
:1007C00040F8043C04F0BAFD54F8041C084A1368CD
:1007D0000B4413602846FFF71FFF064A13680133D6
:1007E000136004F045FE38BD704700BF1C0B0020AD
:1007F0002C0B0020200B002000F1080343604FF079
:10080000FF328260C36003610023036070470023EE
:100810000361704743684B609A688A6051609960D1
:100820000861036801330360704710B4024608464C
:10083000D1F800C0BCF1FF3F11D002F10803194606
:100840005B681C686445FAD94B68436098608160B6
:100850004860026113680133136010BC704711696E
:10086000F2E70369416882688A60416851605A68AA
:10087000824206D0002202611A68013A1A601868A2
:10088000704782685A60F5E72DE9F04F8DB007ADEB
:1008900000240794089409940A940B940194594BEA
:1008A0001A6B42F010021A631A6B02F010020192E6
:1008B000019A02941A6B42F004021A631A6B02F056
:1008C00004020292029A03941A6B42F080021A63A5
:1008D0001A6B02F080020392039A04941A6B42F09E
:1008E00001021A631A6B02F001020492049A059441
:1008F0001A6B42F002021A631A6B02F002020592AE
:10090000059A06941A6B42F008021A631B6B03F0F7
:1009100008030693069B3C4F22460821384601F007
:1009200099F9DFF8F0A001221146504601F092F942
:10093000DFF8E49022464FF21001484601F08AF9B0
:100940004FF00808CDF81C800126089609940A94F7
:100950002946384601F07AF80796089609940A94D1
:100960002946504601F072F8CDF81C804FF002087D
:10097000CDF8208009940A944FF0050BCDF82CB0E7
:100980002946504601F062F807964FF4901ACDF8C8
:1009900020A0099429461D4801F058F80423079324
:1009A0000894099429461A4801F050F84FF48063DE
:1009B0000793CDF8208009940A94CDF82CB02946ED
:1009C000134801F043F84FF2100307930896099477
:1009D0000A942946484601F039F8202307930894E1
:1009E00009942946484601F031F8CDF81C80CDF82D
:1009F00020A009942946384601F028F80DB0BDE83A
:100A0000F08F00BF0038024000100240000002409A
:100A10000004024000080240000C024008B54FF4F8
:100A20008051044801F01CF94FF4FA70FFF730FCD4
:100A3000F5E700BF000C024008B50268034B9A427C
:100A400000D008BD00F070FFFBE700BF00000140D0
:100A500072B6FEE708B50A480A4B03600A4B4360CA
:100A600000238360C3604FF480420261436183616D
:100A7000C361036201F0FEF800B908BDFFF7E8FFAB
:100A8000244D002000540040A086010008B50C4809
:100A90000C4B03604FF4007242600023836003211B
:100AA000C16002614FF4FA4242618361C361012374
:100AB000036201F0CBF900B908BDFFF7C9FF00BF21
:100AC000DC4C0020003C004008B50D480D4B036095
:100AD0004FF48273436000238360C360036143610A
:100AE0004FF400728261C3610362436283620A232E
:100AF000C36203F03DFA00B908BDFFF7A9FF00BFCC
:100B0000844C00200030014008B50B480B4B0360BB
:100B1000002343608360C360036143614FF400724C
:100B200082610362436283620A23C36203F020FA94
:100B300000B908BDFFF78CFF2C4C002000380040A6
:100B400008B50B484FF0A043036004230371022251
:100B5000C2710023837142728372C3720373837301
:100B6000C37302F085F800B908BDFFF771FF00BF3D
:100B70004847002010B594B008AC30220021204630
:100B800004F069FF002303930493059306930793EE
:100B90000193204A116C41F080511164126C02F0F3
:100BA00080520192019A02931B4B1A6842F48042D0
:100BB0001A601B6803F480430293029B012308938D
:100BC0004FF48033099302230E934FF480020F9267
:100BD000082210924FF4A8721192129307231393D4
:100BE000204602F095FC88B90F2303930223049357
:100BF00005904FF4A05306934FF4805307930521BB
:100C000003A802F0F1FE18B914B010BDFFF720FFE1
:100C1000FFF71EFF003802400070004000B59DB095
:100C200000F068FE17A9002517954D608D60CD6016
:100C30000D614FF48053179301231893274800F058
:100C400005FFFFF797FFFFF71FFEFFF703FFFFF713
:100C50001DFFFFF739FFFFF757FFFFF771FF1595EE
:100C6000169515A8FFF71BFB1D4B18601D4C0DF1C9
:100C7000380CA646BEE80F00ACE80F009EE807005F
:100C80008CE8070029460EA8FFF7CFFA164B18602C
:100C90000DF11C0C04F11C0EBEE80F00ACE80F00B7
:100CA0009EE807008CE80700294607A8FFF7BDFA71
:100CB0000E4B1860EE4604F1380CBCE80F00AEE8AD
:100CC0000F009CE807008EE8070029466846FFF7FA
:100CD000ACFA074B1860FFF7A3FAFEE7000C0240DE
:100CE000C4080020045E000844470020404700205C
:100CF0003C47002082B0002301930D4B1B68B3F1E9
:100D0000FF3F08D04FF0500383F31188BFF36F8F7C
:100D1000BFF34F8FFEE74FF0500383F31188BFF30B
:100D20006F8FBFF34F8F019B002BFCD002B0704739
:100D30000C00002008480068006880F308884FF025
:100D4000000080F3148862B661B6BFF34F8FBFF323
:100D50006F8F00DF00BF000008ED00E0DFF80C003F
:100D6000016841F4700101607047000088ED00E007
:100D70004FF0807340F8043C21F0010140F8081C5A
:100D8000054B40F80C3C40F8202C6FF0020340F873
:100D9000243C4438704700BFF50C000800000000F8
:100DA000074B19680868B0E8F04F80F30988BFF373
:100DB0006F8F4FF0000080F311887047AFF3008011
:100DC000F44E00204FF0500383F31188BFF36F8F70
:100DD000BFF34F8F0B4A136801331360012B00D010
:100DE00070474FF0E023D3F8043D13F0FF0FF7D026
:100DF0004FF0500383F31188BFF36F8FBFF34F8F12
:100E0000FEE700BF0C000020094B1B6843B94FF000
:100E1000500383F31188BFF36F8FBFF34F8FFEE74B
:100E2000013B034A13600BB983F31188704700BF7D
:100E30000C00002000000000000000000000000086
:100E4000EFF30980BFF36F8F154B1A681EF0100F78
:100E500008BF20ED108A20E9F04F106009B44FF070
:100E6000500080F31188BFF34F8FBFF36F8F04F0F2
:100E7000A1FB4FF0000080F3118809BC19680868D5
:100E8000B0E8F04F1EF0100F08BFB0EC108A80F3EE
:100E90000988BFF36F8F7047AFF30080AFF3008016
:100EA000F44E002008B54FF0500383F31188BFF3D0
:100EB0006F8FBFF34F8F04F049FA28B14FF0E02352
:100EC0004FF08052C3F8042D002383F3118808BD2E
:100ED0004FF0E022002313619361054B1B68054925
:100EE000A1FB03139B09013B536107231361704767
:100EF00018000020D34D62104FF0E023D3F8002DEE
:100F00003E4B9A421CD04FF0E023D3F8002D3C4BCF
:100F10009A421ED010B582B03A4B1A78D2B20192E2
:100F2000FF221A701B78DBB28DF803309DF8033076
:100F300003F05003344A1370344B07221A601BE04D
:100F40004FF0500383F31188BFF36F8FBFF34F8FC0
:100F5000FEE74FF0500383F31188BFF36F8FBFF3A9
:100F60004F8FFEE7294A1368013B13609DF8033059
:100F70005B00DBB28DF803309DF8033013F0800F77
:100F8000F0D1224B1B68032B08D04FF0500383F3A2
:100F90001188BFF36F8FBFF34F8FFEE71B021B4A11
:100FA000136003F4E0631360019BDBB2154A137016
:100FB0004FF0E022D2F8203D43F47003C2F8203D08
:100FC000D2F8203D43F070431446C2F8203DFFF7AD
:100FD0007FFF0F4B00221A60FFF7C0FED4F8343FAA
:100FE00043F04043C4F8343FFFF7A4FE04F0E2FAB4
:100FF000FFF780FE002002B010BD00BF71C20F419C
:1010000070C20F4100E400E07C4D0020784D0020CC
:101010000C000020EFF305830F2B0ED9114A9A5CC8
:10102000114B1B789A4208D24FF0500383F311887A
:10103000BFF36F8FBFF34F8FFEE74FF0E023D3F87E
:101040000C3D03F4E063094A1268934208D94FF05B
:10105000500383F31188BFF36F8FBFF34F8FFEE709
:10106000704700BFF0E300E07C4D0020784D002089
:101070000346406A18B11B6B1868C0F1070070473F
:1010800010B50446FFF79EFEA26BE36B9A4204D0B4
:101090000024FFF7B9FE204610BD0124F9E710B582
:1010A0000446FFF78FFEA36B2BB901231C46FFF705
:1010B000ABFE204610BD00231C46F8E770B5044681
:1010C0001646856B026C5AB903681BB100200135C6
:1010D000A56370BD806804F0D5FB0023A360F6E72C
:1010E0006EB9406804F0E4FC6368226C13446360EA
:1010F000A268934219D3236863603046E7E7C0686B
:1011000004F0D6FCE368226C51429B1AE36022682B
:10111000934202D2A3680B44E360022E01D0002068
:10112000D5E725B1013D0020D1E73046CFE728467D
:10113000CDE70346026C6AB110B50846D968114480
:10114000D9609C68A14201D31968D960D96804F0BC
:10115000AFFC10BD704738B50546FFF733FE95F874
:10116000454064B201E0013C64B2002C0ADD6B6AC8
:1011700043B105F1240004F081FA0028F3D004F013
:1011800015FBF0E7FF2385F84530FFF73DFEFFF73D
:1011900019FE95F8444064B201E0013C64B2002CB1
:1011A0000ADD2B6943B105F1100004F067FA00284D
:1011B000F3D004F0FBFAF0E7FF2385F84430FFF7A3
:1011C00023FE38BD38B5E0B10D460446FFF7FAFD01
:1011D0002368E26B216C01FB0230A0600020A06359
:1011E0006360013A02FB0133E360FF2384F844307B
:1011F00084F84530FDB9236963B9FFF705FE012086
:1012000038BD4FF0500383F31188BFF36F8FBFF3E6
:101210004F8FFEE704F1100004F030FA0028ECD004
:101220004FF0E0234FF08052C3F8042DBFF34F8FEF
:10123000BFF36F8FE1E704F11000FFF7DDFA04F16F
:101240002400FFF7D9FAD8E708B5034602988C4680
:1012500039B90060C363C0F840C00121FFF7B2FF95
:1012600008BD0260F6E740B94FF0500383F31188E0
:10127000BFF36F8FBFF34F8FFEE710B584B01C46EE
:10128000844653B192B189B94FF0500383F311886A
:10129000BFF36F8FBFF34F8FFEE74FF0500383F321
:1012A0001188BFF36F8FBFF34F8FFEE76AB14823FA
:1012B0000393039B482B13D04FF0500383F3118803
:1012C000BFF36F8FBFF34F8FFEE70029EFD04FF0D2
:1012D000500383F31188BFF36F8FBFF34F8FFEE787
:1012E000039B012384F8463000949DF81830604633
:1012F000FFF7AAFF204604B010BD40B94FF05003DD
:1013000083F31188BFF36F8FBFF34F8FFEE7F0B504
:1013100083B0164604460D4601FB00F04830FFF747
:10132000A9F90246074648B1002380F846300090EC
:101330003346483229462046FFF786FF384603B039
:10134000F0BDF0B585B0019288B10F461D46044648
:10135000B1B1022D20D1E36B012B1DD04FF0500312
:1013600083F31188BFF36F8FBFF34F8FFEE74FF00A
:10137000500383F31188BFF36F8FBFF34F8FFEE7E6
:10138000036C002BE5D04FF0500383F31188BFF3BB
:101390006F8FBFF34F8FFEE704F00EFA064658B981
:1013A000019B002B48D04FF0500383F31188BFF30B
:1013B0006F8FBFF34F8FFEE700263DE02A46394688
:1013C0002046FFF77BFE636A7BB948B14FF0E0230C
:1013D0004FF08052C3F8042DBFF34F8FBFF36F8FD0
:1013E000FFF712FD012005B0F0BD04F1240004F068
:1013F00045F90028F4D04FF0E0234FF08052C3F8B5
:10140000042DBFF34F8FBFF36F8FE9E7FFF7FCFCAD
:101410000020E8E702A804F079F9012619E000238A
:1014200084F8443021E0002384F8453023E020464E
:10143000FFF791FE04F01CF8FFF7C4FCA26BE36B0E
:101440009A42BBD3022DB9D0019B002BDED0002ED7
:10145000E0D0FFF7D9FC03F071FFFFF7B3FC94F87D
:10146000442052B2B2F1FF3FD9D094F8452052B295
:10147000B2F1FF3FD7D0FFF7C7FC01A902A804F0E3
:1014800051F9D8B92046FFF7FBFD0028CFD00199CC
:1014900004F1100004F0DAF82046FFF75CFE03F0D8
:1014A000E7FF0028C8D14FF0E0234FF08052C3F887
:1014B000042DBFF34F8FBFF36F8FBDE72046FFF7BB
:1014C0004AFE03F0D5FF00208DE748B108B50021A2
:1014D00081600160C1600B460A46FFF732FF08BD1C
:1014E000704710B5024600210120FFF706FF0446B1
:1014F000FFF7EBFF204610BD10B582B00B46009001
:10150000002211460120FFF7AEFE0446FFF7DDFF83
:10151000204602B010BD68B170B50D460446036C9C
:101520008BB14FF0500383F31188BFF36F8FBFF37C
:101530004F8FFEE74FF0500383F31188BFF36F8F97
:10154000BFF34F8FFEE70368F3B1FFF763FDEFF3DF
:1015500011834FF0500282F31188BFF36F8FBFF3F6
:101560004F8F1E46A26BE36B934226D994F8453009
:101570005BB20132A263B3F1FF3F11D001335BB222
:1015800084F84530012019E08368002BDDD04FF04E
:10159000500383F31188BFF36F8FBFF34F8FFEE7C4
:1015A000636A0BB9012009E004F1240004F066F835
:1015B00038B145B10120286000E0002086F3118891
:1015C00070BD0120FAE70120F8E770B584B0019101
:1015D00058B10446036C8BB14FF0500383F311886C
:1015E000BFF36F8FBFF34F8FFEE74FF0500383F3CE
:1015F0001188BFF36F8FBFF34F8FFEE704F0DCF865
:10160000054650B9019B63B14FF0500383F3118835
:10161000BFF36F8FBFF34F8FFEE700231E461D46BB
:1016200056E0064654E0013BA363236843B12369B7
:1016300053B9FFF7E9FB01231E46304604B070BDE5
:1016400004F0D2F9A060F2E704F1100004F016F8FB
:101650000028EED04FF0E0234FF08052C3F8042D65
:10166000BFF34F8FBFF36F8FE3E746B14FF05003E7
:1016700083F31188BFF36F8FBFF34F8FFEE7FFF740
:10168000C3FBDAE702A804F041F801252AE00023B1
:1016900084F8443032E0002384F8453034E0FFF72A
:1016A00091FBA06804F098F80646FFF7ADFB3BE01D
:1016B0002046FFF750FD03F0DBFE09E02046FFF770
:1016C0004AFD03F0D5FE2046FFF7E9FC002842D191
:1016D000FFF778FBA36B002BA5D1019B002BC4D097
:1016E000002DCFD0FFF790FB03F028FEFFF76AFB39
:1016F00094F844305BB2B3F1FF3FC8D094F8453062
:101700005BB2B3F1FF3FC6D0FFF77EFB01A902A891
:1017100004F008F80028D1D12046FFF7C0FC0028CB
:10172000C6D02368002BBAD0019904F1240003F03D
:101730008DFF2046FFF70FFD03F09AFE0028C7D16A
:101740004FF0E0234FF08052C3F8042DBFF34F8FCA
:10175000BFF36F8FBCE716B900231E466DE7FFF796
:1017600031FB2046FFF784FC0146A06804F0E2F854
:10177000FFF74AFBF0E72DE9F843C0B10E4690466B
:101780000446E9B1FFF746FCEFF311834FF0500236
:1017900082F31188BFF36F8FBFF34F8F1F46A36B88
:1017A0009946CBB9184687F31188BDE8F8834FF006
:1017B000500383F31188BFF36F8FBFF34F8FFEE7A2
:1017C000036C002BDED04FF0500383F31188BFF37E
:1017D0006F8FBFF34F8FFEE794F844305DB2314610
:1017E0002046FFF7A6FC09F1FF33A363B5F1FF3FE5
:1017F00006D02B4601335BB284F844300120D2E797
:1018000023690BB90120CEE704F1100003F036FF85
:1018100028B143462BB10120C8F80000C3E70120DE
:10182000C1E70120BFE7000000B583B034E04FF00E
:10183000FF312B4B1868FEF73DFD9DF80430032B5C
:101840003FD011D8012B16D0022B21D19DF80530A5
:1018500007EE903AF8EE677ADFED226A87EEA67A15
:10186000214B83ED017A13E0042B11D19DF8052063
:101870001D4B9A720CE09DF8053007EE903AF8EE99
:10188000677ADFED1A6A87EEA67A174B83ED007A46
:10189000134B1868FEF73EFD6423032201A9144888
:1018A00002F0F7FC0028C2D000230093104B1B6805
:1018B000DA6800929B680093009B0120FEF7E8FC29
:1018C000EAE79DF805209DF8063043EA0223B3F5C8
:1018D000007F01D94FF40073034A1381D8E700BF9A
:1018E000C408002000007F43000000200000C84220
:1018F0002C4C002008B50B4B1A6842F400721A6099
:101900001A6842F480621A601A6842F480721A609F
:10191000032000F075F80F2002F00AFF00F0B8FF76
:10192000002008BD003C0240034A1168034B1B78AD
:101930000B441360704700BF804D00201000002052
:10194000014B1868704700BF804D002038B5044631
:10195000FFF7F6FF0546B4F1FF3F02D0044B1B78BA
:101960001C44FFF7EDFF401BA042FAD338BD00BF77
:1019700010000020002807DB00F01F0240090123AF
:101980009340024A42F82030704700BF00E100E077
:10199000002808DB0901C9B200F1604000F5614090
:1019A00080F80013704700F00F000901C9B2014B25
:1019B0001954704714ED00E000B500F00700A0F1E5
:1019C000030CBCF1040F07D8C0F1070E0430062841
:1019D00006D84FF0000C03E04FF0040E4FF0000C5F
:1019E0004FF0FF3303FA0EF021EA000101FA0CF187
:1019F00003FA0CF322EA030241EA020000BD0000F0
:101A0000074AD36823F4E0631B041B0C000200F4B4
:101A1000E060034343F0BF6343F40033D360704797
:101A200000ED00E010B50446054BD868C0F3022075
:101A3000FFF7C2FF01462046FFF7AAFF10BD00BF17
:101A400000ED00E008B5FFF795FF08BD70B582B066
:101A50008E46002369E085684FEA430C032101FAB2
:101A60000CF125EA0105DEF80C1001FA0CF129430E
:101A70008160416821EA0201DEF80420C2F300120D
:101A80009A400A43426065E0D908083150F82120A5
:101A900003F00705AD004FF00F0C0CFA05FC22EA2D
:101AA0000C0CDEF81020AA4042EA0C0240F821207B
:101AB00067E0072200E0002202FA0CF22A4302311A
:101AC000604D45F82120604A9168E24321EA04050F
:101AD000DEF8046016F4801F01D044EA01055A497B
:101AE0008D60C96802EA0105DEF8046016F4001F83
:101AF00001D044EA01055449CD60496802EA010574
:101B0000DEF8046016F4003F01D044EA01054E49B6
:101B10004D6009680A40DEF8045015F4803F01D09A
:101B200044EA010248490A6001330F2B00F2878022
:101B300001229A40DEF8001001EA020432EA0101B3
:101B4000F2D1DEF8041001F0030C0CF1FF3CBCF103
:101B5000010F80D9DEF8042002F00302032A0AD024
:101B6000C1685D000322AA4021EA0201DEF80820D4
:101B7000AA400A43C260DEF8042002F00302022AEF
:101B800082D001684FEA430C032202FA0CF221EAE8
:101B90000201DEF8042002F0030202FA0CF20A430A
:101BA0000260DEF8042012F4403FBDD00022019212
:101BB000264A516C41F480415164526C02F48042D7
:101BC0000192019A99088D1C1E4A52F8255003F083
:101BD000030C4FEA8C0C0F2202FA0CF225EA0205E4
:101BE0001B4A90423FF467AF02F5806290421AD0E0
:101BF00002F58062904218D002F58062904216D0C1
:101C000002F58062904214D002F58062904212D0B8
:101C100002F58062904210D002F5806290423FF45B
:101C200048AF082248E7012246E7022244E70322A0
:101C300042E7042240E705223EE706223CE702B0E5
:101C400070BD00BF00380140003C01400038024038
:101C5000000002400AB18161704709048161704748
:101C6000436901EA030221EA030141EA0241816179
:101C700070470000002800F0DA8038B5044690F87C
:101C80003D30002B51D0242384F83D302268136866
:101C900023F0010313602268136843F400431360C8
:101CA0002268136823F40043136001F053FF626855
:101CB000614B9A423ED8614B98428CBF002301236E
:101CC000002B40F0B6805E49A1FB00318B0CD4F8AC
:101CD00000C0DCF8042022F03F0242EA9142CCF836
:101CE000042021680A6A22F03F02DFF84CC16568CF
:101CF000654525D8013313430B622168CA6922F474
:101D00004F4222F0FF02D4F804C04B4B9C4522D82E
:101D1000431E4FEA4C0CB3FBFCF3013340F6FC705E
:101D2000034254D0C3F30B0352E080F83C3000F080
:101D3000D1FDA8E7434B98428CBF00230123BFE7A6
:101D40004FF4967C0CFB03F3DFF8FCC0ACFB03C341
:101D50009B090133CFE7D4F808E0BEF1000F1AD198
:101D6000431E0CEB4C05B3FBF5F30133C3F30B033C
:101D7000B3FA83F35B09002B57D1BEF1000F19D1E1
:101D8000431E0CEB4C0CB3FBFCF30133C3F30B030E
:101D900043F400431CE00CEB8C0303EB83031D4670
:101DA000431EB3FBF5F30133C3F30B03B3FA83F321
:101DB0005B09E0E7431E0CEB8C0C0CEB8C0CB3FBCB
:101DC000FCF30133C3F30B0343F4404300E004236B
:101DD0001A43CA6121680B6823F0C003E269206AD4
:101DE000024313430B6021688B6823F4034323F001
:101DF000FF032269E068024313438B602168CB68CC
:101E000023F0FF036269A06902431343CB60226899
:101E1000136843F00103136000202064202384F83A
:101E20003D30206384F83E0038BD0123D0E7012017
:101E300070470120F8E700BFA08601007F841E00E4
:101E400083DE1B43FF083D00D34D6210002800F0E5
:101E5000C48038B5044690F84130002B53D002229C
:101E600084F841202168CB6923F47B6323F00F03BE
:101E7000CB6123681A62636993426CD0E368002BDC
:101E800048D110231D46A368202B01D86B001D46A6
:101E9000012001F04BFF2369B3F5007F3DD0B0FB7B
:101EA000F5F000EB800043006269B3FBF2F3053309
:101EB0004B4AA2FB0323C3F3C002C2EBD3035B086C
:101EC00011029A1EFD2A40D822690A4321681A434A
:101ED0000A622168CB6923F47B6323F00F036268F5
:101EE000A0680243E0680243A0690243134343F43D
:101EF0000063CB61236A012B2FD000206064012393
:101F000084F8413038BD80F84030364B436300F0F0
:101F100019FDA4E720231D46B5E7E36853B1AB00E4
:101F2000B0FBF3F000EB800043006269B3FBF2F317
:101F30000533BDE7EB00B0FBF3F000EB800043009E
:101F40006269B3FBF2F30533B2E7636C43F010034D
:101F500063640120D6E70021B6E7234B6363226860
:101F6000224B9A4220D04FF04022D36923F47B6366
:101F700023F00F03D36122681C4B9A4216D04FF016
:101F80004022022313622268184B9A4210D04FF06D
:101F9000402CDCF81C309BB26268B2F5007F0AD09E
:101FA000CAB94FF4807008E0114ADEE7104AE8E74A
:101FB000DFF83CC0EDE74FF48070B4F808E0A18989
:101FC000228B40EA0E0001430A43134343F40063AB
:101FD000CCF81C3091E70020EFE70120704700BFEC
:101FE000CDCCCCCC6B200008B926000800380040CE
:101FF00000340040704708B5426A03681288DA600E
:10200000436A02334362438D9BB2013B9BB24385DB
:10201000438D9BB203B108BD0268536823F0A0034F
:102020005360012380F84130FFF7E4FFF3E7704786
:1020300008B50368DA68C36A1A80C36A0233C362E8
:10204000438E9BB2013B9BB24386438E9BB203B14E
:1020500008BD0268536823F060035360012380F8D1
:102060004130FFF7E4FFF3E7704710B584B0044652
:1020700003689A68039290F84120042A05D094F8E6
:102080004130032B2CD004B010BD039A12F0010F85
:1020900003D05B6813F0400F1FD1039B13F0400F78
:1020A000EDD023685A6812F0200FE8D05A6822F069
:1020B00060025A60002301932368DA6801929B68EA
:1020C0000193019B012384F84130636C43F00203C8
:1020D00063642046FFF7C8FFD1E7FFF7A9FFDCE7FD
:1020E000039B13F0020F04D023685B6813F0800F8A
:1020F0001DD1039B13F0080FC5D023685A6812F056
:10210000200FC0D05A6822F0A0025A600023029328
:1021100023689B680293029B012384F84130636C1F
:1021200043F0040363642046FFF79EFFABE72046BD
:10213000FFF761FFDDE700002DE9F04182B00546C1
:102140000E4617461C469DF820300193FFF7F8FB1A
:102150008046019BABB137E02CB1FFF7F1FB434662
:10216000C01AA0420DD9012385F84130002385F81B
:10217000403003200DE00123BB4209D0B4F1FF3F02
:10218000EAD12B689B6836EA0303F4D00023F3E717
:10219000019802B0BDE8F0812CB1FFF7D1FB4346B6
:1021A000C01AA04210D9012385F84130002385F8D8
:1021B00040300320EDE7A3F580630BE00123BB4231
:1021C0000ED0B4F1FF3FE7D12A68064B9A42F2D015
:1021D0004FF040239B6836EA0303EFD00023EEE77D
:1021E0000020D6E7003800402DE9F04389B00446CE
:1021F00010461746109D94F84120012A40F0B28104
:10220000D6B2002900F0AF81002800F0AC81002B8D
:1022100000F0A98194F84020012A00F0A881012251
:1022200084F840202068C26902F00702032A06D021
:10223000052A04D0238563852386638605E05B0039
:102240009BB223856385238663860023636405230D
:1022500084F84130C36903F440739946B3F5007FB5
:1022600002D0002B40F0C2800A4632F8023B904672
:10227000C360638D9BB2013B9BB263852268984B20
:102280009A421ED04FF04022D36943F48063D36159
:102290002268D36943F48063D3612268D36903F46D
:1022A0004073B3F5007F18D1002302938C4B9A4200
:1022B00009D04FF04023DA6802929B680293029B98
:1022C0000BE0884AE0E7A3F58063F4E7638D9BB2F7
:1022D000BBB9638E9BB2002B47D1638E9BB2002BA0
:1022E000F4D1638D9BB2002BF0D1012384F84130EF
:1022F000002384F84030636C002B40F034811E468C
:1023000031E1002300932B46012202212046FFF7F2
:1023100013FFD8B94246236832F8021BD960638D97
:102320009BB2013B9BB263852368996811F0080F4B
:1023300017D04946B9B9CDF80C909B680393039B1D
:10234000636C43F0040363649046C2E7636C43F03C
:1023500001036364012384F84130002384F8403092
:1023600001E19046B5E79046B3E7012100912B4685
:102370000A462046FFF7E0FE28BB2268584B9A42E7
:102380002CD04FF04023DB683A4622F8023B638EA4
:102390009BB2013B9BB26386236851498B4220D09C
:1023A0004FF04021896811F0400F1DD000210491A9
:1023B000D96804919B680493049B636C43F0020307
:1023C0006364174689E7636C43F001036364012388
:1023D00084F84130002384F84030C4E0A3F58063E2
:1023E000D1E7A1F58061DDE7174676E70B4633F8C4
:1023F000022B98463A4B984225D04FF04023DA60A2
:10240000638D9BB2013B9BB263852268344B9A4239
:102410001CD04FF04022D36943F48063D36122681B
:10242000D36943F48063D3612268D36903F44073B2
:10243000B3F5407F13D100230593D36805939368C8
:102440000593059B0BE0A3F58063D8E7254AE2E7F7
:10245000638D9BB263B9638E9BB2002B51D1638EA7
:102460009BB2002BF4D1638D9BB2002BF0D13CE7E3
:10247000012200922B4602212046FFF75DFEE8B9BB
:10248000424632F8021B2068154B984221D04FF08B
:102490004023D960638D9BB2013B9BB26385236867
:1024A0000F498B4218D04FF04021896811F0080F76
:1024B00025D0B9F5807F17D09046CCE7636C43F008
:1024C00001036364012384F84130002384F8403021
:1024D00049E0A3F58063DCE7A1F58061E5E700BF93
:1024E0000038004000340040002106919B680693AC
:1024F000069B636C43F0040363649046ABE790462D
:10250000A9E7002300932B46012211462046FFF73E
:1025100013FED0B92368DB683A4622F8023B638E8B
:102520009BB2013B9BB263862368996811F0400F10
:1025300016D00790D96807919B680793079B636C37
:1025400043F002036364174689E7636C43F00103B9
:102550006364012384F84130002384F8403002E0B2
:1025600017467CE70226304609B0BDE8F083022614
:10257000F9E700BF704708B5436A9A1C42620268D7
:102580001B88D360438D9BB2013B9BB24385438D37
:102590009BB23BB90268536823F0A0035360438E9B
:1025A0009BB203B108BD012380F84130FFF7E2FF81
:1025B000F8E7000008B50268154B9A421CD04FF0AE
:1025C0004023DA68C36A991CC1621A80438E9BB2A9
:1025D000013B9BB24386438E9BB263B902680C4BAE
:1025E0009A420CD04FF04022536823F060035360AE
:1025F000438D9BB22BB108BDA3F58063E1E7054A8B
:10260000F2E7012380F84130FFF7B4FFF3E700BFA2
:10261000003800400034004008B5436A9A1C42620A
:102620001A880168134B994218D04FF04023DA60A2
:10263000438D9BB2013B9BB24385438D9BB263B9F3
:1026400002680C4B9A420CD04FF04022536823F0A2
:10265000A0035360438E9BB22BB108BDA3F58063EA
:10266000E5E7054AF2E7012380F84130FFF782FFF2
:10267000F3E700BF003800400034004008B50368AD
:10268000DA68C36A991CC1621A80438E9BB2013B0F
:102690009BB24386438E9BB23BB90268536823F0DA
:1026A00060035360438D9BB203B108BD012380F8E2
:1026B0004130FFF75FFFF8E710B586B004460368C6
:1026C0009A680592704A93426FD04FF04022916809
:1026D00004915B680393536802936368B3F5007FCA
:1026E00001D0002B70D1059B13F0020F03D0039B88
:1026F00013F0800F5CD1049B13F0010F03D0029BF9
:1027000013F0400F58D1049B13F0400F24D0029BCC
:1027100013F0200F20D022685B4B9A4250D04FF02C
:102720004022536823F0600353602268536823F00B
:10273000A0035360002300932368DA6800929B682B
:102740000093009B012384F84130636C43F0020343
:1027500063642046FFF788FC059B13F0080F22D026
:10276000039B13F0200F1ED02268536823F0A003B0
:1027700053602268444B9A4224D04FF04022536861
:1027800023F0600353600023019323689B68019347
:10279000019B012384F84130636C43F004036364BC
:1027A0002046FFF761FC06B010BDA2F580628EE7FF
:1027B0002046FFF7E0FE9EE72046FFF7FBFEA2E77C
:1027C000324AAEE7314ADAE7049B13F0020F03D036
:1027D000029B13F0800F4AD1059B13F0010F03D029
:1027E000039B13F0400F46D1059B13F0400F1CD004
:1027F000039B13F0200F18D02268536823F0600366
:1028000053602268204B9A4239D04FF040225368DF
:1028100023F0A0035360012384F84130636C43F03C
:10282000020363642046FFF71FFC049B13F0080FAC
:10283000B9D0029B13F0200FB5D02268124B9A42F8
:102840001FD04FF04022536823F0A003536022684A
:10285000536823F060035360012384F84130636CB4
:1028600043F0040363642046FFF7FEFB9BE720462A
:10287000FFF7D2FEB0E72046FFF700FFB4E7034AB8
:10288000C5E7024ADFE700BF0038004000340040DF
:1028900000B583B0002200920D4B596C41F4804189
:1028A0005964596C01F48041009100990192196CAE
:1028B00041F0805119641B6C03F080530193019B1C
:1028C0000F216FF00100FFF7ADF803B000BD00BFAE
:1028D0000038024030B589B0002303930493059378
:1028E000069307930268144B9A4201D009B030BD99
:1028F00000250195114C236B43F002032363236BE6
:1029000003F002030193019B4FF41073039312230E
:102910000493012305930423079303A90848FFF7B1
:1029200095F80295236C43F400132364236C03F49D
:1029300000130293029BD9E7005400400038024084
:102940000004024070B58CB00023079308930993EC
:102950000A930B93039304930593069302682C4BFD
:102960009A4201D00CB070BD01230393C02304939D
:102970000223059303A801F02BF9002844D100217C
:102980000091244B1A6C42F400421A641A6C02F44F
:1029900000420092009A01911A6B42F001021A6300
:1029A0001A6B02F001020192019A02911A6B42F035
:1029B00004021A631B6B03F004030293029B1023AF
:1029C0000793022508950C4609910A9106260B9655
:1029D00007A91148FFF73AF84FF4A4530793089555
:1029E00009940A940B9607A90C48FFF72FF84FF4A7
:1029F00000630793089509940A9405230B9307A98C
:102A00000648FFF723F8ADE7FEF722F8B7E700BF67
:102A1000003C004000380240000002400008024034
:102A2000F0B58BB0002305930693079308930993A1
:102A30000368304A934204D02F4A934222D00BB00D
:102A4000F0BD002100912D4B5A6C42F480525A6423
:102A50005A6C02F480520092009A01911A6B42F073
:102A600001021A631B6B03F001030193019BE02336
:102A70000593022306930523099305A92048FEF731
:102A8000E5FFDCE7002402941C4B1A6C42F4804200
:102A90001A641A6C02F480420292029A03941A6B2E
:102AA00042F004021A631A6B02F004020392039AC2
:102AB00004941A6B42F002021A631B6B03F00203C8
:102AC0000493049B04230593022506950326089688
:102AD0000527099705A90B48FEF7B8FF4FF42043D7
:102AE0000593069507940896099705A90648FEF7E9
:102AF000ADFFA4E70030014000380040003802403C
:102B000000000240000802400004024030B589B0D5
:102B10000023039304930593069307930368B3F18B
:102B2000A04F01D009B030BD03AA002501951A4C71
:102B3000236B43F001032363236B03F00103019331
:102B4000019B4FF40073039311461448FEF77EFF78
:102B50004FF4E053039302230493059506950A234B
:102B6000079303A90D48FEF771FF636B43F08003E1
:102B700063630295636C43F480436364636C03F4A2
:102B800080430293029B2A4605214320FEF74AFF19
:102B90004320FEF757FFC5E700380240000002401F
:102BA0002DE9F04383B0D0F8008001EBC10300EBC6
:102BB00083039A6A5B6A9A4254D807460C469B1A6A
:102BC00001EBC10200EB8202D2699A4200D31A469D
:102BD00002F103094FEA990915E006F103094FEAEA
:102BE000990904EBC40507EB8505296ABB790093B5
:102BF000B3B2E2B2404602F07AF82B6A33442B6259
:102C0000AB6A3344AB6208EB441303F510639B6972
:102C10009BB24B4512D304EBC40307EB83039A6AC0
:102C20005B6A9A420AD24BB19B1A04EBC40207EBCF
:102C30008202D6699E42D0D31E46CEE704EBC4037F
:102C400007EB83077A6ABB6A9A420FD804F00F0435
:102C50000122A240D8F8343823EA0203C8F83438F5
:102C6000002000E0012003B0BDE8F0830020FAE777
:102C700030B583B000287DD0044603681D4690F827
:102C80009534CBB1032384F89534B5F1A04F18D017
:102C9000206801F097FE237C8DF80030231D0ECBB9
:102CA000206801F0D3FD78B1022384F89534012324
:102CB0001D46284603B030BD80F89434FFF726FF48
:102CC000E0E70023A371E3E70146206802F08AF8F9
:102CD0000246B8B903462079984219D903EBC301DB
:102CE00004EB8101012048750B75CB850020087627
:102CF000C861086203EBC30104EB81014862013340
:102D0000DBB2E8E7022384F8953401231D46D0E7BF
:102D1000904217D902EBC20304EB8303002183F82E
:102D2000551283F8542283F85812C3F85C12C3F882
:102D3000601202EBC20304EB8303C3F86412013296
:102D4000D2B2E5E7237C8DF80030231D0ECB20683E
:102D500001F08EFE054628B1022384F89534012344
:102D60001D46A6E76074012384F89534206801F0BD
:102D7000F8FF9EE701231D469BE7704738B50446E0
:102D80000D460068D0F840C000EB411303F53063F6
:102D90009A68A179012911D038498C4556D03DB99E
:102DA00005EBC50304EB8303D3F86432002B5ED03C
:102DB000E9B22046FFF7E1FF002038BD12F0080F0E
:102DC00009D02F498C45F7D912F4004FF4D04FF4B5
:102DD00000429A60F0E712F0200F02D020229A60A1
:102DE000EAE712F0280FE7D125498C4506D912F4FD
:102DF000004F03D04FF400429A60DDE705EBC502B7
:102E000004EB8202D2F874121B69C3F31203CB1ACB
:102E1000C2F868327DB905EBC50204EB8202D2F834
:102E200064226AB105EBC50204EB8202D2F860129B
:102E30001944C2F86012E9B22046FFF79EFFBBE7D3
:102E400004F29C42012102F00DF8F4E712F4004F65
:102E500003D04FF400429A60AEE712F0200F01D089
:102E600020229A60E9B22046FFF787FFA4E704F228
:102E70009C42194601F0F6FF9AE700BF0A31544F11
:102E80000A30544F7047704738B5044603681D6CCC
:102E900003EB4113D3F8081B0E4A954207D903F5FB
:102EA000306311F4004F02D04FF400429A60204684
:102EB000FFF7E9FF074B9D4202D9A379012B01D00F
:102EC000002038BD04F29C420121206801F0CAFFB5
:102ED000F6E700BF0A30544F70477047704770479D
:102EE000704770477047704708B511F0800F0CD1DC
:102EF00001F00F0101EBC101890001F514710144DA
:102F00000431006801F095FE08BD01F00F0101EBEE
:102F1000C1018900103101440431F2E72DE9F04F7D
:102F200083B004460568284601F058FF10B103B08D
:102F3000BDE8F08F8046206801F021FF0028F6D020
:102F400005F500639B46D5F80838C3F30D23C4F894
:102F5000D434206801F013FF10F0020F04D022686F
:102F6000536903F002035361206801F008FF10F079
:102F7000100F15D02268936923F0100393612E6A15
:102F800006F00F031F4606F4F013B3F5802F4DD063
:102F9000B3F5402F70D02268936943F0100393611A
:102FA000206801F0ECFE10F4002F7BD1206801F0C6
:102FB000E6FE10F4802F40F0E680206801F0DFFE8E
:102FC0000028C0F26981206801F0D9FE10F4006F7A
:102FD0000AD0DBF8083013F0010F40F07781226847
:102FE000536903F400635361206801F0C8FE10F4D4
:102FF000805F40F06F81206801F0C1FE10F4005F37
:1030000040F0C881206801F0BAFE10F0080F40F0CF
:10301000D981206801F0B3FE10F0800F00F0EC8140
:10302000AB6923F08003AB610126D5E147F6F0736D
:103030001E42B0D033090093FA00019207EBC70398
:1030400004EB8301C6F30A120E46D1F8601228463B
:1030500001F064FED6F86022009BC3F30A031A4411
:10306000C6F86022D6F86812019A3A4404EB82024C
:103070000B44C2F868328EE7082204F29C412846CD
:1030800001F04CFE07EBC70304EB8303D3F868128F
:10309000C6F30A1307EBC70204EB82020B44C2F823
:1030A000683278E7206801F06EFE0646474635E054
:1030B000394605EB47130122C3F8082B2046FFF7DA
:1030C0005DFE3BE0394605EB47130822C3F8082BA9
:1030D0002046FFF7D9FE34E007EBC70304EB830378
:1030E00093F85732012B42D005EB47130222C3F865
:1030F000082B19F0200F04D005EB47132022C3F84A
:10310000082B19F4005F05D005EB47134FF400526C
:10311000C3F8082B3B4601331F467608002E3FF4C8
:1031200045AF16F0010FF5D0FBB29A46194620685C
:1031300001F039FE814610F0010FB9D119F0080FE6
:10314000C0D119F0100F04D005EB47131022C3F8BB
:10315000082B19F0020FCCD06B6913F0800FBBD095
:10316000DBF8043043F48063CBF80430B4E707EBBA
:10317000C70304EB8303002283F8572251462046FD
:10318000FFF7AEFEB0E7206801F005FE0646C14637
:1031900025E000992046FFF775FE1AF0080F04D0CD
:1031A00005EB49130822C3F808291AF0100F04D0C0
:1031B00005EB49131022C3F808291AF0400F04D078
:1031C00005EB49134022C3F808291AF0020F42D137
:1031D0001AF0800F5BD14B46013399467608002EDA
:1031E0003FF4EBAE16F0010FF5D05FFA89F30093D0
:1031F0001946206801F0E0FD824610F0010FCCD0A6
:10320000484609F00F02012101FA02F2DBF83430DE
:1032100023EA0203CBF8343005EB4913C3F808194D
:10322000A3798B42B5D109EBC90304EB83031A6A76
:10323000D9690A441A620028ABD109EBC90304EB2F
:1032400083035B6A002BA4D104F29C420121206815
:1032500001F008FE9DE74946284601F0B9FB09EB5D
:10326000C90304EB8303DB7D012B05D005EB491378
:103270000222C3F80829ABE709EBC90304EB830377
:103280000022DA7500992046FFF72BFEEEE749464B
:103290002046FFF785FC9EE7DBF8043023F00103AE
:1032A000CBF8043094F8CC34012B08D02046FFF73B
:1032B00016FE2268536903F00043536183E6002140
:1032C00084F8CC14204600F022F9F2E72046FFF7FC
:1032D00005FE84E6DBF8043023F00103CBF804306C
:1032E0001021206801F074FB1CE0404605EB4813F8
:1032F0004FF67F31C3F80819D3F8002922F40012E1
:10330000C3F80029C3F8081BD3F8002B22F40012DD
:10331000C3F8002BD3F8002B42F00062C3F8002B57
:10332000431C984623794345DFD8DBF81C3043F033
:103330000113CBF81C30E37BEBB1DBF8843043F0B6
:103340000B03CBF88430DBF8443043F00B03CBF8AD
:103350004430D5F8003823F4FE63C5F8003804F291
:103360009C42A179206801F07DFD2268536903F435
:10337000805353613FE6DBF8143043F4005343F0CD
:103380002B03CBF81430DBF8103043F00B03CBF8F1
:103390001030DEE7206801F056FD206801F038FCAF
:1033A000E071266800F0D0FB0146E279304601F07A
:1033B00097FA2046FFF791FD2268536903F4005302
:1033C00053611FE62046FFF787FD2268536903F02B
:1033D000080353611DE601362379B3420CD906EB8D
:1033E000C60304EB830393F85732012BF3D1F1B2F8
:1033F0002046FFF779FDEEE7206801F0C0FC10F4ED
:10340000801F25D1206801F0BAFC10F4001F5AD0AB
:10341000012326E001362379B3421BD905EB46137D
:10342000D3F8002906EBC60304EB83031B7E012BB4
:10343000F0D1002AEEDA06EBC60304EB8303012287
:10344000DA7566F07F01C9B22046FFF74DFDE1E76E
:103450000126E0E72268536903F480135361D1E742
:10346000013322799A4229D905EB4312D2F8001B85
:1034700003EBC30204EB820292F85822012AEFD137
:103480000029EDDAD4F8D42482EA114212F0010FB7
:10349000E6D103EBC30204EB8202012182F857124A
:1034A000AA6942F08002AA616A6912F0800FD7D13E
:1034B000DBF8043043F40073CBF80430226853691E
:1034C00003F400135361206801F059FC10F0804FA1
:1034D00010D1206801F053FC10F0040F3FF427AD29
:1034E00023685D6815F0040F0DD1226853682B43E3
:1034F00053601CE52046FFF7F5FC2268536903F092
:1035000080435361E5E72046FFF7EDFCEDE77047A8
:10351000002800F0E28170B582B00446036813F021
:10352000010F3BD09B4B9B6803F00C03042B2CD06A
:10353000984B9B6803F00C03082B21D06368B3F50C
:10354000803F4FD0B3F5A02F52D0924B1A6822F48F
:1035500080321A601A6822F480221A606368002B95
:1035600050D0FEF7EDF905468A4B1B6813F4003F77
:1035700014D1FEF7E5F9401B6428F5D90320B3E127
:10358000844B5B6813F4800FD8D0824B1B6813F414
:10359000003F03D06368002B00F0A181236813F083
:1035A000020F54D07B4B9B6813F00C0F3ED0794B2D
:1035B0009B6803F00C03082B33D0E368002B68D022
:1035C000754B01221A60FEF7BBF90546714B1B686B
:1035D00013F0020F54D1FEF7B3F9401B0228F5D9BE
:1035E000032081E16B4A136843F480331360B5E72D
:1035F000684B1A6842F480221A601A6842F48032DA
:103600001A60ABE7FEF79CF90546624B1B6813F4A2
:10361000003FC3D0FEF794F9401B6428F5D903207E
:1036200062E15C4B5B6813F4800FC6D1594B1B6899
:1036300013F0020F03D0E368012B40F05281554A8A
:10364000136823F0F803216943EAC1031360236878
:1036500013F0080F42D063696BB34F4B0122C3F8DC
:10366000802EFEF76DF905464A4B5B6F13F0020F93
:1036700034D1FEF765F9401B0228F5D9032033E168
:10368000444A136823F0F803216943EAC103136035
:10369000DDE7414B00221A60FEF752F905463D4B2B
:1036A0001B6813F0020FD2D0FEF74AF9401B022824
:1036B000F5D9032018E1384B0022C3F8802EFEF71D
:1036C0003FF90546334B5B6F13F0020F06D0FEF750
:1036D00037F9401B0228F5D9032005E1236813F0D0
:1036E000040F79D02B4B1B6C13F0805F34D1002377
:1036F0000193284B1A6C42F080521A641B6C03F041
:1037000080530193019B01231E46244B1B6813F435
:10371000807F24D0A368012B35D0052B40D01D4BD2
:103720001A6F22F001021A671A6F22F004021A6758
:10373000A368002B3ED0FEF703F90546154B1B6F1F
:1037400013F0020F47D1FEF7FBF8401B41F288331C
:103750009842F3D90320C7E000231E46D5E70F4A5D
:10376000136843F480731360FEF7EAF805460B4BC9
:103770001B6813F4807FCDD1FEF7E2F8401B0228CE
:10378000F5D90320B0E0034A136F43F00103136738
:10379000CEE700BF00380240000047420070004002
:1037A000584B1A6F42F004021A671A6F42F0010276
:1037B0001A67BDE7FEF7C4F80546524B1B6F13F0BE
:1037C000020F08D0FEF7BCF8401B41F28833984244
:1037D000F3D9032088E0EEB9A369002B00F08380C1
:1037E000484A926802F00C02082A51D0022B17D0E6
:1037F000454B00221A66FEF7A3F80446414B1B68AE
:1038000013F0007F42D0FEF79BF8001B0228F5D989
:10381000032069E03B4A136C23F080531364DBE719
:10382000394B00221A66FEF78BF80546354B1B68AC
:1038300013F0007F06D0FEF783F8401B0228F5D96D
:10384000032051E0E369226A1343626A43EA821368
:10385000A26A5208013A43EA0243E26A43EA026377
:10386000284A5360284B01221A66FEF769F804467D
:10387000244B1B6813F0007F06D1FEF761F8001B94
:103880000228F5D903202FE000202DE000202BE0B6
:10389000012B2BD01B4B5B6803F48001E269914242
:1038A00026D103F03F02216A8A4223D1616A47F69A
:1038B000C0721A40B2EB811F1ED103F44031A26ADC
:1038C0005208013AB1EB024F18D103F07063E26A7B
:1038D000B3EB026F14D1002006E0012070470120F5
:1038E00002E0012000E0184602B070BD0120FBE7B5
:1038F0000120F9E70120F7E70120F5E70120F3E7D0
:103900000120F1E7003802400000474208B5334B80
:103910009B6803F00C03042B5BD0082B5BD12F4B6F
:103920005A6802F03F025B6813F4800F2CD02B4BD7
:103930005868C0F388104FEA401CBCEB000C6EEBDB
:103940000E0E4FEA8E1343EA9C634FEA8C11B1EBE3
:103950000C0163EB0E03DB0043EA5173C90011EB6A
:10396000000C43F10003590200234FEA4C2041EAC6
:10397000DC51FCF70DFC194B5B68C3F301430133C9
:103980005B00B0FBF3F008BD144B5868C0F388101F
:103990004FEA401CBCEB000C6EEB0E0E4FEA8E1390
:1039A00043EA9C634FEA8C11B1EB0C0163EB0E030D
:1039B000DB0043EA5173C90011EB000C43F1000333
:1039C000990200234FEA8C2041EA9C51FCF7E0FB6E
:1039D000D1E70348D7E70348D5E700BF00380240E6
:1039E00000127A000024F400002800F09B8070B5DB
:1039F0000D4604464F4B1B6803F007038B4208D269
:103A0000CBB24C4A1370136803F007038B4240F0AB
:103A10008B80236813F0020F17D013F0040F04D02B
:103A2000454A936843F4E0539360236813F0080F0A
:103A300004D0414A936843F4604393603E4A9368DC
:103A400023F0F003A1680B439360236813F0010F88
:103A500032D06368012B21D09A1E012A25D9364A1B
:103A6000126812F0020F61D033498A6822F0030213
:103A700013438B60FDF764FF06462F4B9B6803F0F2
:103A80000C036268B3EB820F16D0FDF759FF801B61
:103A900041F288339842F0D9032042E0264A126866
:103AA00012F4003FE0D101203BE0234A126812F0FB
:103AB000007FD9D1012034E01E4B1B6803F00703BF
:103AC000AB4207D9EAB21B4B1A701B6803F007031D
:103AD000AB422DD1236813F0040F06D0164A936829
:103AE00023F4E053E1680B439360236813F0080F5D
:103AF00007D0114A936823F46043216943EAC10364
:103B00009360FFF703FF0C4B9B68C3F303130B4A4F
:103B1000D35CD8400A4B18600A4B186800F008FEC6
:103B2000002070BD012070470120FAE70120F8E76E
:103B30000120F6E7003C024000380240845E0008A5
:103B40001800002014000020014B1868704700BFC7
:103B50001800002008B5FFF7F7FF044B9B68C3F37C
:103B60008223034AD35CD84008BD00BF003802401E
:103B70007C5E000808B5FFF7E7FF044B9B68C3F3C2
:103B80004233034AD35CD84008BD00BF003802402E
:103B90007C5E00080F2303600B4B9A6802F003025F
:103BA00042609A6802F0F00282609A6802F4E05281
:103BB000C2609B68DB0803F4E0530361034B1B689E
:103BC00003F007030B60704700380240003C0240DE
:103BD00030B583B00546036813F0010F02D113F02E
:103BE000040F2BD04E4B00229A66FDF7A9FE044627
:103BF0004C4B1B6813F0006F06D0FDF7A1FE031BB2
:103C0000022BF5D903201EE06A68AB681B0743EA64
:103C10008213444AC2F88430414B01229A66FDF770
:103C20008FFE04463F4B1B6813F0006F06D1FDF773
:103C300087FE031B022BF5D9032004E02B6813F049
:103C4000020F02D1002003B030BD00230193354B99
:103C50001A6C42F080521A641B6C03F0805301937B
:103C6000019B314A136843F480731360FDF768FECB
:103C700004462D4B1B6813F4807F06D1FDF760FED0
:103C8000001B0228F5D90320DDE7264B1B6F13F438
:103C9000407314D0EA6802F440729A420FD0214B6C
:103CA0001A6F22F440721E490120C1F8400E002014
:103CB000C1F8400E1A671B6F13F0010F13D1EB68A8
:103CC00003F44072B2F5407F1ED0164A936823F485
:103CD000F813936013490B6FEA68C2F30B021343A6
:103CE0000B670020AFE7FDF72BFE04460D4B1B6F63
:103CF00013F0020FE3D1FDF723FE031B41F28832DC
:103D00009342F3D903209EE706498A6822F4F81209
:103D100023F0704323F4407313438B60DAE700BF52
:103D2000000047420038024000700040012801D0E6
:103D300000207047154B9B6813F4000302D01BB39F
:103D400013487047114B5B6813F4800F14D00F4B6E
:103D50005A6802F03F020F4BB3FBF2F30B4AD2F862
:103D60008400C0F3881003FB00F0D2F88430C3F362
:103D70000273B0FBF3F07047044B5A6802F03F0245
:103D8000054BB3FBF2F3E9E71846704700380240F1
:103D90000080BB0000127A000024F4002DE9F043FB
:103DA00083B004460F4616461D46FDF7C9FD0A9B23
:103DB0001B1A03EB0508FDF7C3FD8146284B1B6862
:103DC000C3F3CB3308FB03F3019323689B6837EA03
:103DD00003030CBF01230023B3423DD0B5F1FF3FE5
:103DE000F3D0FDF7ADFD4B46C01A404503D2019B11
:103DF00073BB9846E9E72268536823F0E0035360F9
:103E00006368B3F5827F0BD0A36AB3F5005F14D06B
:103E1000012384F85130002384F8503003201CE043
:103E2000A368B3F5004F02D0B3F5806FECD12268E0
:103E3000136823F040031360E6E72268136823F455
:103E4000005313602268136843F400531360DFE7E4
:103E5000019B013B0193B8E7002003B0BDE8F0836C
:103E60001800002070B584B004460B460D46164677
:103E7000009201220221FFF791FFD0B9174B1B6876
:103E8000174AA2FB03235B0D4FF47A7202FB03F384
:103E900003936368B3F5827F11D0039B3BB1039B0F
:103EA000013B039323689B6813F0800FF5D104B0A6
:103EB00070BD636D43F0200363650320F7E7009650
:103EC0002B46002280212046FFF768FF0028EED015
:103ED000636D43F0200363650320E8E718000020CA
:103EE000819F5E1610B582B004460B464168B1F55D
:103EF000827F14D06168B1F5827F2AD1A168B1F5C3
:103F0000806F19D00092002280212046FFF746FFE3
:103F100030B3636D43F020036365032020E08168C4
:103F2000B1F5004F02D0B1F5806FE3D12068016890
:103F300021F040010160DDE70092002201212046CE
:103F4000FFF72CFF60B1636D43F02003636503202E
:103F500006E00092002201212046FFF71FFF08B96A
:103F600002B010BD636D43F0200363650320F7E7E3
:103F700000285AD010B50446436A33B94368B3F5F4
:103F8000827F05D00023C36102E000230361436107
:103F90000023A36294F85130002B40D0022384F810
:103FA00051302268136823F040031360636803F400
:103FB0008273A26802F404421343E26802F40062CE
:103FC0001343226902F002021343626902F0010204
:103FD0001343A26902F400721343E26902F038024B
:103FE0001343226A02F080021343A26A02F40052D1
:103FF000216813430B60638B03F00403626A02F0D1
:104000001002216813434B602268D36923F40063D4
:10401000D36100206065012384F8513010BD84F81D
:1040200050302046FEF7FCFCB8E7012070472DE930
:10403000F04383B004460F46914698460A9DFDF72B
:104040007FFC064694F851306268012B0BD0D9B240
:10405000B2F5827F40F00D81A368002B40F00D8106
:10406000042940F00C81002F00F00B814B46002BFF
:1040700000F009814346002B00F0078194F850308E
:10408000012B00F00481012384F8503094F8513062
:10409000042B02D0052384F8513000236365C4F853
:1040A0003890A4F83E80A4F83C802763A4F83680BA
:1040B000A4F834802364636423681A6812F0400F04
:1040C00003D11A6842F040021A60E368B3F5006F4A
:1040D00013D0636813B14346012B0BD1226B2368C5
:1040E00012781A73236B01332363E38E9BB2013B77
:1040F0009BB2E38601231F4674E0636813B1434615
:10410000012B0BD1226B23681288DA60236B0233F8
:104110002363E38E9BB2013B9BB2E38601231F46E0
:104120001BE02268936813F001030ED0E18F89B27F
:1041300059B1D168A26B1180A26B0232A263E28FE7
:1041400092B2013A92B2E2871F46FDF7F9FB801B5B
:10415000A84202D3B5F1FF3F1FD1E38E9BB21BB93A
:10416000E38F9BB2002B64D023689A6812F0020F91
:10417000D7D0E28E92B2002AD3D0002FD1D0226BBA
:104180001288DA60236B02332363E38E9BB2013B18
:104190009BB2E38600231F46C3E7012384F8513016
:1041A000002384F85030032064E02268936813F001
:1041B00001030ED0E18F89B259B1D168A26B1170A1
:1041C000A26B0132A263E28F92B2013A92B2E2870D
:1041D0001F46FDF7B5FB831BAB4202D3B5F1FF3F92
:1041E0001FD1F5B1E38E9BB213B9E38F9BB203B33A
:1041F00023689A6812F0020FD7D0E28E92B2002A9A
:10420000D3D0002FD1D0226B12781A73236B0133D5
:104210002363E38E9BB2013B9BB2E38600231F46E0
:10422000C3E7012384F85130002384F85030032081
:1042300020E0324629462046FFF714FE90B9A368D5
:1042400033B901932368DA6801929B680193019B5B
:10425000012384F85130002384F85030636D4BB152
:10426000012007E020236365002384F850300120FB
:1042700000E0022003B0BDE8F0830220FAE702204C
:10428000F8E70120F6E70120F4E70120F2E7022039
:10429000F0E72DE9F04383B01D4690F85130012B33
:1042A00040F0B280044688469146DEB2002900F014
:1042B000AC80002A00F0A9804368B3F5827F01D169
:1042C000836853B3FDF73CFB074694F85030012B4D
:1042D00000F09F80012384F85030042384F851308B
:1042E00000236365C4F83880A4F83C90A4F83E909D
:1042F0002363A386E38623646364A368B3F5004F56
:1043000015D023681A6812F0400F03D11A6842F0E2
:1043100040021A60E368F3B143E0042380F85130AF
:10432000009513460A46FFF782FE06466DE02268B6
:10433000136823F0400313602268136823F480435A
:104340001360DEE7FDF7FCFAC01BA84202D3B5F10B
:10435000FF3F15D1A5B1E38F9BB2002B42D023685C
:104360009A6812F0010FEDD0A26B1B7B1370A36B48
:104370000133A363E38F9BB2013B9BB2E387EAE780
:10438000012384F85130002384F8503003263CE0A8
:10439000FDF7D6FAC01BA84202D3B5F1FF3F19D1F1
:1043A000C5B1E38F9BB2EBB123689A6812F0010F9D
:1043B000EED0DA68A36B1A80A36B0233A363B4F860
:1043C0003EC01FFA8CFC0CF1FF3C1FFA8CFCA4F8D9
:1043D0003EC0E6E7012384F85130002384F85030D2
:1043E000032612E03A4629462046FFF77BFD08B136
:1043F00020236365012384F85130002384F8503072
:10440000636D13B91E4600E00226304603B0BDE8D6
:10441000F0830226F9E7704790F83D30012B37D141
:10442000022380F83D300268D36843F00103D36073
:104430000368194A934220D0B3F1804F1DD0A2F5F2
:104440007C42934219D002F58062934215D002F566
:104450008062934211D002F5784293420DD002F56A
:104460007052934209D0A2F59432934205D01A6853
:1044700042F001021A60002070479A6802F00702B9
:10448000062A07D01A6842F001021A60002070471D
:1044900001207047002070470000014070477047BE
:1044A0007047704770B504460368DE681D6915F0F3
:1044B000020F10D016F0020F0DD06FF002021A6139
:1044C0000123037703689B6913F0030F5ED0FFF7A6
:1044D000E6FF0023237715F0040F12D016F0040F27
:1044E0000FD023686FF004021A6102232377236838
:1044F0009B6913F4407F4FD02046FFF7D0FF002385
:10450000237715F0080F12D016F0080F0FD023688C
:104510006FF008021A61042323772368DB6913F024
:10452000030F40D02046FFF7BAFF0023237715F092
:10453000100F12D016F0100F0FD023686FF010027A
:104540001A61082323772368DB6913F4407F31D095
:104550002046FFF7A4FF0023237715F0010F02D0B8
:1045600016F0010F2DD115F0800F02D016F0800F3C
:104570002FD115F0400F02D016F0400F31D115F0B9
:10458000200F02D016F0200F33D170BDFFF786FF49
:104590002046FFF785FF9CE72046FFF77FFF204678
:1045A000FFF77EFFABE72046FFF778FF2046FFF7D7
:1045B00077FFBAE72046FFF771FF2046FFF770FF4D
:1045C000C9E723686FF001021A612046FCF734FA4C
:1045D000C9E723686FF080021A61204600F0A7F84F
:1045E000C7E723686FF040021A612046FFF759FFC2
:1045F000C5E723686FF020021A61204600F096F8A4
:10460000C3E700000368324A904212D0B0F1804FF5
:104610000FD0A2F57C4290420BD002F5806290420E
:1046200007D002F58062904203D002F578429042B2
:1046300003D123F070034A681343254A90422AD0DD
:10464000B0F1804F27D0A2F57C42904223D002F5F2
:10465000806290421FD002F5806290421BD002F52A
:104660007842904217D002F57052904213D002F572
:10467000806290420FD002F5806290420BD0A2F58A
:104680009832904207D002F58062904203D002F542
:104690008062904203D123F44073CA68134323F02D
:1046A00080034A6913438A68C2620A688262084AC0
:1046B000904203D002F58062904201D10A69026300
:1046C000026842F004020260012242610360704706
:1046D0000000014040B310B5044690F83D30F3B1FE
:1046E000022384F83D30214651F8040BFFF78AFF7E
:1046F000012384F8463084F83E3084F83F3084F853
:10470000403084F8413084F8423084F8433084F8F3
:10471000443084F8453084F83D30002010BD80F8E6
:104720003C30FFF778FEDBE70120704770477047A9
:1047300030B589B00546002401941E4B5A6C42F0F6
:1047400001025A645B6C03F001030193019B02A90F
:1047500003A8FFF71FFAFFF70DFA4300164AA2FB62
:1047600003239B0C013B1548154A026040F2E732D7
:10477000C2604360046184608461FFF7ABFF04465C
:1047800010B1204609B030BD0C48FFF745FE044685
:104790000028F6D11920FDF755F90F2D01D9012474
:1047A000EFE7002229461920FDF73CF9054B1D6073
:1047B000E7E700BF0038024083DE1B43844D002042
:1047C0000000014014000020FEE7FEE7FEE7FEE7E0
:1047D000FEE7704708B50248FFF764FE08BD00BF5A
:1047E000844D002008B50248FEF798FB08BD00BFC5
:1047F0004847002082B000230193019B01330193BD
:10480000019BB3F1706F1CD80369002BF5DA0A2302
:10481000019302E0019B013B0193019B002BF9D125
:10482000036943F001030361019B01330193019B81
:10483000B3F1706F08D8036913F0010FF4D10020B1
:1048400000E0032002B070470320FBE784B010B5FE
:10485000044603A880E80E009DF81130012B21D1F9
:10486000A36B23F48033A363E36823F4840323F06E
:104870004003E360E36823F44013E3609DF81830DD
:10488000012B0AD02046FFF7B5FF9DF80E30012B13
:104890001CD0BDE8104004B07047E36843F48013B7
:1048A000E360EFE7E36843F04003E3602046FFF78F
:1048B000A1FF9DF8153023B9A36B43F48033A363A4
:1048C000E3E7A36B23F48033A363DEE7A36843F03D
:1048D0000603A360A36843F02003A360D9E70000A8
:1048E000022A0AD00922C36823F47053C360C36844
:1048F00043EA8223C36000207047234B0B44234AC2
:1049000093422FD9224B0B44224A93422CD9A1F532
:104910007403A3F51053204A934227D9A1F183735E
:10492000A3F5E7431D4A934222D31D4B0B441D4A76
:1049300093421FD91C4B0B441C4A93421CD31C4B63
:104940000B441C4A934219D3A1F1B773A3F55853F2
:10495000194A934214D3194B0B44194A934211D26A
:104960000722C0E70F22BEE70E22BCE70D22BAE7FE
:104970000C22B8E70B22B6E70A22B4E70922B2E715
:104980000822B0E70622AEE7405327FFFF340C00B1
:10499000401E1BFF3F420F007F4F120020D6130026
:1049A00060B6E5FE5FE3160000D3CEFE40771B0045
:1049B000C05BB3FEC091210020753800E05459FE61
:1049C000E09C4100836823F001038360002070476E
:1049D00082B000230193019B01330193019BB3F14A
:1049E000706F15D80369002BF5DA00230193890154
:1049F00041F020010161019B01330193019BB3F15F
:104A0000706F08D8036913F0200FF4D1002000E084
:104A1000032002B070470320FBE782B0002301931C
:104A2000019B01330193019BB3F1706F13D80369AC
:104A3000002BF5DA0023019310230361019B01335E
:104A40000193019BB3F1706F08D8036913F0100F45
:104A5000F4D1002000E0032002B070470320FBE700
:104A6000D0F800381943C0F8001800207047000043
:104A700084B070B5044605A880E80E00002306E067
:104A800003F1400204EB82020021516001330E2B3E
:104A9000F6D99DF81E5005BBD4F8043843F0020344
:104AA000C4F80438A36B43F40013A363A36B23F48B
:104AB0000023A363A36B23F48023A3630023C4F820
:104AC000003E9DF81930012B15D19DF817306BB9B8
:104AD00019462046FFF7C4FF11E0A36B23F400132F
:104AE000A363A36B43F40023A363E7E701212046FC
:104AF000FFF7B6FF03E003212046FFF7B1FF1021C7
:104B00002046FFF765FF064608B101231E462046F2
:104B1000FFF783FF08B101231E4604F5006C002354
:104B2000CCF81030CCF81430CCF81C300DE04FF03D
:104B30009040C2F8000902E00020C2F800090022FB
:104B40000A614FF67F328A6001339DF81410994252
:104B50000ED904EB431202F51061D2F800090028C7
:104B6000EADA002BE3D14FF00060C2F80009E6E773
:104B700000230AE0CBB14FF0904EC2F800EB0022C8
:104B800002614FF67F3282600133994212D904EB01
:104B9000431202F53060D2F800EBBEF1000FE9DB02
:104BA0004FF0000EC2F800EBE9E74FF0006EC2F8DC
:104BB00000EBE4E7DCF8103023F48073CCF810301D
:104BC0000023A3616FF0804363619DF816301BB929
:104BD000A36943F01003A361A2690C4B1343A361C3
:104BE0009DF81A301BB1A36943F00803A361012D9E
:104BF00004D03046BDE8704004B07047A36943F06C
:104C0000804343F00403A361F3E700BF00383C8016
:104C1000D0F8083813F0060307D0022B07D0062B74
:104C200001D00F20704702207047002070470220FB
:104C3000704782B00246002301934878012809D0CA
:104C40000B7802EB4313D3F8000B00282DDB002078
:104C500002B070470B7802EB4313D3F800C9BCF1E4
:104C6000000F01DB0020F3E7D3F800C94CF0006C23
:104C7000C3F800C90B7802EB4313D3F800C94CF01A
:104C8000804CC3F800C9019B01330193DDF804C0D7
:104C900042F210739C45DBD80B7802EB4313D3F838
:104CA0000039002BEFDB0020D2E7D3F8000B40F0F7
:104CB0000060C3F8000B0B7802EB4313D3F8000B32
:104CC00040F08040C3F8000B019B01330193019831
:104CD00042F21073984208D80B7802EB4313D3F8D2
:104CE000003B002BF0DB0020B2E70120B0E710B55D
:104CF00004469DF8080078B903334FEA930E8446C2
:104D000008E004EB023303F5805351F8040B1860FC
:104D10000CF1010CF445F4D3002010BD00B584461D
:104D200008464FEA920E02F00302002305E00CF55C
:104D30008051096840F8041B01337345F7D37AB1F9
:104D40000CF5805CDCF800C00021CBB2DB002CFA53
:104D500003F300F8013B0131013A92B2002AF4D189
:104D600000BDD0F8003E23F00303C0F8003ED0F8A9
:104D7000043843F00203C0F8043800207047426949
:104D8000806910407047D0F8183800F50060C0699D
:104D90001840000C7047D0F8183800F50060C06962
:104DA000184080B2704700EB4111D1F8082B00F594
:104DB0000060406910407047D0F81028D0F83438AF
:104DC00001F00F0C23FA0CF3DB01DBB2134300EB11
:104DD000411000F51060806818407047406900F08D
:104DE0000100704738B50546C36823F0C043C3606F
:104DF000012913D019BBC36843F08043C3600C463C
:104E00000A20FCF7A3FD0A342846FFF7E7FF08B1A4
:104E1000C72CF5D9C82C14D0002038BDC36843F086
:104E20000053C36000240A20FCF790FD0A34284692
:104E3000FFF7D4FF0128EDD0C72CF4D9EAE7012011
:104E4000EBE70120E9E7D0F800396FF30A03C0F877
:104E50000039D0F8043843F48073C0F804380020D7
:104E6000704700008C46016C144B994203D9D0F86E
:104E7000003B002B17DB0021C0F8101BD0F8101BE3
:104E800041F40021C0F8101BD0F8101B41F01801AC
:104E9000C0F8101BD0F8101B41F0C041C0F8101B27
:104EA000BCF1010F01D000207047C0F8142BD0F8DE
:104EB000003B43F08023C0F8003BF4E70A30544F36
:104EC000034AD2F8883043F47003C2F88830704740
:104ED00000ED00E0084B1B681B6823B9074B4FF03F
:104EE000FF321A607047044B1B68DB68DB685A6846
:104EF000024B1A60704700BF3C4E0020D44D00208A
:104F00002DE9F84380469946089D0A9C236B02F1DF
:104F10008042013A03EB820323F007031F4699B353
:104F200008464FF0000CBCF10F0F09D810F80C2008
:104F300004EB0C0383F8342012B10CF1010CF2E7FE
:104F4000002384F84330062D00D90625E562656408
:104F50000026A664201DFBF75AFC04F11800FBF79D
:104F600056FC2461C5F10705A5616462E66484F816
:104F700050604A4641463846FBF7FAFE2060099BDE
:104F800003B11C60BDE8F883002384F83430DAE70D
:104F900038B5002407E004EB84000F4B03EB8000DE
:104FA000FBF72AFC0134062CF5D90C4D2846FBF7FB
:104FB00023FC0B4C2046FBF71FFC0A48FBF71CFCAC
:104FC0000948FBF719FC0948FBF716FC084B1D6064
:104FD000084B1C6038BD00BF684E0020544E0020B6
:104FE000404E0020244E0020104E0020F84D00209E
:104FF0003C4E0020384E002010B50446FBF7E2FE80
:10500000214A136801331360204B1B685BB1204BAE
:105010001B686BB91D4B1B68DA6AE36A9A4207D8B2
:105020001A4B1C6004E0194B1C601368012B28D03C
:10503000184A136801331360E06A01238340164A5B
:1050400011680B43136000EB8000211D134B03EB31
:105050008000FBF7DFFBFBF7D7FE0D4B1B687BB136
:105060000A4B1B68DA6AE36A9A4209D24FF0E023DE
:105070004FF08052C3F8042DBFF34F8FBFF36F8FF3
:1050800010BDFFF785FFD3E7F44D0020F44E00205C
:10509000E84D0020D84D0020EC4D0020684E002047
:1050A00010B5044690F8513063B1012B11D0022B9A
:1050B0000ED04FF0500383F31188BFF36F8FBFF30F
:1050C0004F8FFEE7006BFBF757FB2046FBF754FBC7
:1050D00010BDFBF751FBFBE70F4B1B68D3B110B5BD
:1050E000FBF770FE0D4BDB68DC68201DFBF7B9FB9E
:1050F0000B4A1368013B1360074A1368013B1360B6
:10510000FBF782FE2046FFF7CBFF034B1B68002B0B
:10511000E6D110BD704700BF0C4E0020104E00209D
:10512000F44D002008B5FFF7D7FF074B1B68012B94
:10513000F9D94FF0E0234FF08052C3F8042DBFF3AC
:105140004F8FBFF36F8FEEE7684E002070B50446B7
:105150000E461D4B1D681D4B18680430FBF781FB84
:1051600048B91A4B1B68DB6A01229A4018490B6840
:1051700023EA02030B60B4F1FF3F0DD02C44134B24
:105180001B685C60A54210D9124B18680F4B196858
:105190000431FBF74AFB70BD002EEFD00B4B1968B2
:1051A00004310D48FBF736FBF5E70C4B1868074B4D
:1051B00019680431FBF739FB094B1B68A342EAD994
:1051C000074B1C60E7E700BFF04D0020F44E0020C5
:1051D000EC4D0020384E0020F84D00203C4E0020C1
:1051E000D44D002010B586B08C46099979B10A9942
:1051F000B1B154210491049954291AD04FF05003AD
:1052000083F31188BFF36F8FBFF34F8FFEE74FF02B
:10521000500383F31188BFF36F8FBFF34F8FFEE707
:105220004FF0500383F31188BFF36F8FBFF34F8F9D
:10523000FEE7DDF810E00A99099C0C6302210A9C44
:1052400084F8511000210391029405A90191089955
:1052500000916146FFF754FE0A98FFF7CDFE0598CE
:1052600006B010BD2DE9F04385B08146884614464E
:105270001F469000FBF7FEF900B306465420FBF7EB
:10528000F9F90546A0B12E63002380F8513003934D
:1052900002900D9B01930C9B00933B462246414696
:1052A0004846FFF72DFE2846FFF7A6FE012007E03F
:1052B0003046FBF761FA4FF0FF3001E04FF0FF306E
:1052C00005B0BDE8F083000010B588B00024059457
:1052D000069407AA06A905A8FBF760F9059B0293A7
:1052E000069B019300942346079A0E490E48FFF748
:1052F00079FF0E4B186090B14FF0500383F3118883
:10530000BFF36F8FBFF34F8F094B4FF0FF321A601F
:10531000084B01221A60084B1C60FBF7EDFD08B03A
:1053200010BD00BF745E000825510008D04D00205C
:10533000D44D0020E84D0020F04D0020024A1368B3
:1053400001331360704700BFCC4D0020F8B53D4BD2
:105350001B68002B6ED13C4B1D6801351D60C5B923
:105360003A4B1B681B6843B14FF0500383F311881D
:10537000BFF36F8FBFF34F8FFEE7344A1168344B92
:10538000186810601960334A136801331360FFF71F
:10539000A1FD314B1B68AB4241D900231F462F4B67
:1053A0001B68DB6A03EB83039B002D4AD358012B58
:1053B00001D901231F462B4B1B68002B40D0012332
:1053C0001F463DE001231F46204B1B681B684BB363
:1053D0001E4B1B68DB68DC6863689D4227D3261D73
:1053E0003046FBF73EFAA36A1BB104F11800FBF745
:1053F00038FAE06A012383401B4A11680B431360AB
:1054000000EB80003146164B03EB8000FBF702FAFD
:10541000E26A124B1B68DB6A9A42D3D2D4E70023BC
:105420001F46D1E70C4B4FF0FF321A60B7E70A4A2C
:105430001360B4E70D4A13680133136000231F465D
:105440003846F8BDCC4D0020F04D00203C4E0020E9
:10545000384E0020DC4D0020D44D0020F44E0020BA
:10546000684E0020E04D0020EC4D0020E44D00206F
:1054700038B5354B1B6843B94FF0500383F311889F
:10548000BFF36F8FBFF34F8FFEE7FBF79BFC2E4BF5
:105490001A68013A1A601B68002B4FD12B4B1B680E
:1054A0000BB91C464BE00024294B1B681BB3284B4F
:1054B000DB68DC6804F11800FBF7D3F9251D2846EA
:1054C000FBF7CFF9E06A01238340224A11680B43BE
:1054D000136000EB800029461F4B03EB8000FBF7B5
:1054E00099F9E26A1D4B1B68DB6A9A42DCD31C4BBC
:1054F00001221A60D8E70CB1FFF7ECFC194B1C68CD
:1055000084B9174B1C68D4B14FF0E0234FF08052A0
:10551000C3F8042DBFF34F8FBFF36F8F01240EE04C
:10552000013C07D0FFF712FF0028F9D00C4B0122F5
:105530001A60F5E70B4B00221A60E2E70024FBF744
:1055400063FC204638BD00BFCC4D0020F44D002048
:10555000244E0020EC4D0020684E0020F44E002028
:10556000E04D0020E44D002010B5A8B10446104BDA
:105570001B6843B14FF0500383F31188BFF36F8F63
:10558000BFF34F8FFEE7FFF7D9FE00212046FFF75C
:10559000DDFDFFF76DFF48B94FF0E0234FF080527B
:1055A000C3F8042DBFF34F8FBFF36F8F10BD00BF43
:1055B000CC4D0020204B1B681BB1204B01221A60F0
:1055C00070471E4B00221A601D4B1B68B3FA83F311
:1055D000DBB2C3F11F0303EB8302920019498A581F
:1055E00042B94FF0500383F31188BFF36F8FBFF3BD
:1055F0004F8FFEE7134803EB830200EB82025168F2
:105600004968516003EB83029200083202449142E0
:1056100009D003EB83030B4A02EB83035B68DA6870
:10562000094B1A607047486803EB8301054A02EB97
:1056300081025060EDE700BFCC4D0020E04D00201E
:10564000EC4D0020684E0020F44E002058B110B5FB
:105650000C46094A11681831FBF7E7F8012120468A
:10566000FFF774FD10BD4FF0500383F31188BFF3B3
:105670006F8FBFF34F8FFEE7F44E002038B5C3683D
:10568000DC6834B304F118031D461846FBF7E9F84B
:10569000184B1B6833BB231D1D461846FBF7E1F86A
:1056A000E06A01238340144A11680B43136000EB46
:1056B00080002946114B03EB8000FBF7ABF8E26A50
:1056C0000F4B1B68DB6A9A4211D901200D4B186001
:1056D00038BD4FF0500383F31188BFF36F8FBFF3D2
:1056E0004F8FFEE729460848FBF794F8E7E70020CC
:1056F000EEE700BFCC4D0020EC4D0020684E0020AE
:10570000F44E0020E04D0020244E0020034B1B6887
:105710000360034B1B684360704700BFDC4D0020F3
:10572000F04D0020E0B170B50C46064609B3FBF71A
:1057300049FB1C4B19687368C81A2268B2F1FF3F15
:1057400028D03568DFF860C0DCF800C0654501D0BE
:105750008B4224D9824215D80023236001241AE009
:105760004FF0500383F31188BFF36F8FBFF34F8F58
:10577000FEE74FF0500383F31188BFF36F8FBFF341
:105780004F8FFEE75B1A134423603046FFF7BEFFDE
:10579000002400E00024FBF737FB204670BD012405
:1057A000F9E700BFF04D0020DC4D0020014B012245
:1057B0001A607047E04D0020054B1B6833B1054B64
:1057C0001B680BB100207047022070470120704712
:1057D000E84D0020CC4D002000284BD038B50446C1
:1057E000C36A254A1268D26A934239D28269002A72
:1057F00005DB214A1268D26AC2F10702826161693F
:1058000003EB83031D4A02EB8303994205D01A4B35
:105810001B68DB6AE362012038BD231D1D46184664
:10582000FBF71FF838B9E36A01229A4014490B6864
:1058300023EA02030B60104B1B68D86AE062012464
:1058400004FA00F30E4A11680B43136000EB80006A
:1058500029460A4B03EB8000FAF7DCFF2046DBE722
:10586000426C054B1B68DB6A9A4201D30020D3E7E8
:105870000120D1E7704700BFF44E0020684E0020A1
:10588000EC4D002000284ED038B50446264B1B684E
:10589000834208D04FF0500383F31188BFF36F8F1A
:1058A000BFF34F8FFEE7836C43B94FF0500383F390
:1058B0001188BFF36F8FBFF34F8FFEE7013B836407
:1058C000C16A426C91422CD00BB1002038BD031D3F
:1058D0001D461846FAF7C5FF68B9E36A03EB830271
:1058E000920012498A5832B901229A4010490B6835
:1058F00023EA02030B60606CE062C0F10703A3615E
:10590000012404FA00F30A4A11680B43136000EB08
:1059100080002946054B03EB8000FAF77BFF204609
:10592000D4E70020D2E77047F44E0020684E0020F4
:10593000EC4D0020002850D038B50446836C43B9A4
:105940004FF0500383F31188BFF36F8FBFF34F8F76
:10595000FEE7426C8A4200D20A46E16A914201D0D7
:10596000012B00D038BD1D4B1B68A3422CD0E26236
:10597000A369002B02DBC2F10702A261626901EB9D
:105980008101174B03EB81039A42EBD1231D1D4686
:105990001846FAF766FF38B9E36A01229A401149BE
:1059A0000B6823EA02030B60E06A012383400D4A7F
:1059B00011680B43136000EB80002946084B03EB92
:1059C0008000FAF727FFCDE74FF0500383F31188EB
:1059D000BFF36F8FBFF34F8FFEE77047F44E002089
:1059E000684E0020EC4D0020054B1B6823B1044B92
:1059F0001A68936C01339364014B1868704700BFB9
:105A0000F44E0020DFF834D0FFF75AFA0C480D4965
:105A10000D4A002302E0D458C4500433C4188C4209
:105A2000F9D30A4A0A4C002301E013600432A2426F
:105A3000FBD300F019F8FBF7F1F8704700000220E3
:105A4000000000201C000020A45E00081C000020B4
:105A5000F84E0020FEE702440346934200D170470F
:105A600003F8011BF9E7000070B50D4B0D4C002643
:105A70001D1BB6EBA50F09D100F0B8F90A4C0B4B72
:105A800000261D1BB6EBA50F05D170BD54F8043BD5
:105A900098470136EDE754F8043B98470136F1E7A3
:105AA0009C5E00089C5E00089C5E0008A05E0008EA
:105AB0000A44914200F1FF3300D1704710B511F84C
:105AC000014B03F8014F9142F9D110BD2DE9F04788
:105AD00082B00646DDF828E00846B4460D46002BA5
