:020000040800F2
:1000000000000220B96E00081D4100081F410008D1
:10001000214100082341000825410008000000009C
:10002000000000000000000000000000310B00088C
:100030002741000800000000D10B0008350C000823
:10004000096F0008096F0008096F0008096F0008B0
:10005000096F0008096F0008096F0008096F0008A0
:10006000096F0008096F0008096F0008096F000890
:10007000096F0008096F0008096F0008096F000880
:10008000096F0008096F0008096F0008096F000870
:10009000096F0008096F0008096F0008096F000860
:1000A000096F000829410008096F0008096F00085E
:1000B000096F0008096F0008096F0008096F000840
:1000C000096F0008096F0008096F0008096F000830
:1000D000096F0008096F0008096F0008096F000820
:1000E000096F0008096F0008096F0008096F000810
:1000F000096F0008096F0008096F0008096F000800
:10010000096F0008096F0008096F0008096F0008EF
:10011000096F0008096F0008096F0008096F0008DF
:10012000096F0008096F0008096F0008096F0008CF
:10013000096F0008096F0008096F0008096F0008BF
:10014000096F0008096F0008096F000839410008AD
:10015000096F0008096F0008096F0008096F00089F
:10016000096F0008096F0008096F0008096F00088F
:10017000096F0008096F0008096F000800000000FF
:08018000096F0008096F000877
:1001900053B94AB9002908BF00281CBF4FF0FF31EE
:1001A0004FF0FF3000F00CB8ADF1080C6DE904CE53
:1001B00007F004F8DDF804E0DDE9022304B070473D
:1001C000704700BF08B5064B1A783AB9054A1AB10C
:1001D0000548AFF30080024B01221A7008BD00BF32
:1001E0008000002000000000DC74000808B5034B0C
:1001F0001BB103490348AFF3008008BD00000000B5
:1002000084000020DC740008842801D0033070478B
:1002100000207047EFF30580003818BF01207047B9
:1002200008B504F0CBFE002008BD2DE9F04188B0F0
:100230000F464469C4B188468569ADB14668076810
:1002400002690592B0F90800FFF7DEFF02950194FC
:1002500000904346059A3946304604F03DFE07902B
:10026000079808B0BDE8F081446805680669B0F9F0
:100270000800FFF7C9FF07AB019300903B46B2B2FD
:100280002946204604F068FE0128E9D00020E8E76E
:1002900000B583B0826842B1C36833B100210091D8
:1002A0004168006800F09FFE04E000224168006899
:1002B00000F0E3FE03B000BD30B585B00446019107
:1002C0000023039315460AB901231D46FFF7A2FF39
:1002D000A8B1002303AA01A9204600F0B6FF012817
:1002E00018D1039BC3B14FF0E0234FF08052C3F805
:1002F000042DBFF34F8FBFF36F8F002008E003463C
:100300002A4601A9204600F0DCFE012806D1002083
:1003100005B030BDFF20FBE71846F9E7FF20F7E7FF
:1003200070B584B00546029100230193E1B10C46FB
:10033000164600230393FFF76DFFF8B103AA01A946
:10034000204601F09AF8012815D000230093039B62
:10035000FBB14FF0E0234FF08052C3F8042DBFF300
:100360004F8FBFF36F8F14E0802300939DE8070049
:1003700085E8070011E010230093E8E7324601A961
:10038000204600F0CBFF01280AD00EB140231E46C4
:1003900000969DE8070085E80700284604B070BD78
:1003A00010230093F5E710B50446FFF733FF18B1AB
:1003B000204601F0CEF810BD204601F0B6F8FAE76D
:1003C000034B0360034B0B6080231360704700BF37
:1003D0009C0200209C000020124A12F0070F1ED041
:1003E000D11D21F00701C1F5705313440A460E4890
:1003F0000260002141601344083B23F007030B48CF
:10040000036059601960991A51601360084B1960B4
:10041000084B1960084B4FF000421A6070474FF4C8
:100420007053E4E7100300200803002004030020B9
:10043000FC02002000030020F0020020144B1A46AA
:100440001B688342FBD3516802EB010C844509D041
:10045000416800EB010C634509D00360904200D075
:10046000106070474068014451601046F0E7DFF8C3
:1004700024C0DCF800C0634506D05B6819444160C5
:1004800013681B680360E9E7C0F800C0E6E700BF37
:10049000080300200403002038B5044604F0C8FD1A
:1004A000384B1B68B3B1384B1B681C4250D1002C31
:1004B00050D004F1080214F0070F02D022F0070216
:1004C0000832002A55D0314B1B68934253D3304930
:1004D0000C6804E0FFF780FFE5E721461C466368EF
:1004E000934202D22368002BF7D1264B1B68A3420C
:1004F00043D00D68083523680B6063689B1A102B86
:1005000010D9A01810F0070F08D04FF0500383F354
:100510001188BFF36F8FBFF34F8FFEE743606260B8
:10052000FFF78CFF626819490B689B1A0B60194929
:1005300009688B4201D217490B60134B1B681343A8
:10054000636000232360144A13680133136002E0E0
:10055000002500E0254604F005FE15F0070F0ED03B
:100560004FF0500383F31188BFF36F8FBFF34F8FAA
:10057000FEE71546EFE70025EDE70025EBE7284607
:1005800038BD00BF04030020F0020020000300205B
:1005900008030020FC020020F8020020002835D0CB
:1005A00038B50446A0F108031D4650F8043C184A2B
:1005B0001268134208D14FF0500383F31188BFF340
:1005C0006F8FBFF34F8FFEE750F8081C41B14FF01B
:1005D000500383F31188BFF36F8FBFF34F8FFEE794
:1005E00023EA020340F8043C04F022FD54F8041C02
:1005F000084A13680B4413602846FFF71FFF064A9A
:1006000013680133136004F0ADFD38BD704700BFBF
:10061000F002002000030020F402002000F1080393
:1006200043604FF0FF328260C360036100230360C8
:10063000704700230361704743684B609A688A6083
:10064000516099600861036801330360704710B41A
:1006500002460846D1F800C0BCF1FF3F11D002F1BC
:10066000080319465B681C686445FAD94B68436007
:10067000986081604860026113680133136010BCA8
:1006800070471169F2E70369416882688A604168CE
:1006900051605A68824206D0002202611A68013A0B
:1006A0001A601868704782685A60F5E72DE9F04FC4
:1006B0008DB007AD00240794089409940A940B9414
:1006C0000194594B1A6B42F010021A631A6B02F034
:1006D00010020192019A02941A6B42F004021A630A
:1006E0001A6B02F004020292029A03941A6B42F00F
:1006F00080021A631A6B02F080020392039A049438
:100700001A6B42F001021A631A6B02F001020492A2
:10071000049A05941A6B42F002021A631A6B02F0F3
:1007200002020592059A06941A6B42F008021A63B7
:100730001B6B03F008030693069B3C4F22460821DF
:10074000384601F0C3F8DFF8F0A001221146504608
:1007500001F0BCF8DFF8E49022464FF21001484661
:1007600001F0B4F84FF00808CDF81C800126089677
:1007700009940A942946384600F0A4FF0796089683
:1007800009940A942946504600F09CFFCDF81C803D
:100790004FF00208CDF8208009940A944FF0050B21
:1007A000CDF82CB02946504600F08CFF07964FF448
:1007B000901ACDF820A0099429461D4800F082FF28
:1007C000042307930894099429461A4800F07AFFF5
:1007D0004FF480630793CDF8208009940A94CDF8F4
:1007E0002CB02946134800F06DFF4FF21003079319
:1007F000089609940A942946484600F063FF20238E
:100800000793089409942946484600F05BFFCDF809
:100810001C80CDF820A009942946384600F052FFEC
:100820000DB0BDE8F08F00BF00380240001002405C
:10083000000002400004024000080240000C024098
:1008400008B504F08BFE4FF48051044801F044F8E1
:100850004FF4FA7000F0B6FEF5E700BF000C02405E
:1008600008B50268034B9A4200D008BD00F098FE1C
:10087000FBE700BF0000014072B6FEE708B50A487A
:100880000A4B03600A4B436000238360C3604FF44C
:100890008042026143618361C361036202F094F8A4
:1008A00000B908BDFFF7E8FF0C40002000540040ED
:1008B000A086010008B50B480B4B03604FF4007293
:1008C000426000238360C36002614FF4FA524261C8
:1008D0008361C3610123036202F062F900B908BDBC
:1008E000FFF7CAFFC43F0020003C004008B50D4898
:1008F0000D4B03604FF48273436000238360C36039
:10090000036143614FF400728261C3610362436219
:1009100083620A23C36203F0C9F900B908BDFFF777
:10092000ABFF00BF6C3F00200030014008B50B4812
:100930000B4B0360002343608360C360036143612A
:100940004FF4007282610362436283620A23C362CE
:1009500003F0ACF900B908BDFFF78EFF143F00208B
:100960000038004010B594B008AC30220021204679
:1009700006F086FB002303930493059306930793E5
:100980000193204A116C41F080511164126C02F005
:1009900080520192019A02931B4B1A6842F48042E2
:1009A0001A601B6803F480430293029B012308939F
:1009B0004FF48033099302230E934FF480020F9279
:1009C000082210924FF4A8721192129307231393E6
:1009D000204602F025FD88B90F23039302230493D8
:1009E00005904FF4A05306934FF4805307930521CD
:1009F00003A802F081FF18B914B010BDFFF73CFF47
:100A0000FFF73AFF003802400070004000B58DB09B
:100A100000F0ACFD07A9002407944C608C60CC600A
:100A20000C614FF48053079301230893114800F0A1
:100A300049FEFFF797FFFFF739FEFFF71FFFFFF7AC
:100A400039FFFFF753FFFFF771FFEC46DFF82CE0AB
:100A5000BEE80F00ACE80F009EE807008CE8070036
:100A600021466846FFF7E1FB034B1860FFF7D8FB10
:100A7000FEE700BF000C0240103F0020F4740008A5
:100A800082B0002301930D4B1B68B3F1FF3F08D0E8
:100A90004FF0500383F31188BFF36F8FBFF34F8F75
:100AA000FEE74FF0500383F31188BFF36F8FBFF35E
:100AB0004F8F019B002BFCD002B07047000000203C
:100AC00008480068006880F308884FF0000080F351
:100AD000148862B661B6BFF34F8FBFF36F8F00DF2C
:100AE00000BF000008ED00E0DFF80C00016841F4F1
:100AF000700101607047000088ED00E04FF08073E6
:100B000040F8043C21F0010140F8081C054B40F876
:100B10000C3C40F8202C6FF0020340F8243C443891
:100B2000704700BF810A00080000000000000000BC
:100B3000074B19680868B0E8F04F80F30988BFF3E5
:100B40006F8F4FF0000080F311887047AFF3008083
:100B5000E04100204FF0500383F31188BFF36F8F03
:100B6000BFF34F8F0B4A136801331360012B00D082
:100B700070474FF0E023D3F8043D13F0FF0FF7D098
:100B80004FF0500383F31188BFF36F8FBFF34F8F84
:100B9000FEE700BF00000020094B1B6843B94FF07F
:100BA000500383F31188BFF36F8FBFF34F8FFEE7BE
:100BB000013B034A13600BB983F31188704700BFF0
:100BC0000000002000000000000000000000000005
:100BD000EFF30980BFF36F8F154B1A681EF0100FEB
:100BE00008BF20ED108A20E9F04F106009B44FF0E3
:100BF000500080F31188BFF34F8FBFF36F8F04F065
:100C00002DFB4FF0000080F3118809BC19680868BB
:100C1000B0E8F04F1EF0100F08BFB0EC108A80F360
:100C20000988BFF36F8F7047AFF30080AFF3008088
:100C3000E041002008B54FF0500383F31188BFF363
:100C40006F8FBFF34F8F04F0FBF928B14FF0E02313
:100C50004FF08052C3F8042D002383F3118808BDA0
:100C60004FF0E022002313619361054B1B68054997
:100C7000A1FB03139B09013B5361072313617047D9
:100C80000C000020D34D62104FF0E023D3F8002D6C
:100C90003E4B9A421CD04FF0E023D3F8002D3C4B42
:100CA0009A421ED010B582B03A4B1A78D2B2019255
:100CB000FF221A701B78DBB28DF803309DF80330E9
:100CC00003F05003344A1370344B07221A601BE0C0
:100CD0004FF0500383F31188BFF36F8FBFF34F8F33
:100CE000FEE74FF0500383F31188BFF36F8FBFF31C
:100CF0004F8FFEE7294A1368013B13609DF80330CC
:100D00005B00DBB28DF803309DF8033013F0800FE9
:100D1000F0D1224B1B68032B08D04FF0500383F314
:100D20001188BFF36F8FBFF34F8FFEE71B021B4A83
:100D3000136003F4E0631360019BDBB2154A137088
:100D40004FF0E022D2F8203D43F47003C2F8203D7A
:100D5000D2F8203D43F070431446C2F8203DFFF71F
:100D60007FFF0F4B00221A60FFF7BEFED4F8343F1E
:100D700043F04043C4F8343FFFF7A2FE04F06EFA9C
:100D8000FFF77EFE002002B010BD00BF71C20F4110
:100D900070C20F4100E400E0644000206040002089
:100DA00000000020EFF305830F2B0ED9114A9A5C47
:100DB000114B1B789A4208D24FF0500383F31188ED
:100DC000BFF36F8FBFF34F8FFEE74FF0E023D3F8F1
:100DD0000C3D03F4E063094A1268934208D94FF0CE
:100DE000500383F31188BFF36F8FBFF34F8FFEE77C
:100DF000704700BFF0E300E0644000206040002046
:100E000010B50446FFF7A6FEA26BE36B9A4204D02E
:100E10000024FFF7C1FE204610BD0124F9E710B5FC
:100E20000446FFF797FEA36B2BB901231C46FFF77F
:100E3000B3FE204610BD00231C46F8E770B50446FB
:100E40001646856B026C5AB903681BB10020013548
:100E5000A56370BD806804F013FB0023A360F6E770
:100E60006EB9406806F050F96368226C1344636001
:100E7000A268934219D3236863603046E7E7C068ED
:100E800006F042F9E368226C51429B1AE360226843
:100E9000934202D2A3680B44E360022E01D00020EB
:100EA000D5E725B1013D0020D1E73046CFE7284600
:100EB000CDE70346026C6AB110B50846D968114403
:100EC000D9609C68A14201D31968D960D96806F03D
:100ED0001BF910BD704738B50546FFF73BFE95F886
:100EE000454064B201E0013C64B2002C0ADD6B6A4B
:100EF00043B105F1240004F015FA0028F3D004F002
:100F0000A9FAF0E7FF2385F84530FFF745FEFFF724
:100F100021FE95F8444064B201E0013C64B2002C2B
:100F20000ADD2B6943B105F1100004F0FBF900283C
:100F3000F3D004F08FFAF0E7FF2385F84430FFF791
:100F40002BFE38BD38B5E0B10D460446FFF702FE72
:100F50002368E26B216C01FB0230A0600020A063DB
:100F60006360013A02FB0133E360FF2384F84430FD
:100F700084F84530FDB9236963B9FFF70DFE012000
:100F800038BD4FF0500383F31188BFF36F8FBFF369
:100F90004F8FFEE704F1100004F0C4F90028ECD0F4
:100FA0004FF0E0234FF08052C3F8042DBFF34F8F72
:100FB000BFF36F8FE1E704F11000FFF72FFB04F19F
:100FC0002400FFF72BFBD8E708B5034602988C46B0
:100FD00039B90060C363C0F840C00121FFF7B2FF18
:100FE00008BD0260F6E740B94FF0500383F3118863
:100FF000BFF36F8FBFF34F8FFEE710B584B01C4671
:10100000844653B192B189B94FF0500383F31188EC
:10101000BFF36F8FBFF34F8FFEE74FF0500383F3A3
:101020001188BFF36F8FBFF34F8FFEE76AB148237C
:101030000393039B482B13D04FF0500383F3118885
:10104000BFF36F8FBFF34F8FFEE70029EFD04FF054
:10105000500383F31188BFF36F8FBFF34F8FFEE709
:10106000039B012384F8463000949DF818306046B5
:10107000FFF7AAFF204604B010BD40B94FF050035F
:1010800083F31188BFF36F8FBFF34F8FFEE7F0B587
:1010900083B0164604460D4601FB00F04830FFF7CA
:1010A000FBF90246074648B1002380F8463000901D
:1010B0003346483229462046FFF786FF384603B0BC
:1010C000F0BDF0B585B0019288B10F461D460446CB
:1010D000B1B1022D20D1E36B012B1DD04FF0500395
:1010E00083F31188BFF36F8FBFF34F8FFEE74FF08D
:1010F000500383F31188BFF36F8FBFF34F8FFEE769
:10110000036C002BE5D04FF0500383F31188BFF33D
:101110006F8FBFF34F8FFEE704F0A2F9064658B970
:10112000019B002B48D04FF0500383F31188BFF38D
:101130006F8FBFF34F8FFEE700263DE02A4639460A
:101140002046FFF77BFE636A7BB948B14FF0E0238E
:101150004FF08052C3F8042DBFF34F8FBFF36F8F52
:10116000FFF71AFD012005B0F0BD04F1240004F0E2
:10117000D9F80028F4D04FF0E0234FF08052C3F8A4
:10118000042DBFF34F8FBFF36F8FE9E7FFF704FD27
:101190000020E8E702A804F00DF9012619E0002379
:1011A00084F8443021E0002384F8453023E02046D1
:1011B000FFF791FE03F0D6FFFFF7CCFCA26BE36BC9
:1011C0009A42BBD3022DB9D0019B002BDED0002E5A
:1011D000E0D0FFF7E1FC03F02BFFFFF7BBFC94F836
:1011E000442052B2B2F1FF3FD9D094F8452052B218
:1011F000B2F1FF3FD7D0FFF7CFFC01A902A804F05E
:10120000E5F8D8B92046FFF7FBFD0028CFD00199BB
:1012100004F1100004F06EF82046FFF75CFE03F0C6
:10122000A1FF0028C8D14FF0E0234FF08052C3F84F
:10123000042DBFF34F8FBFF36F8FBDE72046FFF73D
:101240004AFE03F08FFF00208DE72DE9F84390B1AF
:101250000F4690461E460446B1B1022E20D1E36BE4
:10126000012B1DD04FF0500383F31188BFF36F8F14
:10127000BFF34F8FFEE74FF0500383F31188BFF3A6
:101280006F8FBFF34F8FFEE7036C002BE5D04FF05D
:10129000500383F31188BFF36F8FBFF34F8FFEE7C7
:1012A000FFF780FDEFF311834FF0500282F31188B6
:1012B000BFF36F8FBFF34F8F9946A26BE36B9A42D8
:1012C00006D3022E04D0002089F31188BDE8F883EC
:1012D00094F845305DB2A36B324639462046FFF79D
:1012E000ADFDB5F1FF3F06D02B4601335BB284F86C
:1012F00045300120E8E7636A0BB90120E4E704F117
:10130000240004F00FF828B143462BB10120C8F89F
:101310000000D9E70120D7E70120D5E7F0B585B077
:10132000019290B10F460446C1B104F099F8064607
:1013300000BB019B002B5ED04FF0500383F311885C
:10134000BFF36F8FBFF34F8FFEE74FF0500383F370
:101350001188BFF36F8FBFF34F8FFEE7036C002B35
:10136000E3D04FF0500383F31188BFF36F8FBFF3C7
:101370004F8FFEE700263EE039462046FFF799FDF5
:10138000013DA563236923B9FFF706FC012005B0E1
:10139000F0BD04F1100003F0C5FF0028F4D04FF0B9
:1013A000E0234FF08052C3F8042DBFF34F8FBFF3FB
:1013B0006F8FE9E7FFF7F0FB2846E8E702A803F0A4
:1013C000F9FF012621E0002384F8443029E00023BE
:1013D00084F845302BE02046FFF77DFD03F0C2FE88
:1013E00009E02046FFF777FD03F0BCFE2046FFF73B
:1013F00016FD00283FD1FFF7ADFBA56B002DBBD13B
:10140000019B002BD6D0002ED8D0FFF7C5FB03F0F0
:101410000FFEFFF79FFB94F844305BB2B3F1FF3F40
:10142000D1D094F845305BB2B3F1FF3FCFD0FFF796
:10143000B3FB01A902A803F0C9FF0028D1D12046BF
:10144000FFF7EDFC0028C6D0019904F1240003F059
:1014500051FF2046FFF73FFD03F084FE0028CAD16C
:101460004FF0E0234FF08052C3F8042DBFF34F8FAD
:10147000BFF36F8FBFE7002089E72DE9F843C0B1C4
:101480000E4690460446E9B1FFF78CFCEFF311835A
:101490004FF0500282F31188BFF36F8FBFF34F8F6D
:1014A0001F46A36B9946CBB9184687F31188BDE850
:1014B000F8834FF0500383F31188BFF36F8FBFF3AE
:1014C0004F8FFEE7036C002BDED04FF0500383F309
:1014D0001188BFF36F8FBFF34F8FFEE794F844304E
:1014E0005DB231462046FFF7E4FC09F1FF33A36308
:1014F000B5F1FF3F06D02B4601335BB284F8443090
:101500000120D2E723690BB90120CEE704F11000D6
:1015100003F008FF28B143462BB10120C8F80000B2
:10152000C3E70120C1E70120BFE748B110B5044679
:10153000FFF710FBA36B1C46FFF72EFB204610BDE8
:101540004FF0500383F31188BFF36F8FBFF34F8FBA
:10155000FEE708B1806B70474FF0500383F31188AA
:10156000BFF36F8FBFF34F8FFEE7000008B50B4B43
:101570001A6842F400721A601A6842F480621A60B3
:101580001A6842F480721A60032000F075F80F2088
:1015900002F078FD01F006FE002008BD003C02408C
:1015A000034A1168034B1B780B441360704700BF5C
:1015B0006840002004000020014B1868704700BFFD
:1015C0006840002038B50446FFF7F6FF0546B4F141
:1015D000FF3F02D0044B1B781C44FFF7EDFF401B7C
:1015E000A042FAD338BD00BF04000020002807DB6A
:1015F00000F01F02400901239340024A42F82030C4
:10160000704700BF00E100E0002808DB0901C9B213
:1016100000F1604000F5614080F80013704700F071
:101620000F000901C9B2014B1954704714ED00E0D5
:1016300000B500F00700A0F1030CBCF1040F07D8BF
:10164000C0F1070E0430062806D84FF0000C03E066
:101650004FF0040E4FF0000C4FF0FF3303FA0EF082
:1016600021EA000101FA0CF103FA0CF322EA030269
:1016700041EA020000BD0000074AD36823F4E0639A
:101680001B041B0C000200F4E060034343F0BF6343
:1016900043F40033D360704700ED00E010B504461A
:1016A000054BD868C0F30220FFF7C2FF0146204671
:1016B000FFF7AAFF10BD00BF00ED00E008B5FFF77F
:1016C00095FF08BD70B582B08E46002369E085683D
:1016D0004FEA430C032101FA0CF125EA0105DEF87B
:1016E0000C1001FA0CF129438160416821EA0201E2
:1016F000DEF80420C2F300129A400A43426065E01B
:10170000D908083150F8212003F00705AD004FF04B
:101710000F0C0CFA05FC22EA0C0CDEF81020AA4093
:1017200042EA0C0240F8212067E0072200E0002294
:1017300002FA0CF22A430231604D45F82120604A3A
:101740009168E24321EA0405DEF8046016F4801F84
:1017500001D044EA01055A498D60C96802EA0105D1
:10176000DEF8046016F4001F01D044EA0105544974
:10177000CD60496802EA0105DEF8046016F4003F16
:1017800001D044EA01054E494D6009680A40DEF87F
:10179000045015F4803F01D044EA010248490A6030
:1017A00001330F2B00F2878001229A40DEF80010EF
:1017B00001EA020432EA0101F2D1DEF8041001F07C
:1017C000030C0CF1FF3CBCF1010F80D9DEF80420C2
:1017D00002F00302032A0AD0C1685D000322AA4076
:1017E00021EA0201DEF80820AA400A43C260DEF8BE
:1017F000042002F00302022A82D001684FEA430C5F
:10180000032202FA0CF221EA0201DEF8042002F0BF
:10181000030202FA0CF20A430260DEF8042012F41A
:10182000403FBDD000220192264A516C41F48041D4
:101830005164526C02F480420192019A99088D1C05
:101840001E4A52F8255003F0030C4FEA8C0C0F226D
:1018500002FA0CF225EA02051B4A90423FF467AFF8
:1018600002F5806290421AD002F58062904218D050
:1018700002F58062904216D002F58062904214D048
:1018800002F58062904212D002F58062904210D040
:1018900002F5806290423FF448AF082248E70122F7
:1018A00046E7022244E7032242E7042240E70522FA
:1018B0003EE706223CE702B070BD00BF00380140A1
:1018C000003C014000380240000002400AB1816142
:1018D0007047090481617047436901EA030221EA04
:1018E000030141EA0241816170470000F8B50468D4
:1018F000226A02F00F031F46C2F34343C2F30A12E7
:10190000022B00D0F8BD05461046002AFAD0C7EBDE
:10191000071305EB8303D96A0029F3D0C7EB07133C
:1019200005EB83039A6B02445B6B9A4207D9C7EBC2
:10193000071305EB8303042283F84C20E2E70646F5
:101940000246204602F0E0FCC7EB071305EB8303D9
:10195000DA6A3244DA629A6B32449A6304EB4714CF
:10196000D4F810251B8DB342CCD10D4B1340002B66
:10197000C8D0D4F8003523F0804343F00043C4F8C6
:101980000035C7EB071305EB830393F83C20C7EB47
:10199000071305EB830382F0010283F83C20B1E7D3
:1019A0000000F81F002843D030B583B00446036818
:1019B0001D4690F8D533BBB1032384F8D533B5F178
:1019C000A04F16D0206802F03AFC237C8DF800303E
:1019D000231D0ECB206802F0E3FB68B1022384F8DC
:1019E000D533012003B030BD80F8D43303F0F8FFC5
:1019F000E2E70023A371E5E70121206802F0B8FCCB
:101A000020B1022384F8D5330120EBE7237C8DF845
:101A10000030231D0ECB206802F0DCFC18B9012336
:101A200084F8D533DEE7022384F8D5330120D9E7E3
:101A30000120704738B5144615469DF81020BDF8B2
:101A400018E0C1EB011C00EB8C0C8CF817408CF8F3
:101A50002630A2BBC1EB011C00EB8C0C4FF0030441
:101A60008CF82A409DF81C408CF81940022B00F09D
:101A700085802DD8002B40D0012B06D1C1EB01135E
:101A800000EB8303002283F82A20C1EB011300EB53
:101A90008303059ADA62C3F834E0002283F84C200D
:101AA0009A63597583F84D20C1EB011189001031FB
:101AB000014482790431006802F0C0FE38BDC1EBF8
:101AC000011C00EB8C0C4FF002048CF82A40CDE78F
:101AD000032BDAD1002D40F08880C1EB011300EB1D
:101AE000830393F83D30002B77D1C1EB011300EB5A
:101AF0008303002283F82A20C7E7012AC5D1FDB954
:101B0000BEF1000F05D1C1EB011300EB830383F895
:101B10003D20C1EB011300EB830393F83D303BB94B
:101B2000C1EB011300EB8303002283F82A20ACE70A
:101B3000C1EB011300EB8303022283F82A20A4E700
:101B4000C1EB011300EB83039B7E012B9DD1C1EB05
:101B5000011300EB830393F83C303BB9C1EB011355
:101B600000EB8303002283F82A208EE7C1EB0113E8
:101B700000EB8303022283F82A2086E7B5B9C1EB84
:101B8000011300EB830393F83D303BB9C1EB011324
:101B900000EB8303002283F82A2076E7C1EB0113D0
:101BA00000EB8303022283F82A206EE7C1EB0113C6
:101BB00000EB830393F83C303BB9C1EB011300EB1E
:101BC0008303002283F82A205FE7C1EB011300EBB7
:101BD0008303022283F82A2057E7C1EB011300EBAD
:101BE0008303022283F82A204FE7C1EB011300EBA5
:101BF000830393F83C303BB9C1EB011300EB830343
:101C0000002283F82A2040E7C1EB011300EB830395
:101C1000022283F82A2038E730B583B004460568ED
:101C2000D5F840340193D5F840340093009B23F05D
:101C30002E030093019B13F0020F07D0019B13F0BA
:101C4000010F25D1009B43F002030093019B13F089
:101C5000080F10D0009B43F008030093019B13F082
:101C6000040F2DD0637A022B15D0E379012B22D0FB
:101C7000204603F017FF019B13F0200F03D0009BB9
:101C800043F020030093009BC5F8403403B030BDFF
:101C900003F0F6FED6E7019B03F4C023B3F5802FD3
:101CA00004D00121206802F017FCE1E7022120683E
:101CB00002F012FCDCE74EF66022C5F80424D7E7F8
:101CC000204603F0F5FED6E770B505460C460668DB
:101CD000304602F040FB10F0040F21D006EB441315
:101CE0000422C3F80825C4EB041305EB8303072281
:101CF00083F84D202146286802F00DFD2146286812
:101D000002F029FB10F4007F6CD02146286802F015
:101D100002FD06EB44164FF40073C6F8083570BD9B
:101D20002146286802F017FB10F4807F11D006EBE3
:101D300044134FF48072C3F80825C4EB041305EB79
:101D40008303082283F84D202146286802F0E3FC33
:101D5000D4E72146286802F0FEFA10F0080F10D0F0
:101D600006EB44130822C3F80825C4EB041305EB63
:101D70008303062283F84D202146286802F0CBFC1D
:101D8000BCE72146286802F0E6FA10F4806F11D013
:101D900006EB44134FF48062C3F80825C4EB041328
:101DA00005EB8303092283F84D202146286802F0C1
:101DB000B2FCA3E72146286802F0CDFA10F0800FAC
:101DC0009CD006EB44138022C3F80825C4EB04130F
:101DD00005EB8303072283F84D202146286802F093
:101DE0009AFC8BE72146286802F0B5FA10F0010F43
:101DF0007DD006EB441101F5A0662023B360C4EB4F
:101E0000041305EB8303DB7E012B30D0AB794BB1A0
:101E1000C4EB041305EB83031A6B3069C0F31200A3
:101E2000121A9A63C4EB041305EB8303012283F8AF
:101E30004D2000205864B26093F8263013B3022B73
:101E400020D0032B01D0012B22D1D1F8003543F053
:101E50000053C1F80035C4EB041305EB83030122E2
:101E600083F84C202146284603F016FE10E0C4EB10
:101E7000041305EB83030022DA76736823F48033BE
:101E80007360C3E72146286802F045FC1023B36065
:101E9000AB79012B0ED0C4EB041305EB830393F84D
:101EA0003C30C4EB041405EB840483F0010384F894
:101EB0003C3034E7C4EB041205EB8202936B128DC5
:101EC0001344013BB3FBF2F313F0010F3FF427AFD0
:101ED000C4EB041305EB830393F83C30C4EB041408
:101EE00005EB840483F0010384F83C3017E72146B6
:101EF000286802F030FA10F0200F1ED006EB4416CE
:101F00002023C6F80835C4EB041305EB83039B7E3E
:101F1000012B7FF404AFC4EB041305EB8303012210
:101F2000DA76C4EB041305EB8303032283F84D2018
:101F30002146286802F0EFFBF1E62146286802F00E
:101F40000AFA10F0020F00F01D8106EB441606F5A8
:101F5000A06202239360C4EB041305EB830393F8A0
:101F60004D30012B13D0062B26D0072B2FD0092B59
:101F70002DD0052B68D0032B00F0B480042B00F08B
:101F8000DC80082B00F0F180022B0AD1C7E6C4EBFD
:101F9000041305EB8303022283F84D20012283F80A
:101FA0004C20C4EB041305EB830393F84C2021462B
:101FB000284603F071FDB2E6C4EB041305EB83037E
:101FC000022283F84D20052283F84C20E9E7C4EB78
:101FD000041305EB8303022183F84D10596C013182
:101FE000596402291BD9C4EB041305EB83030021B8
:101FF00059649B7E012B07D0C4EB041305EB8303CC
:10200000042283F84C20CCE7C4EB041305EB8303D4
:10201000D9761977536823F480335360ECE7C4EB27
:10202000041305EB8303022283F84C2093F8263037
:102030000BB19342B5D1D6F8003523F0804343F07D
:102040000043C6F80035ACE7C4EB041305EB83038B
:10205000022183F84D10DB7E012BA2D13C2303FB30
:10206000045393F82630032B16D03C2303FB045370
:10207000022283F84C203C2303FB045393F82630C0
:102080000BB1022B8DD1D6F8003523F0804343F0FD
:102090000043C6F8003584E73C2101FB04518B6CFA
:1020A00001338B64022B16D90B4600219964D97633
:1020B0005B6C022B04D83C2303FB045301211977EA
:1020C000536823F4803353603C2303FB04530422FE
:1020D00083F84C20CFE73C2303FB0453022283F810
:1020E0004C20C8E7C4EB041305EB8303022183F8FB
:1020F0004D10DB7E012B7FF454AF3C2303FB0453D4
:1021000083F84C10516841F480315160D16841F03E
:102110004001D160D16821F02001D16093F82630D0
:1021200013B1022B7FF43DAFD6F8003523F0804386
:1021300043F00043C6F8003533E7C4EB041305EB66
:102140008303022283F84D2083F84C2093F8263035
:1021500013B193427FF425AFD6F8003523F08043C6
:1021600043F00043C6F800351BE73C2303FB045350
:10217000022283F84D205A6C01325A64042283F8FB
:102180004C200EE72146286802F0E5F810F0400FD9
:1021900018D006EB44134022C3F80825C4EB0413FF
:1021A00005EB8303052283F84D209B7E2BB9C4EBFE
:1021B000041305EB830300225A642146286802F0C9
:1021C000AAFAACE52146286802F0C5F810F0100F15
:1021D0003FF4A5ADC4EB041305EB830393F826305D
:1021E000032B28D00BB1022B18D1C4EB041305EB41
:1021F000830300225A64AB7933B1C4EB041305EBBB
:102200008303DB7E012B09D13C2303FB045304220F
:1022100083F84D202146286802F07DFAC4EB0413B0
:1022200005EB8303DB7E012B12D006EB4413102257
:10223000C3F8082573E53C2303FB045300225A64CA
:10224000042283F84D202146286802F064FAE5E76D
:10225000C4EB041305EB83050023EB7606EB441374
:10226000D3F8042522F48032C3F80425D3F80C25D2
:1022700042F02002C3F80C25D7E770B505460C469E
:102280000668304602F067F810F0040F10D006EB35
:1022900044160423C6F80835C4EB041305EB830386
:1022A000072283F84D202146286802F034FA70BDD9
:1022B0002146286802F04FF810F0200F4AD006EBB4
:1022C00044162023C6F80835C4EB041305EB83033A
:1022D0005B7E012B2DD0C4EB041305EB83039B7EA7
:1022E000012BE4D1C4EB041305EB8303DB7E002B4D
:1022F000DDD1C4EB041305EB830393F82630012BE7
:1023000005D0C4EB041305EB83030122DA76260122
:10231000C4EB041305EB8303032283F84D2021460D
:10232000286802F0F8F9361B05EB86060023736473
:10233000BDE7C4EB041305EB830300225A760222A7
:1023400083F84C20032283F84D202146286802F0B0
:10235000E2F9C0E72146286801F0FDFF10F4007F94
:102360000AD006EB44164FF40073C6F80835214630
:10237000286802F0D0F99AE72146286801F0EBFFBF
:1023800010F0010F3BD0C4EB041305EB83030022D4
:102390005A642146286801F0DEFF10F0400F0AD091
:1023A000C4EB041305EB830301225A7606EB4413B6
:1023B0004022C3F80825C4EB041305EB8303DB7E3E
:1023C0006BB1C4EB041305EB83030022DA7606EB52
:1023D0004413D3F8042522F48032C3F8042506EB15
:1023E00044160122C6F80825C4EB041305EB830349
:1023F00083F84D202146286802F08DF957E72146E1
:10240000286801F0A8FF10F0400F1ED0C4EB0413A1
:1024100005EB8303052283F84D209B7E2BB9C4EB8B
:10242000041305EB830301225A76C4EB041305EB76
:10243000830300225A642146286802F06CF906EBF7
:1024400044164023C6F8083531E72146286801F0D4
:1024500082FF10F0080F10D006EB44130822C3F8D7
:102460000825C4EB041305EB8303062283F84D20F3
:102470002146286802F04FF919E72146286801F043
:102480006AFF10F0100F20D0C4EB041305EB830398
:1024900000225A64042283F84D205B7E5BB9C4EBB2
:1024A000041305EB83031B7E2BB9C4EB041305EB6C
:1024B000830301225A762146286802F02CF906EBA4
:1024C00044131022C3F80825F1E62146286801F0DC
:1024D00042FF10F0800F38D0AB79F3B1C4EB041297
:1024E00005EB8202536C01335364022B20D83C234A
:1024F00003FB0453022283F84C2006EB4412D2F86B
:10250000003523F0804343F00043C2F8003506EB6A
:1025100044138022C3F80825C9E63C2303FB045377
:10252000072283F84D202146286802F0F4F8EEE7F0
:102530003C2303FB045300225A64042283F84C20FA
:102540002146284603F0A8FAE1E72146286801F071
:1025500002FF10F4806F10D03C2303FB04530922C8
:1025600083F84D202146286802F0D5F806EB441385
:102570004FF48062C3F8082599E62146286801F0E7
:10258000EAFE10F0020F3FF492AE06EB441606F599
:10259000A062022393603C2303FB045393F84D3065
:1025A000012B23D0032B62D0042B6FD0052B00F01E
:1025B0008280062B00F08880072B02D0092B7FF445
:1025C00076AE3C2303FB0453022283F84D205A6C61
:1025D00001325A64022A40F281803C2303FB0453F7
:1025E00000225A64042283F84C200EE03C2303FBB3
:1025F0000453022283F84D20012283F84C2093F8E3
:102600002630023BDBB2934209D93C2303FB04533F
:1026100093F84C202146284603F03EFA47E6A97974
:1026200041B93C2303FB045393F83D2082F001029F
:1026300083F83D200129E8D13C2303FB04535B6B65
:10264000002BE2D03C2202FB0452128D1344013BCA
:10265000B3FBF2F313F0010FD7D03C2303FB045379
:1026600093F83D2082F0010283F83D20CDE73C2322
:1026700003FB0453022283F84D20DB7E012BC4D1DF
:102680003C2303FB045383F84C20BEE73C2303FBAD
:102690000453022183F84D1083F84C10DB7E012B8C
:1026A000B3D13C2303FB04530021D976536823F4B0
:1026B00080335360A9E73C2303FB0453022283F8D1
:1026C0004D2083F84C20A0E73C2303FB0453022257
:1026D00083F84D20052283F84C2096E73C2303FB2A
:1026E0000453022283F84C20D6F8003523F08043AF
:1026F00043F00043C6F8003587E7F8B5044605689F
:10270000284601F031FE012800D0F8BD206801F014
:102710001EFE0028F9D0206801F019FE10F4001FF9
:1027200003D023684FF400125A61206801F00FFEB5
:1027300010F4801F03D023684FF480125A61206880
:1027400001F005FE10F0806F03D023684FF0806227
:102750005A61206801F0FBFD10F0020F02D02368DF
:1027600002225A61206801F0F2FD10F0005F08D0EB
:1027700023684FF000525A61D5F8403413F0010F2E
:1027800025D0206801F0E3FD10F0807F32D1206871
:1027900001F0DDFD10F0080F30D1206801F0D7FD09
:1027A00010F0007F31D1206801F0D1FD10F0100F42
:1027B000ABD02268936923F0100393612046FFF7A2
:1027C00095F82268936943F0100393619DE7102107
:1027D000284601F03AFD284601F05CFD637A022BA1
:1027E00003D0204603F052F9CBE70121206801F025
:1027F00073FEF6E72046FFF70FFAC8E7204603F01E
:1028000039F9236808225A61C7E7206801F07EFF82
:10281000074600231E4606E0F1B22046FFF72DFDD5
:10282000334601331E466379B34212D906F00F03D3
:1028300027FA03F313F0010FF2D005EB4613D3F898
:10284000003513F4004FE7D0F1B22046FFF73CFA11
:10285000E6E723684FF000725A61A4E790F8D4339A
:10286000012B0ED010B50446012180F8D413006866
:1028700001F072FE206801F0DCFC002084F8D40333
:1028800010BD0220704790F8D433012B0BD010B547
:102890000446012380F8D433006802F019F90020BF
:1028A00084F8D40310BD0220704708B5006801F019
:1028B00034FE08BDC1EB011100EB810090F84C0023
:1028C0007047C1EB011100EB8100806B704708B5C8
:1028D000006801F06FFE08BD08B5006801F05FFEFA
:1028E00008BDC1EB011200EB820200209076D07689
:1028F00082F8250082F8240070472DE9F04F85B05A
:102900000C46164619469A469DF838809DF83C704C
:10291000BDF8402090F8D433012B52D005469346A1
:102920009146012380F8D433C4EB041300EB8303F6
:1029300000225A7619755C7583F8267006F07F02BE
:102940009A752146FFF7CDFF16F0800F27D1C4EB13
:10295000041305EB83030022DA75286801F01FFEDB
:10296000012F23D0C4EB041305EB830383F81880F5
:102970001FFA89F3C4EB041205EB8202138502935C
:102980000197CDF80080534632462146286801F071
:1029900017FE002385F8D43305B0BDE8F08FC4EBF3
:1029A000041305EB83030122DA75D6E7B8F1010FB2
:1029B000D8D10028D6D15B46BC2BD3D9BC239946AD
:1029C000D0E70220E8E70000002800F0DA8038B500
:1029D000044690F83D30002B51D0242384F83D303C
:1029E0002268136823F0010313602268136843F41C
:1029F000004313602268136823F40043136001F05E
:102A000031F86268614B9A423ED8614B98428CBF64
:102A100000230123002B40F0B6805E49A1FB00316A
:102A20008B0CD4F800C0DCF8042022F03F0242EA0C
:102A30009142CCF8042021680A6A22F03F02DFF8B4
:102A40004CC16568654525D8013313430B62216885
:102A5000CA6922F44F4222F0FF02D4F804C04B4B63
:102A60009C4522D8431E4FEA4C0CB3FBFCF30133C8
:102A700040F6FC70034254D0C3F30B0352E080F8DD
:102A80003C3000F0B1FBA8E7434B98428CBF0023D9
:102A90000123BFE74FF4967C0CFB03F3DFF8FCC087
:102AA000ACFB03C39B090133CFE7D4F808E0BEF1C8
:102AB000000F1AD1431E0CEB4C05B3FBF5F30133A9
:102AC000C3F30B03B3FA83F35B09002B57D1BEF1B9
:102AD000000F19D1431E0CEB4C0CB3FBFCF301337C
:102AE000C3F30B0343F400431CE00CEB8C0303EB38
:102AF00083031D46431EB3FBF5F30133C3F30B03FE
:102B0000B3FA83F35B09E0E7431E0CEB8C0C0CEB90
:102B10008C0CB3FBFCF30133C3F30B0343F44043CE
:102B200000E004231A43CA6121680B6823F0C00344
:102B3000E269206A024313430B6021688B6823F427
:102B4000034323F0FF032269E068024313438B60D1
:102B50002168CB6823F0FF036269A0690243134335
:102B6000CB602268136843F00103136000202064E7
:102B7000202384F83D30206384F83E0038BD0123D3
:102B8000D0E7012070470120F8E700BFA0860100D0
:102B90007F841E0083DE1B43FF083D00D34D62107F
:102BA000002800F0C48038B5044690F84130002B6E
:102BB00053D0022284F841202168CB6923F47B633F
:102BC00023F00F03CB6123681A62636993426CD0D0
:102BD000E368002B48D110231D46A368202B01D8A1
:102BE0006B001D46012001F029F82369B3F5007F31
:102BF0003DD0B0FBF5F000EB800043006269B3FB11
:102C0000F2F305334B4AA2FB0323C3F3C002C2EB2A
:102C1000D3035B0811029A1EFD2A40D822690A4399
:102C200021681A430A622168CB6923F47B6323F08D
:102C30000F036268A0680243E0680243A069024390
:102C4000134343F40063CB61236A012B2FD0002090
:102C50006064012384F8413038BD80F84030364B41
:102C6000436300F0F9FAA4E720231D46B5E7E368C3
:102C700053B1AB00B0FBF3F000EB8000430062699E
:102C8000B3FBF2F30533BDE7EB00B0FBF3F000EB71
:102C9000800043006269B3FBF2F30533B2E7636C73
:102CA00043F0100363640120D6E70021B6E7234B0D
:102CB00063632268224B9A4220D04FF04022D369AE
:102CC00023F47B6323F00F03D36122681C4B9A42E9
:102CD00016D04FF04022022313622268184B9A420A
:102CE00010D04FF0402CDCF81C309BB26268B2F57B
:102CF000007F0AD0CAB94FF4807008E0114ADEE7BD
:102D0000104AE8E7DFF83CC0EDE74FF48070B4F814
:102D100008E0A189228B40EA0E0001430A431343D5
:102D200043F40063CCF81C3091E70020EFE701206A
:102D3000704700BFCDCCCCCCBF2D0008CD2F0008F4
:102D40000038004000340040704708B5426A03680C
:102D50001288DA60436A02334362438D9BB2013BBF
:102D60009BB24385438D9BB203B108BD0268536893
:102D700023F0A0035360012380F84130FFF7E4FF04
:102D8000F3E7704708B50368DA68C36A1A80C36A54
:102D90000233C362438E9BB2013B9BB24386438E98
:102DA0009BB203B108BD0268536823F0600353600F
:102DB000012380F84130FFF7E4FFF3E7704710B5D7
:102DC00084B0044603689A68039290F84120042A6C
:102DD00005D094F84130032B2CD004B010BD039AD9
:102DE00012F0010F03D05B6813F0400F1FD1039B5B
:102DF00013F0400FEDD023685A6812F0200FE8D08E
:102E00005A6822F060025A60002301932368DA684E
:102E100001929B680193019B012384F84130636C0C
:102E200043F0020363642046FFF7C8FFD1E7FFF7D2
:102E3000A9FFDCE7039B13F0020F04D023685B6853
:102E400013F0800F1DD1039B13F0080FC5D023682A
:102E50005A6812F0200FC0D05A6822F0A0025A60BF
:102E60000023029323689B680293029B012384F84A
:102E70004130636C43F0040363642046FFF79EFF18
:102E8000ABE72046FFF761FFDDE7704708B5436A0F
:102E90009A1C426202681B88D360438D9BB2013B3F
:102EA0009BB24385438D9BB23BB90268536823F0C4
:102EB000A0035360438E9BB203B108BD012380F889
:102EC0004130FFF7E2FFF8E708B50268154B9A4278
:102ED0001CD04FF04023DA68C36A991CC1621A8083
:102EE000438E9BB2013B9BB24386438E9BB263B938
:102EF00002680C4B9A420CD04FF04022536823F0EA
:102F000060035360438D9BB22BB108BDA3F5806372
:102F1000E1E7054AF2E7012380F84130FFF7B5FF0A
:102F2000F3E700BF003800400034004008B5436AB2
:102F30009A1C42621A880168134B994218D04FF0CC
:102F40004023DA60438D9BB2013B9BB24385438DA6
:102F50009BB263B902680C4B9A420CD04FF04022EE
:102F6000536823F0A0035360438E9BB22BB108BD7E
:102F7000A3F58063E5E7054AF2E7012380F84130D5
:102F8000FFF783FFF3E700BF003800400034004044
:102F900008B50368DA68C36A991CC1621A80438E57
:102FA0009BB2013B9BB24386438E9BB23BB9026806
:102FB000536823F060035360438D9BB203B108BD97
:102FC000012380F84130FFF760FFF8E710B586B0C5
:102FD000044603689A680592704A93426FD04FF096
:102FE0004022916804915B6803935368029363687D
:102FF000B3F5007F01D0002B70D1059B13F0020FB9
:1030000003D0039B13F0800F5CD1049B13F0010FDE
:1030100003D0029B13F0400F58D1049B13F0400FD4
:1030200024D0029B13F0200F20D022685B4B9A42E1
:1030300050D04FF04022536823F060035360226861
:10304000536823F0A0035360002300932368DA68D9
:1030500000929B680093009B012384F84130636CCD
:1030600043F0020363642046FFF7A8FE059B13F0BC
:10307000080F22D0039B13F0200F1ED02268536844
:1030800023F0A00353602268444B9A4224D04FF0AF
:103090004022536823F060035360002301932368A8
:1030A0009B680193019B012384F84130636C43F0DA
:1030B000040363642046FFF781FE06B010BDA2F54D
:1030C00080628EE72046FFF7E1FE9EE72046FFF78D
:1030D000FBFEA2E7324AAEE7314ADAE7049B13F07F
:1030E000020F03D0029B13F0800F4AD1059B13F00F
:1030F000010F03D0039B13F0400F46D1059B13F043
:10310000400F1CD0039B13F0200F18D02268536887
:1031100023F0600353602268204B9A4239D04FF06D
:103120004022536823F0A0035360012384F8413008
:10313000636C43F0020363642046FFF73FFE049B89
:1031400013F0080FB9D0029B13F0200FB5D02268FE
:10315000124B9A421FD04FF04022536823F0A00335
:1031600053602268536823F060035360012384F89E
:103170004130636C43F0040363642046FFF71EFE96
:103180009BE72046FFF7D2FEB0E72046FFF700FF9F
:10319000B4E7034AC5E7024ADFE700BF0038004052
:1031A0000034004000B583B0002200920D4B596CF2
:1031B00041F480415964596C01F4804100910099B7
:1031C0000192196C41F0805119641B6C03F080531B
:1031D0000193019B0F216FF00100FEF75FFA03B02E
:1031E00000BD00BF0038024030B589B00023039312
:1031F00004930593069307930268144B9A4201D0F7
:1032000009B030BD00250195114C236B43F002033A
:103210002363236B03F002030193019B4FF41073AC
:10322000039312230493012305930423079303A913
:103230000848FEF747FA0295236C43F40013236411
:10324000236C03F400130293029BD9E7005400405F
:10325000003802400004024070B58CB00023079390
:10326000089309930A930B9303930493059306938E
:1032700002682C4B9A4201D00CB070BD012303931D
:10328000C02304930223059303A800F029FC00281F
:1032900044D100210091244B1A6C42F400421A647C
:1032A0001A6C02F400420092009A01911A6B42F0EB
:1032B00001021A631A6B02F001020192019A029153
:1032C0001A6B42F004021A631B6B03F004030293AF
:1032D000029B10230793022508950C4609910A9139
:1032E00006260B9607A91148FEF7ECF94FF4A453F4
:1032F0000793089509940A940B9607A90C48FEF7C2
:10330000E1F94FF400630793089509940A940523A3
:103310000B9307A90648FEF7D5F9ADE7FDF7ACFA20
:10332000B7E700BF003C0040003802400000024008
:1033300000080240F0B58BB0002305930693079375
:10334000089309930368304A934204D02F4A93426A
:1033500022D00BB0F0BD002100912D4B5A6C42F4ED
:1033600080525A645A6C02F480520092009A019181
:103370001A6B42F001021A631B6B03F00103019305
:10338000019BE0230593022306930523099305A9D6
:103390002048FEF797F9DCE7002402941C4B1A6CD6
:1033A00042F480421A641A6C02F480420292029A39
:1033B00003941A6B42F004021A631A6B02F00402BF
:1033C0000392039A04941A6B42F002021A631B6B75
:1033D00003F002030493049B04230593022506953E
:1033E000032608960527099705A90B48FEF76AF9F1
:1033F0004FF420430593069507940896099705A96D
:103400000648FEF75FF9A4E70030014000380040AD
:103410000038024000000240000802400004024060
:10342000002800F0E28170B582B00446036813F012
:10343000010F3BD09B4B9B6803F00C03042B2CD05B
:10344000984B9B6803F00C03082B21D06368B3F5FD
:10345000803F4FD0B3F5A02F52D0924B1A6822F480
:1034600080321A601A6822F480221A606368002B86
:1034700050D0FEF7A1F805468A4B1B6813F4003FB5
:1034800014D1FEF799F8401B6428F5D90320B3E165
:10349000844B5B6813F4800FD8D0824B1B6813F405
:1034A000003F03D06368002B00F0A181236813F074
:1034B000020F54D07B4B9B6813F00C0F3ED0794B1E
:1034C0009B6803F00C03082B33D0E368002B68D013
:1034D000754B01221A60FEF76FF80546714B1B68A9
:1034E00013F0020F54D1FEF767F8401B0228F5D9FC
:1034F000032081E16B4A136843F480331360B5E71E
:10350000684B1A6842F480221A601A6842F48032CA
:103510001A60ABE7FEF750F80546624B1B6813F4E0
:10352000003FC3D0FEF748F8401B6428F5D90320BC
:1035300062E15C4B5B6813F4800FC6D1594B1B688A
:1035400013F0020F03D0E368012B40F05281554A7B
:10355000136823F0F803216943EAC1031360236869
:1035600013F0080F42D063696BB34F4B0122C3F8CD
:10357000802EFEF721F805464A4B5B6F13F0020FD1
:1035800034D1FEF719F8401B0228F5D9032033E1A6
:10359000444A136823F0F803216943EAC103136026
:1035A000DDE7414B00221A60FEF706F805463D4B69
:1035B0001B6813F0020FD2D0FDF7FEFF401B02285C
:1035C000F5D9032018E1384B0022C3F8802EFDF70F
:1035D000F3FF0546334B5B6F13F0020F06D0FDF788
:1035E000EBFF401B0228F5D9032005E1236813F007
:1035F000040F79D02B4B1B6C13F0805F34D1002368
:103600000193284B1A6C42F080521A641B6C03F031
:1036100080530193019B01231E46244B1B6813F426
:10362000807F24D0A368012B35D0052B40D01D4BC3
:103630001A6F22F001021A671A6F22F004021A6749
:10364000A368002B3ED0FDF7B7FF0546154B1B6F57
:1036500013F0020F47D1FDF7AFFF401B41F2883353
:103660009842F3D90320C7E000231E46D5E70F4A4E
:10367000136843F480731360FDF79EFF05460B4B00
:103680001B6813F4807FCDD1FDF796FF401B022805
:10369000F5D90320B0E0034A136F43F00103136729
:1036A000CEE700BF003802400000474200700040F3
:1036B000584B1A6F42F004021A671A6F42F0010267
:1036C0001A67BDE7FDF778FF0546524B1B6F13F0F5
:1036D000020F08D0FDF770FF401B41F2883398427B
:1036E000F3D9032088E0EEB9A369002B00F08380B2
:1036F000484A926802F00C02082A51D0022B17D0D7
:10370000454B00221A66FDF757FF0446414B1B68E4
:1037100013F0007F42D0FDF74FFF001B0228F5D9C0
:10372000032069E03B4A136C23F080531364DBE70A
:10373000394B00221A66FDF73FFF0546354B1B68E3
:1037400013F0007F06D0FDF737FF401B0228F5D9A4
:10375000032051E0E369226A1343626A43EA821359
:10376000A26A5208013A43EA0243E26A43EA026368
:10377000284A5360284B01221A66FDF71DFF0446B4
:10378000244B1B6813F0007F06D1FDF715FF001BCB
:103790000228F5D903202FE000202DE000202BE0A7
:1037A000012B2BD01B4B5B6803F48001E269914233
:1037B00026D103F03F02216A8A4223D1616A47F68B
:1037C000C0721A40B2EB811F1ED103F44031A26ACD
:1037D0005208013AB1EB024F18D103F07063E26A6C
:1037E000B3EB026F14D1002006E0012070470120E6
:1037F00002E0012000E0184602B070BD0120FBE7A6
:103800000120F9E70120F7E70120F5E70120F3E7C0
:103810000120F1E7003802400000474208B5334B71
:103820009B6803F00C03042B5BD0082B5BD12F4B60
:103830005A6802F03F025B6813F4800F2CD02B4BC8
:103840005868C0F388104FEA401CBCEB000C6EEBCC
:103850000E0E4FEA8E1343EA9C634FEA8C11B1EBD4
:103860000C0163EB0E03DB0043EA5173C90011EB5B
:10387000000C43F10003590200234FEA4C2041EAB7
:10388000DC51FCF785FC194B5B68C3F30143013342
:103890005B00B0FBF3F008BD144B5868C0F3881010
:1038A0004FEA401CBCEB000C6EEB0E0E4FEA8E1381
:1038B00043EA9C634FEA8C11B1EB0C0163EB0E03FE
:1038C000DB0043EA5173C90011EB000C43F1000324
:1038D000990200234FEA8C2041EA9C51FCF758FCE6
:1038E000D1E70348D7E70348D5E700BF00380240D7
:1038F00000127A000024F400002800F09B8070B5CC
:103900000D4604464F4B1B6803F007038B4208D259
:10391000CBB24C4A1370136803F007038B4240F09C
:103920008B80236813F0020F17D013F0040F04D01C
:10393000454A936843F4E0539360236813F0080FFB
:1039400004D0414A936843F4604393603E4A9368CD
:1039500023F0F003A1680B439360236813F0010F79
:1039600032D06368012B21D09A1E012A25D9364A0C
:10397000126812F0020F61D033498A6822F0030204
:1039800013438B60FDF718FE06462F4B9B6803F030
:103990000C036268B3EB820F16D0FDF70DFE801B9F
:1039A00041F288339842F0D9032042E0264A126857
:1039B00012F4003FE0D101203BE0234A126812F0EC
:1039C000007FD9D1012034E01E4B1B6803F00703B0
:1039D000AB4207D9EAB21B4B1A701B6803F007030E
:1039E000AB422DD1236813F0040F06D0164A93681A
:1039F00023F4E053E1680B439360236813F0080F4E
:103A000007D0114A936823F46043216943EAC10354
:103A10009360FFF703FF0C4B9B68C3F303130B4A40
:103A2000D35CD8400A4B18600A4B186800F02AFB98
:103A3000002070BD012070470120FAE70120F8E75F
:103A40000120F6E7003C024000380240687500089B
:103A50000C00002008000020014B1868704700BFD0
:103A60000C00002008B5FFF7F7FF044B9B68C3F379
:103A70008223034AD35CD84008BD00BF003802400F
:103A80006075000808B5FFF7E7FF044B9B68C3F3B8
:103A90004233034AD35CD84008BD00BF003802401F
:103AA000607500080F2303600B4B9A6802F0030255
:103AB00042609A6802F0F00282609A6802F4E05272
:103AC000C2609B68DB0803F4E0530361034B1B688F
:103AD00003F007030B60704700380240003C0240CF
:103AE00030B583B00546036813F0010F02D113F01F
:103AF000040F2BD04E4B00229A66FDF75DFD044665
:103B00004C4B1B6813F0006F06D0FDF755FD031BEF
:103B1000022BF5D903201EE06A68AB681B0743EA55
:103B20008213444AC2F88430414B01229A66FDF761
:103B300043FD04463F4B1B6813F0006F06D1FDF7B1
:103B40003BFD031B022BF5D9032004E02B6813F087
:103B5000020F02D1002003B030BD00230193354B8A
:103B60001A6C42F080521A641B6C03F0805301936C
:103B7000019B314A136843F480731360FDF71CFD09
:103B800004462D4B1B6813F4807F06D1FDF714FD0E
:103B9000001B0228F5D90320DDE7264B1B6F13F429
:103BA000407314D0EA6802F440729A420FD0214B5D
:103BB0001A6F22F440721E490120C1F8400E002005
:103BC000C1F8400E1A671B6F13F0010F13D1EB6899
:103BD00003F44072B2F5407F1ED0164A936823F476
:103BE000F813936013490B6FEA68C2F30B02134397
:103BF0000B670020AFE7FDF7DFFC04460D4B1B6FA2
:103C000013F0020FE3D1FDF7D7FC031B41F288321A
:103C10009342F3D903209EE706498A6822F4F812FA
:103C200023F0704323F4407313438B60DAE700BF43
:103C3000000047420038024000700040012801D0D7
:103C400000207047154B9B6813F4000302D01BB390
:103C500013487047114B5B6813F4800F14D00F4B5F
:103C60005A6802F03F020F4BB3FBF2F30B4AD2F853
:103C70008400C0F3881003FB00F0D2F88430C3F353
:103C80000273B0FBF3F07047044B5A6802F03F0236
:103C9000054BB3FBF2F3E9E71846704700380240E2
:103CA0000080BB0000127A000024F40000285AD0E3
:103CB00010B50446436A33B94368B3F5827F05D033
:103CC0000023C36102E00023036143610023A36278
:103CD00094F85130002B40D0022384F851302268F0
:103CE000136823F040031360636803F48273A268CF
:103CF00002F404421343E26802F4006213432269AF
:103D000002F002021343626902F001021343A26946
:103D100002F400721343E26902F038021343226A8C
:103D200002F080021343A26A02F400522168134396
:103D30000B60638B03F00403626A02F010022168D7
:103D400013434B602268D36923F40063D3610020DE
:103D50006065012384F8513010BD84F8503020464E
:103D6000FFF7E8FAB8E701207047704790F83D3058
:103D7000012B37D1022380F83D300268D36843F02D
:103D80000103D3600368194A934220D0B3F1804FF6
:103D90001DD0A2F57C42934219D002F58062934275
:103DA00015D002F58062934211D002F57842934219
:103DB0000DD002F57052934209D0A2F5943293428D
:103DC00005D01A6842F001021A60002070479A6814
:103DD00002F00702062A07D01A6842F001021A60B0
:103DE000002070470120704700207047000001400C
:103DF000704770477047704770B504460368DE68C7
:103E00001D6915F0020F10D016F0020F0DD06FF0E3
:103E100002021A610123037703689B6913F0030F01
:103E20005ED0FFF7E6FF0023237715F0040F12D0D2
:103E300016F0040F0FD023686FF004021A610223FA
:103E4000237723689B6913F4407F4FD02046FFF708
:103E5000D0FF0023237715F0080F12D016F0080FBB
:103E60000FD023686FF008021A61042323772368B8
:103E7000DB6913F0030F40D02046FFF7BAFF0023A1
:103E8000237715F0100F12D016F0100F0FD0236803
:103E90006FF010021A61082323772368DB6913F49B
:103EA000407F31D02046FFF7A4FF0023237715F091
:103EB000010F02D016F0010F2DD115F0800F02D0A6
:103EC00016F0800F2FD115F0400F02D016F0400FE2
:103ED00031D115F0200F02D016F0200F33D170BD74
:103EE000FFF786FF2046FFF785FF9CE72046FFF798
:103EF0007FFF2046FFF77EFFABE72046FFF778FF06
:103F00002046FFF777FFBAE72046FFF771FF20460C
:103F1000FFF770FFC9E723686FF001021A612046BE
:103F2000FCF79EFCC9E723686FF080021A61204607
:103F300000F0A7F8C7E723686FF040021A61204637
:103F4000FFF759FFC5E723686FF020021A6120468A
:103F500000F096F8C3E700000368324A904212D09E
:103F6000B0F1804F0FD0A2F57C4290420BD002F509
:103F70008062904207D002F58062904203D002F541
:103F80007842904203D123F070034A681343254AD4
:103F900090422AD0B0F1804F27D0A2F57C429042C7
:103FA00023D002F5806290421FD002F580629042D9
:103FB0001BD002F57842904217D002F57052904221
:103FC00013D002F5806290420FD002F580629042D9
:103FD0000BD0A2F59832904207D002F58062904251
:103FE00003D002F58062904203D123F44073CA6883
:103FF000134323F080034A6913438A68C2620A6844
:104000008262084A904203D002F58062904201D158
:104010000A690263026842F00402026001224261FE
:10402000036070470000014040B310B5044690F8AB
:104030003D30F3B1022384F83D30214651F8040BA2
:10404000FFF78AFF012384F8463084F83E3084F875
:104050003F3084F8403084F8413084F8423084F8AE
:10406000433084F8443084F8453084F83D300020F3
:1040700010BD80F83C30FFF778FEDBE70120704789
:104080007047704730B589B00546002401941E4B37
:104090005A6C42F001025A645B6C03F00103019315
:1040A000019B02A903A8FFF7FDFCFFF7EBFC43000F
:1040B000164AA2FB03239B0C013B1548154A0260DC
:1040C00040F2E732C2604360046184608461FFF7BC
:1040D000ABFF044610B1204609B030BD0C48FFF7D5
:1040E00045FE04460028F6D11920FDF7E7FA0F2D0A
:1040F00001D90124EFE7002229461920FDF7CEFA65
:10410000054B1D60E7E700BF0038024083DE1B431C
:104110006C4000200000014008000020FEE7FEE7A0
:10412000FEE7FEE7FEE7704708B50248FFF764FECA
:1041300008BD00BF6C40002008B50248FEF7DDFA5C
:1041400008BD00BFCC45002082B000230193019B35
:1041500001330193019BB3F1706F1CD80369002BED
:10416000F5DA0A23019302E0019B013B0193019BD5
:10417000002BF9D1036943F001030361019B013373
:104180000193019BB3F1706F08D8036913F0010F1D
:10419000F4D1002000E0032002B070470320FBE7C9
:1041A00084B010B5044603A880E80E009DF81130D5
:1041B000012B21D1A36B23F48033A363E36823F4A1
:1041C000840323F04003E360E36823F44013E360D7
:1041D0009DF81830012B0AD02046FFF7B5FF9DF857
:1041E0000E30012B1CD0BDE8104004B07047E368CE
:1041F00043F48013E360EFE7E36843F04003E360D8
:104200002046FFF7A1FF9DF8153023B9A36B43F4B7
:104210008033A363E3E7A36B23F48033A363DEE778
:10422000A36843F00603A360A36843F02003A360E0
:10423000D9E7836843F001038360002070478368F7
:1042400023F0010383600020704782B000230193B4
:10425000019B01330193019BB3F1706F15D8036982
:10426000002BF5DA00230193890141F0200101615F
:10427000019B01330193019BB3F1706F08D803696F
:1042800013F0200FF4D1002000E0032002B07047AB
:104290000320FBE782B000230193019B01330193CC
:1042A000019BB3F1706F13D80369002BF5DA00237B
:1042B000019310230361019B01330193019BB3F12F
:1042C000706F08D8036913F0100FF4D1002000E0DC
:1042D000032002B070470320FBE710B504469DF8A9
:1042E000080078B903334FEA930E844608E004EBE4
:1042F000023303F5805351F8040B18600CF1010CE4
:10430000F445F4D3002010BD00B5844608464FEABA
:10431000920E02F00302002305E00CF580510968BB
:1043200040F8041B01337345F7D37AB10CF5805C78
:10433000DCF800C00021CBB2DB002CFA03F300F85C
:10434000013B0131013A92B2002AF4D100BD426929
:1043500080691040704700EB411000F5A063D0F871
:104360000805DB6818407047406900F0010070479D
:1043700038B50546C36823F0C043C360012913D094
:1043800019BBC36843F08043C3600C460A20FDF7A5
:1043900019F90A342846FFF7E7FF08B1C72CF5D909
:1043A000C82C14D0002038BDC36843F00053C3604C
:1043B00000240A20FDF706F90A342846FFF7D4FF47
:1043C0000128EDD0C72CF4D9EAE70120EBE7012062
:1043D000E9E7000084B038B5044605A880E80E007F
:1043E0000023C4F8003EA36B43F40013A363A36B44
:1043F00023F40023A363A36B23F48023A363E36864
:1044000013F0400F11D19DF81730012B06D0D4F8CE
:10441000003423F00403C4F800340CE0D4F8003472
:1044200043F00403C4F8003405E0D4F8003423F06A
:104430000403C4F8003410212046FFF706FF0546A8
:1044400008B101231D462046FFF724FF08B10123D0
:104450001D46002209E004EB42134FF0FF31C3F880
:1044600008150021C3F80C1501329DF81530934250
:10447000F1D80023A3614FF0FF336361124B9C42DC
:1044800017D08023636203F5C003A3620F4BC4F807
:1044900000319DF816301BB9A36943F01003A361E6
:1044A000A2690B4B1343A3612846BDE8384004B012
:1044B00070474FF40073636203F18073A362054B8E
:1044C000C4F80031E5E700BF00000440E000400010
:1044D000080020A30003E00000F5806CD0F8003451
:1044E00023F00303C0F80034D0F8003401F00302D5
:1044F0001343C0F80034012907D002290BD141F23F
:104500007073CCF80430002070474BF68033CCF841
:104510000430002070470120704730B583B0044656
:1045200000250195D0F840340193019B23F02E0320
:104530000193019B43F48073C0F840346420FDF77D
:1045400041F8019B23F48073C4F840340A20FDF73E
:1045500039F8284603B030BD82B000230193D0F86B
:1045600040340193019B23F02E030193019B13F42C
:10457000805F01D101290CD0019B13F4805F05D02D
:1045800021B9019B23F48053C0F84034002002B0CD
:104590007047019B43F48053C0F84034ECE782B08D
:1045A00000230193D0F8403401930198C0F34140B7
:1045B00002B0704700F58060806880B270470000EC
:1045C0002DE9F843164698469DF8244000EB411526
:1045D00005F5A0634FF0FF329A60022C60D00FD82F
:1045E000002C5DD0012C08D140F22522DA6016F0B3
:1045F000800F76D1002291460CE00122914609E01D
:10460000032C4AD140F29D62DA6016F0800F61D12E
:104610000022914600225A60DA6842F00202DA6013
:10462000D0F8183401F00F0101228A401343C0F87A
:104630001834836943F00073836116F0800F57D1FB
:1046400000231F46FFF7ABFF9DF82030022B53D00D
:10465000002243469B0503F0FE53F60206F4F046A3
:104660003343A10401F440210B43BDF82810C1F3EA
:104670000A010B433B43134343F48013C5F8003551
:10468000032C01D0012C05D1D5F8003543F000539F
:10469000C5F800354846BDE8F88301229146B9E7E0
:1046A00040F29D42DA6016F0800F05D1164A904222
:1046B00009D000229146ADE7DA6842F48072DA60F0
:1046C00000229146A6E7DA6842F06002DA60002232
:1046D00091469FE7DA6842F48072DA6000229146E0
:1046E00098E7DA6842F4C072DA600022914691E7F6
:1046F0004FF400431F46A5E7022802D04FF40032D2
:10470000A7E70022A5E700BF0000044000F5806095
:10471000406980B2704710B582B00446002301930F
:1047200000EB411101F5A062D1F80035C3F38143DC
:10473000D1F800054FEAD07C5068D4F808E01EF0AC
:10474000200F08D0C00F30B9BCF1000F5AD0012B98
:1047500058D0032B56D01BB3022B21D0D1F80035F3
:1047600043F08043C1F80035D4F8103413F47F0FC0
:104770004BD1D1F8003523F00043C1F80035D1F812
:10478000003543F00043C1F80035019B013301932C
:10479000019BB3F57A7F35D81368002BF5DB31E048
:1047A000D1F8003543F08043C1F80035A36813F019
:1047B000200F21D1E36A13F47F0F16D1D1F8003511
:1047C00023F00043C1F80035D1F8003543F0004331
:1047D000C1F80035019B01330193019BB3F57A7F4A
:1047E00010D81368002BF5DB0CE0D1F8003543F04E
:1047F0000043C1F8003505E0D1F8003543F000432F
:10480000C1F80035002002B010BDD1F8003543F0EA
:104810000043C1F80035F5E700EB4110064AC0F847
:104820001025D0F8003523F0804343F00043C0F852
:1048300000350020704700BF0000088070B584B0CC
:1048400014464B78924A904213D08A79012A2CD090
:104850000D6A002D5DD08E8AAA19013AB2FBF6F2DC
:1048600092B2B2F5807F55D93602CE614FF4807294
:1048700050E0012C09D00A79002AE6D14A79012AB0
:10488000E3D11946FFF7C8FFA9E08A7C0AB1022AE2
:10489000DBD18A79002AD8D100EB4312D2F80C552B
:1048A00025F07005C2F80C55CFE7CA781AB18A8A8C
:1048B000CA61012235E08A7C012A05D0012C21D071
:1048C0000A6ACA6101222CE00A6ABC2A0DD98A8AC6
:1048D000CA610A62CA68013A012A02D90122CA6081
:1048E0001FE00222CA6001221BE0CA61CA68013AC5
:1048F000012A03D90422CA60012212E00322CA60FD
:1049000001220EE00D6A8A8A9542D9D9CA61012234
:1049100007E00122CE78002E64D08D8A02FB05F5D7
:10492000CD61CD69C5F3120C5A4D05EAC2424CEA7D
:10493000020C91F816E04FEA4E7E0EF0C04E00EBEE
:10494000431303F5A0654CEA0E022A610CB18A6993
:104950006A6100F5806EDEF80820D3F8006526F065
:104960000056C3F80065D3F800656FEA020C4FEA01
:104970004C7C0CF0005C46EA0C06C3F800658A79B2
:10498000012A31D000226A60D3F800250392039AED
:1049900022F080420392CA78002A73D0039A42F42C
:1049A00000420392039A42F000420392039AC3F832
:1049B0000025A4B9CB7893B90B6A83B1CA7972B9CF
:1049C0008A7C022A77D067D8002A74D0012A65D061
:1049D000002300930B8C4A788969FFF77EFC002046
:1049E00004B070BDCD619CE74E7C0A7C42EAC612E1
:1049F00042F000426A60EA6842F06002EA60CA7906
:104A0000012A17D08A7C012A20D0032A1ED08A7C52
:104A1000012AB9D1CA78002AB6D1CA68032A2CD093
:104A20001FD8012A24D0022AAED16A6842F00E02B1
:104A30006A60A9E7CA78002AE4D16A6842F4803241
:104A40006A60EA6842F04002EA60DBE7CA79012A5C
:104A5000DDD1CA78012ADAD16A6842F480326A600C
:104A6000D5E7042A90D16A6842F440426A608BE735
:104A70006A6842F400426A6086E76A6842F48042EB
:104A80006A6081E7039A22F4004203928AE700BF3A
:104A9000000004400000F81F032A99D10333DEF818
:104AA000102092B2C3F38F039A4291D2836943F0EC
:104AB000806383618CE70333C26A92B2C3F38F03CE
:104AC0009A4285D2836943F02003836180E700BF67
:104AD00030B583B0044600230193FFF7B0FB1021EB
:104AE0002046FFF7B2FB054608B101231D462046CC
:104AF000FFF7D0FB08B101231D4600220AE004EBBA
:104B00004211D1F8003523F0802343F08043C1F8EF
:104B1000003501320F2AF2D9002100E001310F29BE
:104B200016D804EB411000F5A062D0F8003523F44C
:104B3000004343F04043C0F80035019B013301932B
:104B4000019BB3F57A7FE9D81368002BF5DBE5E725
:104B50004FF0FF33C4F8143463612046FFF769FB5C
:104B6000284603B030BD000008B503460D4A0E4983
:104B70000E48006840B10D4800680344521A934241
:104B800008D80A4A136008BD0848DFF824C0C0F8F6
:104B900000C0F0E702F08CFA0C2303604FF0FF3006
:104BA000F1E700BF0000022000040000B440002034
:104BB000F84A0020034AD2F8883043F47003C2F860
:104BC0008830704700ED00E0084B1B681B6823B974
:104BD000074B4FF0FF321A607047044B1B68DB68CD
:104BE000DB685A68024B1A60704700BF28410020FA
:104BF000C04000202DE9F84380469946089D0A9C54
:104C0000236B02F18042013A03EB820323F0070396
:104C10001F4699B308464FF0000CBCF10F0F09D89E
:104C200010F80C2004EB0C0383F8342012B10CF1C3
:104C3000010CF2E7002384F84330062D00D9062545
:104C4000E56265640026A664201DFBF7F2FC04F112
:104C50001800FBF7EEFC2461C5F10705A56164624D
:104C6000E66484F850604A4641463846FBF746FF02
:104C70002060099B03B11C60BDE8F883002384F821
:104C80003430DAE738B5002407E004EB84000F4B3A
:104C900003EB8000FBF7C2FC0134062CF5D90C4D68
:104CA0002846FBF7BBFC0B4C2046FBF7B7FC0A4839
:104CB000FBF7B4FC0948FBF7B1FC0948FBF7AEFC75
:104CC000084B1D60084B1C6038BD00BF54410020DC
:104CD000404100202C41002010410020FC400020D9
:104CE000E4400020284100202441002010B5044663
:104CF000FBF730FF214A136801331360204B1B6818
:104D00005BB1204B1B686BB91D4B1B68DA6AE36A09
:104D10009A4207D81A4B1C6004E0194B1C601368B8
:104D2000012B28D0184A136801331360E06A01236D
:104D30008340164A11680B43136000EB8000211D6D
:104D4000134B03EB8000FBF777FCFBF725FF0D4BC4
:104D50001B687BB10A4B1B68DA6AE36A9A4209D284
:104D60004FF0E0234FF08052C3F8042DBFF34F8F74
:104D7000BFF36F8F10BDFFF785FFD3E7E040002042
:104D8000E0410020D4400020C4400020D840002052
:104D90005441002010B5044690F8513063B1012B06
:104DA00011D0022B0ED04FF0500383F31188BFF3C4
:104DB0006F8FBFF34F8FFEE7006BFBF7EFFB2046D3
:104DC000FBF7ECFB10BDFBF7E9FBFBE70F4B1B68A8
:104DD000D3B110B5FBF7BEFE0D4BDB68DC68201DC0
:104DE000FBF751FC0B4A1368013B1360074A136839
:104DF000013B1360FBF7D0FE2046FFF7CBFF034BD0
:104E00001B68002BE6D110BD704700BFF8400020A2
:104E1000FC400020E040002008B5FFF7D7FF074B1B
:104E20001B68012BF9D94FF0E0234FF08052C3F8F3
:104E3000042DBFF34F8FBFF36F8FEEE75441002077
:104E400070B504460E461D4B1D681D4B1868043096
:104E5000FBF719FC48B91A4B1B68DB6A01229A4020
:104E600018490B6823EA02030B60B4F1FF3F0DD031
:104E70002C44134B1B685C60A54210D9124B186878
:104E80000F4B19680431FBF7E2FB70BD002EEFD029
:104E90000B4B196804310D48FBF7CEFBF5E70C4BC3
:104EA0001868074B19680431FBF7D1FB094B1B68E5
:104EB000A342EAD9074B1C60E7E700BFDC400020B3
:104EC000E0410020D840002024410020E4400020A0
:104ED00028410020C040002010B586B08C460999BA
:104EE00079B10A99B1B154210491049954291AD085
:104EF0004FF0500383F31188BFF36F8FBFF34F8FD1
:104F0000FEE74FF0500383F31188BFF36F8FBFF3B9
:104F10004F8FFEE74FF0500383F31188BFF36F8F7D
:104F2000BFF34F8FFEE7DDF810E00A99099C0C6390
:104F300002210A9C84F8511000210391029405A9D2
:104F40000191089900916146FFF754FE0A98FFF716
:104F5000CDFE059806B010BD2DE9F04385B0814621
:104F6000884614461F469000FBF796FA00B30646A3
:104F70005420FBF791FA0546A0B12E63002380F878
:104F80005130039302900D9B01930C9B00933B4681
:104F9000224641464846FFF72DFE2846FFF7A6FE6B
:104FA000012007E03046FBF7F9FA4FF0FF3001E04F
:104FB0004FF0FF3005B0BDE8F083000010B588B0B9
:104FC00000240594069407AA06A905A8FBF7F8F99A
:104FD000059B0293069B019300942346079A0E4972
:104FE0000E48FFF779FF0E4B186090B14FF0500359
:104FF00083F31188BFF36F8FBFF34F8F094B4FF0CF
:10500000FF321A60084B01221A60084B1C60FBF744
:105010003BFE08B010BD00BF48750008194E0008DF
:10502000BC400020C0400020D4400020DC400020D4
:10503000024A136801331360704700BFB840002074
:10504000F8B53D4B1B68002B6ED13C4B1D680135FC
:105050001D60C5B93A4B1B681B6843B14FF0500344
:1050600083F31188BFF36F8FBFF34F8FFEE7344A8E
:105070001168344B186810601960334A13680133A3
:105080001360FFF7A1FD314B1B68AB4241D90023F0
:105090001F462F4B1B68DB6A03EB83039B002D4AE3
:1050A000D358012B01D901231F462B4B1B68002B22
:1050B00040D001231F463DE001231F46204B1B68C3
:1050C0001B684BB31E4B1B68DB68DC6863689D4242
:1050D00027D3261D3046FBF7D6FAA36A1BB104F18D
:1050E0001800FBF7D0FAE06A012383401B4A1168DD
:1050F0000B43136000EB80003146164B03EB80003E
:10510000FBF79AFAE26A124B1B68DB6A9A42D3D227
:10511000D4E700231F46D1E70C4B4FF0FF321A6053
:10512000B7E70A4A1360B4E70D4A13680133136006
:1051300000231F463846F8BDB8400020DC40002060
:105140002841002024410020C8400020C040002009
:10515000E041002054410020CC400020D8400020F5
:10516000D040002038B5354B1B6843B94FF0500391
:1051700083F31188BFF36F8FBFF34F8FFEE7FBF709
:10518000E9FC2E4B1A68013A1A601B68002B4FD1BC
:105190002B4B1B680BB91C464BE00024294B1B68AA
:1051A0001BB3284BDB68DC6804F11800FBF76BFAD3
:1051B000251D2846FBF767FAE06A01238340224A4F
:1051C00011680B43136000EB800029461F4B03EB73
:1051D0008000FBF731FAE26A1D4B1B68DB6A9A42DA
:1051E000DCD31C4B01221A60D8E70CB1FFF7ECFCB2
:1051F000194B1C6884B9174B1C68D4B14FF0E023DD
:105200004FF08052C3F8042DBFF34F8FBFF36F8F61
:1052100001240EE0013C07D0FFF712FF0028F9D06F
:105220000C4B01221A60F5E70B4B00221A60E2E7F3
:105230000024FBF7B1FC204638BD00BFB840002079
:10524000E040002010410020D840002054410020C0
:10525000E0410020CC400020D0400020204B1B68C3
:105260001BB1204B01221A6070471E4B00221A60AE
:105270001D4B1B68B3FA83F3DBB2C3F11F0303EBCF
:105280008302920019498A5842B94FF0500383F3C0
:105290001188BFF36F8FBFF34F8FFEE7134803EB07
:1052A000830200EB820251684968516003EB83027C
:1052B000920008320244914209D003EB83030B4A67
:1052C00002EB83035B68DA68094B1A607047486831
:1052D00003EB8301054A02EB81025060EDE700BF5A
:1052E000B8400020CC400020D8400020544100208D
:1052F000E041002058B110B50C46094A1168183138
:10530000FBF7A5F901212046FFF79AFD10BD4FF0EC
:10531000500383F31188BFF36F8FBFF34F8FFEE706
:10532000E041002038B5C368DC6834B304F11803E9
:105330001D461846FBF7A7F9184B1B6833BB231D06
:105340001D461846FBF79FF9E06A01238340144A83
:1053500011680B43136000EB80002946114B03EBEF
:105360008000FBF769F9E26A0F4B1B68DB6A9A421F
:1053700011D901200D4B186038BD4FF0500383F355
:105380001188BFF36F8FBFF34F8FFEE729460848A0
:10539000FBF752F9E7E70020EEE700BFB840002036
:1053A000D840002054410020E0410020CC400020A3
:1053B00010410020034B1B680360034B1B684360D4
:1053C000704700BFC8400020DC400020E0B170B54D
:1053D0000C46064609B3FBF7BDFB1C4B1968736806
:1053E000C81A2268B2F1FF3F28D03568DFF860C0E4
:1053F000DCF800C0654501D08B4224D9824215D823
:105400000023236001241AE04FF0500383F3118836
:10541000BFF36F8FBFF34F8FFEE74FF0500383F35F
:105420001188BFF36F8FBFF34F8FFEE75B1A1344F2
:1054300023603046FFF7BEFF002400E00024FBF7A6
:10544000ABFB204670BD0124F9E700BFDC40002023
:10545000C8400020014B01221A607047CC40002058
:10546000054B1B6833B1054B1B680BB1002070471F
:105470000220704701207047D4400020B84000202F
:1054800000284ED038B50446264B1B68834208D00E
:105490004FF0500383F31188BFF36F8FBFF34F8F2B
:1054A000FEE7836C43B94FF0500383F31188BFF3D9
:1054B0006F8FBFF34F8FFEE7013B8364C16A426C7D
:1054C00091422CD00BB1002038BD031D1D4618465B
:1054D000FBF7D9F868B9E36A03EB8302920012493B
:1054E0008A5832B901229A4010490B6823EA020314
:1054F0000B60606CE062C0F10703A361012404FA51
:1055000000F30A4A11680B43136000EB8000294640
:10551000054B03EB8000FBF78FF82046D4E7002013
:10552000D2E77047E041002054410020D8400020DD
:1055300004290CD0052902D0022904D07047064B5B
:1055400003221A707047044B02221A707047024BF4
:1055500001221A70704700BFE441002008B5012203
:105560000B490C4800F0C2FB48B90B49094800F050
:1055700001FC38B9074800F042FC30B908BDFBF720
:105580007BF9F2E7FBF778F9F4E7FBF775F9F5E754
:1055900031550008E841002010000020002070472D
:1055A00008B52122027420224274002242828282A3
:1055B0000722C28201F0DBFA08BD08B5A1220274FD
:1055C000212242740022428282820722C28201F09A
:1055D000CEFA08BD38B50446D0F87C33D9694031DD
:1055E000FFF7EBFF054620B9D4F8D433022120465B
:1055F0009847284638BD38B50446D0F87C33DD6975
:10560000297879B9297BB1B9697BF1B9D4F87C33B0
:10561000D86928B101F082FCD4F87C330022DA6129
:10562000002038BD01F019FC2978204601F02DFC3E
:1056300000232B70E6E7204601F00FFC297B204673
:1056400001F023FC00232B73DEE7204601F005FC6C
:10565000697B204601F019FC00236B73D6E7F0B597
:1056600085B0044601230222114600F09EFB01286A
:1056700000F2AE8006460146204600F08CFB07464D
:10568000002840F0AA80D4F87C53502001F03EFC62
:10569000E861D4F87C33DD69002D00F0A180502250
:1056A0000021284601F0ECFC1A2303FB064393F883
:1056B0004E2393F94E33002B72DB6978204601F0BC
:1056C000D1FB014628706A786B890293032301930A
:1056D00094F81D33009394F81C33204601F0AAFB84
:1056E00000222978204600F03FFA00231A460A21BA
:1056F000204600F05AFB012875D81A2303FB00430B
:1057000093F84E2393F94E33002B51DBAA731A23DF
:1057100003FB0043B3F850332B831A2303FB0043EE
:1057200093F8562393F95633002B49DBAA731A23B7
:1057300003FB0040B0F858332B83A97B204601F0CF
:1057400091FB6873E97B204601F08CFB2873AA7BF0
:10575000697B2B8B02930226019694F81D330093EC
:1057600094F81C33204601F065FBEA7B297B6B8BA8
:105770000293019694F81D33009394F81C3320464D
:1057800001F058FB002685F84C603246697B2046C4
:1057900000F0EAF93246297B204600F0E5F919E0ED
:1057A0006A701A2303FB0646B6F850336B8184E710
:1057B000EA731A2303FB0043B3F850336B83ACE75F
:1057C000EA731A2303FB0043B3F858336B83B4E73F
:1057D00002231F46384605B0F0BD02231F46F9E7F5
:1057E00002231F46F6E702231F46F3E7704730B552
:1057F00083B00446D0F87C33DD6995F84D30012B39
:1058000012D0022B1ED1697B00F09AF9012824D016
:10581000022817D1012385F84D3000231A460421B0
:10582000204600F009FB0DE0686A2A8B90420BD9F4
:105830006B7BE96901200090204601F0BEFA02234B
:1058400085F84D3003B030BD6B7BE96901220092D1
:1058500082B2204601F0B1FAF1E76B6A2A8B9342DB
:1058600010D99B1A6B62EB691344EB616B6A63B1ED
:10587000012385F84D3000231A460421204600F00C
:10588000DBFADFE700236B62F0E785F84D30204656
:10589000FFF7ACFFEFE7704738B50446D0F87C332C
:1058A000DD6995F84E30032B1DD0042B23D1297BC5
:1058B00000F046F901281ED1297B204600F038F976
:1058C000AB6A834202D06A8B824215D0002385F8EE
:1058D0004E302046FFF7DFFF00231A460421204602
:1058E00000F0AAFA07E02B7B6A8B296A01F07EFAA6
:1058F000042385F84E3038BD1B1AAB622B6A034473
:105900002B62032385F84E30E6E7704770B50546F5
:10591000D0F87C33DE6996F84C40022C23D00CD9A9
:10592000032C50D0042C16D1002101F0F9F90028E5
:1059300053D186F84C0001244BE0002C49D0012CB7
:1059400007D1B16CFFF72CFE38B9022386F84C3032
:105950003FE001243DE001243BE001283BD004234B
:1059600086F84C3035E006F14001FFF726FE04468C
:1059700010BB86F84C0096F84410B36C1A7991422B
:1059800001D0012425E096F846109A79914201D081
:1059900001241EE096F845105A79914201D0012465
:1059A00017E0326C1B689A4201D0012411E02846AE
:1059B000FFF7ABFF01240CE001280AD0042386F88E
:1059C0004C30012405E0FFF712FF2846FFF764FF83
:1059D0000124204670BD0446FBE70124F9E70000DE
:1059E00030B589B00023039304930593069307937E
:1059F0000368B3F1A04F01D009B030BD03AA002560
:105A000001951A4C236B43F001032363236B03F0CE
:105A100001030193019B4FF4007303931146144853
:105A2000FBF750FE4FF4E0530393022304930595D4
:105A300006950A23079303A90D48FBF743FE636B02
:105A400043F0800363630295636C43F480436364B3
:105A5000636C03F480430293029B2A460521432092
:105A6000FBF71CFE4320FBF729FEC5E70038024088
:105A70000000024008B5D0F8DC0300F0CDF908BD05
:105A800008B5D0F8DC0300F001FD08BD08B5D0F87A
:105A9000DC0300F00AFD08BD08B5D0F8DC0300F017
:105AA00020FD08BD08B5D0F8DC0300F0E6FC08BD19
:105AB00008B5D0F8DC0300F0B8F908BD90F8CC3395
:105AC000012B01D00020704710B504460F48C0F8E4
:105AD000DC43C4F8D0034FF0A043036008234371B4
