:020000040800F2
:1000000000000220455A0008E14B0008E34B0008BD
:10001000E54B0008E74B0008E94B00080000000032
:10002000000000000000000000000000B114000803
:10003000EB4B00080000000051150008B515000842
:10004000955A0008955A0008955A0008955A0008D4
:10005000955A0008955A0008955A0008955A0008C4
:10006000955A0008955A0008955A0008ED4B00086B
:10007000955A0008955A0008955A0008955A0008A4
:10008000FD4B0008955A0008955A0008955A00083B
:10009000955A0008955A0008955A0008955A000884
:1000A000955A00080D4C0008955A0008955A00080A
:1000B000955A0008955A0008955A0008955A000864
:1000C000955A0008955A0008955A0008955A000854
:1000D0001D4C0008955A0008955A0008955A0008CA
:1000E000955A0008955A0008955A0008955A000834
:1000F000955A0008955A0008955A0008955A000824
:10010000955A0008955A0008955A0008955A000813
:10011000955A0008955A0008955A0008955A000803
:10012000955A0008955A0008955A0008955A0008F3
:10013000955A0008955A0008955A0008955A0008E3
:10014000955A0008955A0008955A0008955A0008D3
:10015000955A0008955A0008955A0008955A0008C3
:10016000955A0008955A0008955A0008955A0008B3
:10017000955A0008955A0008955A0008000000009A
:08018000955A0008955A000889
:1001900053B94AB9002908BF00281CBF4FF0FF31EE
:1001A0004FF0FF3000F00CB8ADF1080C6DE904CE53
:1001B00006F030FFDDF804E0DDE9022304B070470B
:1001C000704700BF08B5064B1A783AB9054A1AB10C
:1001D0000548AFF30080024B01221A7008BD00BF32
:1001E00078000020000000003473000808B5034BBD
:1001F0001BB103490348AFF3008008BD00000000B5
:100200007C00002034730008842801D0033070473C
:1002100000207047EFF30580003818BF01207047B9
:1002200008B504F007FF002008BD2DE9F04188B0B3
:100230000F464469C4B188468569ADB14668076810
:1002400002690592B0F90800FFF7DEFF02950194FC
:1002500000904346059A3946304604F079FE0790EF
:10026000079808B0BDE8F081446805680669B0F9F0
:100270000800FFF7C9FF07AB019300903B46B2B2FD
:100280002946204604F0A4FE0128E9D00020E8E732
:1002900008B505F047F908BD08B500B9012005F01B
:1002A00019F8002008BD30B585B005460C4600237E
:1002B00003930293FFF7AEFFB0B103AB009302AB21
:1002C00001222146284605F025FB012817D1039B72
:1002D00093B14FF0E0234FF08052C3F8042DBFF3E9
:1002E0004F8FBFF36F8F07E002AB012221462846F4
:1002F00005F090FA012805D1029805B030BD4FF005
:100300000040FAE74FF00040F7E770B584B00446CC
:100310000E46154600230293FFF77CFF48B1822367
:10032000019304AB13E9070084E80700204604B0FA
:1003300070BD2B4602AA314605F020FA012805D0EF
:100340000DB90195EDE740230193EAE7029B002BED
:1003500002DB08230193E4E786230193E1E708B574
:10036000416819B1012001F04FFC08BD012001F0E6
:1003700040FCFAE730B583B00023019310B30D467B
:100380000446FFF747FFA0B101AA0021204601F073
:1003900092FE012818D1019BC3B14FF0E0234FF02A
:1003A0008052C3F8042DBFF34F8FBFF36F8F00202F
:1003B00006E02946204601F0A8FD012808D10020CA
:1003C00003B030BD8020FBE7FF20F9E71846F7E7D0
:1003D000FF20F5E710B582B0044600230193FFF734
:1003E00019FF98B101A9204601F086FC01281AD115
:1003F000019BD3B14FF0E0234FF08052C3F8042D9E
:10040000BFF34F8FBFF36F8F002008E00346024613
:100410000146204601F01DFB012802D0FF2002B05A
:1004200010BD0020FBE7FF20F9E71846F7E700B50D
:1004300083B0826842B1C36833B100210091416842
:10044000006801F098FA04E000224168006801F0B9
:10045000DCFA03B000BD30B585B00446019100233D
:10046000039315460AB901231D46FFF7D3FEA8B131
:10047000002303AA01A9204601F0D5FB012818D1C9
:10048000039BC3B14FF0E0234FF08052C3F8042D1B
:10049000BFF34F8FBFF36F8F002008E003462A465B
:1004A00001A9204601F0D5FA012806D1002005B0A7
:1004B00030BDFF20FBE71846F9E7FF20F7E770B5EE
:1004C00084B00546029100230193E1B10C46164623
:1004D00000230393FFF79EFEF8B103AA01A920466B
:1004E00001F0E9FD012815D000230093039BFBB127
:1004F0004FF0E0234FF08052C3F8042DBFF34F8F2D
:10050000BFF36F8F14E0802300939DE8070085E818
:10051000070011E010230093E8E7324601A92046C6
:1005200001F044FC01280AD00EB140231E4600967B
:100530009DE8070085E80700284604B070BD102339
:100540000093F5E7002312E030F9132007EE902A1C
:10055000F8EEE77A67EE807AFDEEE77A17EE902AFA
:1005600020F813205A1C002120F8121002333F2BD0
:10057000EADD7047B7EE006A36EE406A002337E0E6
:1005800030F9132007EE102AB8EEC77A991C30F91B
:10059000112007EE902AF8EEE77A20EE077A164A45
:1005A000D2ED006A66EE266A37EE267A82ED007A90
:1005B00060EE277A114AD2ED006A66EE266A77EE7F
:1005C000A67AC2ED007ABDEEC77A17EE102A20F89F
:1005D000132003F1010C002220F81C20FDEEE77A25
:1005E00017EE90CA20F811C0D91C20F8112004334E
:1005F0003F2BC5DD704700BFA00000209C000020FD
:10060000FCEEC07A17EE903AC3F30B02531CC3F30F
:100610000B03F8EE677A70EE677A30F9122000EE7D
:10062000102AB8EEC00AB7EE007A37EE677A20EEED
:10063000070A30F9133007EE103AB8EEC77A67EEC2
:10064000277A30EE270A70472DE9F0472DED048B0D
:100650000646B0EE409A00252DE09FED6D7A77EECC
:10066000877A74E09FED6B7ADFED6A6AF4EEE67AE2
:10067000F1EE10FA09DCDFED686AF4EEE67AF1EEED
:1006800010FA04D5DFED647A01E0DFED627ABDEEA9
:10069000C77A17EE103A26F809307A1C002326F89C
:1006A0001230FDEEE77A17EE902A26F8182003376D
:1006B00026F8173004353F2D00F3A6802F464FEA69
:1006C000450936F9152007EE902AF8EEE78A05F17C
:1006D000020836F9183007EE903AB8EEE78A4F492B
:1006E0000C684F4921F814204E4A22F81430DFF8E4
:1006F00048A1DAED009A9FED4C0A29EE800A05F038
:1007000083FA9FED4A7AC9EE077A79EEA77ACAEDA5
:10071000007AB7EE007AF4EEC77AF1EE10FA03DB56
:1007200077EEC77ACAED007ADFED417A20EE270A2C
:10073000DFED407A30EE270A07EE904AF8EE677A4E
:1007400077EEC07AF5EEC07AF1EE10FA85D4BCEE01
:10075000E77A17EE103AC3F30A02531CC3F30A03F5
:10076000B8EE477A37EEC77A2D4931F9120006EE16
:10077000900AF8EEE66AF7EE007A77EEC77A66EE50
:10078000A76A31F9131006EE101AB8EEC66A26EE03
:10079000076A76EE866A234931F9122006EE102A9E
:1007A000B8EEC66A67EE867A31F9133006EE103A73
:1007B000B8EEC66A26EE077A77EE877A0134C4F37C
:1007C0000A04164B1C60B6EE006A28EE867A66EEC6
:1007D000866A37EE267A28EE068A67EE867A78EE03
:1007E000277ADFED0C6AB4EEE67AF1EE10FA3FF705
:1007F00039AFDFED096AB4EEE67AF1EE10FA7FF573
:1008000033AF9FED057A2FE7BDEC048BBDE8F08791
:100810000000004500FEFF46000000C7B440002075
:10082000B8500020B8400020D00FC94000803B479E
:100830000000704300007044B04000202DE9F84FE4
:100840002DED088B0646F2EE080AC0EE200AB0EE47
:10085000000A05F061F9F0EE40AA00258EE039EEBD
:100860002A9A9C4B83ED009ADFED9B7AB4EEE79ACF
:10087000F1EE10FAC0F2F48039EE679A83ED009A37
:10088000EEE039EE2A9A934B83ED009ADFED927AEF
:10089000B4EEE79AF1EE10FAC0F2E28039EE679A10
:1008A00083ED009ADCE0DFED8C6A77EEA67AEBE070
:1008B000DFED897A37EE277A83ED007A01E1F7EEF2
:1008C000006AF4EEE6AAF1EE10FA10D4DFED837AB6
:1008D000F4EEE78AF1EE10FA27DCDFED817AF4EE30
:1008E000E78AF1EE10FA22D5DFED7D8A1FE0DFED19
:1008F0007D6AF4EEE67AF1EE10FAE7DDDFED7A7A62
:1009000037EE277A794B83ED007ADFED737AB4EE18
:10091000E77AF1EE10FA03DB37EE677A83ED007ABF
:10092000734B4FF480721A60D0E7DFED6C8ADFED15
:100930006B7AB4EEE78AF1EE10FA09DCDFED687A43
:10094000B4EEE78AF1EE10FA04D59FED658A01E076
:100950009FED628AFDEEE88A18EE903A26F809309B
:100960007A1C002326F81230BDEEC88A18EE102A31
:1009700026F81820033726F8173004353F2D00F3EA
:10098000A5802F464FEA45095A4A136836F91510D3
:10099000594820F8131005F1020836F91810DFF84D
:1009A00060A12AF813100133C3F30B041460494B00
:1009B00093ED009AB0EE490AFFF722FEF0EE408A6E
:1009C000B0EE490A5046FFF71BFEB0EE408A484B96
:1009D000D3F800A0BAF1000F7FF753AFCAF58073C8
:1009E0000AEE103AB8EECAAADFED447A2AEE27AA38
:1009F000B7EE00BA3BEE4ABA6BEE288ADFF8ECB0ED
:100A0000DBED009AB0EE690A3B48FFF7F9FD20EEF6
:100A10000A0A78EE808A2BEE08BAB0EE690A3848E6
:100A2000FFF7EEFD20EE0A8A3BEE088A79EEAA9ADD
:100A3000CBED009ADFED287AF4EEE79AF1EE10FAAA
:100A400003DB79EEE79ACBED009A0AF1FF33284AEF
:100A50001360002B7FF403AF244B1A681D4B1A6000
:100A6000234B1B68002B7FF431AF07EE904AF8EE62
:100A7000677A184B93ED007A77EEC77AF5EEC07A75
:100A8000F1EE10FA3FF50FAFF7EE006AF4EEE6AACA
:100A9000F1EE10FAFFF613AFDFED1A6AF4EEE67A24
:100AA000F1EE10FA7FF50BAFDFED0F7A37EE677AD4
:100AB0000E4B83ED007AB5EEC07AF1EE10FA3FF5F9
:100AC000F7AE0B4B4FF480721A60FFE6BDEC088B5B
:100AD000BDE8F88F000000200000804500FEFF46C2
:100AE000000000C70000704500008044A8000020FE
:100AF000A4000020AC000020B02000200000803BBB
:100B0000B00000200000804308B5044B00221A709A
:100B10000121034B1868FFF7C6FB08BD98000020B1
:100B20009400002008B50121034B1970034B18688D
:100B3000FFF7B9FB08BD00BF98000020940000201B
:100B400070B58AB0FFF7A4FB2C4B18602C4C4FF407
:100B500080720021204604F09EFF2023294A21466E
:100B6000294802F00FFA08E014F0020F34D114F013
:100B7000040F37D114F0080F3AD14FF0FF320121A2
:100B80006846FFF7C2FB214B1B781D4D05EBC315D3
:100B900080221C4901EBC311284604F0AFFF1C4E14
:100BA0004FF0FF313068FFF7E5FB0DF1140C194CE5
:100BB0000FCCACE80F002368CCF800303068FFF7AA
:100BC00009FC9DF8244014F0010FCDD09DED050ADD
:100BD0002846FFF7B7FCC7E79DED060A2846FFF752
:100BE000C9FCC4E79DED070A2846FFF72DFDC1E7C4
:100BF0009DED080A2846FFF721FEBEE7940000207D
:100C0000B8600020B8610020B4A200209800002045
:100C1000B862002004000020034B0360034B0B600C
:100C200080231360704700BFBC640020BC620020BA
:100C3000124A12F0070F1ED0D11D21F00701C1F595
:100C4000705313440A460E48026000214160134469
:100C5000083B23F007030B48036059601960991A99
:100C600051601360084B1960084B1960084B4FF036
:100C700000421A6070474FF47053E4E7306500207B
:100C800028650020246500201C65002020650020C8
:100C900010650020144B1A461B688342FBD3516831
:100CA00002EB010C844509D0416800EB010C63455F
:100CB00009D00360904200D0106070474068014442
:100CC00051601046F0E7DFF824C0DCF800C063454F
:100CD00006D05B681944416013681B680360E9E74C
:100CE000C0F800C0E6E700BF2865002024650020AA
:100CF00038B5044604F0D8F9384B1B68B3B1384B0B
:100D00001B681C4250D1002C50D004F1080214F092
:100D1000070F02D022F007020832002A55D0314BCB
:100D20001B68934253D330490C6804E0FFF780FFFF
:100D3000E5E721461C466368934202D22368002BF4
:100D4000F7D1264B1B68A34243D00D6808352368B2
:100D50000B6063689B1A102B10D9A01810F0070FB6
:100D600008D04FF0500383F31188BFF36F8FBFF3A8
:100D70004F8FFEE743606260FFF78CFF626819499E
:100D80000B689B1A0B60194909688B4201D21749FD
:100D90000B60134B1B681343636000232360144AEA
:100DA00013680133136002E0002500E0254604F0DB
:100DB00015FA15F0070F0ED04FF0500383F311888A
:100DC000BFF36F8FBFF34F8FFEE71546EFE70025A8
:100DD000EDE70025EBE7284638BD00BF246500207D
:100DE0001065002020650020286500201C6500207B
:100DF00018650020002835D038B50446A0F1080356
:100E00001D4650F8043C184A1268134208D14FF0AE
:100E1000500383F31188BFF36F8FBFF34F8FFEE74B
:100E200050F8081C41B14FF0500383F31188BFF311
:100E30006F8FBFF34F8FFEE723EA020340F8043CB5
:100E400004F032F954F8041C084A13680B44136088
:100E50002846FFF71FFF064A13680133136004F0AA
:100E6000BDF938BD704700BF106500202065002027
:100E70001465002000F1080343604FF0FF328260E8
:100E8000C360036100230360704700230361704760
:100E900043684B609A688A60516099600861036892
:100EA00001330360704710B402460846D1F800C011
:100EB000BCF1FF3F11D002F1080319465B681C68C2
:100EC0006445FAD94B68436098608160486002616C
:100ED00013680133136010BC70471169F2E70369AE
:100EE000416882688A60416851605A68824206D0CF
:100EF000002202611A68013A1A6018687047826815
:100F00005A60F5E72DE9F04F8DB007AD0024079446
:100F1000089409940A940B940194614B1A6B42F063
:100F200010021A631A6B02F010020192019A0294E5
:100F30001A6B42F004021A631A6B02F00402029266
:100F4000029A03941A6B42F080021A631A6B02F041
:100F500080020392039A04941A6B42F001021A630E
:100F60001A6B02F001020492049A05941A6B42F083
:100F700002021A631A6B02F002020592059A0694A5
:100F80001A6B42F008021A631B6B03F00803069306
:100F9000069BDFF8148122460821404601F05CFDE3
:100FA000DFF808A101221146504601F055FDDFF897
:100FB000009122464FF21001484601F04DFD0827EE
:100FC00007970126089609940A942946404601F09D
:100FD0003FFC0796089609940A942946504601F06A
:100FE00037FC07970227089709940A944FF0050BDE
:100FF000CDF82CB02946504601F02AFC07964FF454
:10100000901308930994AAF5006A2946504601F006
:101010001FFC04230793089409942946214801F0F2
:1010200017FC4FF480630793089709940A94CDF84E
:101030002CB029461B4801F00BFC4FF2100307931C
:10104000089609940A942946484601F001FC4FF499
:1010500000730793089409942946504601F0F8FB61
:101060004FF4E0530793089709940A940A230B93CB
:101070002946504601F0ECFB20230793089409947D
:101080002946484601F0E4FB07974FF49013089374
:1010900009942946404601F0DBFB0DB0BDE8F08F16
:1010A00000380240000402400010024000080240E4
:1010B000000C024010B582B0002401940D4B1A6B55
:1010C00042F400121A631B6B03F400130193019B9B
:1010D000224605210B2001F087F90B2001F094F93D
:1010E00022460521102001F07FF9102001F08CF933
:1010F00002B010BD0038024008B54FF480510448DA
:1011000001F0B0FC4FF4FA70FFF7C6F8F5E700BF46
:10111000000C024008B502680C4B9A4200D008BD92
:101120000B4B19785B78002243EA0121094B1868C0
:10113000FFF791F94FF40041074801F093FC0222B8
:101140000349064803F04CF9E9E700BF00380040C6
:1011500030A1002034A10020000C024044A1002056
:1011600008B50268044B9A4200D008BD0222034928
:10117000034803F035F9F8E70038004030A10020BB
:1011800044A1002008B50268034B9A4200D008BD74
:1011900001F0C0F8FBE700BF0000014072B6FEE7B7
:1011A00008B50A480A4B03600A4B4360002383607A
:1011B000C3604FF48042026143618361C361036293
:1011C00001F05AFC00B908BDFFF7E8FFFCA20020BF
:1011D00000540040A086010008B50C480C4B036089
:1011E0004FF400724260002383600321C1600261FA
:1011F0004BF6803242618361C3610123036201F0D7
:1012000027FD00B908BDFFF7C9FF00BFB4A2002049
:10121000003C004008B50D480D4B03604FF482734D
:10122000436000238360C360036143614FF4007235
:101230008261C3610362436283620A23C36203F073
:1012400005F800B908BDFFF7A9FF00BF9CA1002069
:101250000030014008B50A480A4B03600023436090
:101260008360C3600361436183610362436283629D
:101270000A23C36202F0EAFF00B908BDFFF78EFF40
:1012800044A100200038004010B594B008AC3022D2
:101290000021204604F0FFFB0023039304930593F1
:1012A000069307930193204A116C41F08051116419
:1012B000126C02F080520192019A02931B4B1A6841
:1012C00042F480421A601B6803F480430293029B3D
:1012D000012308934FF48033099302230E934FF4B4
:1012E00080020F92082210924FF4A872119212936A
:1012F00007231393204602F079FA88B90F2303934A
:101300000223049305904FF4A05306934FF48053A7
:101310000793052103A802F0D5FC18B914B010BD3D
:10132000FFF73CFFFFF73AFF003802400070004033
:1013300000B59DB000F0D4FFFFF7A6FFFFF7E2FD78
:10134000FFF7B8FEFFF72CFFFFF746FFFFF762FF3E
:10135000FFF780FF00251A951B951AA8FEF7FFFFDF
:10136000234B1860234C0DF1580C94E80F008CE8C7
:101370000F0029466046FFF75AF81F4B18600DF121
:101380003C0C04F1100EBEE80F00ACE80F009EE824
:1013900007008CE8070029460FA8FEF746FF174B09
:1013A00018600DF1200C04F12C0EBEE80F00ACE823
:1013B0000F009EE807008CE80700294608A8FEF702
:1013C00034FF0F4B18600DF1040E04F1480CBCE81B
:1013D0000F00AEE80F009CE807008EE807002946E2
:1013E00001A8FEF722FF074B1860FEF719FFFEE782
:1013F000B86200204C73000834A1002040A10020F6
:101400003CA1002038A1002082B0002301930D4BA5
:101410001B68B3F1FF3F08D04FF0500383F31188EE
:10142000BFF36F8FBFF34F8FFEE74FF0500383F38F
:101430001188BFF36F8FBFF34F8F019B002BFCD040
:1014400002B070471800002008480068006880F368
:1014500008884FF0000080F3148862B661B6BFF3CD
:101460004F8FBFF36F8F00DF00BF000008ED00E07B
:10147000DFF80C00016841F4700101607047000062
:1014800088ED00E04FF0807340F8043C21F001014A
:1014900040F8081C054B40F80C3C40F8202C6FF03D
:1014A000020340F8243C4438704700BF0914000888
:1014B000074B19680868B0E8F04F80F30988BFF35C
:1014C0006F8F4FF0000080F311887047AFF30080FA
:1014D000CCA400204FF0500383F31188BFF36F8F2B
:1014E000BFF34F8F0B4A136801331360012B00D0F9
:1014F00070474FF0E023D3F8043D13F0FF0FF7D00F
:101500004FF0500383F31188BFF36F8FBFF34F8FFA
:10151000FEE700BF18000020094B1B6843B94FF0DD
:10152000500383F31188BFF36F8FBFF34F8FFEE734
:10153000013B034A13600BB983F31188704700BF66
:101540001800002000000000000000000000000063
:10155000EFF30980BFF36F8F154B1A681EF0100F61
:1015600008BF20ED108A20E9F04F106009B44FF059
:10157000500080F31188BFF34F8FBFF36F8F03F0DC
:10158000CFFE4FF0000080F3118809BC196808688D
:10159000B0E8F04F1EF0100F08BFB0EC108A80F3D7
:1015A0000988BFF36F8F7047AFF30080AFF30080FF
:1015B000CCA4002008B54FF0500383F31188BFF38B
:1015C0006F8FBFF34F8F03F077FD28B14FF0E0230B
:1015D0004FF08052C3F8042D002383F3118808BD17
:1015E0004FF0E022002313619361054B1B6805490E
:1015F000A1FB03139B09013B536107231361704750
:1016000024000020D34D62104FF0E023D3F8002DCA
:101610003E4B9A421CD04FF0E023D3F8002D3C4BB8
:101620009A421ED010B582B03A4B1A78D2B20192CB
:10163000FF221A701B78DBB28DF803309DF803305F
:1016400003F05003344A1370344B07221A601BE036
:101650004FF0500383F31188BFF36F8FBFF34F8FA9
:10166000FEE74FF0500383F31188BFF36F8FBFF392
:101670004F8FFEE7294A1368013B13609DF8033042
:101680005B00DBB28DF803309DF8033013F0800F60
:10169000F0D1224B1B68032B08D04FF0500383F38B
:1016A0001188BFF36F8FBFF34F8FFEE71B021B4AFA
:1016B000136003F4E0631360019BDBB2154A1370FF
:1016C0004FF0E022D2F8203D43F47003C2F8203DF1
:1016D000D2F8203D43F070431446C2F8203DFFF796
:1016E0007FFF0F4B00221A60FFF7C2FED4F8343F91
:1016F00043F04043C4F8343FFFF7A6FE03F010FE6A
:10170000FFF782FE002002B010BD00BF71C20F4182
:1017100070C20F4100E400E054A3002050A3002059
:1017200018000020EFF305830F2B0ED9114A9A5CA5
:10173000114B1B789A4208D24FF0500383F3118863
:10174000BFF36F8FBFF34F8FFEE74FF0E023D3F867
:101750000C3D03F4E063094A1268934208D94FF044
:10176000500383F31188BFF36F8FBFF34F8FFEE7F2
:10177000704700BFF0E300E054A3002050A3002016
:101780000346406A18B11B6B1868C0F10700704728
:1017900010B50446FFF79EFEA26BE36B9A4204D09D
:1017A0000024FFF7B9FE204610BD0124F9E710B56B
:1017B0000446FFF78FFEA36B2BB901231C46FFF7EE
:1017C000ABFE204610BD00231C46F8E770B504466A
:1017D0001646856B026C5AB903681BB100200135AF
:1017E000A56370BD806803F009FF0023A360F6E7DE
:1017F0006EB9406804F082F96368226C1344636038
:10180000A268934219D3236863603046E7E7C06853
:1018100004F074F9E368226C51429B1AE360226879
:10182000934202D2A3680B44E360022E01D0002051
:10183000D5E725B1013D0020D1E73046CFE7284666
:10184000CDE70346026C6AB110B50846D968114469
:10185000D9609C68A14201D31968D960D96804F0A5
:101860004DF910BD704738B50546FFF733FE95F8C2
:10187000454064B201E0013C64B2002C0ADD6B6AB1
:1018800043B105F1240003F0AFFD0028F3D003F0CD
:1018900043FEF0E7FF2385F84530FFF73DFEFFF7F5
:1018A00019FE95F8444064B201E0013C64B2002C9A
:1018B0000ADD2B6943B105F1100003F095FD002806
:1018C000F3D003F029FEF0E7FF2385F84430FFF75B
:1018D00023FE38BD38B5E0B10D460446FFF7FAFDEA
:1018E0002368E26B216C01FB0230A0600020A06342
:1018F0006360013A02FB0133E360FF2384F8443064
:1019000084F84530FDB9236963B9FFF705FE01206E
:1019100038BD4FF0500383F31188BFF36F8FBFF3CF
:101920004F8FFEE704F1100003F05EFD0028ECD0BD
:101930004FF0E0234FF08052C3F8042DBFF34F8FD8
:10194000BFF36F8FE1E704F11000FFF793FA04F1A2
:101950002400FFF78FFAD8E708B5034602988C46B3
:1019600039B90060C363C0F840C00121FFF7B2FF7E
:1019700008BD0260F6E740B94FF0500383F31188C9
:10198000BFF36F8FBFF34F8FFEE710B584B01C46D7
:10199000844653B192B189B94FF0500383F3118853
:1019A000BFF36F8FBFF34F8FFEE74FF0500383F30A
:1019B0001188BFF36F8FBFF34F8FFEE76AB14823E3
:1019C0000393039B482B13D04FF0500383F31188EC
:1019D000BFF36F8FBFF34F8FFEE70029EFD04FF0BB
:1019E000500383F31188BFF36F8FBFF34F8FFEE770
:1019F000039B012384F8463000949DF8183060461C
:101A0000FFF7AAFF204604B010BD40B94FF05003C5
:101A100083F31188BFF36F8FBFF34F8FFEE7F0B5ED
:101A200083B0164604460D4601FB00F04830FFF730
:101A30005FF90246074648B1002380F8463000901F
:101A40003346483229462046FFF786FF384603B022
:101A5000F0BDF0B585B0019288B10F461D46044631
:101A6000B1B1022D20D1E36B012B1DD04FF05003FB
:101A700083F31188BFF36F8FBFF34F8FFEE74FF0F3
:101A8000500383F31188BFF36F8FBFF34F8FFEE7CF
:101A9000036C002BE5D04FF0500383F31188BFF3A4
:101AA0006F8FBFF34F8FFEE703F042FD064658B934
:101AB000019B002B48D04FF0500383F31188BFF3F4
:101AC0006F8FBFF34F8FFEE700263DE02A46394671
:101AD0002046FFF77BFE636A7BB948B14FF0E023F5
:101AE0004FF08052C3F8042DBFF34F8FBFF36F8FB9
:101AF000FFF712FD012005B0F0BD04F1240003F052
:101B000073FC0028F4D04FF0E0234FF08052C3F86C
:101B1000042DBFF34F8FBFF36F8FE9E7FFF7FCFC96
:101B20000020E8E702A803F0A7FC012619E0002343
:101B300084F8443021E0002384F8453023E0204637
:101B4000FFF791FE03F04AFBFFF7C4FCA26BE36BC7
:101B50009A42BBD3022DB9D0019B002BDED0002EC0
:101B6000E0D0FFF7D9FC03F09FFAFFF7B3FC94F83D
:101B7000442052B2B2F1FF3FD9D094F8452052B27E
:101B8000B2F1FF3FD7D0FFF7C7FC01A902A803F0CD
:101B90007FFCD8B92046FFF7FBFD0028CFD0019984
:101BA00004F1100003F008FC2046FFF75CFE03F090
:101BB00015FB0028C8D14FF0E0234FF08052C3F846
:101BC000042DBFF34F8FBFF36F8FBDE72046FFF7A4
:101BD0004AFE03F003FB00208DE748B108B5002161
:101BE00081600160C1600B460A46FFF732FF08BD05
:101BF000704710B5024600210120FFF706FF04469A
:101C0000FFF7EBFF204610BD10B582B00B460090E9
:101C1000002211460120FFF7AEFE0446FFF7DDFF6C
:101C2000204602B010BD2DE9F84390B10F46904612
:101C30001E460446B1B1022E20D1E36B012B1DD00C
:101C40004FF0500383F31188BFF36F8FBFF34F8FB3
:101C5000FEE74FF0500383F31188BFF36F8FBFF39C
:101C60004F8FFEE7036C002BE5D04FF0500383F35A
:101C70001188BFF36F8FBFF34F8FFEE7FFF752FD61
:101C8000EFF311834FF0500282F31188BFF36F8F8F
:101C9000BFF34F8F9946A26BE36B9A4206D3022E95
:101CA00004D0002089F31188BDE8F88394F845300A
:101CB0005DB2A36B324639462046FFF787FDB5F18A
:101CC000FF3F06D02B4601335BB284F8453001203C
:101CD000E8E7636A0BB90120E4E704F1240003F0AC
:101CE00083FB28B143462BB10120C8F80000D9E797
:101CF0000120D7E70120D5E768B170B50D4604464D
:101D0000036C8BB14FF0500383F31188BFF36F8FD7
:101D1000BFF34F8FFEE74FF0500383F31188BFF3FB
:101D20006F8FBFF34F8FFEE70368F3B1FFF7FAFC45
:101D3000EFF311834FF0500282F31188BFF36F8FDE
:101D4000BFF34F8F1E46A26BE36B934226D994F8E4
:101D500045305BB20132A263B3F1FF3F11D00133D2
:101D60005BB284F84530012019E08368002BDDD098
:101D70004FF0500383F31188BFF36F8FBFF34F8F82
:101D8000FEE7636A0BB9012009E004F1240003F0C7
:101D90002BFB38B145B10120286000E0002086F31C
:101DA000118870BD0120FAE70120F8E7F0B585B091
:101DB000019290B10F460446C1B103F0B9FB06464B
:101DC00000BB019B002B5ED04FF0500383F31188C2
:101DD000BFF36F8FBFF34F8FFEE74FF0500383F3D6
:101DE0001188BFF36F8FBFF34F8FFEE7036C002B9B
:101DF000E3D04FF0500383F31188BFF36F8FBFF32D
:101E00004F8FFEE700263EE039462046FFF719FDDA
:101E1000013DA563236923B9FFF77EFB012005B0CF
:101E2000F0BD04F1100003F0DFFA0028F4D04FF009
:101E3000E0234FF08052C3F8042DBFF34F8FBFF360
:101E40006F8FE9E7FFF768FB2846E8E702A803F091
:101E500013FB012621E0002384F8443029E000230D
:101E600084F845302BE02046FFF7FDFC03F0B6F97F
:101E700009E02046FFF7F7FC03F0B0F92046FFF732
:101E800096FC00283FD1FFF725FBA56B002DBBD1A9
:101E9000019B002BD6D0002ED8D0FFF73DFB03F0DE
:101EA00003F9FFF717FB94F844305BB2B3F1FF3F3F
:101EB000D1D094F845305BB2B3F1FF3FCFD0FFF7FC
:101EC0002BFB01A902A803F0E3FA0028D1D1204698
:101ED000FFF76DFC0028C6D0019904F1240003F03F
:101EE0006BFA2046FFF7BFFC03F078F90028CAD14F
:101EF0004FF0E0234FF08052C3F8042DBFF34F8F13
:101F0000BFF36F8FBFE7002089E770B584B0019100
:101F100058B10446036C8BB14FF0500383F3118822
:101F2000BFF36F8FBFF34F8FFEE74FF0500383F384
:101F30001188BFF36F8FBFF34F8FFEE703F0F8FAFE
:101F4000054650B9019B63B14FF0500383F31188EC
:101F5000BFF36F8FBFF34F8FFEE700231E461D4672
:101F600056E0064654E0013BA363236843B123696E
:101F700053B9FFF7D1FA01231E46304604B070BDB5
:101F800003F0EEFBA060F2E704F1100003F02CFA7E
:101F90000028EED04FF0E0234FF08052C3F8042D1C
:101FA000BFF34F8FBFF36F8FE3E746B14FF050039E
:101FB00083F31188BFF36F8FBFF34F8FFEE7FFF7F7
:101FC000ABFADAE702A803F057FA01252AE000236A
:101FD00084F8443032E0002384F8453034E0FFF7E1
:101FE00079FAA06803F0B4FA0646FFF795FA3BE0E9
:101FF0002046FFF738FC03F0F1F809E02046FFF730
:1020000032FC03F0EBF82046FFF7D1FB002842D169
:10201000FFF760FAA36B002BA5D1019B002BC4D066
:10202000002DCFD0FFF778FA03F03EF8FFF752FA11
:1020300094F844305BB2B3F1FF3FC8D094F8453018
:102040005BB2B3F1FF3FC6D0FFF766FA01A902A861
:1020500003F01EFA0028D1D12046FFF7A8FB002884
:10206000C6D02368002BBAD0019904F1240003F0F4
:10207000A3F92046FFF7F7FB03F0B0F80028C7D11B
:102080004FF0E0234FF08052C3F8042DBFF34F8F81
:10209000BFF36F8FBCE716B900231E466DE7FFF74D
:1020A00019FA2046FFF76CFB0146A06803F0FEFA20
:1020B000FFF732FAF0E72DE9F843C0B10E4690463B
:1020C0000446E9B1FFF72EFBEFF311834FF0500206
:1020D00082F31188BFF36F8FBFF34F8F1F46A36B3F
:1020E0009946CBB9184687F31188BDE8F8834FF0BD
:1020F000500383F31188BFF36F8FBFF34F8FFEE759
:10210000036C002BDED04FF0500383F31188BFF334
:102110006F8FBFF34F8FFEE794F844305DB23146C6
:102120002046FFF78EFB09F1FF33A363B5F1FF3FB4
:1021300006D02B4601335BB284F844300120D2E74D
:1021400023690BB90120CEE704F1100003F04CF92C
:1021500028B143462BB10120C8F80000C3E7012095
:10216000C1E70120BFE7000030B585B00222514928
:10217000514802F035F93BE0042B40F09780E4B27F
:1021800007EE904AF8EEE77ADFED4C6A87EEA67A22
:10219000F3EE087A67EE277AB2EE087A77EEC77A1E
:1021A000474BC3ED037A1A7C42F008021A740122ED
:1021B0004FF48051434800F04FFC15E0E4B207EEC5
:1021C000904AF8EEE77ADFED3D6A87EEA67A3C4B5F
:1021D00083ED007A1A7C42F001021A7401224FF456
:1021E0000051384800F038FC374B1868FEF7F2F819
:1021F0004FF0FF32354B196801A8FEF760F9019BDB
:10220000102BF5D1029C250A4FF0FF312E4B186898
:10221000FEF7B0F800224FF4E0412A4800F01CFC21
:10222000EBB2032B23D0A7D8012BC7D0022B3DD173
:10223000E4B207EE904AF8EEE77ADFED206A87EE27
:10224000A67ADFED237A67EE277A9FED227A77EE82
:10225000877A1B4BC3ED027A1A7C42F004021A748F
:1022600001224FF48041174800F0F6FBBCE7E4B2CE
:1022700007EE904AF8EEE77ADFED106A87EEA67A6D
:10228000DFED157A67EE277A9FED147A77EE877A7D
:102290000B4BC3ED017A1A7C42F002021A74012240
:1022A0004FF4C041074800F0D7FB9DE7044B0022E4
:1022B0001A7499E730A1002044A1002000007F4358
:1022C00004000020000C0240B862002034A100206D
:1022D0009A993940CDCCCC3D3333333F9A99993ECE
:1022E00008B50B4B1A6842F400721A601A6842F47F
:1022F00080621A601A6842F480721A60032000F04B
:1023000061F80F2002F020FC01F0E0F8002008BD89
:10231000003C0240034A1168034B1B780B441360D6
:10232000704700BF58A300201C000020014B186814
:10233000704700BF58A30020002807DB00F01F02F1
:10234000400901239340024A42F82030704700BF01
:1023500000E100E0002808DB0901C9B200F160409B
:1023600000F5614080F80013704700F00F0009018C
:10237000C9B2014B1954704714ED00E000B500F0EC
:102380000700A0F1030CBCF1040F07D8C0F1070E41
:102390000430062806D84FF0000C03E04FF0040E7E
:1023A0004FF0000C4FF0FF3303FA0EF021EA00016A
:1023B00001FA0CF103FA0CF322EA030241EA0200EB
:1023C00000BD0000074AD36823F4E0631B041B0C24
:1023D000000200F4E060034343F0BF6343F40033C2
:1023E000D360704700ED00E010B50446054BD86897
:1023F000C0F30220FFF7C2FF01462046FFF7AAFF05
:1024000010BD00BF00ED00E008B5FFF795FF08BD67
:1024100010B5D0F800E0DEF800C02CF4802CCEF827
:1024200000C0046863608368402B04D0036899602F
:102430000368DA6010BD03689A600368D960F9E741
:102440000368D9B210390A4AA2FB01C21209DFF8A7
:1024500024C01CF80220C2655F2905D96FF3090367
:1024600004338365806D70476FF309038365F9E773
:10247000ABAAAAAAD4730008836A826992B9012B15
:102480000AD0022B02D00BB100207047C36A13F0B0
:10249000807F2CD100207047C36AB3F1C07F28D061
:1024A00000207047B2F5005F09D0022B2BD9032B17
:1024B0002BD1C36A13F0807F29D100207047022BF3
:1024C00019D00AD8CBB1012B05D1C36A13F0807F94
:1024D00015D10020704700207047032B05D1C36A37
:1024E000B3F1C07F0DD0002070470020704701205D
:1024F000704701207047012070470120704701207C
:10250000704701207047012070470020704701206C
:102510007047000070B50446FFF708FF002C5CD040
:102520000546022384F83530002384F834302268CD
:10253000136823F00103136023681A6812F0010F77
:102540000AD0FFF7F3FE431B052BF5D92023636563
:10255000032084F8350070BD1A6821491140626873
:10256000A0680243E06802432069024360690243B5
:10257000A0690243E0690243206A02430A43616A98
:1025800004291FD01A6023681E465D6925F00705DF
:10259000636A1D43042B07D1A36A1D43E36A1BB181
:1025A0002046FFF769FF90B975612046FFF748FFA5
:1025B000E26D3F239340836000206065012384F82F
:1025C0003530C8E7E16A206B01430A43DAE740236C
:1025D0006365012084F83500BDE70120BBE700BF3B
:1025E0003F8010F038B50446806D054694F83400FD
:1025F00001282AD0012084F8340094F835000128FD
:1026000004D0002384F83430022038BD022084F83E
:102610003500002060652046FFF7FAFEE26D3F239B
:102620009340AB602268136843F016031360236C79
:1026300023B12268136843F008031360226813680B
:1026400043F0010313600020DFE70220DDE790F88C
:102650003530022B03D080234365012070470523CA
:1026600080F835300268136823F0010313600020FE
:1026700070470000F0B583B0044600230193724B0D
:102680001D68724BA3FB0535AD0A876D3E68C26DB0
:1026900008239340334210D003681A6812F0040FE5
:1026A0000BD01A6822F004021A60C26D082393400E
:1026B000BB60436D43F001034365E26D012393402A
:1026C000334209D02268526912F0800F04D0BB60F7
:1026D000636D43F002036365E26D0423934033426C
:1026E00009D02268126812F0020F04D0BB60636D3B
:1026F00043F004036365E26D10239340334224D01A
:102700002268126812F0080F1FD0BB6023681A6895
:1027100012F4802F0DD01B6813F4002F04D1236C0A
:102720009BB12046984710E0A36C73B120469847B0
:102730000BE01A6812F4807F03D11A6822F00802B5
:102740001A60236C0BB120469847E26D202393401A
:10275000334254D02268126812F0100F4FD0BB6081
:1027600094F83530052B0ED023681A6812F4802FA8
:1027700033D01B6813F4002F2AD1636C002B3ED09A
:10278000204698473BE02268136823F01603136045
:102790002268536923F080035361236CA3B122683C
:1027A000136823F008031360E26D3F239340BB607E
:1027B000012384F83530002384F83430236D002B56
:1027C0003FD0204698473CE0A36C002BE7D1EBE7D5
:1027D000E36BA3B12046984711E01A6812F4807F9A
:1027E00009D11A6822F010021A60012384F83530EA
:1027F000002384F83430E36B0BB120469847636DB7
:10280000FBB1636D13F0010F17D0052384F8353049
:102810002268136823F001031360019B01330193C5
:10282000AB4204D823681B6813F0010FF5D10123D4
:1028300084F83530002384F83430E36C0BB1204643
:10284000984703B0F0BD00BF24000020B5814E1BA7
:1028500070B582B08E46002369E085684FEA430C6C
:10286000032101FA0CF125EA0105DEF80C1001FA4A
:102870000CF129438160416821EA0201DEF804205D
:10288000C2F300129A400A43426065E0D908083159
:1028900050F8212003F00705AD004FF00F0C0CFAA3
:1028A00005FC22EA0C0CDEF81020AA4042EA0C02D9
:1028B00040F8212067E0072200E0002202FA0CF233
:1028C0002A430231604D45F82120604A9168E24375
:1028D00021EA0405DEF8046016F4801F01D044EA02
:1028E00001055A498D60C96802EA0105DEF80460F5
:1028F00016F4001F01D044EA01055449CD6049682F
:1029000002EA0105DEF8046016F4003F01D044EA53
:1029100001054E494D6009680A40DEF8045015F47F
:10292000803F01D044EA010248490A6001330F2B7D
:1029300000F2878001229A40DEF8001001EA0204CA
:1029400032EA0101F2D1DEF8041001F0030C0CF1BF
:10295000FF3CBCF1010F80D9DEF8042002F0030235
:10296000032A0AD0C1685D000322AA4021EA0201BD
:10297000DEF80820AA400A43C260DEF8042002F014
:102980000302022A82D001684FEA430C032202FAB2
:102990000CF221EA0201DEF8042002F0030202FA3E
:1029A0000CF20A430260DEF8042012F4403FBDD06E
:1029B00000220192264A516C41F480415164526CCC
:1029C00002F480420192019A99088D1C1E4A52F825
:1029D000255003F0030C4FEA8C0C0F2202FA0CF284
:1029E00025EA02051B4A90423FF467AF02F5806278
:1029F00090421AD002F58062904218D002F58062AF
:102A0000904216D002F58062904214D002F58062A6
:102A1000904212D002F58062904210D002F580629E
:102A200090423FF448AF082248E7012246E70222DD
:102A300044E7032242E7042240E705223EE706225C
:102A40003CE702B070BD00BF00380140003C0140CF
:102A500000380240000002400AB181617047090459
:102A600081617047436901EA030221EA030141EAF7
:102A70000241816170470000002800F0DA8038B51B
:102A8000044690F83D30002B51D0242384F83D308B
:102A90002268136823F0010313602268136843F46B
:102AA000004313602268136823F40043136001F0AD
:102AB000BFF96268614B9A423ED8614B98428CBF25
:102AC00000230123002B40F0B6805E49A1FB0031BA
:102AD0008B0CD4F800C0DCF8042022F03F0242EA5C
:102AE0009142CCF8042021680A6A22F03F02DFF804
:102AF0004CC16568654525D8013313430B622168D5
:102B0000CA6922F44F4222F0FF02D4F804C04B4BB2
:102B10009C4522D8431E4FEA4C0CB3FBFCF3013317
:102B200040F6FC70034254D0C3F30B0352E080F82C
:102B30003C3000F0EDFCA8E7434B98428CBF0023EB
:102B40000123BFE74FF4967C0CFB03F3DFF8FCC0D6
:102B5000ACFB03C39B090133CFE7D4F808E0BEF117
:102B6000000F1AD1431E0CEB4C05B3FBF5F30133F8
:102B7000C3F30B03B3FA83F35B09002B57D1BEF108
:102B8000000F19D1431E0CEB4C0CB3FBFCF30133CB
:102B9000C3F30B0343F400431CE00CEB8C0303EB87
:102BA00083031D46431EB3FBF5F30133C3F30B034D
:102BB000B3FA83F35B09E0E7431E0CEB8C0C0CEBE0
:102BC0008C0CB3FBFCF30133C3F30B0343F440431E
:102BD00000E004231A43CA6121680B6823F0C00394
:102BE000E269206A024313430B6021688B6823F477
:102BF000034323F0FF032269E068024313438B6021
:102C00002168CB6823F0FF036269A0690243134384
:102C1000CB602268136843F0010313600020206436
:102C2000202384F83D30206384F83E0038BD012322
:102C3000D0E7012070470120F8E700BFA08601001F
:102C40007F841E0083DE1B43FF083D00D34D6210CE
:102C5000002800F0C48038B5044690F84130002BBD
:102C600053D0022284F841202168CB6923F47B638E
:102C700023F00F03CB6123681A62636993426CD01F
:102C8000E368002B48D110231D46A368202B01D8F0
:102C90006B001D46012001F0B7F92369B3F5007FF1
:102CA0003DD0B0FBF5F000EB800043006269B3FB60
:102CB000F2F305334B4AA2FB0323C3F3C002C2EB7A
:102CC000D3035B0811029A1EFD2A40D822690A43E9
:102CD00021681A430A622168CB6923F47B6323F0DD
:102CE0000F036268A0680243E0680243A0690243E0
:102CF000134343F40063CB61236A012B2FD00020E0
:102D00006064012384F8413038BD80F84030364B90
:102D1000436300F035FCA4E720231D46B5E7E368D4
:102D200053B1AB00B0FBF3F000EB800043006269ED
:102D3000B3FBF2F30533BDE7EB00B0FBF3F000EBC0
:102D4000800043006269B3FBF2F30533B2E7636CC2
:102D500043F0100363640120D6E70021B6E7234B5C
:102D600063632268224B9A4220D04FF04022D369FD
:102D700023F47B6323F00F03D36122681C4B9A4238
:102D800016D04FF04022022313622268184B9A4259
:102D900010D04FF0402CDCF81C309BB26268B2F5CA
:102DA000007F0AD0CAB94FF4807008E0114ADEE70C
:102DB000104AE8E7DFF83CC0EDE74FF48070B4F864
:102DC00008E0A189228B40EA0E0001430A43134325
:102DD00043F40063CCF81C3091E70020EFE70120BA
:102DE000704700BFCDCCCCCC6F2E0008F532000868
:102DF0000038004000340040704708B5426A03685C
:102E00001288DA60436A02334362438D9BB2013B0E
:102E10009BB24385438D9BB203B108BD02685368E2
:102E200023F0A0035360012380F84130FFF7E4FF53
:102E3000F3E7704708B50368DA68C36A1A80C36AA3
:102E40000233C362438E9BB2013B9BB24386438EE7
:102E50009BB203B108BD0268536823F0600353605E
:102E6000012380F84130FFF7E4FFF3E7704710B526
:102E700084B0044603689A68039290F84120042ABB
:102E800005D094F84130032B2CD004B010BD039A28
:102E900012F0010F03D05B6813F0400F1FD1039BAA
:102EA00013F0400FEDD023685A6812F0200FE8D0DD
:102EB0005A6822F060025A60002301932368DA689E
:102EC00001929B680193019B012384F84130636C5C
:102ED00043F0020363642046FFF7C8FFD1E7FFF722
:102EE000A9FFDCE7039B13F0020F04D023685B68A3
:102EF00013F0800F1DD1039B13F0080FC5D023687A
:102F00005A6812F0200FC0D05A6822F0A0025A600E
:102F10000023029323689B680293029B012384F899
:102F20004130636C43F0040363642046FFF79EFF67
:102F3000ABE72046FFF761FFDDE7000008B5806BD7
:102F40000268536823F00303536002680B4B9A42F4
:102F500012D04FF04022536823F003035360002344
:102F600043854386012380F84130436C43F00803D6
:102F70004364FFF77BFF08BD014AECE700380040DF
:102F80000034004070B582B0154690F84120012A07
:102F900040F0BD8004460E46D0B2002900F0B88053
:102FA000002D00F0B580002B00F0B28094F8402096
:102FB000012A00F0AF80012284F840206162E562BE
:102FC0002268D26902F00702032A06D0052A04D03B
:102FD000238563852386638605E05B009BB223859A
:102FE00063852386638600236364052284F8412079
:102FF000E26B49491164E26B4849D163E16B484A8D
:10300000CA64A16B0B64A16BCB63A36BDA64226807
:10301000D36903F44073B3F5007F01D0002B3DD199
:10302000E06B404B9A4235D04FF04021238E9BB24B
:103030002A460C31FFF7D6FA22683A4B9A422BD037
:103040004FF04022536843F0010353602268238D00
:103050009BB20C323146A06BFFF7C4FA226853686A
:1030600043F002035360002384F840302368DA6998
:1030700012F4806F4CD12B4A934245D04FF040223E
:10308000D36943F48063D3612268D36943F48063D6
:10309000D3613DE02449C9E7234AD3E7D36903F468
:1030A0004073B3F5407F23D0A06B1E4B9A4227D0CC
:1030B0004FF04022238D9BB20C323146FFF792FA3B
:1030C0002268184B9A421DD04FF04022536843F0BB
:1030D000020353602168238E9BB22A460C31E06BB9
:1030E000FFF780FA2268536843F001035360BAE7A0
:1030F00000230193D368019393680193019BD3E765
:10310000094AD7E7084AE1E7A2F58062B8E702205A
:1031100002B070BD0220FBE72D31000839310008F4
:103120003D2F0008003800400034004008B5806B97
:10313000FDF7EAFC08BD000008B50346806BDB69BB
:10314000F3B90268D36903F44073B3F5007F03D089
:10315000D36913F4407F18D1144B9A4213D04FF027
:103160004022536823F0010353600268536823F040
:1031700002035360002343864385012380F84130D6
:10318000FDF7D0FC08BD0A4AEBE7536823F00103C2
:1031900053600268054B9A4206D04FF040225368B4
:1031A00023F002035360E5E7014AF8E700380040E6
:1031B0000034004008B5436A9A1C426202681B88CA
:1031C000D360438D9BB2013B9BB24385438D9BB241
:1031D0003BB90268536823F0A0035360438E9BB24F
:1031E00003B108BD012380F84130FDF79BFCF8E7EF
:1031F00008B50268154B9A421CD04FF04023DA689C
:10320000C36A991CC1621A80438E9BB2013B9BB278
:103210004386438E9BB263B902680C4B9A420CD032
:103220004FF04022536823F060035360438D9BB2FC
:103230002BB108BDA3F58063E1E7054AF2E701235E
:1032400080F84130FDF76EFCF3E700BF0038004026
:103250000034004008B5436A9A1C42621A8801682B
:10326000134B994218D04FF04023DA60438D9BB244
:10327000013B9BB24385438D9BB263B902680C4B03
:103280009A420CD04FF04022536823F0A0035360C1
:10329000438E9BB22BB108BDA3F58063E5E7054AD9
:1032A000F2E7012380F84130FDF73CFCF3E700BF73
:1032B000003800400034004008B50368DA68C36A8B
:1032C000991CC1621A80438E9BB2013B9BB243861C
:1032D000438E9BB23BB90268536823F0600353608E
:1032E000438D9BB203B108BD012380F84130FDF747
:1032F00019FCF8E710B586B0044603689A68059291
:10330000704A93426FD04FF04022916804915B68FD
:103310000393536802936368B3F5007F01D0002BD9
:1033200070D1059B13F0020F03D0039B13F0800FA5
:103330005CD1049B13F0010F03D0029B13F0400FEC
:1033400058D1049B13F0400F24D0029B13F0200FA0
:1033500020D022685B4B9A4250D04FF040225368F5
:1033600023F0600353602268536823F0A003536086
:10337000002300932368DA6800929B680093009B07
:10338000012384F84130636C43F0020363642046F8
:10339000FFF76CFD059B13F0080F22D0039B13F081
:1033A000200F1ED02268536823F0A00353602268C8
:1033B000444B9A4224D04FF04022536823F06003DC
:1033C00053600023019323689B680193019B0123B1
:1033D00084F84130636C43F0040363642046FFF7D4
:1033E00045FD06B010BDA2F580628EE72046FFF7CE
:1033F000E1FE9EE72046FFF7FBFEA2E7324AAEE77A
:10340000314ADAE7049B13F0020F03D0029B13F05A
:10341000800F4AD1059B13F0010F03D0039B13F0DB
:10342000400F46D1059B13F0400F1CD0039B13F0B7
:10343000200F18D02268536823F06003536022687D
:10344000204B9A4239D04FF04022536823F0A0031A
:103450005360012384F84130636C43F002036364DA
:103460002046FFF703FD049B13F0080FB9D0029B21
:1034700013F0200FB5D02268124B9A421FD04FF0A4
:103480004022536823F0A00353602268536823F05E
:1034900060035360012384F84130636C43F00403FC
:1034A00063642046FFF7E2FC9BE72046FFF7D2FE6D
:1034B000B0E72046FFF700FFB4E7034AC5E7024A3A
:1034C000DFE700BF003800400034004000B583B0A3
:1034D000002200920D4B596C41F480415964596CA3
:1034E00001F48041009100990192196C41F08051E2
:1034F00019641B6C03F080530193019B0F216FF043
:103500000100FEF771FF03B000BD00BF00380240AC
:1035100030B589B000230393049305930693079372
:103520000268144B9A4201D009B030BD00250195C4
:10353000114C236B43F002032363236B03F002035C
:103540000193019B4FF410730393122304930123FF
:1035500005930423079303A90848FFF779F9029517
:10356000236C43F400132364236C03F400130293CD
:10357000029BD9E70054004000380240000402409A
:10358000F0B58DB000230793089309930A930B932A
:10359000039304930593069302684D4B9A4201D01E
:1035A0000DB0F0BD044601230393C023049302230E
:1035B000059303A800F07AFC00287FD10025009530
:1035C000444B1A6C42F400421A641A6C02F4004232
:1035D0000092009A01951A6B42F001021A631A6B6D
:1035E00002F001020192019A02951A6B42F0040264
:1035F0001A631B6B03F004030293029B10230793CF
:103600000226089609950A9506270B9707A93248BE
:10361000FFF71EF94FF4A4530793089609950A95EE
:103620000B9707A92D48FFF713F94FF40063079391
:10363000089609950A9505230B9307A92748FFF7D4
:1036400007F92748274B03604FF0C063436085604C
:10365000C5604FF4806303614FF4805343614FF4BE
:10366000804383614FF48073C3614FF4403303623E
:103670004562FEF74FFF20BB194BE3639C631A487A
:103680001A4B03600023436040228260C3604FF402
:10369000806202614FF4805242614FF48042826145
:1036A0004FF48072C2614FF4403202624362FEF70F
:1036B00031FF48B90C4BA3639C6371E7FDF76EFDC6
:1036C0007CE7FDF76BFDD7E7FDF768FDF2E700BF8C
:1036D000003C004000380240000002400008024068
:1036E00054A2002010600240F4A100208860024033
:1036F000F0B58BB0002305930693079308930993C5
:103700000368344A934204D0334A934222D00BB028
:10371000F0BD00210091314B5A6C42F480525A6442
:103720005A6C02F480520092009A01911A6B42F096
:1037300001021A631B6B03F001030193019BE02359
:103740000593022306930523099305A92448FFF74F
:103750007FF8DCE700240294204B1A6C42F480428C
:103760001A641A6C02F480420292029A03941A6B51
:1037700042F004021A631A6B02F004020392039AE5
:1037800004941A6B42F002021A631B6B03F00203EB
:103790000493049B042305930225069503260896AB
:1037A0000527099705A90F48FFF752F84FF4304352
:1037B0000593069507940896099705A90A48FFF707
:1037C00047F8224639462420FEF70EFE2420FEF755
:1037D0001BFE9CE7003001400038004000380240EA
:1037E000000002400008024000040240002800F0EF
:1037F000E28170B582B00446036813F0010F3BD03C
:103800009B4B9B6803F00C03042B2CD0984B9B68BC
:1038100003F00C03082B21D06368B3F5803F4FD031
:10382000B3F5A02F52D0924B1A6822F480321A605E
:103830001A6822F480221A606368002B50D0FEF7C9
:1038400075FD05468A4B1B6813F4003F14D1FEF743
:103850006DFD401B6428F5D90320B3E1844B5B6800
:1038600013F4800FD8D0824B1B6813F4003F03D0B1
:103870006368002B00F0A181236813F0020F54D07D
:103880007B4B9B6813F00C0F3ED0794B9B6803F089
:103890000C03082B33D0E368002B68D0754B012252
:1038A0001A60FEF743FD0546714B1B6813F0020FCB
:1038B00054D1FEF73BFD401B0228F5D9032081E1DE
:1038C0006B4A136843F480331360B5E7684B1A689A
:1038D00042F480221A601A6842F480321A60ABE720
:1038E000FEF724FD0546624B1B6813F4003FC3D06E
:1038F000FEF71CFD401B6428F5D9032062E15C4BF8
:103900005B6813F4800FC6D1594B1B6813F0020F8C
:1039100003D0E368012B40F05281554A136823F02D
:10392000F803216943EAC1031360236813F0080F09
:1039300042D063696BB34F4B0122C3F8802EFEF770
:10394000F5FC05464A4B5B6F13F0020F34D1FEF7CE
:10395000EDFC401B0228F5D9032033E1444A1368EB
:1039600023F0F803216943EAC1031360DDE7414B0B
:1039700000221A60FEF7DAFC05463D4B1B6813F087
:10398000020FD2D0FEF7D2FC401B0228F5D903204B
:1039900018E1384B0022C3F8802EFEF7C7FC05461D
:1039A000334B5B6F13F0020F06D0FEF7BFFC401BDA
:1039B0000228F5D9032005E1236813F0040F79D01C
:1039C0002B4B1B6C13F0805F34D100230193284BE9
:1039D0001A6C42F080521A641B6C03F080530193FE
:1039E000019B01231E46244B1B6813F4807F24D0C7
:1039F000A368012B35D0052B40D01D4B1A6F22F048
:103A000001021A671A6F22F004021A67A368002BDA
:103A10003ED0FEF78BFC0546154B1B6F13F0020FD3
:103A200047D1FEF783FC401B41F288339842F3D91B
:103A30000320C7E000231E46D5E70F4A136843F46E
:103A400080731360FEF772FC05460B4B1B6813F482
:103A5000807FCDD1FEF76AFC401B0228F5D90320F8
:103A6000B0E0034A136F43F001031367CEE700BFD2
:103A7000003802400000474200700040584B1A6F67
:103A800042F004021A671A6F42F001021A67BDE79A
:103A9000FEF74CFC0546524B1B6F13F0020F08D08B
:103AA000FEF744FC401B41F288339842F3D90320CF
:103AB00088E0EEB9A369002B00F08380484A926841
:103AC00002F00C02082A51D0022B17D0454B0022DD
:103AD0001A66FEF72BFC0446414B1B6813F0007F6F
:103AE00042D0FEF723FC001B0228F5D9032069E031
:103AF0003B4A136C23F080531364DBE7394B0022FD
:103B00001A66FEF713FC0546354B1B6813F0007F61
:103B100006D0FEF70BFC401B0228F5D9032051E02C
:103B2000E369226A1343626A43EA8213A26A520873
:103B3000013A43EA0243E26A43EA0263284A5360D5
:103B4000284B01221A66FEF7F1FB0446244B1B6842
:103B500013F0007F06D1FEF7E9FB001B0228F5D920
:103B600003202FE000202DE000202BE0012B2BD0A4
:103B70001B4B5B6803F48001E269914226D103F09C
:103B80003F02216A8A4223D1616A47F6C0721A4015
:103B9000B2EB811F1ED103F44031A26A5208013AF0
:103BA000B1EB024F18D103F07063E26AB3EB026F1E
:103BB00014D1002006E001207047012002E001201E
:103BC00000E0184602B070BD0120FBE70120F9E7D4
:103BD0000120F7E70120F5E70120F3E70120F1E7F5
:103BE000003802400000474208B5334B9B6803F0A1
:103BF0000C03042B5BD0082B5BD12F4B5A6802F0CF
:103C00003F025B6813F4800F2CD02B4B5868C0F335
:103C100088104FEA401CBCEB000C6EEB0E0E4FEA16
:103C20008E1343EA9C634FEA8C11B1EB0C0163EBFA
:103C30000E03DB0043EA5173C90011EB000C43F1A2
:103C40000003590200234FEA4C2041EADC51FCF703
:103C50009FFA194B5B68C3F3014301335B00B0FB70
:103C6000F3F008BD144B5868C0F388104FEA401CAD
:103C7000BCEB000C6EEB0E0E4FEA8E1343EA9C6316
:103C80004FEA8C11B1EB0C0163EB0E03DB0043EA4E
:103C90005173C90011EB000C43F10003990200239A
:103CA0004FEA8C2041EA9C51FCF772FAD1E70348B5
:103CB000D7E70348D5E700BF0038024000127A007A
:103CC0000024F400002800F09B8070B50D460446E7
:103CD0004F4B1B6803F007038B4208D2CBB24C4A10
:103CE0001370136803F007038B4240F08B80236846
:103CF00013F0020F17D013F0040F04D0454A936855
:103D000043F4E0539360236813F0080F04D0414A52
:103D1000936843F4604393603E4A936823F0F00352
:103D2000A1680B439360236813F0010F32D06368DE
:103D3000012B21D09A1E012A25D9364A126812F089
:103D4000020F61D033498A6822F0030213438B606B
:103D5000FEF7ECFA06462F4B9B6803F00C036268F3
:103D6000B3EB820F16D0FEF7E1FA801B41F28833E5
:103D70009842F0D9032042E0264A126812F4003F2C
:103D8000E0D101203BE0234A126812F0007FD9D134
:103D9000012034E01E4B1B6803F00703AB4207D938
:103DA000EAB21B4B1A701B6803F00703AB422DD11C
:103DB000236813F0040F06D0164A936823F4E053E7
:103DC000E1680B439360236813F0080F07D0114A92
:103DD000936823F46043216943EAC1039360FFF7CA
:103DE00003FF0C4B9B68C3F303130B4AD35CD8400F
:103DF0000A4B18600A4B186800F0A6FE002070BD40
:103E0000012070470120FAE70120F8E70120F6E7DA
:103E1000003C024000380240E47300082400002007
:103E200020000020014B1868704700BF24000020CC
:103E300008B5FFF7F7FF044B9B68C3F38223034ADF
:103E4000D35CD84008BD00BF00380240DC730008D6
:103E500008B5FFF7E7FF044B9B68C3F34233034AFF
:103E6000D35CD84008BD00BF00380240DC730008B6
:103E70000F2303600B4B9A6802F0030242609A68BA
:103E800002F0F00282609A6802F4E052C2609B681D
:103E9000DB0803F4E0530361034B1B6803F00703E3
:103EA0000B60704700380240003C024030B583B0E0
:103EB0000546036813F0010F02D113F0040F2BD055
:103EC0004E4B00229A66FEF731FA04464C4B1B68B3
:103ED00013F0006F06D0FEF729FA031B022BF5D969
:103EE00003201EE06A68AB681B0743EA8213444A5A
:103EF000C2F88430414B01229A66FEF717FA044655
:103F00003F4B1B6813F0006F06D1FEF70FFA031B3F
:103F1000022BF5D9032004E02B6813F0020F02D125
:103F2000002003B030BD00230193354B1A6C42F0E2
:103F300080521A641B6C03F080530193019B314A39
:103F4000136843F480731360FEF7F0F904462D4BB9
:103F50001B6813F4807F06D1FEF7E8F9001B0228E6
:103F6000F5D90320DDE7264B1B6F13F4407314D003
:103F7000EA6802F440729A420FD0214B1A6F22F481
:103F800040721E490120C1F8400E0020C1F8400EC9
:103F90001A671B6F13F0010F13D1EB6803F4407223
:103FA000B2F5407F1ED0164A936823F4F81393604D
:103FB00013490B6FEA68C2F30B0213430B6700202F
:103FC000AFE7FEF7B3F904460D4B1B6F13F0020F7A
:103FD000E3D1FEF7ABF9031B41F288329342F3D9E8
:103FE00003209EE706498A6822F4F81223F0704302
:103FF00023F4407313438B60DAE700BF00004742AD
:104000000038024000700040012801D000207047B5
:10401000154B9B6813F4000302D01BB31348704781
:10402000114B5B6813F4800F14D00F4B5A6802F0E9
:104030003F020F4BB3FBF2F30B4AD2F88400C0F3FC
:10404000881003FB00F0D2F88430C3F30273B0FB96
:10405000F3F07047044B5A6802F03F02054BB3FB84
:10406000F2F3E9E718467047003802400080BB00D1
:1040700000127A000024F4002DE9F04383B00446D6
:104080000F4616461D46FEF751F90A9B1B1A03EB15
:104090000508FEF74BF98146284B1B68C3F3CB3369
:1040A00008FB03F3019323689B6837EA03030CBF03
:1040B00001230023B3423DD0B5F1FF3FF3D0FEF71B
:1040C00035F94B46C01A404503D2019B73BB984655
:1040D000E9E72268536823F0E00353606368B3F5AF
:1040E000827F0BD0A36AB3F5005F14D0012384F85C
:1040F0005130002384F8503003201CE0A368B3F54E
:10410000004F02D0B3F5806FECD12268136823F022
:1041100040031360E6E72268136823F4005313603A
:104120002268136843F400531360DFE7019B013BEF
:104130000193B8E7002003B0BDE8F083240000201D
:1041400070B584B004460B460D4616460092012217
:104150000221FFF791FFD0B9174B1B68174AA2FB4A
:1041600003235B0D4FF47A7202FB03F3039363683E
:10417000B3F5827F11D0039B3BB1039B013B0393BB
:1041800023689B6813F0800FF5D104B070BD636D98
:1041900043F0200363650320F7E700962B460022D7
:1041A00080212046FFF768FF0028EED0636D43F0C2
:1041B000200363650320E8E724000020819F5E164A
:1041C00010B582B004460B464168B1F5827F14D029
:1041D0006168B1F5827F2AD1A168B1F5806F19D0ED
:1041E0000092002280212046FFF746FF30B3636D26
:1041F00043F020036365032020E08168B1F5004FA0
:1042000002D0B1F5806FE3D12068016821F0400150
:104210000160DDE70092002201212046FFF72CFF1C
:1042200060B1636D43F020036365032006E00092F4
:10423000002201212046FFF71FFF08B902B010BD80
:10424000636D43F0200363650320F7E700285AD02D
:1042500010B50446436A33B94368B3F5827F05D08D
:104260000023C36102E00023036143610023A362D2
:1042700094F85130002B40D0022384F8513022684A
:10428000136823F040031360636803F48273A26829
:1042900002F404421343E26802F400621343226909
:1042A00002F002021343626902F001021343A269A1
:1042B00002F400721343E26902F038021343226AE7
:1042C00002F080021343A26A02F4005221681343F1
:1042D0000B60638B03F00403626A02F01002216832
:1042E00013434B602268D36923F40063D361002039
:1042F0006065012384F8513010BD84F850302046A9
:10430000FFF7F6F9B8E701207047000030B5154611
:1043100090F851C0D0F804E0BCF1010F09D05FFA69
:104320008CF2BEF5827F44D18468002C43D1042AEC
:1043300043D1002943D0002D43D0002B43D090F827
:1043400050C0BCF1010F40D04FF0010C80F850C0BC
:1043500090F851C0BCF1040F03D04FF0050C80F869
:1043600051C04FF0000CC0F854C001638386C3866F
:1043700085638387C387C368B3B1154B0364154B4B
:10438000436403681A6812F0400F03D11A6842F0C0
:1043900040021A60002380F8503001684A6842F0F9
:1043A000E0024A60184605E00B4B03640B4B436484
:1043B000E7E7022030BD0220FCE70220FAE70120F7
:1043C000F8E70120F6E70120F4E70220F2E700BF5A
:1043D000B946000881460008494600081146000811
:1043E00008B590F85130012B5FD18446D8B200292E
:1043F0005CD0002A5AD0DCF8080020B9DCF8043080
:10440000B3F5827F37D09CF85030012B4FD0012379
:104410008CF8503004238CF851300023CCF8543001
:10442000CCF83810ACF83C20ACF83E20CCF830305A
:10443000ACF83430ACF83630CCF84430DCF80C3022
:1044400013B31C4BCCF84030B0F5004F20D0DCF853
:1044500000301A6812F0400F03D11A6842F040028F
:104460001A6000208CF85000DCF80020536843F0FC
:10447000600353601AE004238CF8513013460A4657
:104480006046FFF743FF11E00B4BCCF84030DBE711
:10449000DCF80020136823F040031360DCF80020F0
:1044A000136823F480431360D1E7022008BD022083
:1044B000FCE700BF3D45000815450008704710B5F2
:1044C00082B004460268536823F060035360FDF72E
:1044D0002DFF024664212046FFF772FE18B1636D7E
:1044E00043F020036365A36833B901932368DA6856
:1044F00001929B680193019B012384F85130636D05
:1045000023B92046FCF706FE02B010BD2046FCF79A
:1045100027FEF9E708B50268836B127B1A70836B7C
:1045200001338363C38F9BB2013B9BB2C387C38FAD
:104530009BB203B108BDFFF7C2FFFBE708B50368F4
:10454000DA68836B1A80836B02338363C38F9BB2F9
:10455000013B9BB2C387C38F9BB203B108BDFFF77A
:10456000AEFFFBE710B582B00446274B1B68274A15
:10457000A2FB03235B0A642202FB03F30193FDF712
:10458000D5FE024621684B6823F020034B60019B57
:1045900043B1019B013B019323689B6813F0020F19
:1045A000F5D003E0636D43F020036365642120468A
:1045B000FFF7C6FD18B1636D43F020036365A36880
:1045C00033B900932368DA6800929B680093009BDC
:1045D000636D93B994F85130042B07D0012384F80C
:1045E00051302046FFF76AFF02B010BD012384F866
:1045F00051302046FCF78EFDF6E7012384F8513058
:104600002046FCF7ADFDEFE724000020F119760508
:1046100008B5026B036812781A73036B01330363E6
:10462000C38E9BB2013B9BB2C386C38E9BB23BB988
:104630000268536823F080035360C38F9BB203B1B9
:1046400008BDFFF78FFFFBE708B50268836B127B9D
:104650001A70836B01338363C38F9BB2013B9BB2A0
:10466000C387C38F9BB23BB90268536823F06003D2
:104670005360C38E9BB203B108BDFFF773FFFBE726
:1046800008B5026B03681288DA60036B02330363B8
:10469000C38E9BB2013B9BB2C386C38E9BB23BB918
:1046A0000268536823F080035360C38F9BB203B149
:1046B00008BDFFF757FFFBE708B50368DA68836BAF
:1046C0001A80836B02338363C38F9BB2013B9BB21F
:1046D000C387C38F9BB23BB90268536823F0400382
:1046E0005360C38E9BB203B108BDFFF73BFFFBE7EE
:1046F00010B584B00446026851689368C3F3801013
:1047000013F0400F05D113F0010F02D011F0400F4C
:104710006DD113F0020F02D011F0800F6BD1C3F3F3
:10472000401C13F0200F03D110B913F4807F65D023
:1047300011F0200F62D070B194F8510003285FD0BF
:10474000606D40F00400606500200090D06800902B
:10475000906800900098BCF1000F0CD0606D40F0A4
:10476000010060650020029090680290106820F0BF
:1047700040001060029A13F4807F09D0636D43F00B
:10478000080363650023039323689B680393039BDB
:10479000636D002B32D02268536823F0E00353602E
:1047A000012384F8513011F0020F02D111F0010FF2
:1047B0002ED02268536823F003035360E36C4BB19F
:1047C000154A1A65E06CFDF742FF18B1636D43F0BE
:1047D00040036365A36C8BB10F4A1A65A06CFDF7AB
:1047E00036FF58B1636D43F04003636506E0236C08
:1047F0002046984702E0636C2046984704B010BDFD
:1048000000230193D368019393680193019BF5E71B
:104810002046FCF7A5FCF1E71D48000808B5806BB1
:104820000023C387C386FCF79BFC08BD70470000CC
:1048300090F83D30012B37D1022380F83D300268DB
:10484000D36843F00103D3600368194A934220D030
:10485000B3F1804F1DD0A2F57C42934219D002F5EE
:104860008062934215D002F58062934211D002F526
:10487000784293420DD002F57052934209D0A2F5CE
:104880009432934205D01A6842F001021A60002067
:1048900070479A6802F00702062A07D01A6842F0A9
:1048A00001021A6000207047012070470020704705
:1048B00000000140704770477047704770B504466C
:1048C0000368DE681D6915F0020F10D016F0020FA4
:1048D0000DD06FF002021A610123037703689B6910
:1048E00013F0030F5ED0FFF7E6FF0023237715F0E8
:1048F000040F12D016F0040F0FD023686FF00402DB
:104900001A610223237723689B6913F4407F4FD0F9
:104910002046FFF7D0FF0023237715F0080F12D0B1
:1049200016F0080F0FD023686FF008021A610423F5
:1049300023772368DB6913F0030F40D02046FFF78D
:10494000BAFF0023237715F0100F12D016F0100FC6
:104950000FD023686FF010021A61082323772368B1
:10496000DB6913F4407F31D02046FFF7A4FF00231A
:10497000237715F0010F02D016F0010F2DD115F09D
:10498000800F02D016F0800F2FD115F0400F02D00B
:1049900016F0400F31D115F0200F02D016F0200F85
:1049A00033D170BDFFF786FF2046FFF785FF9CE7F8
:1049B0002046FFF77FFF2046FFF77EFFABE720464C
:1049C000FFF778FF2046FFF777FFBAE72046FFF7AB
:1049D00071FF2046FFF770FFC9E723686FF00102FF
:1049E0001A612046FCF7CEFBC9E723686FF080020E
:1049F0001A61204600F0A7F8C7E723686FF040026D
:104A00001A612046FFF759FFC5E723686FF02002BF
:104A10001A61204600F096F8C3E700000368324AA6
:104A2000904212D0B0F1804F0FD0A2F57C4290425C
:104A30000BD002F58062904207D002F5806290426E
:104A400003D002F57842904203D123F070034A6804
:104A50001343254A90422AD0B0F1804F27D0A2F5C7
:104A60007C42904223D002F5806290421FD002F532
:104A7000806290421BD002F57842904217D002F536
:104A80007052904213D002F5806290420FD002F52E
:104A9000806290420BD0A2F59832904207D002F586
:104AA0008062904203D002F58062904203D123F4E9
:104AB0004073CA68134323F080034A6913438A682A
:104AC000C2620A688262084A904203D002F580629C
:104AD000904201D10A690263026842F00402026056
:104AE00001224261036070470000014040B310B5ED
:104AF000044690F83D30F3B1022384F83D3021465E
:104B000051F8040BFFF78AFF012384F8463084F83C
:104B10003E3084F83F3084F8403084F8413084F8E7
:104B2000423084F8433084F8443084F8453084F8C7
:104B30003D30002010BD80F83C30FFF777FEDBE70A
:104B4000012070477047704730B589B00546002492
:104B500001941E4B5A6C42F001025A645B6C03F0E4
:104B600001030193019B02A903A8FFF781F9FFF755
:104B70006FF94300164AA2FB03239B0C013B154827
:104B8000154A026040F2E732C2604360046184600B
:104B90008461FFF7ABFF044610B1204609B030BD79
:104BA0000C48FFF745FE04460028F6D11920FDF712
:104BB0002BFC0F2D01D90124EFE7002229461920F3
:104BC000FDF712FC054B1D60E7E700BF003802400F
:104BD00083DE1B435CA30020000001402000002076
:104BE000FEE7FEE7FEE7FEE7FEE7704708B502488E
:104BF000FDF740FD08BD00BF54A2002008B50248E3
:104C0000FDF738FD08BD00BFF4A1002008B502483B
:104C1000FFF754FE08BD00BF5CA3002008B50248A2
:104C2000FFF766FD08BD00BF44A10020034AD2F88B
:104C3000883043F47003C2F88830704700ED00E01C
:104C4000084B1B681B6823B9074B4FF0FF321A60F3
:104C50007047044B1B68DB68DB685A68024B1A60BC
:104C6000704700BF14A40020ACA300202DE9F84336
:104C700080469946089D0A9C236B02F18042013AC6
:104C800003EB820323F007031F4699B308464FF056
:104C9000000CBCF10F0F09D810F80C2004EB0C032A
:104CA00083F8342012B10CF1010CF2E7002384F8F0
:104CB0004330062D00D90625E56265640026A6640A
:104CC000201DFCF7E2F804F11800FCF7DEF824617F
:104CD000C5F10705A5616462E66484F850604A4640
:104CE00041463846FCF7CEFB2060099B03B11C60AF
:104CF000BDE8F883002384F83430DAE738B50024BF
:104D000007E004EB84000F4B03EB8000FCF7B2F8E4
:104D10000134062CF5D90C4D2846FCF7ABF80B4CAA
:104D20002046FCF7A7F80A48FCF7A4F80948FCF766
:104D3000A1F80948FCF79EF8084B1D60084B1C6061
:104D400038BD00BF40A400202CA4002018A40020DF
:104D5000FCA30020E8A30020D0A3002014A400207E
:104D600010A4002010B50446FCF7B4FB214A1368D8
:104D700001331360204B1B685BB1204B1B686BB980
:104D80001D4B1B68DA6AE36A9A4207D81A4B1C600B
:104D900004E0194B1C601368012B28D0184A1368D3
:104DA00001331360E06A01238340164A11680B4304
:104DB000136000EB8000211D134B03EB8000FCF718
:104DC00067F8FCF7A9FB0D4B1B687BB10A4B1B680E
:104DD000DA6AE36A9A4209D24FF0E0234FF0805238
:104DE000C3F8042DBFF34F8FBFF36F8F10BDFFF7D4
:104DF00085FFD3E7CCA30020CCA40020C0A30020D3
:104E0000B0A30020C4A3002040A4002010B5044695
:104E100090F8513063B1012B11D0022B0ED04FF01E
:104E2000500383F31188BFF36F8FBFF34F8FFEE7FB
:104E3000006BFBF7DFFF2046FBF7DCFF10BDFBF745
:104E4000D9FFFBE70F4B1B68D3B110B5FCF742FB52
:104E50000D4BDB68DC68201DFCF741F80B4A13683A
:104E6000013B1360074A1368013B1360FCF754FBD6
:104E70002046FFF7CBFF034B1B68002BE6D110BD8C
:104E8000704700BFE4A30020E8A30020CCA30020CB
:104E900008B5FFF7D7FF074B1B68012BF9D94FF077
:104EA000E0234FF08052C3F8042DBFF34F8FBFF3C0
:104EB0006F8FEEE740A4002070B504460E461D4BF0
:104EC0001D681D4B18680430FCF709F848B91A4BE7
:104ED0001B68DB6A01229A4018490B6823EA020327
:104EE0000B60B4F1FF3F0DD02C44134B1B685C608A
:104EF000A54210D9124B18680F4B19680431FBF703
:104F0000D2FF70BD002EEFD00B4B196804310D4855
:104F1000FBF7BEFFF5E70C4B1868074B1968043127
:104F2000FBF7C1FF094B1B68A342EAD9074B1C6082
:104F3000E7E700BFC8A30020CCA40020C4A3002042
:104F400010A40020D0A3002014A40020ACA30020B3
:104F500010B586B08C46099979B10A99B1B154213E
:104F60000491049954291AD04FF0500383F3118807
:104F7000BFF36F8FBFF34F8FFEE74FF0500383F304
:104F80001188BFF36F8FBFF34F8FFEE74FF05003D1
:104F900083F31188BFF36F8FBFF34F8FFEE7DDF808
:104FA00010E00A99099C0C6302210A9C84F85110B4
:104FB00000210391029405A901910899009161468D
:104FC000FFF754FE0A98FFF7CDFE059806B010BD16
:104FD0002DE9F04385B08146884614461F4690006F
:104FE000FBF786FE00B306465420FBF781FE05461C
:104FF000A0B12E63002380F85130039302900D9BE3
:1050000001930C9B00933B46224641464846FFF7DE
:105010002DFE2846FFF7A6FE012007E03046FBF7ED
:10502000E9FE4FF0FF3001E04FF0FF3005B0BDE882
:10503000F083000010B588B000240594069407AAF8
:1050400006A905A8FBF7E8FD059B0293069B0193C3
:1050500000942346079A0E490E48FFF779FF0E4B3E
:10506000186090B14FF0500383F31188BFF36F8F36
:10507000BFF34F8F094B4FF0FF321A60084B0122EC
:105080001A60084B1C60FCF7BFFA08B010BD00BFE7
:10509000CC730008914E0008A8A30020ACA3002008
:1050A000C0A30020C8A30020024A13680133136084
:1050B000704700BFA4A30020F8B53D4B1B68002B30
:1050C0006ED13C4B1D6801351D60C5B93A4B1B685C
:1050D0001B6843B14FF0500383F31188BFF36F8F08
:1050E000BFF34F8FFEE7344A1168344B18681060E5
:1050F0001960334A136801331360FFF7A1FD314B88
:105100001B68AB4241D900231F462F4B1B68DB6A4B
:1051100003EB83039B002D4AD358012B01D90123B4
:105120001F462B4B1B68002B40D001231F463DE040
:1051300001231F46204B1B681B684BB31E4B1B688B
:10514000DB68DC6863689D4227D3261D3046FBF789
:10515000C6FEA36A1BB104F11800FBF7C0FEE06AAB
:10516000012383401B4A11680B43136000EB80004E
:105170003146164B03EB8000FBF78AFEE26A124BC6
:105180001B68DB6A9A42D3D2D4E700231F46D1E7DB
:105190000C4B4FF0FF321A60B7E70A4A1360B4E7CE
:1051A0000D4A13680133136000231F463846F8BDCB
:1051B000A4A30020C8A3002014A4002010A4002051
:1051C000B4A30020ACA30020CCA4002040A4002065
:1051D000B8A30020C4A30020BCA3002038B5354BE1
:1051E0001B6843B94FF0500383F31188BFF36F8FEF
:1051F000BFF34F8FFEE7FCF76DF92E4B1A68013AAB
:105200001A601B68002B4FD12B4B1B680BB91C4637
:105210004BE00024294B1B681BB3284BDB68DC6880
:1052200004F11800FBF75BFE251D2846FBF757FE2F
:10523000E06A01238340224A11680B43136000EBAC
:10524000800029461F4B03EB8000FBF721FEE26A3A
:105250001D4B1B68DB6A9A42DCD31C4B01221A608F
:10526000D8E70CB1FFF7ECFC194B1C6884B9174B5D
:105270001C68D4B14FF0E0234FF08052C3F8042DE6
:10528000BFF34F8FBFF36F8F01240EE0013C07D0B7
:10529000FFF712FF0028F9D00C4B01221A60F5E746
:1052A0000B4B00221A60E2E70024FCF735F9204698
:1052B00038BD00BFA4A30020CCA30020FCA3002085
:1052C000C4A3002040A40020CCA40020B8A3002048
:1052D000BCA3002010B5A8B10446104B1B6843B115
:1052E0004FF0500383F31188BFF36F8FBFF34F8FDD
:1052F000FEE7FFF7D9FE00212046FFF7DDFDFFF7AF
:105300006DFF48B94FF0E0234FF08052C3F8042DF1
:10531000BFF34F8FBFF36F8F10BD00BFA4A300205A
:10532000204B1B681BB1204B01221A6070471E4B9B
:1053300000221A601D4B1B68B3FA83F3DBB2C3F182
:105340001F0303EB8302920019498A5842B94FF0B8
:10535000500383F31188BFF36F8FBFF34F8FFEE7C6
:10536000134803EB830200EB8202516849685160E5
:1053700003EB8302920008320244914209D003EB0E
:1053800083030B4A02EB83035B68DA68094B1A60FC
:105390007047486803EB8301054A02EB81025060C5
:1053A000EDE700BFA4A30020B8A30020C4A3002001
:1053B00040A40020CCA4002058B110B50C46094AE6
:1053C00011681831FBF76FFD01212046FFF774FDCE
:1053D00010BD4FF0500383F31188BFF36F8FBFF3FD
:1053E0004F8FFEE7CCA4002038B5C368DC6834B327
:1053F00004F118031D461846FBF771FD184B1B6896
:1054000033BB231D1D461846FBF769FDE06A0123E7
:105410008340144A11680B43136000EB8000294657
:10542000114B03EB8000FBF733FDE26A0F4B1B6867
:10543000DB6A9A4211D901200D4B186038BD4FF03C
:10544000500383F31188BFF36F8FBFF34F8FFEE7D5
:1054500029460848FBF71CFDE7E70020EEE700BF00
:10546000A4A30020C4A3002040A40020CCA40020BA
:10547000B8A30020FCA30020034B1B680360034B70
:105480001B684360704700BFB4A30020C8A300207E
:10549000E0B170B50C46064609B3FCF71BF81C4B8F
:1054A00019687368C81A2268B2F1FF3F28D03568BE
:1054B000DFF860C0DCF800C0654501D08B4224D91C
:1054C000824215D80023236001241AE04FF05003D4
:1054D00083F31188BFF36F8FBFF34F8FFEE74FF059
:1054E000500383F31188BFF36F8FBFF34F8FFEE735
:1054F0005B1A134423603046FFF7BEFF002400E030
:105500000024FCF709F8204670BD0124F9E700BF2C
:10551000C8A30020B4A30020014B01221A607047E9
:10552000B8A30020014B1868704700BFCCA400202E
:10553000054B1B6833B1054B1B680BB1002070474E
:105540000220704701207047C0A30020A4A30020C0
:1055500000284BD038B50446C36A254A1268D26A7F
:10556000934239D28269002A05DB214A1268D26A45
:10557000C2F107028261616903EB83031D4A02EBFA
:105580008303994205D01A4B1B68DB6AE362012052
:1055900038BD231D1D461846FBF7A1FC38B9E36A48
:1055A00001229A4014490B6823EA02030B60104B56
:1055B0001B68D86AE062012404FA00F30E4A1168FD
:1055C0000B43136000EB800029460A4B03EB80007D
:1055D000FBF75EFC2046DBE7426C054B1B68DB6A91
:1055E0009A4201D30020D3E70120D1E7704700BFE2
:1055F000CCA4002040A40020C4A3002000284ED04A
:1056000038B50446264B1B68834208D04FF0500340
:1056100083F31188BFF36F8FBFF34F8FFEE7836C67
:1056200043B94FF0500383F31188BFF36F8FBFF37B
:105630004F8FFEE7013B8364C16A426C91422CD0DC
:105640000BB1002038BD031D1D461846FBF747FC73
:1056500068B9E36A03EB8302920012498A5832B9AF
:1056600001229A4010490B6823EA02030B60606C28
:10567000E062C0F10703A361012404FA00F30A4ABF
:1056800011680B43136000EB80002946054B03EBC8
:105690008000FBF7FDFB2046D4E70020D2E77047EF
:1056A000CCA4002040A40020C4A30020002850D097
:1056B00038B50446836C43B94FF0500383F3118827
:1056C000BFF36F8FBFF34F8FFEE7426C8A4200D269
:1056D0000A46E16A914201D0012B00D038BD1D4B32
:1056E0001B68A3422CD0E262A369002B02DBC2F14B
:1056F0000702A261626901EB8101174B03EB810391
:105700009A42EBD1231D1D461846FBF7E8FB38B93A
:10571000E36A01229A4011490B6823EA02030B60F5
:10572000E06A012383400D4A11680B43136000EBCC
:1057300080002946084B03EB8000FBF7A9FBCDE76F
:105740004FF0500383F31188BFF36F8FBFF34F8F78
:10575000FEE77047CCA4002040A40020C4A3002092
:10576000054B1B6823B1044B1A68936C0133936497
:10577000014B1868704700BFCCA40020F8B505465F
:105780000F4616461C46FBF7A5FE214B1B6893F8F7
:105790005030022B0AD01E4A1168CB6C23EA050355
:1057A000CB641368012283F85020CCB9FBF7B4FE18
:1057B000FBF790FE1EB1164B1B68DB6C3360144B7D
:1057C0001B6893F85030022B19D000231C46104B55
:1057D0001B68002283F85020FBF79EFE2046F8BD90
:1057E00011462046FFF768FB4FF0E0234FF0805250
:1057F000C3F8042DBFF34F8FBFF36F8FD6E7044B71
:105800001A68D36C23EA0703D36401231C46DEE73E
:10581000CCA40020F8B5F0B10F4614461E4605464C
:10582000FBF758FE0EB1EB6C336095F85030DBB2ED
:10583000022285F8502094421ED015D824B1012CA4
:1058400020D1EA6C3A43EA64012B28D00124FBF70B
:1058500063FE2046F8BD4FF0500383F31188BFF379
:105860006F8FBFF34F8FFEE7032C09D0042C09D1B3
:10587000022B44D0EF64E7E7EA6C0132EA64E3E725
:10588000EF64E1E7EA6CB2F1FF3FDDD04FF0500387
:1058900083F31188BFF36F8FBFF34F8FFEE72C1D8B
:1058A0002046FBF71CFBE86A01238340164A116877
:1058B0000B43136000EB80002146144B03EB800088
:1058C000FBF7E6FAAB6A43B14FF0500383F311885C
:1058D000BFF36F8FBFF34F8FFEE7EA6A0C4B1B6875
:1058E000DB6A9A420DD94FF0E0234FF08052C3F8A3
:1058F000042DBFF34F8FBFF36F8F0124A7E7002460
:10590000A5E70124A3E700BFC4A3002040A4002012
:10591000CCA4002058B32DE9F0410F4614461E4692
:105920000546FBF7FFFEEFF311834FF0500282F3C1
:105930001188BFF36F8FBFF34F8F98460EB1EB6C9A
:10594000336095F85030DBB2022285F85020944243
:105950001ED015D824B1012C20D1EA6C3A43EA6458
:10596000012B28D0012088F31188BDE8F0814FF089
:10597000500383F31188BFF36F8FBFF34F8FFEE7A0
:10598000032C09D0042C09D1022B4AD0EF64E7E79D
:10599000EA6C0132EA64E3E7EF64E1E7EA6CB2F152
:1059A000FF3FDDD04FF0500383F31188BFF36F8FBB
:1059B000BFF34F8FFEE7AB6A43B14FF0500383F361
:1059C0001188BFF36F8FBFF34F8FFEE7174B1B6834
:1059D0000BBB2C1D2046FBF782FAE86A01238340AB
:1059E000134A11680B43136000EB80002146114BF2
:1059F00003EB8000FBF74CFAEA6A0F4B1B68DB6A8B
:105A00009A4210D9069B13B10123069A1360012014
:105A10000A4B1860A7E705F118010948FBF738FAA7
:105A2000EAE700209FE701209DE700BFA4A3002034
:105A3000C4A3002040A40020CCA40020B8A30020D0
:105A4000FCA30020DFF834D0FFF7F0F80C480D4934
:105A50000D4A002302E0D458C4500433C4188C42C9
:105A6000F9D30A4A0A4C002301E013600432A2422F
:105A7000FBD300F01FF8FBF75BFC7047000002202F
:105A80000000002078000020D47700087800002073
:105A900008A60020FEE702440346934200D1704767
:105AA00003F8011BF9E70000014B1868704700BFBD
:105AB0002800002070B50D4B0D4C00261D1BB6EBC9
:105AC000A50F09D101F036FC0A4C0B4B00261D1B1B
:105AD000B6EBA50F05D170BD54F8043B98470136CD
