:020000040800F2
:100000000000022031600008295000082B50000831
:100010002D5000082F50000831500008000000004B
:10002000000000000000000000000000E10F0008D8
:10003000335000080000000081100008355000080F
:10004000816000088160000881600008816000080C
:1000500081600008816000088160000881600008FC
:1000600081600008816000088160000881600008EC
:1000700081600008816000084D5000088160000820
:1000800081600008816000088160000881600008CC
:1000900081600008816000088160000881600008BC
:1000A00081600008816000088160000881600008AC
:1000B000816000088160000881600008816000089C
:1000C0008160000881600008816000085D500008C0
:1000D0006D500008816000088160000881600008A0
:1000E000816000088160000881600008816000086C
:1000F000816000088160000881600008816000085C
:10010000816000088160000881600008816000084B
:10011000816000088160000881600008816000083B
:100120007D5000088160000881600008816000083F
:10013000816000088160000881600008816000081B
:100140008160000881600008816000088D5000080F
:1001500081600008816000088160000881600008FB
:1001600081600008816000088160000881600008EB
:1001700081600008816000088160000800000000C4
:080180008160000881600008A5
:1001900053B94AB9002908BF00281CBF4FF0FF31EE
:1001A0004FF0FF3000F00CB8ADF1080C6DE904CE53
:1001B00005F0A2FFDDF804E0DDE9022304B070479A
:1001C000704700BF08B5064B1A783AB9054A1AB10C
:1001D0000548AFF30080024B01221A7008BD00BF32
:1001E0001C000020000000001864000808B5034B44
:1001F0001BB103490348AFF3008008BD00000000B5
:100200002000002018640008842801D003307047C3
:1002100000207047EFF30580003818BF01207047B9
:1002200008B505F0B9FA002008BD2DE9F04188B005
:100230000F464469C4B188468569ADB14668076810
:1002400002690592B0F90800FFF7DEFF02950194FC
:1002500000904346059A3946304605F02BFA079040
:10026000079808B0BDE8F081446805680669B0F9F0
:100270000800FFF7C9FF07AB019300903B46B2B2FD
:100280002946204605F056FA0128E9D00020E8E783
:1002900008B500B9012005F0CFFB002008BD08B566
:1002A000416819B1012001F047FA08BD012001F0B1
:1002B00038FAFAE730B583B00023019310B30D4646
:1002C0000446FFF7A7FFA0B101AA0021204601F0D4
:1002D000DBFB012818D1019BC3B14FF0E0234FF0A5
:1002E0008052C3F8042DBFF34F8FBFF36F8F0020F0
:1002F00006E02946204601F0F1FA012808D1002045
:1003000003B030BD8020FBE7FF20F9E71846F7E790
:10031000FF20F5E710B582B0044600230193FFF7F4
:1003200079FF98B101A9204601F07EFA01281AD17F
:10033000019BD3B14FF0E0234FF08052C3F8042D5E
:10034000BFF34F8FBFF36F8F002008E003460246D4
:100350000146204601F015F9012802D0FF2002B025
:1003600010BD0020FBE7FF20F9E71846F7E710B5BE
:1003700082B044687CB1012903D00024204602B039
:1003800010BD03230093234600221146012001F0F3
:100390008AF80446F2E70129F0D103222146012020
:1003A00001F0CBF804460028E8D000231A4619468D
:1003B00001F0E7F8E2E770B582B00023019328B3BB
:1003C0000E460446FFF726FF0546B0B101AA0021FC
:1003D000204601F059FB01281BD1019B1D4693B11A
:1003E0004FF0E0234FF08052C3F8042DBFF34F8F3E
:1003F000BFF36F8F00231D4605E03146204601F014
:100400006DFA012808D1284602B070BD80231D4630
:10041000F9E7FF231D46F6E7FF231D46F3E710B576
:1004200082B0044600230193FFF7F4FE98B101A9BE
:10043000204601F0F9F901281AD1019BD3B14FF000
:10044000E0234FF08052C3F8042DBFF34F8FBFF36A
:100450006F8F002008E0034602460146204601F067
:1004600090F8012802D0FF2002B010BD0020FBE769
:10047000FF20F9E71846F7E730B585B0044601914B
:100480000023039315460AB901231D46FFF7C2FE58
:10049000A8B1002303AA01A9204601F05CF90128B4
:1004A00018D1039BC3B14FF0E0234FF08052C3F843
:1004B000042DBFF34F8FBFF36F8F002008E003467A
:1004C0002A4601A9204601F05CF8012806D1002047
:1004D00005B030BDFF20FBE71846F9E7FF20F7E73E
:1004E00010B50446FFF796FE18B1204601F038FB20
:1004F00010BD204601F020FBFAE7002312E030F99E
:10050000132007EE902AF8EEE77A67EE807AFDEE88
:10051000E77A17EE902A20F813205A1C002120F8C1
:10052000121002333F2BEADD70470000B7EE006A7D
:1005300036EE406A002337E030F9132007EE102A28
:10054000B8EEC77A991C30F9112007EE902AF8EE20
:10055000E77A20EE077A164AD2ED006A66EE266A3E
:1005600037EE267A82ED007A60EE277A114AD2EDD4
:10057000006A66EE266A77EEA67AC2ED007ABDEED4
:10058000C77A17EE102A20F8132003F1010C00227D
:1005900020F81C20FDEEE77A17EE90CA20F811C073
:1005A000D91C20F8112004333F2BC5DD704700BF54
:1005B0003C000020380000202DE9F0410C4601B934
:1005C00001244FF0000E5DE0314E338803F50072D8
:1005D000121B5142C2F30802C1F3080158BF4A423C
:1005E00030F91EC00EF1020530F9151092B2DFF895
:1005F000B08038F9127006EE907A264F37F9122043
:1006000007EE102A28F813C027F8131001335A42B6
:10061000C3F30803C2F3080258BF5342338007EE06
:1006200090CAF8EEE77ADFED1C5A67EEA57AF8EE8D
:10063000E66A9FED1A6A66EE866A77EEA67AFDEEA6
:10064000E77A17EE903A20F81E300EF101020023EF
:1006500020F8123007EE901AF8EEE77A67EEA57AE6
:10066000B8EEC77A27EE067A77EE877AFDEEE77A5C
:1006700017EE902A20F815200EF1030220F8123010
:100680000EF1040EBEF13F0F9EDDBDE8F08100BF0C
:1006900040000020440000203333333F9A99993EB4
:1006A0004404002000B587B0802200211F4805F0D7
:1006B000E8FC05E014F0020F2BD114F0040F2ED14A
:1006C0001B4E1A4C4FF0FF35009520233246214631
:1006D000184803F00BF880223146204605F0FEFC56
:1006E000154C29462068FFF7E5FD144B93E80700F9
:1006F00006AB03E907002068FFF70CFE9DF81640E3
:1007000014F0010FD6D09DED030A0848FFF7F5FE5F
:10071000D0E79DED040A0548FFF708FFCDE7BDF8D7
:1007200014100248FFF748FFCAE700BF4408002042
:10073000C408002044490020440900200000002093
:10074000034B0360034B0B6080231360704700BFB3
:10075000480B00204809002008B501224FF48041D1
:10076000014801F069FEFEE7000C0240124A12F057
:10077000070F1ED0D11D21F00701C1F5705313449E
:100780000A460E480260002141601344083B23F0F2
:1007900007030B48036059601960991A5160136090
:1007A000084B1960084B1960084B4FF000421A6063
:1007B00070474FF47053E4E7BC0B0020B40B0020EB
:1007C000B00B0020A80B0020AC0B00209C0B0020DD
:1007D000144B1A461B688342FBD3516802EB010C91
:1007E000844509D0416800EB010C634509D00360E2
:1007F000904200D01060704740680144516010463C
:10080000F0E7DFF824C0DCF800C0634506D05B6881
:100810001944416013681B680360E9E7C0F800C031
:10082000E6E700BFB40B0020B00B002038B504464B
:1008300004F0ECFF3D4B1B68ABB13D4B1B681C4209
:1008400014D1002C6AD004F1080214F0070F02D072
:1008500022F007020832D2B1364B1B6893421AD3FA
:1008600035490C681DE0FFF781FFE6E705F068F801
:100870000025FFF771FF15F0070F55D04FF050031B
:1008800083F31188BFF36F8FBFF34F8FFEE705F03F
:1008900057F80025EDE705F053F80025E9E7214674
:1008A0001C466368934202D22368002BF7D11F4B8A
:1008B0001B68A34214D00D68083523680B60636879
:1008C0009B1A102B14D9A01810F0070F0CD04FF062
:1008D000500383F31188BFF36F8FBFF34F8FFEE791
:1008E00005F02EF80025C4E743606260FFF770FF53
:1008F000626810490B689B1A0B60104909688B42AB
:1009000001D20E490B600A4B1B681343636000233E
:1009100023600B4A13680133136000E0254605F09D
:100920000FF8002DA7D1A4E7284638BDB00B002052
:100930009C0B0020AC0B0020B40B0020A80B002067
:10094000A40B0020002835D038B50446A0F10803D8
:100950001D4650F8043C184A1268134208D14FF063
:10096000500383F31188BFF36F8FBFF34F8FFEE700
:1009700050F8081C41B14FF0500383F31188BFF3C6
:100980006F8FBFF34F8FFEE723EA020340F8043C6A
:1009900004F03CFF54F8041C084A13680B4413602D
:1009A0002846FFF715FF064A13680133136004F069
:1009B000C7FF38BD704700BF9C0B0020AC0B002068
:1009C000A00B002000F1080343604FF0FF3282606B
:1009D000C360036100230360704700230361704715
:1009E00043684B609A688A60516099600861036847
:1009F00001330360704710B402460846D1F800C0C6
:100A0000BCF1FF3F11D002F1080319465B681C6876
:100A10006445FAD94B684360986081604860026120
:100A200013680133136010BC70471169F2E7036962
:100A3000416882688A60416851605A68824206D083
:100A4000002202611A68013A1A60186870478268C9
:100A50005A60F5E72DE9F04F8DB007AD00240794FB
:100A6000089409940A940B940194594B1A6B42F020
:100A700010021A631A6B02F010020192019A02949A
:100A80001A6B42F004021A631A6B02F0040202921B
:100A9000029A03941A6B42F080021A631A6B02F0F6
:100AA00080020392039A04941A6B42F001021A63C3
:100AB0001A6B02F001020492049A05941A6B42F038
:100AC00002021A631A6B02F002020592059A06945A
:100AD0001A6B42F008021A631B6B03F008030693BB
:100AE000069B3C4F22460821384601F0A5FCDFF862
:100AF000F0A001221146504601F09EFCDFF8E49080
:100B000022464FF21001484601F096FC4FF00808CB
:100B1000CDF81C800126089609940A942946384687
:100B200001F086FB0796089609940A9429465046D8
:100B300001F07EFBCDF81C804FF00208CDF820803C
:100B400009940A944FF0050BCDF82CB02946504675
:100B500001F06EFB07964FF4901ACDF820A009948F
:100B600029461D4801F064FB042307930894099467
:100B700029461A4801F05CFB4FF480630793CDF8D7
:100B8000208009940A94CDF82CB02946134801F02E
:100B90004FFB4FF210030793089609940A942946D5
:100BA000484601F045FB2023079308940994294601
:100BB000484601F03DFBCDF81C80CDF820A00994FB
:100BC0002946384601F034FB0DB0BDE8F08F00BF78
:100BD00000380240001002400000024000040240C1
:100BE00000080240000C024010B582B000240094BE
:100BF000124B1A6B42F400121A631A6B02F40012C1
:100C00000092009A01941A6B42F480021A631B6BE3
:100C100003F480030193019B224605210E2001F07D
:100C2000BFF80E2001F0CCF822460521382001F053
:100C3000B7F8382001F0C4F802B010BD0038024007
:100C400008B54FF48051044801F0FCFB4FF4FA70F2
:100C5000FFF71EFBF5E700BF000C024008B5026875
:100C60000C4B9A4200D008BD0B490A780B4B1A7006
:100C70004A780B4B1A704FF400410A4801F0E2FB2E
:100C8000094B1868FFF7CBFB02220349074804F021
:100C90002BF8E8E700380040C0470020BD4700209F
:100CA000BC470020000C0240C447002094480020AC
:100CB00072B6FEE708B50A480A4B03600A4B436068
:100CC00000238360C3604FF480420261436183610B
:100CD000C361036202F050FA00B908BDFFF7E8FFF4
:100CE0008C49002000540040A086010008B50C4843
:100CF0000C4B03604FF400724260002383600321B9
:100D0000C16002614FF4FA4242618361C361012311
:100D1000036202F01DFB00B908BDFFF7C9FF00BF69
:100D200044490020003C004008B50A480A4B0360D3
:100D3000002343608360C360036143618361036296
:100D4000436283620A23C36203F0C0FE00B908BD98
:100D5000FFF7AEFFEC4800200030014008B50A481C
:100D60000A4B0360002343608360C36003614361F7
:100D700083610362436283620A23C36203F0A6FEB7
:100D800000B908BDFFF794FF9448002000380040E8
:100D900010B594B008AC30220021204605F071F95E
:100DA0000023039304930593069307930193204A2A
:100DB000116C41F080511164126C02F0805201926A
:100DC000019A02931B4B1A6842F480421A601B6816
:100DD00003F480430293029B012308934FF4803372
:100DE000099302230E934FF480020F92082210926F
:100DF0004FF4A8721192129307231393204603F025
:100E000063F988B90F2303930223049305904FF4E9
:100E1000A05306934FF480530793052103A803F0D2
:100E2000BFFB18B914B010BDFFF742FFFFF740FF3A
:100E3000003802400070004000B59FB000F02CFF69
:100E400019A9002519954D608D60CD600D614FF495
:100E50008053199301241A942E4801F0E9F9FFF701
:100E600097FFFFF7F7FDFFF7BFFEFFF723FFFFF741
:100E70003DFFFFF759FFFFF771FF02222649274880
:100E800003F032FF1795189517A8FFF708FA244BBF
:100E9000186015951695214615A8FFF768FA214B9D
:100EA0001860214C0DF1380CA646BEE80F00ACE8E6
:100EB0000F009EE807008CE8070029460EA8FFF700
:100EC000B4F91A4B18600DF11C0C04F11C0EBEE8AD
:100ED0000F00ACE80F009EE807008CE807002946E9
:100EE00007A8FFF7A2F9124B1860EE4604F1380C80
:100EF000BCE80F00AEE80F009CE807008EE8070092
:100F000029466846FFF791F90A4B1860FFF788F900
:100F1000FEE700BF000C0240C047002094480020BC
:100F200044090020C447002030640008D047002056
:100F3000CC470020C847002082B0002301930D4B0E
:100F40001B68B3F1FF3F08D04FF0500383F31188C3
:100F5000BFF36F8FBFF34F8FFEE74FF0500383F364
:100F60001188BFF36F8FBFF34F8F019B002BFCD015
:100F700002B070470C00002008480068006880F349
:100F800008884FF0000080F3148862B661B6BFF3A2
:100F90004F8FBFF36F8F00DF00BF000008ED00E050
:100FA000DFF80C00016841F4700101607047000037
:100FB00088ED00E04FF0807340F8043C21F001011F
:100FC00040F8081C054B40F80C3C40F8202C6FF012
:100FD000020340F8243C4438704700BF390F000832
:100FE000074B19680868B0E8F04F80F30988BFF331
:100FF0006F8F4FF0000080F311887047AFF30080CF
:10100000144B00204FF0500383F31188BFF36F8F10
:10101000BFF34F8F0B4A136801331360012B00D0CD
:1010200070474FF0E023D3F8043D13F0FF0FF7D0E3
:101030004FF0500383F31188BFF36F8FBFF34F8FCF
:10104000FEE700BF0C000020094B1B6843B94FF0BE
:10105000500383F31188BFF36F8FBFF34F8FFEE709
:10106000013B034A13600BB983F31188704700BF3B
:101070000C00002000000000000000000000000044
:10108000EFF30980BFF36F8F154B1A681EF0100F36
:1010900008BF20ED108A20E9F04F106009B44FF02E
:1010A000500080F31188BFF34F8FBFF36F8F04F0B0
:1010B000E9FC4FF0000080F3118809BC196808684A
:1010C000B0E8F04F1EF0100F08BFB0EC108A80F3AC
:1010D0000988BFF36F8F7047AFF30080AFF30080D4
:1010E000144B002008B54FF0500383F31188BFF371
:1010F0006F8FBFF34F8F04F091FB28B14FF0E023C7
:101100004FF08052C3F8042D002383F3118808BDEB
:101110004FF0E022002313619361054B1B680549E2
:10112000A1FB03139B09013B536107231361704724
:1011300018000020D34D62104FF0E023D3F8002DAB
:101140003E4B9A421CD04FF0E023D3F8002D3C4B8D
:101150009A421ED010B582B03A4B1A78D2B20192A0
:10116000FF221A701B78DBB28DF803309DF8033034
:1011700003F05003344A1370344B07221A601BE00B
:101180004FF0500383F31188BFF36F8FBFF34F8F7E
:10119000FEE74FF0500383F31188BFF36F8FBFF367
:1011A0004F8FFEE7294A1368013B13609DF8033017
:1011B0005B00DBB28DF803309DF8033013F0800F35
:1011C000F0D1224B1B68032B08D04FF0500383F360
:1011D0001188BFF36F8FBFF34F8FFEE71B021B4ACF
:1011E000136003F4E0631360019BDBB2154A1370D4
:1011F0004FF0E022D2F8203D43F47003C2F8203DC6
:10120000D2F8203D43F070431446C2F8203DFFF76A
:101210007FFF0F4B00221A60FFF7C2FED4F8343F65
:1012200043F04043C4F8343FFFF7A6FE04F02AFC25
:10123000FFF782FE002002B010BD00BF71C20F4157
:1012400070C20F4100E400E0E4490020E0490020C2
:101250000C000020EFF305830F2B0ED9114A9A5C86
:10126000114B1B789A4208D24FF0500383F3118838
:10127000BFF36F8FBFF34F8FFEE74FF0E023D3F83C
:101280000C3D03F4E063094A1268934208D94FF019
:10129000500383F31188BFF36F8FBFF34F8FFEE7C7
:1012A000704700BFF0E300E0E4490020E04900207F
:1012B0000346406A18B11B6B1868C0F107007047FD
:1012C00010B50446FFF79EFEA26BE36B9A4204D072
:1012D0000024FFF7B9FE204610BD0124F9E710B540
:1012E0000446FFF78FFEA36B2BB901231C46FFF7C3
:1012F000ABFE204610BD00231C46F8E770B504463F
:101300001646856B026C5AB903681BB10020013583
:10131000A56370BD806804F01DFD0023A360F6E79F
:101320006EB9406804F0DAFE6368226C13446360AF
:10133000A268934219D3236863603046E7E7C06828
:1013400004F0CCFEE368226C51429B1AE3602268F1
:10135000934202D2A3680B44E360022E01D0002026
:10136000D5E725B1013D0020D1E73046CFE728463B
:10137000CDE70346026C6AB110B50846D96811443E
:10138000D9609C68A14201D31968D960D96804F07A
:10139000A5FE10BD704738B50546FFF733FE95F83A
:1013A000454064B201E0013C64B2002C0ADD6B6A86
:1013B00043B105F1240004F0C9FB0028F3D004F088
:1013C0005DFCF0E7FF2385F84530FFF73DFEFFF7B2
:1013D00019FE95F8444064B201E0013C64B2002C6F
:1013E0000ADD2B6943B105F1100004F0AFFB0028C2
:1013F000F3D004F043FCF0E7FF2385F84430FFF717
:1014000023FE38BD38B5E0B10D460446FFF7FAFDBE
:101410002368E26B216C01FB0230A0600020A06316
:101420006360013A02FB0133E360FF2384F8443038
:1014300084F84530FDB9236963B9FFF705FE012043
:1014400038BD4FF0500383F31188BFF36F8FBFF3A4
:101450004F8FFEE704F1100004F078FB0028ECD079
:101460004FF0E0234FF08052C3F8042DBFF34F8FAD
:10147000BFF36F8FE1E704F11000FFF7A3FA04F167
:101480002400FFF79FFAD8E708B5034602988C4678
:1014900039B90060C363C0F840C00121FFF7B2FF53
:1014A00008BD0260F6E740B94FF0500383F311889E
:1014B000BFF36F8FBFF34F8FFEE710B584B01C46AC
:1014C000844653B192B189B94FF0500383F3118828
:1014D000BFF36F8FBFF34F8FFEE74FF0500383F3DF
:1014E0001188BFF36F8FBFF34F8FFEE76AB14823B8
:1014F0000393039B482B13D04FF0500383F31188C1
:10150000BFF36F8FBFF34F8FFEE70029EFD04FF08F
:10151000500383F31188BFF36F8FBFF34F8FFEE744
:10152000039B012384F8463000949DF818306046F0
:10153000FFF7AAFF204604B010BD40B94FF050039A
:1015400083F31188BFF36F8FBFF34F8FFEE7F0B5C2
:1015500083B0164604460D4601FB00F04830FFF705
:1015600065F90246074648B1002380F846300090EE
:101570003346483229462046FFF786FF384603B0F7
:10158000F0BDF0B585B0019288B10F461D46044606
:10159000B1B1022D20D1E36B012B1DD04FF05003D0
:1015A00083F31188BFF36F8FBFF34F8FFEE74FF0C8
:1015B000500383F31188BFF36F8FBFF34F8FFEE7A4
:1015C000036C002BE5D04FF0500383F31188BFF379
:1015D0006F8FBFF34F8FFEE704F056FB064658B9F6
:1015E000019B002B48D04FF0500383F31188BFF3C9
:1015F0006F8FBFF34F8FFEE700263DE02A46394646
:101600002046FFF77BFE636A7BB948B14FF0E023C9
:101610004FF08052C3F8042DBFF34F8FBFF36F8F8D
:10162000FFF712FD012005B0F0BD04F1240004F025
:101630008DFA0028F4D04FF0E0234FF08052C3F829
:10164000042DBFF34F8FBFF36F8FE9E7FFF7FCFC6B
:101650000020E8E702A804F0C1FA012619E00023FF
:1016600084F8443021E0002384F8453023E020460C
:10167000FFF791FE04F064F9FFF7C4FCA26BE36B83
:101680009A42BBD3022DB9D0019B002BDED0002E95
:10169000E0D0FFF7D9FC04F0B9F8FFF7B3FC94F8F9
:1016A000442052B2B2F1FF3FD9D094F8452052B253
:1016B000B2F1FF3FD7D0FFF7C7FC01A902A804F0A1
:1016C00099FAD8B92046FFF7FBFD0028CFD0019941
:1016D00004F1100004F022FA2046FFF75CFE04F04B
:1016E0002FF90028C8D14FF0E0234FF08052C3F803
:1016F000042DBFF34F8FBFF36F8FBDE72046FFF779
:101700004AFE04F01DF900208DE748B108B500211C
:1017100081600160C1600B460A46FFF732FF08BDD9
:10172000704710B5024600210120FFF706FF04466E
:10173000FFF7EBFF204610BD10B582B00B460090BE
:10174000002211460120FFF7AEFE0446FFF7DDFF41
:10175000204602B010BD2DE9F84390B10F469046E7
:101760001E460446B1B1022E20D1E36B012B1DD0E1
:101770004FF0500383F31188BFF36F8FBFF34F8F88
:10178000FEE74FF0500383F31188BFF36F8FBFF371
:101790004F8FFEE7036C002BE5D04FF0500383F32F
:1017A0001188BFF36F8FBFF34F8FFEE7FFF752FD36
:1017B000EFF311834FF0500282F31188BFF36F8F64
:1017C000BFF34F8F9946A26BE36B9A4206D3022E6A
:1017D00004D0002089F31188BDE8F88394F84530DF
:1017E0005DB2A36B324639462046FFF787FDB5F15F
:1017F000FF3F06D02B4601335BB284F84530012011
:10180000E8E7636A0BB90120E4E704F1240004F07F
:101810009DF928B143462BB10120C8F80000D9E753
:101820000120D7E70120D5E768B170B50D46044621
:10183000036C8BB14FF0500383F31188BFF36F8FAC
:10184000BFF34F8FFEE74FF0500383F31188BFF3D0
:101850006F8FBFF34F8FFEE70368F3B1FFF7FAFC1A
:10186000EFF311834FF0500282F31188BFF36F8FB3
:10187000BFF34F8F1E46A26BE36B934226D994F8B9
:1018800045305BB20132A263B3F1FF3F11D00133A7
:101890005BB284F84530012019E08368002BDDD06D
:1018A0004FF0500383F31188BFF36F8FBFF34F8F57
:1018B000FEE7636A0BB9012009E004F1240004F09B
:1018C00045F938B145B10120286000E0002086F3D9
:1018D000118870BD0120FAE70120F8E770B584B0E7
:1018E000019158B10446036C8BB14FF0500383F360
:1018F0001188BFF36F8FBFF34F8FFEE74FF0500398
:1019000083F31188BFF36F8FBFF34F8FFEE704F0AF
:10191000BBF9054650B9019B63B14FF0500383F307
:101920001188BFF36F8FBFF34F8FFEE700231E4672
:101930001D4656E0064654E0013BA363236843B1CD
:10194000236953B9FFF780FB01231E46304604B0DC
:1019500070BD04F0B1FAA060F2E704F1100004F0E9
:10196000F5F80028EED04FF0E0234FF08052C3F896
:10197000042DBFF34F8FBFF36F8FE3E746B14FF0F6
:10198000500383F31188BFF36F8FBFF34F8FFEE7D0
:10199000FFF75AFBDAE702A804F020F901252AE054
:1019A000002384F8443032E0002384F8453034E0EA
:1019B000FFF728FBA06804F077F90646FFF744FB21
:1019C0003BE02046FFF7E7FC03F0BAFF09E02046C2
:1019D000FFF7E1FC03F0B4FF2046FFF780FC00288E
:1019E00042D1FFF70FFBA36B002BA5D1019B002B6E
:1019F000C4D0002DCFD0FFF727FB03F007FFFFF780
:101A000001FB94F844305BB2B3F1FF3FC8D094F8C7
:101A100045305BB2B3F1FF3FC6D0FFF715FB01A91C
:101A200002A804F0E7F80028D1D12046FFF757FCC0
:101A30000028C6D02368002BBAD0019904F12400F5
:101A400004F06CF82046FFF7A6FC03F079FF0028AD
:101A5000C7D14FF0E0234FF08052C3F8042DBFF3FD
:101A60004F8FBFF36F8FBCE716B900231E466DE79B
:101A7000FFF7C8FA2046FFF71BFC0146A06804F0F8
:101A8000C1F9FFF7E1FAF0E72DE9F843C0B10E46DE
:101A900090460446E9B1FFF7DDFBEFF311834FF009
:101AA000500282F31188BFF36F8FBFF34F8F1F4631
:101AB000A36B9946CBB9184687F31188BDE8F88324
:101AC0004FF0500383F31188BFF36F8FBFF34F8F35
:101AD000FEE7036C002BDED04FF0500383F3118838
:101AE000BFF36F8FBFF34F8FFEE794F844305DB2C2
:101AF00031462046FFF73DFC09F1FF33A363B5F102
:101B0000FF3F06D02B4601335BB284F844300120FE
:101B1000D2E723690BB90120CEE704F1100004F0ED
:101B200015F828B143462BB10120C8F80000C3E7DF
:101B30000120C1E70120BFE748B110B50446FFF717
:101B400061FAA36B1C46FFF77FFA204610BD4FF0E9
:101B5000500383F31188BFF36F8FBFF34F8FFEE7FE
:101B600008B1806B70474FF0500383F31188BFF3C7
:101B70006F8FBFF34F8FFEE708B51CE02E4C01229C
:101B80004FF40051204600F057FC2C4B1B7807EE19
:101B9000903AF8EEE77AF2EE046A87EEA67A284BDE
:101BA00083ED007A6420FEF773FB00224FF40051AE
:101BB000204600F041FC4FF0FF31224B1868FEF741
:101BC000FAFB0028F7D1204B1B78012BD6D01E4BF7
:101BD0001B78022B18D0184C4FF48041204600F09F
:101BE00031FC4FF40051204600F02CFC6420FEF73D
:101BF0004FFB4FF48041204600F024FC4FF400518D
:101C0000204600F01FFCD6E70B4C01224FF4804128
:101C1000204600F011FC094B1B7803EB43031B012A
:101C2000074A13816420FEF733FB00224FF4804102
:101C3000204600F001FCBEE7000C0240BC4700203B
:101C400000000020C4470020BD47002010B5044616
:101C50000E4B18680E4B1A784FF47A73B3FBF2F3FD
:101C6000B0FBF3F000F0B0F868B90F2C01D90120F7
:101C70000AE0024621464FF0FF3000F091F8054B94
:101C80001C60002000E0012010BD00BF18000020F3
:101C9000100000201400002008B50B4B1A6842F415
:101CA00000721A601A6842F480621A601A6842F47C
:101CB00080721A60032000F061F80F20FFF7C6FF62
:101CC00002F068F8002008BD003C0240034A116899
:101CD000034B1B780B441360704700BFE84900209A
:101CE00010000020014B1868704700BFE849002031
:101CF000002807DB00F01F02400901239340024A3D
:101D000042F82030704700BF00E100E0002808DB07
:101D10000901C9B200F1604000F5614080F800138C
:101D2000704700F00F000901C9B2014B1954704708
:101D300014ED00E000B500F00700A0F1030CBCF1C9
:101D4000040F07D8C0F1070E0430062806D84FF05C
:101D5000000C03E04FF0040E4FF0000C4FF0FF3387
:101D600003FA0EF021EA000101FA0CF103FA0CF378
:101D700022EA030241EA020000BD0000074AD368DC
:101D800023F4E0631B041B0C000200F4E060034337
:101D900043F0BF6343F40033D360704700ED00E0CD
:101DA00010B50446054BD868C0F30220FFF7C2FF08
:101DB00001462046FFF7AAFF10BD00BF00ED00E07E
:101DC00008B5FFF795FF08BD0138B0F1807F0BD251
:101DD0004FF0E0235861054AF02182F823100020DB
:101DE000986107221A6170470120704700ED00E0FA
:101DF00010B5D0F800E0DEF800C02CF4802CCEF84E
:101E000000C0046863608368402B04D00368996055
:101E10000368DA6010BD03689A600368D960F9E767
:101E20000368D9B210390A4AA2FB01C21209DFF8CD
:101E300024C01CF80220C2655F2905D96FF309038D
:101E400004338365806D70476FF309038365F9E799
:101E5000ABAAAAAAA8640008836A826992B9012B76
:101E60000AD0022B02D00BB100207047C36A13F0D6
:101E7000807F2CD100207047C36AB3F1C07F28D087
:101E800000207047B2F5005F09D0022B2BD9032B3D
:101E90002BD1C36A13F0807F29D100207047022B19
:101EA00019D00AD8CBB1012B05D1C36A13F0807FBA
:101EB00015D10020704700207047032B05D1C36A5D
:101EC000B3F1C07F0DD00020704700207047012083
:101ED00070470120704701207047012070470120A2
:101EE0007047012070470120704700207047012093
:101EF0007047000070B50446FFF7F4FE002C5CD07C
:101F00000546022384F83530002384F834302268F3
:101F1000136823F00103136023681A6812F0010F9D
:101F20000AD0FFF7DFFE431B052BF5D9202363659D
:101F3000032084F8350070BD1A6821491140626899
:101F4000A0680243E06802432069024360690243DB
:101F5000A0690243E0690243206A02430A43616ABE
:101F600004291FD01A6023681E465D6925F0070505
:101F7000636A1D43042B07D1A36A1D43E36A1BB1A7
:101F80002046FFF769FF90B975612046FFF748FFCB
:101F9000E26D3F239340836000206065012384F855
:101FA0003530C8E7E16A206B01430A43DAE7402392
:101FB0006365012084F83500BDE70120BBE700BF61
:101FC0003F8010F038B50446806D054694F8340023
:101FD00001282AD0012084F8340094F83500012823
:101FE00004D0002384F83430022038BD022084F865
:101FF0003500002060652046FFF7FAFEE26D3F23C2
:102000009340AB602268136843F016031360236C9F
:1020100023B12268136843F0080313602268136831
:1020200043F0010313600020DFE70220DDE790F8B2
:102030003530022B03D080234365012070470523F0
:1020400080F835300268136823F001031360002024
:1020500070470000F0B583B0044600230193724B33
:102060001D68724BA3FB0535AD0A876D3E68C26DD6
:1020700008239340334210D003681A6812F0040F0B
:102080000BD01A6822F004021A60C26D0823934034
:10209000BB60436D43F001034365E26D0123934050
:1020A000334209D02268526912F0800F04D0BB601D
:1020B000636D43F002036365E26D04239340334292
:1020C00009D02268126812F0020F04D0BB60636D61
:1020D00043F004036365E26D10239340334224D040
:1020E0002268126812F0080F1FD0BB6023681A68BC
:1020F00012F4802F0DD01B6813F4002F04D1236C31
:102100009BB12046984710E0A36C73B120469847D6
:102110000BE01A6812F4807F03D11A6822F00802DB
:102120001A60236C0BB120469847E26D2023934040
:10213000334254D02268126812F0100F4FD0BB60A7
:1021400094F83530052B0ED023681A6812F4802FCE
:1021500033D01B6813F4002F2AD1636C002B3ED0C0
:10216000204698473BE02268136823F0160313606B
:102170002268536923F080035361236CA3B1226862
:10218000136823F008031360E26D3F239340BB60A4
:10219000012384F83530002384F83430236D002B7C
:1021A0003FD0204698473CE0A36C002BE7D1EBE7FB
:1021B000E36BA3B12046984711E01A6812F4807FC0
:1021C00009D11A6822F010021A60012384F8353010
:1021D000002384F83430E36B0BB120469847636DDD
:1021E000FBB1636D13F0010F17D0052384F8353070
:1021F0002268136823F001031360019B01330193EC
:10220000AB4204D823681B6813F0010FF5D10123FA
:1022100084F83530002384F83430E36C0BB1204669
:10222000984703B0F0BD00BF18000020B5814E1BD9
:1022300070B582B08E46002369E085684FEA430C92
:10224000032101FA0CF125EA0105DEF80C1001FA70
:102250000CF129438160416821EA0201DEF8042083
:10226000C2F300129A400A43426065E0D90808317F
:1022700050F8212003F00705AD004FF00F0C0CFAC9
:1022800005FC22EA0C0CDEF81020AA4042EA0C02FF
:1022900040F8212067E0072200E0002202FA0CF259
:1022A0002A430231604D45F82120604A9168E2439B
:1022B00021EA0405DEF8046016F4801F01D044EA28
:1022C00001055A498D60C96802EA0105DEF804601B
:1022D00016F4001F01D044EA01055449CD60496855
:1022E00002EA0105DEF8046016F4003F01D044EA7A
:1022F00001054E494D6009680A40DEF8045015F4A6
:10230000803F01D044EA010248490A6001330F2BA3
:1023100000F2878001229A40DEF8001001EA0204F0
:1023200032EA0101F2D1DEF8041001F0030C0CF1E5
:10233000FF3CBCF1010F80D9DEF8042002F003025B
:10234000032A0AD0C1685D000322AA4021EA0201E3
:10235000DEF80820AA400A43C260DEF8042002F03A
:102360000302022A82D001684FEA430C032202FAD8
:102370000CF221EA0201DEF8042002F0030202FA64
:102380000CF20A430260DEF8042012F4403FBDD094
:1023900000220192264A516C41F480415164526CF2
:1023A00002F480420192019A99088D1C1E4A52F84B
:1023B000255003F0030C4FEA8C0C0F2202FA0CF2AA
:1023C00025EA02051B4A90423FF467AF02F580629E
:1023D00090421AD002F58062904218D002F58062D5
:1023E000904216D002F58062904214D002F58062CD
:1023F000904212D002F58062904210D002F58062C5
:1024000090423FF448AF082248E7012246E7022203
:1024100044E7032242E7042240E705223EE7062282
:102420003CE702B070BD00BF00380140003C0140F5
:1024300000380240000002400AB18161704709047F
:1024400081617047436901EA030221EA030141EA1D
:102450000241816170470000F8B50468226A02F009
:102460000F031F46C2F34343C2F30A12022B00D0EC
:10247000F8BD05461046002AFAD0C7EB071305EB56
:102480008303D96A0029F3D0C7EB071305EB830355
:102490009A6B02445B6B9A4207D9C7EB071305EBB3
:1024A0008303042283F84C20E2E7064602462046D6
:1024B00002F048FEC7EB071305EB8303DA6A3244E8
:1024C000DA629A6B32449A6304EB4714D4F810250D
:1024D0001B8DB342CCD10D4B1340002BC8D0D4F888
:1024E000003523F0804343F00043C4F80035C7EBC8
:1024F000071305EB830393F83C20C7EB071305EBA9
:10250000830382F0010283F83C20B1E70000F81F4A
:1025100030B583B004460568D5F840340193D5F84A
:1025200040340093009B23F02E030093019B13F093
:10253000020F07D0019B13F0010F25D1009B43F040
:1025400002030093019B13F0080F10D0009B43F08F
:1025500008030093019B13F0040F2DD0637A022B24
:1025600015D0E379012B22D0204603F0CBFC019B50
:1025700013F0200F03D0009B43F020030093009B37
:10258000C5F8403403B030BD03F0AAFCD6E7019B88
:1025900003F4C023B3F5802F04D00121206802F09A
:1025A00005FEE1E70221206802F000FEDCE74EF6BE
:1025B0006022C5F80424D7E7204603F0A9FCD6E73B
:1025C00070B505460C460668304602F0E2FD10F094
:1025D000040F21D006EB44130422C3F80825C4EBF2
:1025E000041305EB8303072283F84D202146286856
:1025F00002F002FE2146286802F0CBFD10F4007FB5
:102600006CD02146286802F0F7FD06EB44164FF423
:102610000073C6F8083570BD2146286802F0B9FD80
:1026200010F4807F11D006EB44134FF48072C3F88E
:102630000825C4EB041305EB8303082283F84D201F
:102640002146286802F0D8FDD4E72146286802F028
:10265000A0FD10F0080F10D006EB44130822C3F8B9
:102660000825C4EB041305EB8303062283F84D20F1
:102670002146286802F0C0FDBCE72146286802F028
:1026800088FD10F4806F11D006EB44134FF4806284
:10269000C3F80825C4EB041305EB8303092283F870
:1026A0004D202146286802F0A7FDA3E721462868AF
:1026B00002F06FFD10F0800F9CD006EB44138022D7
:1026C000C3F80825C4EB041305EB8303072283F842
:1026D0004D202146286802F08FFD8BE721462868AF
:1026E00002F057FD10F0010F7DD006EB441101F50B
:1026F000A0662023B360C4EB041305EB8303DB7EE9
:10270000012B30D0AB794BB1C4EB041305EB830341
:102710001A6B3069C0F31200121A9A63C4EB0413E7
:1027200005EB8303012283F84D2000205864B2603A
:1027300093F8263013B3022B20D0032B01D0012BAA
:1027400022D1D1F8003543F00053C1F80035C4EB75
:10275000041305EB8303012283F84C20214628460D
:1027600003F0CAFB10E0C4EB041305EB8303002263
:10277000DA76736823F480337360C3E721462868F0
:1027800002F03AFD1023B360AB79012B0ED0C4EBFD
:10279000041305EB830393F83C30C4EB041405EBFE
:1027A000840483F0010384F83C3034E7C4EB041262
:1027B00005EB8202936B128D1344013BB3FBF2F3E2
:1027C00013F0010F3FF427AFC4EB041305EB8303B1
:1027D00093F83C30C4EB041405EB840483F001034C
:1027E00084F83C3017E72146286802F0D2FC10F04C
:1027F000200F1ED006EB44162023C6F80835C4EB84
:10280000041305EB83039B7E012B7FF404AFC4EB21
:10281000041305EB83030122DA76C4EB041305EB02
:102820008303032283F84D202146286802F0E4FC4C
:10283000F1E62146286802F0ACFC10F0020F00F02F
:102840001D8106EB441606F5A06202239360C4EBDB
:10285000041305EB830393F84D30012B13D0062BA3
:1028600026D0072B2FD0092B2DD0052B68D0032B7A
:1028700000F0B480042B00F0DC80082B00F0F18025
:10288000022B0AD1C7E6C4EB041305EB8303022233
:1028900083F84D20012283F84C20C4EB041305EB90
:1028A000830393F84C202146284603F025FBB2E62B
:1028B000C4EB041305EB8303022283F84D200522A9
:1028C00083F84C20E9E7C4EB041305EB83030221F2
:1028D00083F84D10596C0131596402291BD9C4EB9E
:1028E000041305EB8303002159649B7E012B07D061
:1028F000C4EB041305EB8303042283F84C20CCE7DC
:10290000C4EB041305EB8303D9761977536823F4DA
:1029100080335360ECE7C4EB041305EB830302221E
:1029200083F84C2093F826300BB19342B5D1D6F8FA
:10293000003523F0804343F00043C6F80035ACE790
:10294000C4EB041305EB8303022183F84D10DB7EF7
:10295000012BA2D13C2303FB045393F82630032B15
:1029600016D03C2303FB0453022283F84C203C2363
:1029700003FB045393F826300BB1022B8DD1D6F80C
:10298000003523F0804343F00043C6F8003584E768
:102990003C2101FB04518B6C01338B64022B16D953
:1029A0000B4600219964D9765B6C022B04D83C233A
:1029B00003FB045301211977536823F480335360D8
:1029C0003C2303FB0453042283F84C20CFE73C2331
:1029D00003FB0453022283F84C20C8E7C4EB041322
:1029E00005EB8303022183F84D10DB7E012B7FF47E
:1029F00054AF3C2303FB045383F84C10516841F45B
:102A000080315160D16841F04001D160D16821F03E
:102A10002001D16093F8263013B1022B7FF43DAF33
:102A2000D6F8003523F0804343F00043C6F8003564
:102A300033E7C4EB041305EB8303022283F84D2034
:102A400083F84C2093F8263013B193427FF425AFDE
:102A5000D6F8003523F0804343F00043C6F8003534
:102A60001BE73C2303FB0453022283F84D205A6CDE
:102A700001325A64042283F84C200EE7214628686C
:102A800002F087FB10F0400F18D006EB44134022F1
:102A9000C3F80825C4EB041305EB8303052283F870
:102AA0004D209B7E2BB9C4EB041305EB830300225E
:102AB0005A642146286802F09FFBACE5214628684D
:102AC00002F067FB10F0100F3FF4A5ADC4EB041348
:102AD00005EB830393F82630032B28D00BB1022B90
:102AE00018D1C4EB041305EB830300225A64AB79BD
:102AF00033B1C4EB041305EB8303DB7E012B09D157
:102B00003C2303FB0453042283F84D20214628680C
:102B100002F072FBC4EB041305EB8303DB7E012B95
:102B200012D006EB44131022C3F8082573E53C23AA
:102B300003FB045300225A64042283F84D202146EB
:102B4000286802F059FBE5E7C4EB041305EB8305A5
:102B50000023EB7606EB4413D3F8042522F48032ED
:102B6000C3F80425D3F80C2542F02002C3F80C2545
:102B7000D7E770B505460C460668304602F009FBFB
:102B800010F0040F10D006EB44160423C6F80835E5
:102B9000C4EB041305EB8303072283F84D20214681
:102BA000286802F029FB70BD2146286802F0F1FA7E
:102BB00010F0200F4AD006EB44162023C6F8083543
:102BC000C4EB041305EB83035B7E012B2DD0C4EB18
:102BD000041305EB83039B7E012BE4D1C4EB0413A8
:102BE00005EB8303DB7E002BDDD1C4EB041305EB87
:102BF000830393F82630012B05D0C4EB041305EBB7
:102C000083030122DA762601C4EB041305EB830368
:102C1000032283F84D202146286802F0EDFA361B86
:102C200005EB860600237364BDE7C4EB041305EBD4
:102C3000830300225A76022283F84C20032283F871
:102C40004D202146286802F0D7FAC0E721462868BF
:102C500002F09FFA10F4007F0AD006EB44164FF4FE
:102C60000073C6F808352146286802F0C5FA9AE7CD
:102C70002146286802F08DFA10F0010F3BD0C4EB1A
:102C8000041305EB830300225A642146286802F0EE
:102C900080FA10F0400F0AD0C4EB041305EB830355
:102CA00001225A7606EB44134022C3F80825C4EBF0
:102CB000041305EB8303DB7E6BB1C4EB041305EB5C
:102CC00083030022DA7606EB4413D3F8042522F4BA
:102CD0008032C3F8042506EB44160122C6F8082505
:102CE000C4EB041305EB830383F84D2021462868C9
:102CF00002F082FA57E72146286802F04AFA10F0FB
:102D0000400F1ED0C4EB041305EB8303052283F8A8
:102D10004D209B7E2BB9C4EB041305EB83030122EA
:102D20005A76C4EB041305EB830300225A64214650
:102D3000286802F061FA06EB44164023C6F808350D
:102D400031E72146286802F024FA10F0080F10D06D
:102D500006EB44130822C3F80825C4EB041305EB63
:102D60008303062283F84D202146286802F044FAA6
:102D700019E72146286802F00CFA10F0100F20D055
:102D8000C4EB041305EB830300225A64042283F886
:102D90004D205B7E5BB9C4EB041305EB83031B7E04
:102DA0002BB9C4EB041305EB830301225A762146A9
:102DB000286802F021FA06EB44131022C3F8082514
:102DC000F1E62146286802F0E4F910F0800F38D0CF
:102DD000AB79F3B1C4EB041205EB8202536C0133FF
:102DE0005364022B20D83C2303FB0453022283F8B4
:102DF0004C2006EB4412D2F8003523F0804343F018
:102E00000043C2F8003506EB44138022C3F80825BE
:102E1000C9E63C2303FB0453072283F84D202146D7
:102E2000286802F0E9F9EEE73C2303FB0453002293
:102E30005A64042283F84C202146284603F05CF8AB
:102E4000E1E72146286802F0A4F910F4806F10D061
:102E50003C2303FB0453092283F84D2021462868B4
:102E600002F0CAF906EB44134FF48062C3F8082558
:102E700099E62146286802F08CF910F0020F3FF421
:102E800092AE06EB441606F5A062022393603C2343
:102E900003FB045393F84D30012B23D0032B62D056
:102EA000042B6FD0052B00F08280062B00F0888069
:102EB000072B02D0092B7FF476AE3C2303FB04538F
:102EC000022283F84D205A6C01325A64022A40F2E1
:102ED00081803C2303FB045300225A64042283F8BC
:102EE0004C200EE03C2303FB0453022283F84D20C8
:102EF000012283F84C2093F82630023BDBB2934248
:102F000009D93C2303FB045393F84C20214628465F
:102F100002F0F2FF47E6A97941B93C2303FB0453D1
:102F200093F83D2082F0010283F83D200129E8D189
:102F30003C2303FB04535B6B002BE2D03C2202FBDF
:102F40000452128D1344013BB3FBF2F313F0010F53
:102F5000D7D03C2303FB045393F83D2082F00102B9
:102F600083F83D20CDE73C2303FB0453022283F882
:102F70004D20DB7E012BC4D13C2303FB045383F89B
:102F80004C20BEE73C2303FB0453022183F84D1081
:102F900083F84C10DB7E012BB3D13C2303FB04539D
:102FA0000021D976536823F480335360A9E73C238A
:102FB00003FB0453022283F84D2083F84C20A0E742
:102FC0003C2303FB0453022283F84D20052283F89F
:102FD0004C2096E73C2303FB0453022283F84C2049
:102FE000D6F8003523F0804343F00043C6F800359F
:102FF00087E7F8B504460568284602F0D3F80128AB
:1030000000D0F8BD206802F0C0F80028F9D0206890
:1030100002F0BBF810F4001F03D023684FF4001235
:103020005A61206802F0B1F810F4801F03D02368C1
:103030004FF480125A61206802F0A7F810F0806FF8
:1030400003D023684FF080625A61206802F09DF837
:1030500010F0020F02D0236802225A61206802F0A9
:1030600094F810F0005F08D023684FF000525A61C6
:10307000D5F8403413F0010F25D0206802F085F810
:1030800010F0807F32D1206802F07FF810F0080F36
:1030900030D1206802F079F810F0007F31D120683B
:1030A00002F073F810F0100FABD02268936923F090
:1030B000100393612046FFF7CFF92268936943F02C
:1030C000100393619DE71021284601F0F3FF284685
:1030D00002F015F8637A022B03D0204602F006FFB7
:1030E000CBE70121206802F061F8F6E72046FFF700
:1030F0000FFAC8E7204602F0EDFE236808225A6165
:10310000C7E7206802F073F8074600231E4606E072
:10311000F1B22046FFF72DFD334601331E46637999
:10312000B34212D906F00F0327FA03F313F0010F8D
:10313000F2D005EB4613D3F8003513F4004FE7D077
:10314000F1B22046FFF73CFAE6E723684FF0007241
:103150005A61A4E790F8D433012B0BD010B5044684
:10316000012380F8D433006802F0C7F8002084F807
:10317000D40310BD02207047002800F0DA8038B573
:10318000044690F83D30002B51D0242384F83D3084
:103190002268136823F0010313602268136843F464
:1031A000004313602268136823F40043136001F0A6
:1031B000ADFA6268614B9A423ED8614B98428CBF2F
:1031C00000230123002B40F0B6805E49A1FB0031B3
:1031D0008B0CD4F800C0DCF8042022F03F0242EA55
:1031E0009142CCF8042021680A6A22F03F02DFF8FD
:1031F0004CC16568654525D8013313430B622168CE
:10320000CA6922F44F4222F0FF02D4F804C04B4BAB
:103210009C4522D8431E4FEA4C0CB3FBFCF3013310
:1032200040F6FC70034254D0C3F30B0352E080F825
:103230003C3000F0D1FDA8E7434B98428CBF0023FF
:103240000123BFE74FF4967C0CFB03F3DFF8FCC0CF
:10325000ACFB03C39B090133CFE7D4F808E0BEF110
:10326000000F1AD1431E0CEB4C05B3FBF5F30133F1
:10327000C3F30B03B3FA83F35B09002B57D1BEF101
:10328000000F19D1431E0CEB4C0CB3FBFCF30133C4
:10329000C3F30B0343F400431CE00CEB8C0303EB80
:1032A00083031D46431EB3FBF5F30133C3F30B0346
:1032B000B3FA83F35B09E0E7431E0CEB8C0C0CEBD9
:1032C0008C0CB3FBFCF30133C3F30B0343F4404317
:1032D00000E004231A43CA6121680B6823F0C0038D
:1032E000E269206A024313430B6021688B6823F470
:1032F000034323F0FF032269E068024313438B601A
:103300002168CB6823F0FF036269A069024313437D
:10331000CB602268136843F001031360002020642F
:10332000202384F83D30206384F83E0038BD01231B
:10333000D0E7012070470120F8E700BFA086010018
:103340007F841E0083DE1B43FF083D00D34D6210C7
:10335000002800F0C48038B5044690F84130002BB6
:1033600053D0022284F841202168CB6923F47B6387
:1033700023F00F03CB6123681A62636993426CD018
:10338000E368002B48D110231D46A368202B01D8E9
:103390006B001D46012001F077FA2369B3F5007F29
:1033A0003DD0B0FBF5F000EB800043006269B3FB59
:1033B000F2F305334B4AA2FB0323C3F3C002C2EB73
:1033C000D3035B0811029A1EFD2A40D822690A43E2
:1033D00021681A430A622168CB6923F47B6323F0D6
:1033E0000F036268A0680243E0680243A0690243D9
:1033F000134343F40063CB61236A012B2FD00020D9
:103400006064012384F8413038BD80F84030364B89
:10341000436300F019FDA4E720231D46B5E7E368E8
:1034200053B1AB00B0FBF3F000EB800043006269E6
:10343000B3FBF2F30533BDE7EB00B0FBF3F000EBB9
:10344000800043006269B3FBF2F30533B2E7636CBB
:1034500043F0100363640120D6E70021B6E7234B55
:1034600063632268224B9A4220D04FF04022D369F6
:1034700023F47B6323F00F03D36122681C4B9A4231
:1034800016D04FF04022022313622268184B9A4252
:1034900010D04FF0402CDCF81C309BB26268B2F5C3
:1034A000007F0AD0CAB94FF4807008E0114ADEE705
:1034B000104AE8E7DFF83CC0EDE74FF48070B4F85D
:1034C00008E0A189228B40EA0E0001430A4313431E
:1034D00043F40063CCF81C3091E70020EFE70120B3
:1034E000704700BFCDCCCCCC6F350008BD3B000889
:1034F0000038004000340040704708B5426A036855
:103500001288DA60436A02334362438D9BB2013B07
:103510009BB24385438D9BB203B108BD02685368DB
:1035200023F0A0035360012380F84130FFF7E4FF4C
:10353000F3E7704708B50368DA68C36A1A80C36A9C
:103540000233C362438E9BB2013B9BB24386438EE0
:103550009BB203B108BD0268536823F06003536057
:10356000012380F84130FFF7E4FFF3E7704710B51F
:1035700084B0044603689A68039290F84120042AB4
:1035800005D094F84130032B2CD004B010BD039A21
:1035900012F0010F03D05B6813F0400F1FD1039BA3
:1035A00013F0400FEDD023685A6812F0200FE8D0D6
:1035B0005A6822F060025A60002301932368DA6897
:1035C00001929B680193019B012384F84130636C55
:1035D00043F0020363642046FFF7C8FFD1E7FFF71B
:1035E000A9FFDCE7039B13F0020F04D023685B689C
:1035F00013F0800F1DD1039B13F0080FC5D0236873
:103600005A6812F0200FC0D05A6822F0A0025A6007
:103610000023029323689B680293029B012384F892
:103620004130636C43F0040363642046FFF79EFF60
:10363000ABE72046FFF761FFDDE700002DE9F04131
:1036400082B005460E4617461C469DF82030019371
:10365000FEF748FB8046019BABB137E02CB1FEF78B
:1036600041FB4346C01AA0420DD9012385F84130E1
:10367000002385F8403003200DE00123BB4209D030
:10368000B4F1FF3FEAD12B689B6836EA0303F4D01C
:103690000023F3E7019802B0BDE8F0812CB1FEF7FA
:1036A00021FB4346C01AA04210D9012385F84130BE
:1036B000002385F840300320EDE7A3F580630BE09D
:1036C0000123BB420ED0B4F1FF3FE7D12A68064B7D
:1036D0009A42F2D04FF040239B6836EA0303EFD0C2
:1036E0000023EEE70020D6E7003800402DE9F04344
:1036F00089B0044610461746109D94F84120012ACF
:1037000040F0B281D6B2002900F0AF81002800F06D
:10371000AC81002B00F0A98194F84020012A00F030
:10372000A881012284F840202068C26902F00702C3
:10373000032A06D0052A04D0238563852386638661
:1037400005E05B009BB223856385238663860023A7
:103750006364052384F84130C36903F440739946D8
:10376000B3F5007F02D0002B40F0C2800A4632F849
:10377000023B9046C360638D9BB2013B9BB2638565
:103780002268984B9A421ED04FF04022D36943F4EE
:103790008063D3612268D36943F48063D361226874
:1037A000D36903F44073B3F5007F18D1002302936B
:1037B0008C4B9A4209D04FF04023DA6802929B6802
:1037C0000293029B0BE0884AE0E7A3F58063F4E7ED
:1037D000638D9BB2BBB9638E9BB2002B47D1638EC6
:1037E0009BB2002BF4D1638D9BB2002BF0D101234F
:1037F00084F84130002384F84030636C002B40F0A3
:1038000034811E4631E1002300932B460122022120
:103810002046FFF713FFD8B94246236832F8021B4F
:10382000D960638D9BB2013B9BB263852368996825
:1038300011F0080F17D04946B9B9CDF80C909B6824
:103840000393039B636C43F0040363649046C2E7F5
:10385000636C43F001036364012384F84130002367
:1038600084F8403001E19046B5E79046B3E7012186
:1038700000912B460A462046FFF7E0FE28BB22684F
:10388000584B9A422CD04FF04023DB683A4622F83E
:10389000023B638E9BB2013B9BB263862368514916
:1038A0008B4220D04FF04021896811F0400F1DD08D
:1038B00000210491D96804919B680493049B636C74
:1038C00043F002036364174689E7636C43F0010326
:1038D0006364012384F84130002384F84030C4E05D
:1038E000A3F58063D1E7A1F58061DDE7174676E7B0
:1038F0000B4633F8022B98463A4B984225D04FF0AE
:103900004023DA60638D9BB2013B9BB263852268E2
:10391000344B9A421CD04FF04022D36943F4806369
:10392000D3612268D36943F48063D3612268D36989
:1039300003F44073B3F5407F13D100230593D3689C
:10394000059393680593059B0BE0A3F58063D8E787
:10395000254AE2E7638D9BB263B9638E9BB2002B6D
:1039600051D1638E9BB2002BF4D1638D9BB2002B9F
:10397000F0D13CE7012200922B4602212046FFF7BE
:103980005DFEE8B9424632F8021B2068154B9842AA
:1039900021D04FF04023D960638D9BB2013B9BB295
:1039A000638523680F498B4218D04FF04021896806
:1039B00011F0080F25D0B9F5807F17D09046CCE7DD
:1039C000636C43F001036364012384F841300023F6
:1039D00084F8403049E0A3F58063DCE7A1F580611D
:1039E000E5E700BF003800400034004000210691A8
:1039F0009B680693069B636C43F0040363649046E4
:103A0000ABE79046A9E7002300932B46012211461D
:103A10002046FFF713FED0B92368DB683A4622F848
:103A2000023B638E9BB2013B9BB26386236899681D
:103A300011F0400F16D00790D96807919B68079343
:103A4000079B636C43F002036364174689E7636C6A
:103A500043F001036364012384F84130002384F8B8
:103A6000403002E017467CE70226304609B0BDE848
:103A7000F0830226F9E700BF704708B5436A9A1C35
:103A8000426202681B88D360438D9BB2013B9BB2AC
:103A90004385438D9BB23BB90268536823F0A00372
:103AA0005360438E9BB203B108BD012380F84130BF
:103AB000FFF7E2FFF8E7000008B50268154B9A42ED
:103AC0001CD04FF04023DA68C36A991CC1621A8087
:103AD000438E9BB2013B9BB24386438E9BB263B93C
:103AE00002680C4B9A420CD04FF04022536823F0EE
:103AF00060035360438D9BB22BB108BDA3F5806377
:103B0000E1E7054AF2E7012380F84130FFF7B4FF0F
:103B1000F3E700BF003800400034004008B5436AB6
:103B20009A1C42621A880168134B994218D04FF0D0
:103B30004023DA60438D9BB2013B9BB24385438DAA
:103B40009BB263B902680C4B9A420CD04FF04022F2
:103B5000536823F0A0035360438E9BB22BB108BD82
:103B6000A3F58063E5E7054AF2E7012380F84130D9
:103B7000FFF782FFF3E700BF003800400034004049
:103B800008B50368DA68C36A991CC1621A80438E5B
:103B90009BB2013B9BB24386438E9BB23BB902680A
:103BA000536823F060035360438D9BB203B108BD9B
:103BB000012380F84130FFF75FFFF8E710B586B0CA
:103BC000044603689A680592704A93426FD04FF09A
:103BD0004022916804915B68039353680293636881
:103BE000B3F5007F01D0002B70D1059B13F0020FBD
:103BF00003D0039B13F0800F5CD1049B13F0010FE3
:103C000003D0029B13F0400F58D1049B13F0400FD8
:103C100024D0029B13F0200F20D022685B4B9A42E5
:103C200050D04FF04022536823F060035360226865
:103C3000536823F0A0035360002300932368DA68DD
:103C400000929B680093009B012384F84130636CD1
:103C500043F0020363642046FFF788FC059B13F0E2
:103C6000080F22D0039B13F0200F1ED02268536848
:103C700023F0A00353602268444B9A4224D04FF0B3
:103C80004022536823F060035360002301932368AC
:103C90009B680193019B012384F84130636C43F0DE
:103CA000040363642046FFF761FC06B010BDA2F573
:103CB00080628EE72046FFF7E0FE9EE72046FFF792
:103CC000FBFEA2E7324AAEE7314ADAE7049B13F083
:103CD000020F03D0029B13F0800F4AD1059B13F013
:103CE000010F03D0039B13F0400F46D1059B13F047
:103CF000400F1CD0039B13F0200F18D0226853688C
:103D000023F0600353602268204B9A4239D04FF071
:103D10004022536823F0A0035360012384F841300C
:103D2000636C43F0020363642046FFF71FFC049BAF
:103D300013F0080FB9D0029B13F0200FB5D0226802
:103D4000124B9A421FD04FF04022536823F0A00339
:103D500053602268536823F060035360012384F8A2
:103D60004130636C43F0040363642046FFF7FEFBBD
:103D70009BE72046FFF7D2FEB0E72046FFF700FFA3
:103D8000B4E7034AC5E7024ADFE700BF0038004056
:103D90000034004000B583B0002200920D4B596CF6
:103DA00041F480415964596C01F4804100910099BB
:103DB0000192196C41F0805119641B6C03F080531F
:103DC0000193019B0F216FF00100FDF7E9FF03B0A4
:103DD00000BD00BF0038024030B589B00023039316
:103DE00004930593069307930268144B9A4201D0FB
:103DF00009B030BD00250195114C236B43F002033F
:103E00002363236B03F002030193019B4FF41073B0
:103E1000039312230493012305930423079303A917
:103E20000848FEF705FA0295236C43F40013236457
:103E3000236C03F400130293029BD9E70054004063
:103E4000003802400004024070B58CB00023079394
:103E5000089309930A930B93039304930593069392
:103E600002682C4B9A4201D00CB070BD0123039321
:103E7000C02304930223059303A800F057FC0028F5
:103E800044D100210091244B1A6C42F400421A6480
:103E90001A6C02F400420092009A01911A6B42F0EF
:103EA00001021A631A6B02F001020192019A029157
:103EB0001A6B42F004021A631B6B03F004030293B3
:103EC000029B10230793022508950C4609910A913D
:103ED00006260B9607A91148FEF7AAF94FF4A4533A
:103EE0000793089509940A940B9607A90C48FEF7C6
:103EF0009FF94FF400630793089509940A940523EA
:103F00000B9307A90648FEF793F9ADE7FCF7D0FE3F
:103F1000B7E700BF003C004000380240000002400C
:103F2000000802402DE9F0418AB080460023059345
:103F300006930793089309930368594A934205D05F
:103F4000584A934252D00AB0BDE8F0810024009450
:103F5000554B5A6C42F480525A645A6C02F48052A7
:103F60000092009A01941A6B42F001021A631B6BD3
:103F700003F001030193019BE023059302250695BD
:103F80000526099605A94948FEF752F94FF4004362
:103F900005930695079403230893099605A94348BA
:103FA000FEF746F94248434B03604FF0C06343605D
:103FB0008460C4604FF48063036144618461C461C0
:103FC00004624462FDF796FF68B9394BC8F84C307B
:103FD000C3F83880002205212320FDF7E1FE2320CD
:103FE000FDF7EEFEAFE7FCF763FEEEE70024029478
:103FF0002D4B1A6C42F480421A641A6C02F480420F
:104000000292029A03941A6B42F004021A631A6B2A
:1040100002F004020392039A04941A6B42F0020223
:104020001A631B6B03F002030493049B04230593A0
:1040300002250695032608960527099705A91E4817
:10404000FEF7F6F84FF4304305930695079408966B
:10405000099705A91948FEF7EBF81948194B0360B1
:1040600044608460C4604FF4806303614461846190
:10407000C46104624462FDF73DFF68B9104BC8F8A3
:104080004C30C3F83880002205212420FDF788FE3B
:104090002420FDF795FE56E7FCF70AFEEEE700BF89
:1040A000003001400038004000380240000002406B
:1040B000344800201064024000080240000402401E
:1040C000D447002058600240002800F0E28170B51B
:1040D00082B00446036813F0010F3BD09B4B9B68F2
:1040E00003F00C03042B2CD0984B9B6803F00C03BB
:1040F000082B21D06368B3F5803F4FD0B3F5A02FD4
:1041000052D0924B1A6822F480321A601A6822F454
:1041100080221A606368002B50D0FDF7E3FD05464E
:104120008A4B1B6813F4003F14D1FDF7DBFD401BE5
:104130006428F5D90320B3E1844B5B6813F4800F46
:10414000D8D0824B1B6813F4003F03D06368002B68
:1041500000F0A181236813F0020F54D07B4B9B68C1
:1041600013F00C0F3ED0794B9B6803F00C03082B27
:1041700033D0E368002B68D0754B01221A60FDF73D
:10418000B1FD0546714B1B6813F0020F54D1FDF7CA
:10419000A9FD401B0228F5D9032081E16B4A136871
:1041A00043F480331360B5E7684B1A6842F4802209
:1041B0001A601A6842F480321A60ABE7FDF792FD8C
:1041C0000546624B1B6813F4003FC3D0FDF78AFD20
:1041D000401B6428F5D9032062E15C4B5B6813F453
:1041E000800FC6D1594B1B6813F0020F03D0E36850
:1041F000012B40F05281554A136823F0F8032169DE
:1042000043EAC1031360236813F0080F42D06369C7
:104210006BB34F4B0122C3F8802EFDF763FD0546BB
:104220004A4B5B6F13F0020F34D1FDF75BFD401B6F
:104230000228F5D9032033E1444A136823F0F80338
:10424000216943EAC1031360DDE7414B00221A6094
:10425000FDF748FD05463D4B1B6813F0020FD2D019
:10426000FDF740FD401B0228F5D9032018E1384B2B
:104270000022C3F8802EFDF735FD0546334B5B6FFA
:1042800013F0020F06D0FDF72DFD401B0228F5D9D3
:10429000032005E1236813F0040F79D02B4B1B6C2E
:1042A00013F0805F34D100230193284B1A6C42F045
:1042B00080521A641B6C03F080530193019B01230D
:1042C0001E46244B1B6813F4807F24D0A368012B67
:1042D00035D0052B40D01D4B1A6F22F001021A6712
:1042E0001A6F22F004021A67A368002B3ED0FDF774
:1042F000F9FC0546154B1B6F13F0020F47D1FDF774
:10430000F1FC401B41F288339842F3D90320C7E007
:1043100000231E46D5E70F4A136843F480731360E9
:10432000FDF7E0FC05460B4B1B6813F4807FCDD1F5
:10433000FDF7D8FC401B0228F5D90320B0E0034A62
:10434000136F43F001031367CEE700BF003802404C
:104350000000474200700040584B1A6F42F00402C0
:104360001A671A6F42F001021A67BDE7FDF7BAFC3F
:104370000546524B1B6F13F0020F08D0FDF7B2FC3D
:10438000401B41F288339842F3D9032088E0EEB90C
:10439000A369002B00F08380484A926802F00C0267
:1043A000082A51D0022B17D0454B00221A66FDF780
:1043B00099FC0446414B1B6813F0007F42D0FDF787
:1043C00091FC001B0228F5D9032069E03B4A136CDD
:1043D00023F080531364DBE7394B00221A66FDF7A4
:1043E00081FC0546354B1B6813F0007F06D0FDF7B6
:1043F00079FC401B0228F5D9032051E0E369226AC9
:104400001343626A43EA8213A26A5208013A43EAFA
:104410000243E26A43EA0263284A5360284B0122BE
:104420001A66FDF75FFC0446244B1B6813F0007FFF
:1044300006D1FDF757FC001B0228F5D903202FE019
:1044400000202DE000202BE0012B2BD01B4B5B68C4
:1044500003F48001E269914226D103F03F02216A10
:104460008A4223D1616A47F6C0721A40B2EB811FBB
:104470001ED103F44031A26A5208013AB1EB024F57
:1044800018D103F07063E26AB3EB026F14D100201D
:1044900006E001207047012002E0012000E01846FC
:1044A00002B070BD0120FBE70120F9E70120F7E72A
:1044B0000120F5E70120F3E70120F1E70038024091
:1044C0000000474208B5334B9B6803F00C03042BF4
:1044D0005BD0082B5BD12F4B5A6802F03F025B6820
:1044E00013F4800F2CD02B4B5868C0F388104FEA80
:1044F000401CBCEB000C6EEB0E0E4FEA8E1343EA31
:104500009C634FEA8C11B1EB0C0163EB0E03DB00F3
:1045100043EA5173C90011EB000C43F10003590247
:1045200000234FEA4C2041EADC51FBF731FE194BE6
:104530005B68C3F3014301335B00B0FBF3F008BDDC
:10454000144B5868C0F388104FEA401CBCEB000CB9
:104550006EEB0E0E4FEA8E1343EA9C634FEA8C110A
:10456000B1EB0C0163EB0E03DB0043EA5173C900AE
:1045700011EB000C43F10003990200234FEA8C2059
:1045800041EA9C51FBF704FED1E70348D7E7034813
:10459000D5E700BF0038024000127A000024F40082
:1045A000002800F09B8070B50D4604464F4B1B68F9
:1045B00003F007038B4208D2CBB24C4A1370136846
:1045C00003F007038B4240F08B80236813F0020F47
:1045D00017D013F0040F04D0454A936843F4E05316
:1045E0009360236813F0080F04D0414A936843F4A2
:1045F000604393603E4A936823F0F003A1680B4345
:104600009360236813F0010F32D06368012B21D02F
:104610009A1E012A25D9364A126812F0020F61D07B
:1046200033498A6822F0030213438B60FDF75AFB7B
:1046300006462F4B9B6803F00C036268B3EB820FB6
:1046400016D0FDF74FFB801B41F288339842F0D91A
:10465000032042E0264A126812F4003FE0D1012014
:104660003BE0234A126812F0007FD9D1012034E0E8
:104670001E4B1B6803F00703AB4207D9EAB21B4B82
:104680001A701B6803F00703AB422DD1236813F0A7
:10469000040F06D0164A936823F4E053E1680B43F5
:1046A0009360236813F0080F07D0114A936823F42E
:1046B0006043216943EAC1039360FFF703FF0C4B9A
:1046C0009B68C3F303130B4AD35CD8400A4B1860B2
:1046D0000A4B1868FDF7BAFA002070BD0120704738
:1046E0000120FAE70120F8E70120F6E7003C02404C
:1046F00000380240B86400081800002014000020B0
:10470000014B1868704700BF1800002008B5FFF77C
:10471000F7FF044B9B68C3F38223034AD35CD84062
:1047200008BD00BF00380240B064000830B583B057
:104730000546036813F0010F02D113F0040F2BD0CC
:104740004E4B00229A66FDF7CDFA04464C4B1B688F
:1047500013F0006F06D0FDF7C5FA031B022BF5D945
:1047600003201EE06A68AB681B0743EA8213444AD1
:10477000C2F88430414B01229A66FDF7B3FA044631
:104780003F4B1B6813F0006F06D1FDF7ABFA031B1C
:10479000022BF5D9032004E02B6813F0020F02D19D
:1047A000002003B030BD00230193354B1A6C42F05A
:1047B00080521A641B6C03F080530193019B314AB1
:1047C000136843F480731360FDF78CFA04462D4B95
:1047D0001B6813F4807F06D1FDF784FA001B0228C2
:1047E000F5D90320DDE7264B1B6F13F4407314D07B
:1047F000EA6802F440729A420FD0214B1A6F22F4F9
:1048000040721E490120C1F8400E0020C1F8400E40
:104810001A671B6F13F0010F13D1EB6803F440729A
:10482000B2F5407F1ED0164A936823F4F8139360C4
:1048300013490B6FEA68C2F30B0213430B670020A6
:10484000AFE7FDF74FFA04460D4B1B6F13F0020F55
:10485000E3D1FDF747FA031B41F288329342F3D9C3
:1048600003209EE706498A6822F4F81223F0704379
:1048700023F4407313438B60DAE700BF0000474224
:104880000038024000700040012801D0002070472D
:10489000154B9B6813F4000302D01BB313487047F9
:1048A000114B5B6813F4800F14D00F4B5A6802F061
:1048B0003F020F4BB3FBF2F30B4AD2F88400C0F374
:1048C000881003FB00F0D2F88430C3F30273B0FB0E
:1048D000F3F07047044B5A6802F03F02054BB3FBFC
:1048E000F2F3E9E718467047003802400080BB0049
:1048F00000127A000024F4002DE9F04383B004464E
:104900000F4616461D46FDF7EDF90A9B1B1A03EBF1
:104910000508FDF7E7F98146284B1B68C3F3CB3345
:1049200008FB03F3019323689B6837EA03030CBF7A
:1049300001230023B3423DD0B5F1FF3FF3D0FDF793
:10494000D1F94B46C01A404503D2019B73BB984630
:10495000E9E72268536823F0E00353606368B3F526
:10496000827F0BD0A36AB3F5005F14D0012384F8D3
:104970005130002384F8503003201CE0A368B3F5C5
:10498000004F02D0B3F5806FECD12268136823F09A
:1049900040031360E6E72268136823F400531360B2
:1049A0002268136843F400531360DFE7019B013B67
:1049B0000193B8E7002003B0BDE8F08318000020A1
:1049C00070B584B004460B460D461646009201228F
:1049D0000221FFF791FFD0B9174B1B68174AA2FBC2
:1049E00003235B0D4FF47A7202FB03F303936368B6
:1049F000B3F5827F11D0039B3BB1039B013B039333
:104A000023689B6813F0800FF5D104B070BD636D0F
:104A100043F0200363650320F7E700962B4600224E
:104A200080212046FFF768FF0028EED0636D43F039
:104A3000200363650320E8E718000020819F5E16CD
:104A400010B582B004460B464168B1F5827F14D0A0
:104A50006168B1F5827F2AD1A168B1F5806F19D064
:104A60000092002280212046FFF746FF30B3636D9D
:104A700043F020036365032020E08168B1F5004F17
:104A800002D0B1F5806FE3D12068016821F04001C8
:104A90000160DDE70092002201212046FFF72CFF94
:104AA00060B1636D43F020036365032006E000926C
:104AB000002201212046FFF71FFF08B902B010BDF8
:104AC000636D43F0200363650320F7E700285AD0A5
:104AD00010B50446436A33B94368B3F5827F05D005
:104AE0000023C36102E00023036143610023A3624A
:104AF00094F85130002B40D0022384F851302268C2
:104B0000136823F040031360636803F48273A268A0
:104B100002F404421343E26802F400621343226980
:104B200002F002021343626902F001021343A26918
:104B300002F400721343E26902F038021343226A5E
:104B400002F080021343A26A02F400522168134368
:104B50000B60638B03F00403626A02F010022168A9
:104B600013434B602268D36923F40063D3610020B0
:104B70006065012384F8513010BD84F85030204620
:104B8000FFF7D0F9B8E701207047000010B50446E0
:104B900090F85100D4F804C001280DD05FFA80FECF
:104BA000BCF5827F40F08880A068002840F08680B5
:104BB000BEF1040F40F08480002900F08380002AB9
:104BC00000F08280002B00F0818094F850000128D2
:104BD0007ED0012084F8500094F85100042802D0BF
:104BE000052084F85100002060652163A386E386D8
:104BF000A263A387E3872064606494F85130042B98
:104C00001DD0E36C334A1A64E36C334ADA63E36C15
:104C1000324ADA64E36C00221A652168E38F9BB2A2
:104C2000A26B0C31E06CFDF7CDF978B1636D43F008
:104C300010036365002384F8503001203DE0E36CED
:104C4000274A1A64E36C274ADA63E0E7226853686C
:104C500043F001035360A26C1064A26CD063A26C99
:104C6000D064A26C10652268E38E9BB20C32216B7B
:104C7000A06CFDF7A7F9B0B923681A6812F0400FCD
:104C800003D11A6842F040021A60002384F85030C1
:104C90002268536843F0200353602268536843F04E
:104CA0000203536009E0636D43F010036365002362
:104CB00084F85030012000E0022010BD0220FCE703
:104CC0000220FAE70120F8E70120F6E70120F4E7E7
:104CD0000220F2E7F54D0008914E0008014E000851
:104CE000E94D0008234E000838B590F85130012BEB
:104CF0006CD10446DDB2002969D0002A67D08068F3
:104D000018B96368B3F5827F43D094F85030012B13
:104D10005FD0012384F85030042384F851300023FD
:104D20006365A163A287E28723646364A386E38645
:104D3000B0F5004F37D0E36C274A1A64E36C274A7A
:104D4000DA63E36C264ADA64E36C00221A652168B0
:104D5000E38F9BB2A26B0C31E06CFDF733F9014697
:104D600060BB23681A6812F0400F03D11A6842F042
:104D700040021A60002384F850302268536843F0E0
:104D8000200353602268536843F0010353600D46CB
:104D90001DE0042384F8513013460A462046FFF7ED
:104DA000F5FE054613E02268136823F04003136004
:104DB0002268136823F480431360BCE7636D43F0FB
:104DC00010036365002384F8503000E00225284674
:104DD00038BD0225FBE700BFE94D0008234E00085F
:104DE000014E00087047704708B5806BFFF7FBFF66
:104DF00008BD704708B5806BFFF7FBFF08BD704723
:104E000008B5806B0268536823F003035360436D59
:104E100043F010034365012380F85130FFF7EFFFA3
:104E200008BD38B50546846BFCF75CFF2B681B6832
:104E300013F4807F1ED1024621684B6823F02003C3
:104E40004B60A3681BB96368B3F5827F16D02168F5
:104E50004B6823F001034B6064212046FFF7F0FD0F
:104E600008B1202363650023E387012384F85130D0
:104E7000636D4BB92046FBF7F1FE38BD21684B68E6
:104E800023F003034B60E7E72046FFF7B8FFF4E7A2
:104E900038B50546846BFCF725FF2B681B6813F4B7
:104EA000807F1BD1024621684B6823F020034B60B2
:104EB00064212046FFF784FD18B1636D43F02003A1
:104EC00063652268536823F0030353600023E3867D
:104ED000E387012384F85130636D1BB92046FFF747
:104EE00081FF38BD2046FFF78AFFFAE710B584B08E
:104EF0000446026851689368C3F3801013F0400FB2
:104F000005D113F0010F02D011F0400F6DD113F055
:104F1000020F02D011F0800F6BD1C3F3401C13F0CD
:104F2000200F03D110B913F4807F65D011F0200F4A
:104F300062D070B194F8510003285FD0606D40F0EA
:104F40000400606500200090D06800909068009098
:104F50000098BCF1000F0CD0606D40F0010060655E
:104F60000020029090680290106820F040001060CD
:104F7000029A13F4807F09D0636D43F008036365E0
:104F80000023039323689B680393039B636D002BAB
:104F900032D02268536823F0E0035360012384F881
:104FA000513011F0020F02D111F0010F2ED0226802
:104FB000536823F003035360E36C4BB1154A1A6541
:104FC000E06CFDF734F818B1636D43F0400363659E
:104FD000A36C8BB10F4A1A65A06CFDF728F858B185
:104FE000636D43F04003636506E0236C20469847F9
:104FF00002E0636C2046984704B010BD0023019383
:10500000D368019393680193019BF5E72046FFF76E
:10501000F6FEF1E71950000808B5806B0023C3873E
:10502000C386FFF7ECFE08BDFEE7FEE7FEE7FEE7FE
:10503000FEE7704708B5FCF749FE00F025FE0128A1
:1050400000D108BDFCF74EF8FBE7000008B50248A8
:10505000FDF700F808BD00BFD447002008B502489E
:10506000FFF744FF08BD00BFEC48002008B5024828
:10507000FFF73CFF08BD00BF9448002008B5024878
:10508000FCF7E8FF08BD00BF3448002008B502481F
:10509000FDF7AFFF08BD00BF184B0020836843F049
:1050A0000103836000207047836823F0010383605D
:1050B0000020704782B000230193019B01330193CC
:1050C000019BB3F1706F15D80369002BF5DA00234B
:1050D0000193890141F020010161019B013301939A
:1050E000019BB3F1706F08D8036913F0200FF4D15E
:1050F000002000E0032002B070470320FBE782B0ED
:1051000000230193019B01330193019BB3F1706F65
:1051100013D80369002BF5DA0023019310230361F0
:10512000019B01330193019BB3F1706F08D80369B0
:1051300013F0100FF4D1002000E0032002B07047FC
:105140000320FBE700B5844608464FEA920E02F0C2
:105150000302002305E00CF58051096840F8041BA8
:1051600001337345F7D37AB10CF5805CDCF800C0ED
:105170000021CBB2DB002CFA03F300F8013B013134
:10518000013A92B2002AF4D100BD42698069104010
:10519000704700EB411000F5A063D0F80805DB680C
:1051A00018407047406900F00100704700F5806CBE
:1051B000D0F8003423F00303C0F80034D0F80034F2
:1051C00001F003021343C0F80034012907D002297B
:1051D0000BD141F27073CCF80430002070474BF6CD
:1051E0008033CCF80430002070470120704700F570
:1051F0008060406980B2704710B582B004460023D9
:10520000019300EB411101F5A062D1F80035C3F321
:105210008143D1F800054FEAD07C5068D4F808E00B
:105220001EF0200F08D0C00F30B9BCF1000F5AD0CB
:10523000012B58D0032B56D01BB3022B21D0D1F811
:10524000003543F08043C1F80035D4F8103413F42E
:105250007F0F4BD1D1F8003523F00043C1F8003562
:10526000D1F8003543F00043C1F80035019B01330C
:105270000193019BB3F57A7F35D81368002BF5DBDA
:1052800031E0D1F8003543F08043C1F80035A36820
:1052900013F0200F21D1E36A13F47F0F16D1D1F858
:1052A000003523F00043C1F80035D1F8003543F054
:1052B0000043C1F80035019B01330193019BB3F515
:1052C0007A7F10D81368002BF5DB0CE0D1F800359D
:1052D00043F00043C1F8003505E0D1F8003543F054
:1052E0000043C1F80035002002B010BDD1F80035F0
:1052F00043F00043C1F80035F5E730B583B004460C
:1053000000230193FFF7D0FE10212046FFF7D2FEC5
:10531000054608B101231D462046FFF7F0FE08B1FF
:1053200001231D4600220AE004EB4211D1F80035AA
:1053300023F0802343F08043C1F8003501320F2A67
:10534000F2D9002100E001310F2916D804EB4110F9
:1053500000F5A062D0F8003523F4004343F0404349
:10536000C0F80035019B01330193019BB3F57A7FAF
:10537000E9D81368002BF5DBE5E74FF0FF33C4F8FD
:10538000143463612046FFF789FE284603B030BD20
:10539000034AD2F8883043F47003C2F8883070476B
:1053A00000ED00E0084B1B681B6823B9074B4FF06A
:1053B000FF321A607047044B1B68DB68DB685A6871
:1053C000024B1A60704700BF5C4A0020F44900207D
:1053D0002DE9F84380469946089D0A9C236B02F10B
:1053E0008042013A03EB820323F007031F4699B37F
:1053F00008464FF0000CBCF10F0F09D810F80C2034
:1054000004EB0C0383F8342012B10CF1010CF2E729
:10541000002384F84330062D00D90625E562656433
:105420000026A664201DFBF7D8FA04F11800FBF74C
:10543000D4FA2461C5F10705A5616462E66484F8C5
:1054400050604A4641463846FBF7B4FD2060099B50
:1054500003B11C60BDE8F883002384F83430DAE738
:1054600038B5002407E004EB84000F4B03EB800009
:10547000FBF7A8FA0134062CF5D90C4D2846FBF7AA
:10548000A1FA0B4C2046FBF79DFA0A48FBF79AFA63
:105490000948FBF797FA0948FBF794FA084B1D6097
:1054A000084B1C6038BD00BF884A0020744A0020A9
:1054B000604A0020444A0020304A0020184A002058
:1054C0005C4A0020584A002010B50446FBF79AFDBC
:1054D000214A136801331360204B1B685BB1204BDA
:1054E0001B686BB91D4B1B68DA6AE36A9A4207D8DE
:1054F0001A4B1C6004E0194B1C601368012B28D068
:10550000184A136801331360E06A01238340164A86
:1055100011680B43136000EB8000211D134B03EB5C
:105520008000FBF75DFAFBF78FFD0D4B1B687BB12D
:105530000A4B1B68DA6AE36A9A4209D24FF0E02309
:105540004FF08052C3F8042DBFF34F8FBFF36F8F1E
:1055500010BDFFF785FFD3E7144A0020144B00204D
:10556000084A0020F84900200C4A0020884A002000
:1055700010B5044690F8513063B1012B11D0022BC5
:105580000ED04FF0500383F31188BFF36F8FBFF33A
:105590004F8FFEE7006BFBF7D5F92046FBF7D2F9FA
:1055A00010BDFBF7CFF9FBE70F4B1B68D3B110B56C
:1055B000FBF728FD0D4BDB68DC68201DFBF737FA95
:1055C0000B4A1368013B1360074A1368013B1360E1
:1055D000FBF73AFD2046FFF7CBFF034B1B68002B80
:1055E000E6D110BD704700BF2C4A0020304A002091
:1055F000144A002008B5FFF7D7FF074B1B68012BA3
:10560000F9D94FF0E0234FF08052C3F8042DBFF3D7
:105610004F8FBFF36F8FEEE7884A002070B50446C6
:105620000E461D4B1D681D4B18680430FBF7FFF933
:1056300048B91A4B1B68DB6A01229A4018490B686B
:1056400023EA02030B60B4F1FF3F0DD02C44134B4F
:105650001B685C60A54210D9124B18680F4B196883
:105660000431FBF7C8F970BD002EEFD00B4B196861
:1056700004310D48FBF7B4F9F5E70C4B1868074BFC
:1056800019680431FBF7B7F9094B1B68A342EAD943
:10569000074B1C60E7E700BF104A0020144B0020B6
:1056A0000C4A0020584A0020184A00205C4A00207A
:1056B000F449002010B586B08C46099979B10A9951
:1056C000B1B154210491049954291AD04FF05003D8
:1056D00083F31188BFF36F8FBFF34F8FFEE74FF057
:1056E000500383F31188BFF36F8FBFF34F8FFEE733
:1056F0004FF0500383F31188BFF36F8FBFF34F8FC9
:10570000FEE7DDF810E00A99099C0C6302210A9C6F
:1057100084F8511000210391029405A90191089980
:1057200000916146FFF754FE0A98FFF7CDFE0598F9
:1057300006B010BD2DE9F04385B081468846144679
:105740001F469000FBF772F800B306465420FBF7A3
:105750006DF80546A0B12E63002380F85130039305
:1057600002900D9B01930C9B00933B4622464146C1
:105770004846FFF72DFE2846FFF7A6FE012007E06A
:105780003046FBF7DFF84FF0FF3001E04FF0FF301D
:1057900005B0BDE8F083000010B588B00024059482
:1057A000069407AA06A905A8FAF7CAFF059B029363
:1057B000069B019300942346079A0E490E48FFF773
:1057C00079FF0E4B186090B14FF0500383F31188AE
:1057D000BFF36F8FBFF34F8F094B4FF0FF321A604B
:1057E000084B01221A60084B1C60FBF7A5FC08B0AF
:1057F00010BD00BFA0640008F5550008F049002066
:10580000F4490020084A0020104A0020024A136888
:1058100001331360704700BFEC490020F8B53D4BE1
:105820001B68002B6ED13C4B1D6801351D60C5B94E
:105830003A4B1B681B6843B14FF0500383F3118848
:10584000BFF36F8FBFF34F8FFEE7344A1168344BBD
:10585000186810601960334A136801331360FFF74A
:10586000A1FD314B1B68AB4241D900231F462F4B92
:105870001B68DB6A03EB83039B002D4AD358012B83
:1058800001D901231F462B4B1B68002B40D001235D
:105890001F463DE001231F46204B1B681B684BB38E
:1058A0001E4B1B68DB68DC6863689D4227D3261D9E
:1058B0003046FBF7BCF8A36A1BB104F11800FBF7F4
:1058C000B6F8E06A012383401B4A11680B4313605A
:1058D00000EB80003146164B03EB8000FBF780F8AD
:1058E000E26A124B1B68DB6A9A42D3D2D4E70023E8
:1058F0001F46D1E70C4B4FF0FF321A60B7E70A4A58
:105900001360B4E70D4A13680133136000231F4688
:105910003846F8BDEC490020104A00205C4A0020BF
:10592000584A0020FC490020F4490020144B002074
:10593000884A0020004A00200C4A0020044A002027
:1059400038B5354B1B6843B94FF0500383F31188CA
:10595000BFF36F8FBFF34F8FFEE7FBF753FB2E4B69
:105960001A68013A1A601B68002B4FD12B4B1B6839
:105970000BB91C464BE00024294B1B681BB3284B7A
:10598000DB68DC6804F11800FBF751F8251D284698
:10599000FBF74DF8E06A01238340224A11680B436C
:1059A000136000EB800029461F4B03EB8000FBF7E0
:1059B00017F8E26A1D4B1B68DB6A9A42DCD31C4B6A
:1059C00001221A60D8E70CB1FFF7ECFC194B1C68F8
:1059D00084B9174B1C68D4B14FF0E0234FF08052CC
:1059E000C3F8042DBFF34F8FBFF36F8F01240EE078
:1059F000013C07D0FFF712FF0028F9D00C4B012221
:105A00001A60F5E70B4B00221A60E2E70024FBF76F
:105A10001BFB204638BD00BFEC490020144A002083
:105A2000444A00200C4A0020884A0020144B0020E1
:105A3000004A0020044A002010B5A8B10446104BCB
:105A40001B6843B14FF0500383F31188BFF36F8F8E
:105A5000BFF34F8FFEE7FFF7D9FE00212046FFF787
:105A6000DDFDFFF76DFF48B94FF0E0234FF08052A6
:105A7000C3F8042DBFF34F8FBFF36F8F10BD00BF6E
:105A8000EC490020204B1B681BB1204B01221A60FF
:105A900070471E4B00221A601D4B1B68B3FA83F33C
:105AA000DBB2C3F11F0303EB8302920019498A584A
:105AB00042B94FF0500383F31188BFF36F8FBFF3E8
:105AC0004F8FFEE7134803EB830200EB820251681D
:105AD0004968516003EB830292000832024491420C
