:020000040800F2
:100000000000022085850008D9550008DB5500084E
:10001000DD550008DF550008E1550008000000002C
:100020000000000000000000000000007110000847
:10003000E35500080000000011110008E555000814
:10004000D5850008D5850008D5850008D585000828
:10005000D5850008D5850008D5850008D585000818
:10006000D5850008D5850008D5850008D585000808
:10007000D5850008D5850008FD550008D585000800
:10008000D5850008D5850008D5850008D5850008E8
:10009000D5850008D5850008D5850008D5850008D8
:1000A000D5850008D5850008D5850008D5850008C8
:1000B000D5850008D5850008D5850008D5850008B8
:1000C000D5850008D5850008D58500080D5600089F
:1000D0001D560008D5850008D5850008D58500087F
:1000E000D5850008D5850008D5850008D585000888
:1000F000D5850008D5850008D5850008D585000878
:10010000D5850008D5850008D5850008D585000867
:10011000D5850008D5850008D5850008D585000857
:100120002D560008D5850008D5850008D58500081E
:10013000D5850008D5850008D5850008D585000837
:10014000D5850008D5850008D58500083D560008EE
:10015000D5850008D5850008D5850008D585000817
:10016000D5850008D5850008D5850008D585000807
:10017000D5850008D5850008D58500080000000059
:08018000D5850008D5850008B3
:1001900053B94AB9002908BF00281CBF4FF0FF31EE
:1001A0004FF0FF3000F00CB8ADF1080C6DE904CE53
:1001B00008F06AFBDDF804E0DDE9022304B07047D3
:1001C000704700BF08B5064B1A783AB9054A1AB10C
:1001D0000548AFF30080024B01221A7008BD00BF32
:1001E0008C00002000000000A88B000808B5034B1D
:1001F0001BB103490348AFF3008008BD00000000B5
:1002000090000020A88B0008842801D0033070479C
:1002100000207047EFF30580003818BF01207047B9
:1002200008B506F04DF9002008BD2DE9F04188B071
:100230000F464469C4B188468569ADB14668076810
:1002400002690592B0F90800FFF7DEFF02950194FC
:1002500000904346059A3946304606F0BFF80790AD
:10026000079808B0BDE8F081446805680669B0F9F0
:100270000800FFF7C9FF07AB019300903B46B2B2FD
:100280002946204606F0EAF80128E9D00020E8E7F0
:1002900008B500B9012006F063FA002008BD08B5D2
:1002A000416819B1012001F08FFA08BD012001F069
:1002B00080FAFAE730B583B00023019310B30D46FE
:1002C0000446FFF7A7FFA0B101AA0021204601F0D4
:1002D000D2FC012818D1019BC3B14FF0E0234FF0AD
:1002E0008052C3F8042DBFF34F8FBFF36F8F0020F0
:1002F00006E02946204601F0E8FB012808D100204D
:1003000003B030BD8020FBE7FF20F9E71846F7E790
:10031000FF20F5E710B582B0044600230193FFF7F4
:1003200079FF98B101A9204601F0C6FA01281AD137
:10033000019BD3B14FF0E0234FF08052C3F8042D5E
:10034000BFF34F8FBFF36F8F002008E003460246D4
:100350000146204601F05DF9012802D0FF2002B0DD
:1003600010BD0020FBE7FF20F9E71846F7E710B5BE
:1003700082B044687CB1012903D00024204602B039
:1003800010BD03230093234600221146012001F0F3
:10039000D2F80446F2E70129F0D1032221460120D8
:1003A00001F013F904460028E8D000231A46194644
:1003B00001F02FF9E2E770B582B00023019328B372
:1003C0000E460446FFF726FF0546B0B101AA0021FC
:1003D000204601F050FC01281BD1019B1D4693B122
:1003E0004FF0E0234FF08052C3F8042DBFF34F8F3E
:1003F000BFF36F8F00231D4605E03146204601F014
:1004000064FB012808D1284602B070BD80231D4638
:10041000F9E7FF231D46F6E7FF231D46F3E710B576
:1004200082B0044600230193FFF7F4FE98B101A9BE
:10043000204601F041FA01281AD1019BD3B14FF0B7
:10044000E0234FF08052C3F8042DBFF34F8FBFF36A
:100450006F8F002008E0034602460146204601F067
:10046000D8F8012802D0FF2002B010BD0020FBE721
:10047000FF20F9E71846F7E700B583B0826842B17C
:10048000C36833B1002100914168006801F053F85E
:1004900004E000224168006801F097F803B000BD55
:1004A00030B585B0044601910023039315460AB97F
:1004B00001231D46FFF7AEFEA8B1002303AA01A940
:1004C000204601F090F9012818D1039BC3B14FF0E9
:1004D000E0234FF08052C3F8042DBFF34F8FBFF3DA
:1004E0006F8F002008E003462A4601A9204601F04C
:1004F00090F8012806D1002005B030BDFF20FBE7B1
:100500001846F9E7FF20F7E770B584B00546029179
:1005100000230193E1B10C46164600230393FFF735
:1005200079FEF8B103AA01A9204601F0A4FB012835
:1005300015D000230093039BFBB14FF0E0234FF055
:100540008052C3F8042DBFF34F8FBFF36F8F14E0B9
:10055000802300939DE8070085E8070011E0102341
:100560000093E8E7324601A9204601F0FFF901288F
:100570000AD00EB140231E4600969DE8070085E88C
:100580000700284604B070BD10230093F5E710B5AE
:100590000446FFF73FFE18B1204601F0D8FB10BD1E
:1005A000204601F0C0FBFAE7002312E030F91320E7
:1005B00007EE902AF8EEE77A67EE807AFDEEE77AAA
:1005C00017EE902A20F813205A1C002120F8121050
:1005D00002333F2BEADD7047B7EE006A36EE406A21
:1005E000002337E030F9132007EE102AB8EEC77A5F
:1005F000991C30F9112007EE902AF8EEE77A20EEE8
:10060000077A164AD2ED006A66EE266A37EE267A37
:1006100082ED007A60EE277A114AD2ED006A66EE2A
:10062000266A77EEA67AC2ED007ABDEEC77A17EE9B
:10063000102A20F8132003F1010C002220F81C20BE
:10064000FDEEE77A17EE90CA20F811C0D91C20F809
:10065000112004333F2BC5DD704700BFAC000020E4
:10066000A80000202DE9F0410C4601B901244FF00B
:10067000000E5DE0314E338803F50072121B5142CB
:10068000C2F30802C1F3080158BF4A4230F91EC044
:100690000EF1020530F9151092B2DFF8B08038F98A
:1006A000127006EE907A264F37F9122007EE102AC4
:1006B00028F813C027F8131001335A42C3F3080374
:1006C000C2F3080258BF5342338007EE90CAF8EED7
:1006D000E77ADFED1C5A67EEA57AF8EEE66A9FED41
:1006E0001A6A66EE866A77EEA67AFDEEE77A17EE6C
:1006F000903A20F81E300EF10102002320F812304B
:1007000007EE901AF8EEE77A67EEA57AB8EEC77AA8
:1007100027EE067A77EE877AFDEEE77A17EE902AD3
:1007200020F815200EF1030220F812300EF1040E0D
:10073000BEF13F0F9EDDBDE8F08100BFB00000209C
:10074000B40000203333333F9A99993EB40400201B
:1007500000B587B0802200211F4807F0F7FF05E0B1
:1007600014F0020F2BD114F0040F2ED11B4E1A4C93
:100770004FF0FF350095202332462146184803F0FC
:100780008DFA80223146204608F024F8154C29467F
:100790002068FFF78FFD144B93E8070006AB03E9D1
:1007A00007002068FFF7B6FD9DF8164014F0010F12
:1007B000D6D09DED030A0848FFF7F6FED0E79DED81
:1007C000040A0548FFF708FFCDE7BDF814100248FA
:1007D000FFF748FFCAE700BFB40800203409002033
:1007E000B4490020B409002000000020034B03603E
:1007F000034B0B6080231360704700BFB80B0020D1
:10080000B8090020124A12F0070F1ED0D11D21F0A6
:100810000701C1F5705313440A460E4802600021D7
:1008200041601344083B23F007030B480360596001
:100830001960991A51601360084B1960084B1960D0
:10084000084B4FF000421A6070474FF47053E4E7D2
:100850002C0C0020240C0020200C0020180C002060
:100860001C0C00200C0C0020144B1A461B68834201
:10087000FBD3516802EB010C844509D0416800EBC1
:10088000010C634509D00360904200D010607047AE
:100890004068014451601046F0E7DFF824C0DCF8FE
:1008A00000C0634506D05B681944416013681B684B
:1008B0000360E9E7C0F800C0E6E700BF240C0020B1
:1008C000200C002038B5044605F034FE384B1B6878
:1008D000B3B1384B1B681C4250D1002C50D004F1EE
:1008E000080214F0070F02D022F007020832002A93
:1008F00055D0314B1B68934253D330490C6804E008
:10090000FFF780FFE5E721461C466368934202D269
:100910002368002BF7D1264B1B68A34243D00D68F8
:10092000083523680B6063689B1A102B10D9A01838
:1009300010F0070F08D04FF0500383F31188BFF376
:100940006F8FBFF34F8FFEE743606260FFF78CFF4E
:10095000626819490B689B1A0B60194909688B4238
:1009600001D217490B60134B1B68134363600023CC
:100970002360144A13680133136002E0002500E08D
:10098000254605F071FE15F0070F0ED04FF050030D
:1009900083F31188BFF36F8FBFF34F8FFEE71546C8
:1009A000EFE70025EDE70025EBE7284638BD00BF5F
:1009B000200C00200C0C00201C0C0020240C00201B
:1009C000180C0020140C0020002835D038B504463F
:1009D000A0F108031D4650F8043C184A126813425F
:1009E00008D14FF0500383F31188BFF36F8FBFF32B
:1009F0004F8FFEE750F8081C41B14FF0500383F3CE
:100A00001188BFF36F8FBFF34F8FFEE723EA020316
:100A100040F8043C05F08EFD54F8041C084A1368A5
:100A20000B4413602846FFF71FFF064A1368013383
:100A3000136005F019FE38BD704700BF0C0C002094
:100A40001C0C0020100C002000F1080343604FF044
:100A5000FF328260C360036100230360704700239C
:100A60000361704743684B609A688A60516099607F
:100A70000861036801330360704710B402460846FA
:100A8000D1F800C0BCF1FF3F11D002F108031946B4
:100A90005B681C686445FAD94B6843609860816064
:100AA0004860026113680133136010BC704711691C
:100AB000F2E70369416882688A60416851605A6858
:100AC000824206D0002202611A68013A1A60186850
:100AD000704782685A60F5E72DE9F04F8DB007AD99
:100AE00000240794089409940A940B940194594B98
:100AF0001A6B42F010021A631A6B02F01002019294
:100B0000019A02941A6B42F004021A631A6B02F003
:100B100004020292029A03941A6B42F080021A6352
:100B20001A6B02F080020392039A04941A6B42F04B
:100B300001021A631A6B02F001020492049A0594EE
:100B40001A6B42F002021A631A6B02F0020205925B
:100B5000059A06941A6B42F008021A631B6B03F0A5
:100B600008030693069B3C4F22460821384601F0B5
:100B70005DFDDFF8F0A001221146504601F056FD60
:100B8000DFF8E49022464FF21001484601F04EFD96
:100B90004FF00808CDF81C800126089609940A94A5
:100BA0002946384601F03EFC0796089609940A94B7
:100BB0002946504601F036FCCDF81C804FF0020863
:100BC000CDF8208009940A944FF0050BCDF82CB095
:100BD0002946504601F026FC07964FF4901ACDF8AE
:100BE00020A0099429461D4801F01CFC042307930A
:100BF0000894099429461A4801F014FC4FF48063C4
:100C00000793CDF8208009940A94CDF82CB029469A
:100C1000134801F007FC4FF210030793089609945C
:100C20000A942946484601F0FDFB202307930894C7
:100C300009942946484601F0F5FBCDF81C80CDF813
:100C400020A009942946384601F0ECFB0DB0BDE820
:100C5000F08F00BF00380240001002400000024048
:100C60000004024000080240000C024010B582B0AF
:100C700000240094124B1A6B42F400121A631A6B90
:100C800002F400120092009A01941A6B42F480025E
:100C90001A631B6B03F480030193019B2246052119
:100CA0000E2001F077F90E2001F084F9224605218B
:100CB000382001F06FF9382001F07CF902B010BD46
:100CC0000038024008B505F0AFFF4FF480510448EA
:100CD00001F0B2FC4FF4FA70FFF7DAFAF5E700BF63
:100CE000000C024008B502680C4B9A4200D008BDC7
:100CF0000B490A780B4B1A704A780B4B1A704FF459
:100D000000410A4801F098FC094B1868FFF787FB7F
:100D100002220349074804F0BFFAE8E70038004020
:100D2000304800202D4800202C480020000C0240B4
:100D3000344800200449002072B6FEE708B50A488E
:100D40000A4B03600A4B436000238360C3604FF487
:100D50008042026143618361C361036202F0E4FC8B
:100D600000B908BDFFF7E8FFFC490020005400402F
:100D7000A086010008B50C480C4B03604FF40072CC
:100D80004260002383600321C16002614FF4FA4294
:100D900042618361C3610123036202F0B1FD00B9C6
:100DA00008BDFFF7C9FF00BFB4490020003C004068
:100DB00008B50A480A4B0360002343608360C360A0
:100DC0000361436183610362436283620A23C362F6
:100DD00004F054F900B908BDFFF7AEFF5C490020EC
:100DE0000030014008B50A480A4B03600023436005
:100DF0008360C36003614361836103624362836212
:100E00000A23C36204F03AF900B908BDFFF794FF62
:100E1000044900200038004010B594B008AC3022DE
:100E20000021204607F092FC0023039304930593CE
:100E3000069307930193204A116C41F0805111648D
:100E4000126C02F080520192019A02931B4B1A68B5
:100E500042F480421A601B6803F480430293029BB1
:100E6000012308934FF48033099302230E934FF428
:100E700080020F92082210924FF4A87211921293DE
:100E800007231393204603F0F7FB88B90F2303933E
:100E90000223049305904FF4A05306934FF480531C
:100EA0000793052103A803F053FE18B914B010BD31
:100EB000FFF742FFFFF740FF00380240007000409C
:100EC00000B59FB000F0CEFF19A9002419944C6022
:100ED0008C60CC600C614FF48053199301251A95F6
:100EE0002F4801F09FFAFFF797FFFFF7F5FDFFF797
:100EF000BDFEFFF723FFFFF73DFFFFF759FFFFF7A9
:100F000071FF02222749284804F0C6F91794189463
:100F100017A8FFF7C4F9254B1860159416942946B5
:100F200015A8FFF724FA224B18602146FFF743FA71
:100F3000204D0DF1380CAE46BEE80F00ACE80F00B6
:100F40009EE807008CE8070021460EA8FFF76DF920
:100F5000194B18600DF11C0C05F11C0EBEE80F00BA
:100F6000ACE80F009EE807008CE80700214607A8C0
:100F7000FFF75BF9114B1860EE4605F1380CBCE841
:100F80000F00AEE80F009CE807008EE8070021463E
:100F90006846FFF74AF90A4B1860FFF741F9FEE788
:100FA000000C02403048002004490020B409002011
:100FB00034480020C08B0008404800203C480020F6
:100FC0003848002082B0002301930D4B1B68B3F119
:100FD000FF3F08D04FF0500383F31188BFF36F8FAA
:100FE000BFF34F8FFEE74FF0500383F31188BFF339
:100FF0006F8FBFF34F8F019B002BFCD002B0704767
:101000000C00002008480068006880F308884FF052
:10101000000080F3148862B661B6BFF34F8FBFF350
:101020006F8F00DF00BF000008ED00E0DFF80C006C
:10103000016841F4700101607047000088ED00E034
:101040004FF0807340F8043C21F0010140F8081C87
:10105000054B40F80C3C40F8202C6FF0020340F8A0
:10106000243C4438704700BFC50F00080000000052
:10107000074B19680868B0E8F04F80F30988BFF3A0
:101080006F8F4FF0000080F311887047AFF300803E
:10109000884B00204FF0500383F31188BFF36F8F0C
:1010A000BFF34F8F0B4A136801331360012B00D03D
:1010B00070474FF0E023D3F8043D13F0FF0FF7D053
:1010C0004FF0500383F31188BFF36F8FBFF34F8F3F
:1010D000FEE700BF0C000020094B1B6843B94FF02E
:1010E000500383F31188BFF36F8FBFF34F8FFEE779
:1010F000013B034A13600BB983F31188704700BFAB
:101100000C000020000000000000000000000000B3
:10111000EFF30980BFF36F8F154B1A681EF0100FA5
:1011200008BF20ED108A20E9F04F106009B44FF09D
:10113000500080F31188BFF34F8FBFF36F8F05F01E
:1011400035FB4FF0000080F3118809BC196808686E
:10115000B0E8F04F1EF0100F08BFB0EC108A80F31B
:101160000988BFF36F8F7047AFF30080AFF3008043
:10117000884B002008B54FF0500383F31188BFF36C
:101180006F8FBFF34F8F05F0DDF928B14FF0E023EB
:101190004FF08052C3F8042D002383F3118808BD5B
:1011A0004FF0E022002313619361054B1B68054952
:1011B000A1FB03139B09013B536107231361704794
:1011C00018000020D34D62104FF0E023D3F8002D1B
:1011D0003E4B9A421CD04FF0E023D3F8002D3C4BFD
:1011E0009A421ED010B582B03A4B1A78D2B2019210
:1011F000FF221A701B78DBB28DF803309DF80330A4
:1012000003F05003344A1370344B07221A601BE07A
:101210004FF0500383F31188BFF36F8FBFF34F8FED
:10122000FEE74FF0500383F31188BFF36F8FBFF3D6
:101230004F8FFEE7294A1368013B13609DF8033086
:101240005B00DBB28DF803309DF8033013F0800FA4
:10125000F0D1224B1B68032B08D04FF0500383F3CF
:101260001188BFF36F8FBFF34F8FFEE71B021B4A3E
:10127000136003F4E0631360019BDBB2154A137043
:101280004FF0E022D2F8203D43F47003C2F8203D35
:10129000D2F8203D43F070431446C2F8203DFFF7DA
:1012A0007FFF0F4B00221A60FFF7C0FED4F8343FD7
:1012B00043F04043C4F8343FFFF7A4FE05F076FA4C
:1012C000FFF780FE002002B010BD00BF71C20F41C9
:1012D00070C20F4100E400E0544A0020504A002050
:1012E0000C000020EFF305830F2B0ED9114A9A5CF6
:1012F000114B1B789A4208D24FF0500383F31188A8
:10130000BFF36F8FBFF34F8FFEE74FF0E023D3F8AB
:101310000C3D03F4E063094A1268934208D94FF088
:10132000500383F31188BFF36F8FBFF34F8FFEE736
:10133000704700BFF0E300E0544A0020504A00200C
:101340000346406A18B11B6B1868C0F1070070476C
:1013500010B50446FFF79EFEA26BE36B9A4204D0E1
:101360000024FFF7B9FE204610BD0124F9E710B5AF
:101370000446FFF78FFEA36B2BB901231C46FFF732
:10138000ABFE204610BD00231C46F8E770B50446AE
:101390001646856B026C5AB903681BB100200135F3
:1013A000A56370BD806805F069FB0023A360F6E7C4
:1013B0006EB9406807F00EFA6368226C13446360EC
:1013C000A268934219D3236863603046E7E7C06898
:1013D00007F000FAE368226C51429B1AE36022682E
:1013E000934202D2A3680B44E360022E01D0002096
:1013F000D5E725B1013D0020D1E73046CFE72846AB
:10140000CDE70346026C6AB110B50846D9681144AD
:10141000D9609C68A14201D31968D960D96807F0E6
:10142000D9F910BD704738B50546FFF733FE95F87A
:10143000454064B201E0013C64B2002C0ADD6B6AF5
:1014400043B105F1240005F015FA0028F3D005F0AA
:10145000A9FAF0E7FF2385F84530FFF73DFEFFF7D7
:1014600019FE95F8444064B201E0013C64B2002CDE
:101470000ADD2B6943B105F1100005F0FBF90028E6
:10148000F3D005F08FFAF0E7FF2385F84430FFF73B
:1014900023FE38BD38B5E0B10D460446FFF7FAFD2E
:1014A0002368E26B216C01FB0230A0600020A06386
:1014B0006360013A02FB0133E360FF2384F84430A8
:1014C00084F84530FDB9236963B9FFF705FE0120B3
:1014D00038BD4FF0500383F31188BFF36F8FBFF314
:1014E0004F8FFEE704F1100005F0C4F90028ECD09E
:1014F0004FF0E0234FF08052C3F8042DBFF34F8F1D
:10150000BFF36F8FE1E704F11000FFF79DFA04F1DC
:101510002400FFF799FAD8E708B5034602988C46ED
:1015200039B90060C363C0F840C00121FFF7B2FFC2
:1015300008BD0260F6E740B94FF0500383F311880D
:10154000BFF36F8FBFF34F8FFEE710B584B01C461B
:10155000844653B192B189B94FF0500383F3118897
:10156000BFF36F8FBFF34F8FFEE74FF0500383F34E
:101570001188BFF36F8FBFF34F8FFEE76AB1482327
:101580000393039B482B13D04FF0500383F3118830
:10159000BFF36F8FBFF34F8FFEE70029EFD04FF0FF
:1015A000500383F31188BFF36F8FBFF34F8FFEE7B4
:1015B000039B012384F8463000949DF81830604660
:1015C000FFF7AAFF204604B010BD40B94FF050030A
:1015D00083F31188BFF36F8FBFF34F8FFEE7F0B532
:1015E00083B0164604460D4601FB00F04830FFF775
:1015F00069F90246074648B1002380F8463000905A
:101600003346483229462046FFF786FF384603B066
:10161000F0BDF0B585B0019288B10F461D46044675
:10162000B1B1022D20D1E36B012B1DD04FF050033F
:1016300083F31188BFF36F8FBFF34F8FFEE74FF037
:10164000500383F31188BFF36F8FBFF34F8FFEE713
:10165000036C002BE5D04FF0500383F31188BFF3E8
:101660006F8FBFF34F8FFEE705F0A2F9064658B91A
:10167000019B002B48D04FF0500383F31188BFF338
:101680006F8FBFF34F8FFEE700263DE02A463946B5
:101690002046FFF77BFE636A7BB948B14FF0E02339
:1016A0004FF08052C3F8042DBFF34F8FBFF36F8FFD
:1016B000FFF712FD012005B0F0BD04F1240005F094
:1016C000D9F80028F4D04FF0E0234FF08052C3F84F
:1016D000042DBFF34F8FBFF36F8FE9E7FFF7FCFCDB
:1016E0000020E8E702A805F00DF9012619E0002323
:1016F00084F8443021E0002384F8453023E020467C
:10170000FFF791FE04F0B0FFFFF7C4FCA26BE36BA0
:101710009A42BBD3022DB9D0019B002BDED0002E04
:10172000E0D0FFF7D9FC04F005FFFFF7B3FC94F815
:10173000442052B2B2F1FF3FD9D094F8452052B2C2
:10174000B2F1FF3FD7D0FFF7C7FC01A902A805F00F
:10175000E5F8D8B92046FFF7FBFD0028CFD0019966
:1017600004F1100005F06EF82046FFF75CFE04F06F
:101770007BFF0028C8D14FF0E0234FF08052C3F820
:10178000042DBFF34F8FBFF36F8FBDE72046FFF7E8
:101790004AFE04F069FF00208DE748B108B500213A
:1017A00081600160C1600B460A46FFF732FF08BD49
:1017B000704710B5024600210120FFF706FF0446DE
:1017C000FFF7EBFF204610BD10B582B00B4600902E
:1017D000002211460120FFF7AEFE0446FFF7DDFFB1
:1017E000204602B010BD2DE9F84390B10F46904657
:1017F0001E460446B1B1022E20D1E36B012B1DD051
:101800004FF0500383F31188BFF36F8FBFF34F8FF7
:10181000FEE74FF0500383F31188BFF36F8FBFF3E0
:101820004F8FFEE7036C002BE5D04FF0500383F39E
:101830001188BFF36F8FBFF34F8FFEE7FFF752FDA5
:10184000EFF311834FF0500282F31188BFF36F8FD3
:10185000BFF34F8F9946A26BE36B9A4206D3022ED9
:1018600004D0002089F31188BDE8F88394F845304E
:101870005DB2A36B324639462046FFF787FDB5F1CE
:10188000FF3F06D02B4601335BB284F84530012080
:10189000E8E7636A0BB90120E4E704F1240004F0EF
:1018A000E9FF28B143462BB10120C8F80000D9E771
:1018B0000120D7E70120D5E768B170B50D46044691
:1018C000036C8BB14FF0500383F31188BFF36F8F1C
:1018D000BFF34F8FFEE74FF0500383F31188BFF340
:1018E0006F8FBFF34F8FFEE70368F3B1FFF7FAFC8A
:1018F000EFF311834FF0500282F31188BFF36F8F23
:10190000BFF34F8F1E46A26BE36B934226D994F828
:1019100045305BB20132A263B3F1FF3F11D0013316
:101920005BB284F84530012019E08368002BDDD0DC
:101930004FF0500383F31188BFF36F8FBFF34F8FC6
:10194000FEE7636A0BB9012009E004F1240004F00A
:1019500091FF38B145B10120286000E0002086F3F6
:10196000118870BD0120FAE70120F8E7F0B585B0D5
:10197000019290B10F460446C1B105F019F8064630
:1019800000BB019B002B5ED04FF0500383F3118806
:10199000BFF36F8FBFF34F8FFEE74FF0500383F31A
:1019A0001188BFF36F8FBFF34F8FFEE7036C002BDF
:1019B000E3D04FF0500383F31188BFF36F8FBFF371
:1019C0004F8FFEE700263EE039462046FFF719FD1F
:1019D000013DA563236923B9FFF77EFB012005B014
:1019E000F0BD04F1100004F045FF0028F4D04FF0E2
:1019F000E0234FF08052C3F8042DBFF34F8FBFF3A5
:101A00006F8FE9E7FFF768FB2846E8E702A804F0D4
:101A100079FF012621E0002384F8443029E00023E7
:101A200084F845302BE02046FFF7FDFC04F01CFE57
:101A300009E02046FFF7F7FC04F016FE2046FFF70A
:101A400096FC00283FD1FFF725FBA56B002DBBD1ED
:101A5000019B002BD6D0002ED8D0FFF73DFB04F021
:101A600069FDFFF717FB94F844305BB2B3F1FF3F19
:101A7000D1D094F845305BB2B3F1FF3FCFD0FFF740
:101A80002BFB01A902A804F049FF0028D1D1204670
:101A9000FFF76DFC0028C6D0019904F1240004F082
:101AA000D1FE2046FFF7BFFC04F0DEFD0028CAD1BE
:101AB0004FF0E0234FF08052C3F8042DBFF34F8F57
:101AC000BFF36F8FBFE7002089E770B584B0019145
:101AD00058B10446036C8BB14FF0500383F3118867
:101AE000BFF36F8FBFF34F8FFEE74FF0500383F3C9
:101AF0001188BFF36F8FBFF34F8FFEE704F058FFDD
:101B0000054650B9019B63B14FF0500383F3118830
:101B1000BFF36F8FBFF34F8FFEE700231E461D46B6
:101B200056E0064654E0013BA363236843B12369B2
:101B300053B9FFF7D1FA01231E46304604B070BDF9
:101B400005F04EF8A060F2E704F1100004F092FEF8
:101B50000028EED04FF0E0234FF08052C3F8042D60
:101B6000BFF34F8FBFF36F8FE3E746B14FF05003E2
:101B700083F31188BFF36F8FBFF34F8FFEE7FFF73B
:101B8000ABFADAE702A804F0BDFE01252AE0002343
:101B900084F8443032E0002384F8453034E0FFF725
:101BA00079FAA06804F014FF0646FFF795FA3BE0C7
:101BB0002046FFF738FC04F057FD09E02046FFF708
:101BC00032FC04F051FD2046FFF7D1FB002842D142
:101BD000FFF760FAA36B002BA5D1019B002BC4D0AB
:101BE000002DCFD0FFF778FA04F0A4FCFFF752FAEB
:101BF00094F844305BB2B3F1FF3FC8D094F845305D
:101C00005BB2B3F1FF3FC6D0FFF766FA01A902A8A5
:101C100004F084FE0028D1D12046FFF7A8FB00285D
:101C2000C6D02368002BBAD0019904F1240004F037
:101C300009FE2046FFF7F7FB04F016FD0028C7D188
:101C40004FF0E0234FF08052C3F8042DBFF34F8FC5
:101C5000BFF36F8FBCE716B900231E466DE7FFF791
:101C600019FA2046FFF76CFB0146A06804F05EFFFE
:101C7000FFF732FAF0E72DE9F843C0B10E4690467F
:101C80000446E9B1FFF72EFBEFF311834FF050024A
:101C900082F31188BFF36F8FBFF34F8F1F46A36B83
:101CA0009946CBB9184687F31188BDE8F8834FF001
:101CB000500383F31188BFF36F8FBFF34F8FFEE79D
:101CC000036C002BDED04FF0500383F31188BFF379
:101CD0006F8FBFF34F8FFEE794F844305DB231460B
:101CE0002046FFF78EFB09F1FF33A363B5F1FF3FF9
:101CF00006D02B4601335BB284F844300120D2E792
:101D000023690BB90120CEE704F1100004F0B2FD05
:101D100028B143462BB10120C8F80000C3E70120D9
:101D2000C1E70120BFE748B110B50446FFF7B2F99B
:101D3000A36B1C46FFF7D0F9204610BD4FF05003AF
:101D400083F31188BFF36F8FBFF34F8FFEE708B1A6
:101D5000806B70474FF0500383F31188BFF36F8F90
:101D6000BFF34F8FFEE7000008B51CE0254C0122B1
:101D70004FF48051204600F059FC234B1B7807EEAE
:101D8000903AF8EEE77AF2EE046A87EEA67A1F4BF5
:101D900083ED007A6420FEF77BFA00224FF4805135
:101DA000204600F043FC4FF0FF31194B1868FEF756
:101DB00002FB0028F7D1174B1B78012BD6D0154B0F
:101DC0001B78022B05D04FF480410E4800F034FC04
:101DD000E9E70C4C01224FF40051204600F026FCAC
:101DE000094B1B7803EB43031B01084A1381642052
:101DF000FEF74EFA00224FF40051204600F016FC88
:101E0000D1E700BF000C02402C4800200000002059
:101E1000344800202D48002010B504460E4B1868A9
:101E20000E4B1A784FF47A73B3FBF2F3B0FBF3F076
:101E300000F0C4F868B90F2C01D901200AE002466D
:101E400021464FF0FF3000F0A5F8054B1C60002044
:101E500000E0012010BD00BF18000020100000208D
:101E60001400002008B50B4B1A6842F400721A6087
:101E70001A6842F480621A601A6842F480721A602A
:101E8000032000F075F80F20FFF7C6FF02F05AFAA2
:101E9000002008BD003C0240034A1168034B1B7838
:101EA0000B441360704700BF584A00201000002008
:101EB000014B1868704700BF584A002038B50446E7
:101EC000FFF7F6FF0546B4F1FF3F02D0044B1B7845
:101ED0001C44FFF7EDFF401BA042FAD338BD00BF02
:101EE00010000020002807DB00F01F02400901233A
:101EF0009340024A42F82030704700BF00E100E002
:101F0000002808DB0901C9B200F1604000F561401A
:101F100080F80013704700F00F000901C9B2014BAF
:101F20001954704714ED00E000B500F00700A0F16F
:101F3000030CBCF1040F07D8C0F1070E04300628CB
:101F400006D84FF0000C03E04FF0040E4FF0000CE9
:101F50004FF0FF3303FA0EF021EA000101FA0CF111
:101F600003FA0CF322EA030241EA020000BD00007A
:101F7000074AD36823F4E0631B041B0C000200F43F
:101F8000E060034343F0BF6343F40033D360704722
:101F900000ED00E010B50446054BD868C0F3022000
:101FA000FFF7C2FF01462046FFF7AAFF10BD00BFA2
:101FB00000ED00E008B5FFF795FF08BD0138B0F16E
:101FC000807F0BD24FF0E0235861054AF02182F860
:101FD00023100020986107221A6170470120704782
:101FE00000ED00E010B5D0F800E0DEF800C02CF401
:101FF000802CCEF800C0046863608368402B04D056
:10200000036899600368DA6010BD03689A6003682A
:10201000D960F9E70368D9B210390A4AA2FB01C2B4
:102020001209DFF824C01CF80220C2655F2905D917
:102030006FF3090304338365806D70476FF3090301
:102040008365F9E7ABAAAAAA748C0008836A82693F
:1020500092B9012B0AD0022B02D00BB1002070479D
:10206000C36A13F0807F2CD100207047C36AB3F19C
:10207000C07F28D000207047B2F5005F09D0022B46
:102080002BD9032B2BD1C36A13F0807F29D10020D9
:102090007047022B19D00AD8CBB1012B05D1C36AE6
:1020A00013F0807F15D10020704700207047032B6C
:1020B00005D1C36AB3F1C07F0DD000207047002066
:1020C00070470120704701207047012070470120B0
:1020D00070470120704701207047012070470020A1
:1020E000704701207047000070B50446FFF7E0FE1E
:1020F000002C5CD00546022384F83530002384F898
:1021000034302268136823F00103136023681A68CF
:1021100012F0010F0AD0FFF7CBFE431B052BF5D9B8
:1021200020236365032084F8350070BD1A682149B7
:1021300011406268A0680243E068024320690243DC
:1021400060690243A0690243E0690243206A0243D6
:102150000A43616A04291FD01A6023681E465D691C
:1021600025F00705636A1D43042B07D1A36A1D43AD
:10217000E36A1BB12046FFF769FF90B975612046FD
:10218000FFF748FFE26D3F239340836000206065C6
:10219000012384F83530C8E7E16A206B01430A4324
:1021A000DAE740236365012084F83500BDE70120AC
:1021B000BBE700BF3F8010F038B50446806D054690
:1021C00094F8340001282AD0012084F8340094F8CF
:1021D0003500012804D0002384F83430022038BDB3
:1021E000022084F83500002060652046FFF7FAFEE3
:1021F000E26D3F239340AB602268136843F01603FF
:102200001360236C23B12268136843F00803136042
:102210002268136843F0010313600020DFE7022007
:10222000DDE790F83530022B03D080234365012091
:102230007047052380F835300268136823F00103E6
:102240001360002070470000F0B583B004460023FF
:102250000193724B1D68724BA3FB0535AD0A876D68
:102260003E68C26D08239340334210D003681A6859
:1022700012F0040F0BD01A6822F004021A60C26D2B
:1022800008239340BB60436D43F001034365E26D57
:1022900001239340334209D02268526912F0800F23
:1022A00004D0BB60636D43F002036365E26D0423F9
:1022B0009340334209D02268126812F0020F04D012
:1022C000BB60636D43F004036365E26D10239340CC
:1022D000334224D02268126812F0080F1FD0BB606E
:1022E00023681A6812F4802F0DD01B6813F4002F96
:1022F00004D1236C9BB12046984710E0A36C73B1C6
:10230000204698470BE01A6812F4807F03D11A68C0
:1023100022F008021A60236C0BB120469847E26D48
:1023200020239340334254D02268126812F0100FD9
:102330004FD0BB6094F83530052B0ED023681A6857
:1023400012F4802F33D01B6813F4002F2AD1636C52
:10235000002B3ED0204698473BE02268136823F0CC
:10236000160313602268536923F080035361236CC2
:10237000A3B12268136823F008031360E26D3F23C2
:102380009340BB60012384F83530002384F8343057
:10239000236D002B3FD0204698473CE0A36C002BD8
:1023A000E7D1EBE7E36BA3B12046984711E01A6849
:1023B00012F4807F09D11A6822F010021A600123FA
:1023C00084F83530002384F83430E36B0BB12046B9
:1023D0009847636DFBB1636D13F0010F17D00523B0
:1023E00084F835302268136823F001031360019BE1
:1023F00001330193AB4204D823681B6813F0010F2B
:10240000F5D1012384F83530002384F83430E36CAF
:102410000BB12046984703B0F0BD00BF1800002064
:10242000B5814E1B70B582B08E46002369E0856889
:102430004FEA430C032101FA0CF125EA0105DEF80D
:102440000C1001FA0CF129438160416821EA020174
:10245000DEF80420C2F300129A400A43426065E0AD
:10246000D908083150F8212003F00705AD004FF0DE
:102470000F0C0CFA05FC22EA0C0CDEF81020AA4026
:1024800042EA0C0240F8212067E0072200E0002227
:1024900002FA0CF22A430231604D45F82120604ACD
:1024A0009168E24321EA0405DEF8046016F4801F17
:1024B00001D044EA01055A498D60C96802EA010564
:1024C000DEF8046016F4001F01D044EA0105544907
:1024D000CD60496802EA0105DEF8046016F4003FA9
:1024E00001D044EA01054E494D6009680A40DEF812
:1024F000045015F4803F01D044EA010248490A60C3
:1025000001330F2B00F2878001229A40DEF8001081
:1025100001EA020432EA0101F2D1DEF8041001F00E
:10252000030C0CF1FF3CBCF1010F80D9DEF8042054
:1025300002F00302032A0AD0C1685D000322AA4008
:1025400021EA0201DEF80820AA400A43C260DEF850
:10255000042002F00302022A82D001684FEA430CF1
:10256000032202FA0CF221EA0201DEF8042002F052
:10257000030202FA0CF20A430260DEF8042012F4AD
:10258000403FBDD000220192264A516C41F4804167
:102590005164526C02F480420192019A99088D1C98
:1025A0001E4A52F8255003F0030C4FEA8C0C0F2200
:1025B00002FA0CF225EA02051B4A90423FF467AF8B
:1025C00002F5806290421AD002F58062904218D0E3
:1025D00002F58062904216D002F58062904214D0DB
:1025E00002F58062904212D002F58062904210D0D3
:1025F00002F5806290423FF448AF082248E701228A
:1026000046E7022244E7032242E7042240E705228C
:102610003EE706223CE702B070BD00BF0038014033
:10262000003C014000380240000002400AB18161D4
:102630007047090481617047436901EA030221EA96
:10264000030141EA0241816170470000F8B5046866
:10265000226A02F00F031F46C2F34343C2F30A1279
:10266000022B00D0F8BD05461046002AFAD0C7EB71
:10267000071305EB8303D96A0029F3D0C7EB0713CF
:1026800005EB83039A6B02445B6B9A4207D9C7EB55
:10269000071305EB8303042283F84C20E2E7064688
:1026A0000246204603F0B2F8C7EB071305EB83039D
:1026B000DA6A3244DA629A6B32449A6304EB471462
:1026C000D4F810251B8DB342CCD10D4B1340002BF9
:1026D000C8D0D4F8003523F0804343F00043C4F859
:1026E0000035C7EB071305EB830393F83C20C7EBDA
:1026F000071305EB830382F0010283F83C20B1E766
:102700000000F81F002843D030B583B004460368AA
:102710001D4690F8D533BBB1032384F8D533B5F10A
:10272000A04F16D0206803F00CF8237C8DF8003001
:10273000231D0ECB206802F0B5FF68B1022384F898
:10274000D533012003B030BD80F8D43304F0AEFCA3
:10275000E2E70023A371E5E70121206803F08AF88E
:1027600020B1022384F8D5330120EBE7237C8DF8D8
:102770000030231D0ECB206803F0AEF818B90123FA
:1027800084F8D533DEE7022384F8D5330120D9E776
:102790000120704738B5144615469DF81020BDF845
:1027A00018E0C1EB011C00EB8C0C8CF817408CF886
:1027B0002630A2BBC1EB011C00EB8C0C4FF00304D4
:1027C0008CF82A409DF81C408CF81940022B00F030
:1027D00085802DD8002B40D0012B06D1C1EB0113F1
:1027E00000EB8303002283F82A20C1EB011300EBE6
:1027F0008303059ADA62C3F834E0002283F84C20A0
:102800009A63597583F84D20C1EB0111890010318D
:10281000014482790431006803F092FA38BDC1EBBB
:10282000011C00EB8C0C4FF002048CF82A40CDE721
:10283000032BDAD1002D40F08880C1EB011300EBAF
:10284000830393F83D30002B77D1C1EB011300EBEC
:102850008303002283F82A20C7E7012AC5D1FDB9E6
:10286000BEF1000F05D1C1EB011300EB830383F828
:102870003D20C1EB011300EB830393F83D303BB9DE
:10288000C1EB011300EB8303002283F82A20ACE79D
:10289000C1EB011300EB8303022283F82A20A4E793
:1028A000C1EB011300EB83039B7E012B9DD1C1EB98
:1028B000011300EB830393F83C303BB9C1EB0113E8
:1028C00000EB8303002283F82A208EE7C1EB01137B
:1028D00000EB8303022283F82A2086E7B5B9C1EB17
:1028E000011300EB830393F83D303BB9C1EB0113B7
:1028F00000EB8303002283F82A2076E7C1EB011363
:1029000000EB8303022283F82A206EE7C1EB011358
:1029100000EB830393F83C303BB9C1EB011300EBB0
:102920008303002283F82A205FE7C1EB011300EB49
:102930008303022283F82A2057E7C1EB011300EB3F
:102940008303022283F82A204FE7C1EB011300EB37
:10295000830393F83C303BB9C1EB011300EB8303D5
:10296000002283F82A2040E7C1EB011300EB830328
:10297000022283F82A2038E730B583B00446056880
:10298000D5F840340193D5F840340093009B23F0F0
:102990002E030093019B13F0020F07D0019B13F04D
:1029A000010F25D1009B43F002030093019B13F01C
:1029B000080F10D0009B43F008030093019B13F015
:1029C000040F2DD0637A022B15D0E379012B22D08E
:1029D000204604F0CDFB019B13F0200F03D0009B99
:1029E00043F020030093009BC5F8403403B030BD92
:1029F00004F0ACFBD6E7019B03F4C023B3F5802FB2
:102A000004D00121206802F0E9FFE1E702212068FB
:102A100002F0E4FFDCE74EF66022C5F80424D7E7B5
:102A2000204604F0ABFBD6E770B505460C460668B9
:102A3000304602F012FF10F0040F21D006EB4413D1
:102A40000422C3F80825C4EB041305EB8303072213
:102A500083F84D202146286803F0DFF821462868D6
:102A600002F0FBFE10F4007F6CD02146286803F0D2
:102A7000D4F806EB44164FF40073C6F8083570BD61
:102A80002146286802F0E9FE10F4807F11D006EBA1
:102A900044134FF48072C3F80825C4EB041305EB0C
:102AA0008303082283F84D202146286803F0B5F8F7
:102AB000D4E72146286802F0D0FE10F0080F10D0AD
:102AC00006EB44130822C3F80825C4EB041305EBF6
:102AD0008303062283F84D202146286803F09DF8E1
:102AE000BCE72146286802F0B8FE10F4806F11D0D0
:102AF00006EB44134FF48062C3F80825C4EB0413BB
:102B000005EB8303092283F84D202146286803F052
:102B100084F8A3E72146286802F09FFE10F0800F9A
:102B20009CD006EB44138022C3F80825C4EB0413A1
:102B300005EB8303072283F84D202146286803F024
:102B40006CF88BE72146286802F087FE10F0010F31
:102B50007DD006EB441101F5A0662023B360C4EBE1
:102B6000041305EB8303DB7E012B30D0AB794BB133
:102B7000C4EB041305EB83031A6B3069C0F3120036
:102B8000121A9A63C4EB041305EB8303012283F842
:102B90004D2000205864B26093F8263013B3022B06
:102BA00020D0032B01D0012B22D1D1F8003543F0E6
:102BB0000053C1F80035C4EB041305EB8303012275
:102BC00083F84C202146284604F0CCFA10E0C4EBF0
:102BD000041305EB83030022DA76736823F4803351
:102BE0007360C3E72146286803F017F81023B36029
:102BF000AB79012B0ED0C4EB041305EB830393F8E0
:102C00003C30C4EB041405EB840483F0010384F826
:102C10003C3034E7C4EB041205EB8202936B128D57
:102C20001344013BB3FBF2F313F0010F3FF427AF62
:102C3000C4EB041305EB830393F83C30C4EB04149A
:102C400005EB840483F0010384F83C3017E7214648
:102C5000286802F002FE10F0200F1ED006EB44168A
:102C60002023C6F80835C4EB041305EB83039B7ED1
:102C7000012B7FF404AFC4EB041305EB83030122A3
:102C8000DA76C4EB041305EB8303032283F84D20AB
:102C90002146286802F0C1FFF1E62146286802F0CB
:102CA000DCFD10F0020F00F01D8106EB441606F566
:102CB000A06202239360C4EB041305EB830393F833
:102CC0004D30012B13D0062B26D0072B2FD0092BEC
:102CD0002DD0052B68D0032B00F0B480042B00F01E
:102CE000DC80082B00F0F180022B0AD1C7E6C4EB90
:102CF000041305EB8303022283F84D20012283F89D
:102D00004C20C4EB041305EB830393F84C202146BD
:102D1000284604F027FAB2E6C4EB041305EB83035C
:102D2000022283F84D20052283F84C20E9E7C4EB0A
:102D3000041305EB8303022183F84D10596C013114
:102D4000596402291BD9C4EB041305EB830300214A
:102D500059649B7E012B07D0C4EB041305EB83035E
:102D6000042283F84C20CCE7C4EB041305EB830367
:102D7000D9761977536823F480335360ECE7C4EBBA
:102D8000041305EB8303022283F84C2093F82630CA
:102D90000BB19342B5D1D6F8003523F0804343F010
:102DA0000043C6F80035ACE7C4EB041305EB83031E
:102DB000022183F84D10DB7E012BA2D13C2303FBC3
:102DC000045393F82630032B16D03C2303FB045303
:102DD000022283F84C203C2303FB045393F8263053
:102DE0000BB1022B8DD1D6F8003523F0804343F090
:102DF0000043C6F8003584E73C2101FB04518B6C8D
:102E000001338B64022B16D90B4600219964D976C5
:102E10005B6C022B04D83C2303FB0453012119777C
:102E2000536823F4803353603C2303FB0453042290
:102E300083F84C20CFE73C2303FB0453022283F8A2
:102E40004C20C8E7C4EB041305EB8303022183F88D
:102E50004D10DB7E012B7FF454AF3C2303FB045366
:102E600083F84C10516841F480315160D16841F0D1
:102E70004001D160D16821F02001D16093F8263063
:102E800013B1022B7FF43DAFD6F8003523F0804319
:102E900043F00043C6F8003533E7C4EB041305EBF9
:102EA0008303022283F84D2083F84C2093F82630C8
:102EB00013B193427FF425AFD6F8003523F0804359
:102EC00043F00043C6F800351BE73C2303FB0453E3
:102ED000022283F84D205A6C01325A64042283F88E
:102EE0004C200EE72146286802F0B7FC10F0400F96
:102EF00018D006EB44134022C3F80825C4EB041392
:102F000005EB8303052283F84D209B7E2BB9C4EB90
:102F1000041305EB830300225A642146286802F05B
:102F20007CFEACE52146286802F097FC10F0100FFB
:102F30003FF4A5ADC4EB041305EB830393F82630EF
:102F4000032B28D00BB1022B18D1C4EB041305EBD3
:102F5000830300225A64AB7933B1C4EB041305EB4D
:102F60008303DB7E012B09D13C2303FB04530422A2
:102F700083F84D202146286802F04FFEC4EB04136D
:102F800005EB8303DB7E012B12D006EB44131022EA
:102F9000C3F8082573E53C2303FB045300225A645D
:102FA000042283F84D202146286802F036FEE5E72A
:102FB000C4EB041305EB83050023EB7606EB441307
:102FC000D3F8042522F48032C3F80425D3F80C2565
:102FD00042F02002C3F80C25D7E770B505460C4631
:102FE0000668304602F039FC10F0040F10D006EBF2
:102FF00044160423C6F80835C4EB041305EB830319
:10300000072283F84D202146286802F006FE70BD95
:103010002146286802F021FC10F0200F4AD006EB70
:1030200044162023C6F80835C4EB041305EB8303CC
:103030005B7E012B2DD0C4EB041305EB83039B7E39
:10304000012BE4D1C4EB041305EB8303DB7E002BDF
:10305000DDD1C4EB041305EB830393F82630012B79
:1030600005D0C4EB041305EB83030122DA762601B5
:10307000C4EB041305EB8303032283F84D202146A0
:10308000286802F0CAFD361B05EB86060023736430
:10309000BDE7C4EB041305EB830300225A7602223A
:1030A00083F84C20032283F84D202146286802F043
:1030B000B4FDC0E72146286802F0CFFB10F4007F82
:1030C0000AD006EB44164FF40073C6F808352146C3
:1030D000286802F0A2FD9AE72146286802F0BDFBAD
:1030E00010F0010F3BD0C4EB041305EB8303002267
:1030F0005A642146286802F0B0FB10F0400F0AD055
:10310000C4EB041305EB830301225A7606EB441348
:103110004022C3F80825C4EB041305EB8303DB7ED0
:103120006BB1C4EB041305EB83030022DA7606EBE4
:103130004413D3F8042522F48032C3F8042506EBA7
:1031400044160122C6F80825C4EB041305EB8303DB
:1031500083F84D202146286802F05FFD57E721469D
:10316000286802F07AFB10F0400F1ED0C4EB041365
:1031700005EB8303052283F84D209B7E2BB9C4EB1E
:10318000041305EB830301225A76C4EB041305EB09
:10319000830300225A642146286802F03EFD06EBB4
:1031A00044164023C6F8083531E72146286802F066
:1031B00054FB10F0080F10D006EB44130822C3F89C
:1031C0000825C4EB041305EB8303062283F84D2086
:1031D0002146286802F021FD19E72146286802F0FF
:1031E0003CFB10F0100F20D0C4EB041305EB83035D
:1031F00000225A64042283F84D205B7E5BB9C4EB45
:10320000041305EB83031B7E2BB9C4EB041305EBFE
:10321000830301225A762146286802F0FEFC06EB61
:1032200044131022C3F80825F1E62146286802F06D
:1032300014FB10F0800F38D0AB79F3B1C4EB04125B
:1032400005EB8202536C01335364022B20D83C23DC
:1032500003FB0453022283F84C2006EB4412D2F8FD
:10326000003523F0804343F00043C2F8003506EBFD
:1032700044138022C3F80825C9E63C2303FB04530A
:10328000072283F84D202146286802F0C6FCEEE7AD
:103290003C2303FB045300225A64042283F84C208D
:1032A0002146284603F05EFFE1E72146286802F048
:1032B000D4FA10F4806F10D03C2303FB045309228E
:1032C00083F84D202146286802F0A7FC06EB441342
:1032D0004FF48062C3F8082599E62146286802F079
:1032E000BCFA10F0020F3FF492AE06EB441606F55E
:1032F000A062022393603C2303FB045393F84D30F8
:10330000012B23D0032B62D0042B6FD0052B00F0B0
:103310008280062B00F08880072B02D0092B7FF4D7
:1033200076AE3C2303FB0453022283F84D205A6CF3
:1033300001325A64022A40F281803C2303FB045389
:1033400000225A64042283F84C200EE03C2303FB45
:103350000453022283F84D20012283F84C2093F875
:103360002630023BDBB2934209D93C2303FB0453D2
:1033700093F84C202146284603F0F4FE47E6A9794D
:1033800041B93C2303FB045393F83D2082F0010232
:1033900083F83D200129E8D13C2303FB04535B6BF8
:1033A000002BE2D03C2202FB0452128D1344013B5D
:1033B000B3FBF2F313F0010FD7D03C2303FB04530C
:1033C00093F83D2082F0010283F83D20CDE73C23B5
:1033D00003FB0453022283F84D20DB7E012BC4D172
:1033E0003C2303FB045383F84C20BEE73C2303FB40
:1033F0000453022183F84D1083F84C10DB7E012B1F
:10340000B3D13C2303FB04530021D976536823F442
:1034100080335360A9E73C2303FB0453022283F863
:103420004D2083F84C20A0E73C2303FB04530222E9
:1034300083F84D20052283F84C2096E73C2303FBBC
:103440000453022283F84C20D6F8003523F0804341
:1034500043F00043C6F8003587E7F8B50446056831
:10346000284602F003FA012800D0F8BD206802F0D7
:10347000F0F90028F9D0206802F0EBF910F4001FF1
:1034800003D023684FF400125A61206802F0E1F97A
:1034900010F4801F03D023684FF480125A61206813
:1034A00002F0D7F910F0806F03D023684FF08062EC
:1034B0005A61206802F0CDF910F0020F02D02368A3
:1034C00002225A61206802F0C4F910F0005F08D0AF
:1034D00023684FF000525A61D5F8403413F0010FC1
:1034E00025D0206802F0B5F910F0807F32D1206835
:1034F00002F0AFF910F0080F30D1206802F0A9F9FE
:1035000010F0007F31D1206802F0A3F910F0100F05
:10351000ABD02268936923F0100393612046FFF734
:1035200095F82268936943F0100393619DE7102199
:10353000284602F00CF9284602F02EF9637A022B95
:1035400003D0204603F008FECBE70121206802F0FB
:1035500045FAF6E72046FFF70FFAC8E7204603F0E2
:10356000EFFD236808225A61C7E7206802F050FB8C
:10357000074600231E4606E0F1B22046FFF72DFD68
:10358000334601331E466379B34212D906F00F0366
:1035900027FA03F313F0010FF2D005EB4613D3F82B
:1035A000003513F4004FE7D0F1B22046FFF73CFAA4
:1035B000E6E723684FF000725A61A4E790F8D4332D
:1035C000012B0ED010B50446012180F8D4130068F9
:1035D00002F044FA206802F0AEF8002084F8D40328
:1035E00010BD0220704790F8D433012B0BD010B5DA
:1035F0000446012380F8D433006802F0EBFC00207D
:1036000084F8D40310BD0220704708B5006802F0AA
:1036100006FA08BDC1EB011100EB810090F84C00E7
:103620007047C1EB011100EB8100806B704708B55A
:10363000006802F041FA08BD08B5006802F031FAEE
:1036400008BDC1EB011200EB820200209076D0761B
:1036500082F8250082F8240070472DE9F04F85B0EC
:103660000C46164619469A469DF838809DF83C70DF
:10367000BDF8402090F8D433012B52D00546934634
:103680009146012380F8D433C4EB041300EB830389
:1036900000225A7619755C7583F8267006F07F0251
:1036A0009A752146FFF7CDFF16F0800F27D1C4EBA6
:1036B000041305EB83030022DA75286802F0F1F9A0
:1036C000012F23D0C4EB041305EB830383F8188088
:1036D0001FFA89F3C4EB041205EB820213850293EF
:1036E0000197CDF80080534632462146286802F003
:1036F000E9F9002385F8D43305B0BDE8F08FC4EBB9
:10370000041305EB83030122DA75D6E7B8F1010F44
:10371000D8D10028D6D15B46BC2BD3D9BC2399463F
:10372000D0E70220E8E70000002800F0DA8038B592
:10373000044690F83D30002B51D0242384F83D30CE
:103740002268136823F0010313602268136843F4AE
:10375000004313602268136823F40043136001F0F0
:10376000ADFA6268614B9A423ED8614B98428CBF79
:1037700000230123002B40F0B6805E49A1FB0031FD
:103780008B0CD4F800C0DCF8042022F03F0242EA9F
:103790009142CCF8042021680A6A22F03F02DFF847
:1037A0004CC16568654525D8013313430B62216818
:1037B000CA6922F44F4222F0FF02D4F804C04B4BF6
:1037C0009C4522D8431E4FEA4C0CB3FBFCF301335B
:1037D00040F6FC70034254D0C3F30B0352E080F870
:1037E0003C3000F0D1FDA8E7434B98428CBF00234A
:1037F0000123BFE74FF4967C0CFB03F3DFF8FCC01A
:10380000ACFB03C39B090133CFE7D4F808E0BEF15A
:10381000000F1AD1431E0CEB4C05B3FBF5F301333B
:10382000C3F30B03B3FA83F35B09002B57D1BEF14B
:10383000000F19D1431E0CEB4C0CB3FBFCF301330E
:10384000C3F30B0343F400431CE00CEB8C0303EBCA
:1038500083031D46431EB3FBF5F30133C3F30B0390
:10386000B3FA83F35B09E0E7431E0CEB8C0C0CEB23
:103870008C0CB3FBFCF30133C3F30B0343F4404361
:1038800000E004231A43CA6121680B6823F0C003D7
:10389000E269206A024313430B6021688B6823F4BA
:1038A000034323F0FF032269E068024313438B6064
:1038B0002168CB6823F0FF036269A06902431343C8
:1038C000CB602268136843F001031360002020647A
:1038D000202384F83D30206384F83E0038BD012366
:1038E000D0E7012070470120F8E700BFA086010063
:1038F0007F841E0083DE1B43FF083D00D34D621012
:10390000002800F0C48038B5044690F84130002B00
:1039100053D0022284F841202168CB6923F47B63D1
:1039200023F00F03CB6123681A62636993426CD062
:10393000E368002B48D110231D46A368202B01D833
:103940006B001D46012001F077FA2369B3F5007F73
:103950003DD0B0FBF5F000EB800043006269B3FBA3
:10396000F2F305334B4AA2FB0323C3F3C002C2EBBD
:10397000D3035B0811029A1EFD2A40D822690A432C
:1039800021681A430A622168CB6923F47B6323F020
:103990000F036268A0680243E0680243A069024323
:1039A000134343F40063CB61236A012B2FD0002023
:1039B0006064012384F8413038BD80F84030364BD4
:1039C000436300F019FDA4E720231D46B5E7E36833
:1039D00053B1AB00B0FBF3F000EB80004300626931
:1039E000B3FBF2F30533BDE7EB00B0FBF3F000EB04
:1039F000800043006269B3FBF2F30533B2E7636C06
:103A000043F0100363640120D6E70021B6E7234B9F
:103A100063632268224B9A4220D04FF04022D36940
:103A200023F47B6323F00F03D36122681C4B9A427B
:103A300016D04FF04022022313622268184B9A429C
:103A400010D04FF0402CDCF81C309BB26268B2F50D
:103A5000007F0AD0CAB94FF4807008E0114ADEE74F
:103A6000104AE8E7DFF83CC0EDE74FF48070B4F8A7
:103A700008E0A189228B40EA0E0001430A43134368
:103A800043F40063CCF81C3091E70020EFE70120FD
:103A9000704700BFCDCCCCCC1F3B00086D41000867
:103AA0000038004000340040704708B5426A03689F
:103AB0001288DA60436A02334362438D9BB2013B52
:103AC0009BB24385438D9BB203B108BD0268536826
:103AD00023F0A0035360012380F84130FFF7E4FF97
:103AE000F3E7704708B50368DA68C36A1A80C36AE7
:103AF0000233C362438E9BB2013B9BB24386438E2B
:103B00009BB203B108BD0268536823F060035360A1
:103B1000012380F84130FFF7E4FFF3E7704710B569
:103B200084B0044603689A68039290F84120042AFE
:103B300005D094F84130032B2CD004B010BD039A6B
:103B400012F0010F03D05B6813F0400F1FD1039BED
:103B500013F0400FEDD023685A6812F0200FE8D020
:103B60005A6822F060025A60002301932368DA68E1
:103B700001929B680193019B012384F84130636C9F
:103B800043F0020363642046FFF7C8FFD1E7FFF765
:103B9000A9FFDCE7039B13F0020F04D023685B68E6
:103BA00013F0800F1DD1039B13F0080FC5D02368BD
:103BB0005A6812F0200FC0D05A6822F0A0025A6052
:103BC0000023029323689B680293029B012384F8DD
:103BD0004130636C43F0040363642046FFF79EFFAB
:103BE000ABE72046FFF761FFDDE700002DE9F0417C
:103BF00082B005460E4617461C469DF820300193BC
:103C0000FEF756F98046019BABB137E02CB1FEF7C9
:103C10004FF94346C01AA0420DD9012385F841301F
:103C2000002385F8403003200DE00123BB4209D07A
:103C3000B4F1FF3FEAD12B689B6836EA0303F4D066
:103C40000023F3E7019802B0BDE8F0812CB1FEF744
:103C50002FF94346C01AA04210D9012385F84130FC
:103C6000002385F840300320EDE7A3F580630BE0E7
:103C70000123BB420ED0B4F1FF3FE7D12A68064BC7
:103C80009A42F2D04FF040239B6836EA0303EFD00C
:103C90000023EEE70020D6E7003800402DE9F0438E
:103CA00089B0044610461746109D94F84120012A19
:103CB00040F0B281D6B2002900F0AF81002800F0B8
:103CC000AC81002B00F0A98194F84020012A00F07B
:103CD000A881012284F840202068C26902F007020E
:103CE000032A06D0052A04D02385638523866386AC
:103CF00005E05B009BB223856385238663860023F2
:103D00006364052384F84130C36903F44073994622
:103D1000B3F5007F02D0002B40F0C2800A4632F893
:103D2000023B9046C360638D9BB2013B9BB26385AF
:103D30002268984B9A421ED04FF04022D36943F438
:103D40008063D3612268D36943F48063D3612268BE
:103D5000D36903F44073B3F5007F18D100230293B5
:103D60008C4B9A4209D04FF04023DA6802929B684C
:103D70000293029B0BE0884AE0E7A3F58063F4E737
:103D8000638D9BB2BBB9638E9BB2002B47D1638E10
:103D90009BB2002BF4D1638D9BB2002BF0D1012399
:103DA00084F84130002384F84030636C002B40F0ED
:103DB00034811E4631E1002300932B46012202216B
:103DC0002046FFF713FFD8B94246236832F8021B9A
:103DD000D960638D9BB2013B9BB263852368996870
:103DE00011F0080F17D04946B9B9CDF80C909B686F
:103DF0000393039B636C43F0040363649046C2E740
:103E0000636C43F001036364012384F841300023B1
:103E100084F8403001E19046B5E79046B3E70121D0
:103E200000912B460A462046FFF7E0FE28BB226899
:103E3000584B9A422CD04FF04023DB683A4622F888
:103E4000023B638E9BB2013B9BB263862368514960
:103E50008B4220D04FF04021896811F0400F1DD0D7
:103E600000210491D96804919B680493049B636CBE
:103E700043F002036364174689E7636C43F0010370
:103E80006364012384F84130002384F84030C4E0A7
:103E9000A3F58063D1E7A1F58061DDE7174676E7FA
:103EA0000B4633F8022B98463A4B984225D04FF0F8
:103EB0004023DA60638D9BB2013B9BB2638522682D
:103EC000344B9A421CD04FF04022D36943F48063B4
:103ED000D3612268D36943F48063D3612268D369D4
:103EE00003F44073B3F5407F13D100230593D368E7
:103EF000059393680593059B0BE0A3F58063D8E7D2
:103F0000254AE2E7638D9BB263B9638E9BB2002BB7
:103F100051D1638E9BB2002BF4D1638D9BB2002BE9
:103F2000F0D13CE7012200922B4602212046FFF708
:103F30005DFEE8B9424632F8021B2068154B9842F4
:103F400021D04FF04023D960638D9BB2013B9BB2DF
:103F5000638523680F498B4218D04FF04021896850
:103F600011F0080F25D0B9F5807F17D09046CCE727
:103F7000636C43F001036364012384F84130002340
:103F800084F8403049E0A3F58063DCE7A1F5806167
:103F9000E5E700BF003800400034004000210691F2
:103FA0009B680693069B636C43F00403636490462E
:103FB000ABE79046A9E7002300932B460122114668
:103FC0002046FFF713FED0B92368DB683A4622F893
:103FD000023B638E9BB2013B9BB263862368996868
:103FE00011F0400F16D00790D96807919B6807938E
:103FF000079B636C43F002036364174689E7636CB5
:1040000043F001036364012384F84130002384F802
:10401000403002E017467CE70226304609B0BDE892
:10402000F0830226F9E700BF704708B5436A9A1C7F
:10403000426202681B88D360438D9BB2013B9BB2F6
:104040004385438D9BB23BB90268536823F0A003BC
:104050005360438E9BB203B108BD012380F8413009
:10406000FFF7E2FFF8E7000008B50268154B9A4237
:104070001CD04FF04023DA68C36A991CC1621A80D1
:10408000438E9BB2013B9BB24386438E9BB263B986
:1040900002680C4B9A420CD04FF04022536823F038
:1040A00060035360438D9BB22BB108BDA3F58063C1
:1040B000E1E7054AF2E7012380F84130FFF7B4FF5A
:1040C000F3E700BF003800400034004008B5436A01
:1040D0009A1C42621A880168134B994218D04FF01B
:1040E0004023DA60438D9BB2013B9BB24385438DF5
:1040F0009BB263B902680C4B9A420CD04FF040223D
:10410000536823F0A0035360438E9BB22BB108BDCC
:10411000A3F58063E5E7054AF2E7012380F8413023
:10412000FFF782FFF3E700BF003800400034004093
:1041300008B50368DA68C36A991CC1621A80438EA5
:104140009BB2013B9BB24386438E9BB23BB9026854
:10415000536823F060035360438D9BB203B108BDE5
:10416000012380F84130FFF75FFFF8E710B586B014
:10417000044603689A680592704A93426FD04FF0E4
:104180004022916804915B680393536802936368CB
:10419000B3F5007F01D0002B70D1059B13F0020F07
:1041A00003D0039B13F0800F5CD1049B13F0010F2D
:1041B00003D0029B13F0400F58D1049B13F0400F23
:1041C00024D0029B13F0200F20D022685B4B9A4230
:1041D00050D04FF04022536823F0600353602268B0
:1041E000536823F0A0035360002300932368DA6828
:1041F00000929B680093009B012384F84130636C1C
:1042000043F0020363642046FFF788FC059B13F02C
:10421000080F22D0039B13F0200F1ED02268536892
:1042200023F0A00353602268444B9A4224D04FF0FD
:104230004022536823F060035360002301932368F6
:104240009B680193019B012384F84130636C43F028
:10425000040363642046FFF761FC06B010BDA2F5BD
:1042600080628EE72046FFF7E0FE9EE72046FFF7DC
:10427000FBFEA2E7324AAEE7314ADAE7049B13F0CD
:10428000020F03D0029B13F0800F4AD1059B13F05D
:10429000010F03D0039B13F0400F46D1059B13F091
:1042A000400F1CD0039B13F0200F18D022685368D6
:1042B00023F0600353602268204B9A4239D04FF0BC
:1042C0004022536823F0A0035360012384F8413057
:1042D000636C43F0020363642046FFF71FFC049BFA
:1042E00013F0080FB9D0029B13F0200FB5D022684D
:1042F000124B9A421FD04FF04022536823F0A00384
:1043000053602268536823F060035360012384F8EC
:104310004130636C43F0040363642046FFF7FEFB07
:104320009BE72046FFF7D2FEB0E72046FFF700FFED
:10433000B4E7034AC5E7024ADFE700BF00380040A0
:104340000034004000B583B0002200920D4B596C40
:1043500041F480415964596C01F480410091009905
:104360000192196C41F0805119641B6C03F0805369
:104370000193019B0F216FF00100FDF70BFE03B0CD
:1043800000BD00BF0038024030B589B00023039360
:1043900004930593069307930268144B9A4201D045
:1043A00009B030BD00250195114C236B43F0020389
:1043B0002363236B03F002030193019B4FF41073FB
:1043C000039312230493012305930423079303A962
:1043D0000848FEF727F80295236C43F40013236482
:1043E000236C03F400130293029BD9E700540040AE
:1043F000003802400004024070B58CB000230793DF
:10440000089309930A930B930393049305930693DC
:1044100002682C4B9A4201D00CB070BD012303936B
:10442000C02304930223059303A800F057FC00283F
:1044300044D100210091244B1A6C42F400421A64CA
:104440001A6C02F400420092009A01911A6B42F039
:1044500001021A631A6B02F001020192019A0291A1
:104460001A6B42F004021A631B6B03F004030293FD
:10447000029B10230793022508950C4609910A9187
:1044800006260B9607A91148FDF7CCFF4FF4A4535D
:104490000793089509940A940B9607A90C48FDF711
:1044A000C1FF4FF400630793089509940A9405230C
:1044B0000B9307A90648FDF7B5FFADE7FCF73CFCF9
:1044C000B7E700BF003C0040003802400000024057
:1044D000000802402DE9F0418AB080460023059390
:1044E00006930793089309930368594A934205D0AA
:1044F000584A934252D00AB0BDE8F081002400949B
:10450000554B5A6C42F480525A645A6C02F48052F1
:104510000092009A01941A6B42F001021A631B6B1D
:1045200003F001030193019BE02305930225069507
:104530000526099605A94948FDF774FF4FF4004385
:1045400005930695079403230893099605A9434804
:10455000FDF768FF4248434B03604FF0C063436080
:104560008460C4604FF48063036144618461C4610A
:1045700004624462FDF7B8FD68B9394BC8F84C30A5
:10458000C3F83880002205212320FDF703FD2320F6
:10459000FDF710FDAFE7FCF7CFFBEEE70024029438
:1045A0002D4B1A6C42F480421A641A6C02F4804259
:1045B0000292029A03941A6B42F004021A631A6B75
:1045C00002F004020392039A04941A6B42F002026E
:1045D0001A631B6B03F002030493049B04230593EB
:1045E00002250695032608960527099705A91E4862
:1045F000FDF718FF4FF4304305930695079408968E
:10460000099705A91948FDF70DFF1948194B0360D3
:1046100044608460C4604FF48063036144618461DA
:10462000C46104624462FDF75FFD68B9104BC8F8CD
:104630004C30C3F83880002205212420FDF7AAFC65
:104640002420FDF7B7FC56E7FCF776FBEEE700BF4A
:1046500000300140003800400038024000000240B5
:10466000A4480020106402400008024000040240F8
:104670004448002058600240002800F0E28170B5F4
:1046800082B00446036813F0010F3BD09B4B9B683C
:1046900003F00C03042B2CD0984B9B6803F00C0305
:1046A000082B21D06368B3F5803F4FD0B3F5A02F1E
:1046B00052D0924B1A6822F480321A601A6822F49F
:1046C00080221A606368002B50D0FDF7F1FB05468D
:1046D0008A4B1B6813F4003F14D1FDF7E9FB401B24
:1046E0006428F5D90320B3E1844B5B6813F4800F91
:1046F000D8D0824B1B6813F4003F03D06368002BB3
:1047000000F0A181236813F0020F54D07B4B9B680B
:1047100013F00C0F3ED0794B9B6803F00C03082B71
:1047200033D0E368002B68D0754B01221A60FDF787
:10473000BFFB0546714B1B6813F0020F54D1FDF708
:10474000B7FB401B0228F5D9032081E16B4A1368AF
:1047500043F480331360B5E7684B1A6842F4802253
:104760001A601A6842F480321A60ABE7FDF7A0FBCA
:104770000546624B1B6813F4003FC3D0FDF798FB5E
:10478000401B6428F5D9032062E15C4B5B6813F49D
:10479000800FC6D1594B1B6813F0020F03D0E3689A
:1047A000012B40F05281554A136823F0F803216928
:1047B00043EAC1031360236813F0080F42D0636912
:1047C0006BB34F4B0122C3F8802EFDF771FB0546FA
:1047D0004A4B5B6F13F0020F34D1FDF769FB401BAE
:1047E0000228F5D9032033E1444A136823F0F80383
:1047F000216943EAC1031360DDE7414B00221A60DF
:10480000FDF756FB05463D4B1B6813F0020FD2D057
:10481000FDF74EFB401B0228F5D9032018E1384B69
:104820000022C3F8802EFDF743FB0546334B5B6F38
:1048300013F0020F06D0FDF73BFB401B0228F5D911
:10484000032005E1236813F0040F79D02B4B1B6C78
:1048500013F0805F34D100230193284B1A6C42F08F
:1048600080521A641B6C03F080530193019B012357
:104870001E46244B1B6813F4807F24D0A368012BB1
:1048800035D0052B40D01D4B1A6F22F001021A675C
:104890001A6F22F004021A67A368002B3ED0FDF7BE
:1048A00007FB0546154B1B6F13F0020F47D1FDF7B1
:1048B000FFFA401B41F288339842F3D90320C7E046
:1048C00000231E46D5E70F4A136843F48073136034
:1048D000FDF7EEFA05460B4B1B6813F4807FCDD134
:1048E000FDF7E6FA401B0228F5D90320B0E0034AA1
:1048F000136F43F001031367CEE700BF0038024097
:104900000000474200700040584B1A6F42F004020A
:104910001A671A6F42F001021A67BDE7FDF7C8FA7D
:104920000546524B1B6F13F0020F08D0FDF7C0FA7B
:10493000401B41F288339842F3D9032088E0EEB956
:10494000A369002B00F08380484A926802F00C02B1
:10495000082A51D0022B17D0454B00221A66FDF7CA
:10496000A7FA0446414B1B6813F0007F42D0FDF7C5
:104970009FFA001B0228F5D9032069E03B4A136C1B
:1049800023F080531364DBE7394B00221A66FDF7EE
:104990008FFA0546354B1B6813F0007F06D0FDF7F4
:1049A00087FA401B0228F5D9032051E0E369226A07
:1049B0001343626A43EA8213A26A5208013A43EA45
:1049C0000243E26A43EA0263284A5360284B012209
:1049D0001A66FDF76DFA0446244B1B6813F0007F3E
:1049E00006D1FDF765FA001B0228F5D903202FE058
:1049F00000202DE000202BE0012B2BD01B4B5B680F
:104A000003F48001E269914226D103F03F02216A5A
:104A10008A4223D1616A47F6C0721A40B2EB811F05
:104A20001ED103F44031A26A5208013AB1EB024FA1
:104A300018D103F07063E26AB3EB026F14D1002067
:104A400006E001207047012002E0012000E0184646
:104A500002B070BD0120FBE70120F9E70120F7E774
:104A60000120F5E70120F3E70120F1E700380240DB
:104A70000000474208B5334B9B6803F00C03042B3E
:104A80005BD0082B5BD12F4B5A6802F03F025B686A
:104A900013F4800F2CD02B4B5868C0F388104FEACA
:104AA000401CBCEB000C6EEB0E0E4FEA8E1343EA7B
:104AB0009C634FEA8C11B1EB0C0163EB0E03DB003E
:104AC00043EA5173C90011EB000C43F10003590292
:104AD00000234FEA4C2041EADC51FBF759FB194B0C
:104AE0005B68C3F3014301335B00B0FBF3F008BD27
:104AF000144B5868C0F388104FEA401CBCEB000C04
:104B00006EEB0E0E4FEA8E1343EA9C634FEA8C1154
:104B1000B1EB0C0163EB0E03DB0043EA5173C900F8
:104B200011EB000C43F10003990200234FEA8C20A3
:104B300041EA9C51FBF72CFBD1E70348D7E7034838
:104B4000D5E700BF0038024000127A000024F400CC
:104B5000002800F09B8070B50D4604464F4B1B6843
:104B600003F007038B4208D2CBB24C4A1370136890
:104B700003F007038B4240F08B80236813F0020F91
:104B800017D013F0040F04D0454A936843F4E05360
:104B90009360236813F0080F04D0414A936843F4EC
:104BA000604393603E4A936823F0F003A1680B438F
:104BB0009360236813F0010F32D06368012B21D07A
:104BC0009A1E012A25D9364A126812F0020F61D0C6
:104BD00033498A6822F0030213438B60FDF768F9BA
:104BE00006462F4B9B6803F00C036268B3EB820F01
:104BF00016D0FDF75DF9801B41F288339842F0D959
:104C0000032042E0264A126812F4003FE0D101205E
:104C10003BE0234A126812F0007FD9D1012034E032
:104C20001E4B1B6803F00703AB4207D9EAB21B4BCC
:104C30001A701B6803F00703AB422DD1236813F0F1
:104C4000040F06D0164A936823F4E053E1680B433F
:104C50009360236813F0080F07D0114A936823F478
:104C60006043216943EAC1039360FFF703FF0C4BE4
:104C70009B68C3F303130B4AD35CD8400A4B1860FC
:104C80000A4B1868FDF7C8F8002070BD0120704776
:104C90000120FAE70120F8E70120F6E7003C024096
:104CA00000380240848C0008180000201400002006
:104CB000014B1868704700BF1800002008B5FFF7C7
:104CC000F7FF044B9B68C3F38223034AD35CD840AD
:104CD00008BD00BF003802407C8C000830B583B0AE
:104CE0000546036813F0010F02D113F0040F2BD017
:104CF0004E4B00229A66FDF7DBF804464C4B1B68CE
:104D000013F0006F06D0FDF7D3F8031B022BF5D983
:104D100003201EE06A68AB681B0743EA8213444A1B
:104D2000C2F88430414B01229A66FDF7C1F804466F
:104D30003F4B1B6813F0006F06D1FDF7B9F8031B5A
:104D4000022BF5D9032004E02B6813F0020F02D1E7
:104D5000002003B030BD00230193354B1A6C42F0A4
:104D600080521A641B6C03F080530193019B314AFB
:104D7000136843F480731360FDF79AF804462D4BD3
:104D80001B6813F4807F06D1FDF792F8001B022800
:104D9000F5D90320DDE7264B1B6F13F4407314D0C5
:104DA000EA6802F440729A420FD0214B1A6F22F443
:104DB00040721E490120C1F8400E0020C1F8400E8B
:104DC0001A671B6F13F0010F13D1EB6803F44072E5
:104DD000B2F5407F1ED0164A936823F4F81393600F
:104DE00013490B6FEA68C2F30B0213430B670020F1
:104DF000AFE7FDF75DF804460D4B1B6F13F0020F94
:104E0000E3D1FDF755F8031B41F288329342F3D901
:104E100003209EE706498A6822F4F81223F07043C3
:104E200023F4407313438B60DAE700BF000047426E
:104E30000038024000700040012801D00020704777
:104E4000154B9B6813F4000302D01BB31348704743
:104E5000114B5B6813F4800F14D00F4B5A6802F0AB
:104E60003F020F4BB3FBF2F30B4AD2F88400C0F3BE
:104E7000881003FB00F0D2F88430C3F30273B0FB58
:104E8000F3F07047044B5A6802F03F02054BB3FB46
:104E9000F2F3E9E718467047003802400080BB0093
:104EA00000127A000024F4002DE9F04383B0044698
:104EB0000F4616461D46FCF7FBFF0A9B1B1A03EB29
:104EC0000508FCF7F5FF8146284B1B68C3F3CB337D
:104ED00008FB03F3019323689B6837EA03030CBFC5
:104EE00001230023B3423DD0B5F1FF3FF3D0FCF7DF
:104EF000DFFF4B46C01A404503D2019B73BB984667
:104F0000E9E72268536823F0E00353606368B3F570
:104F1000827F0BD0A36AB3F5005F14D0012384F81D
:104F20005130002384F8503003201CE0A368B3F50F
:104F3000004F02D0B3F5806FECD12268136823F0E4
:104F400040031360E6E72268136823F400531360FC
:104F50002268136843F400531360DFE7019B013BB1
:104F60000193B8E7002003B0BDE8F08318000020EB
:104F700070B584B004460B460D46164600920122D9
:104F80000221FFF791FFD0B9174B1B68174AA2FB0C
:104F900003235B0D4FF47A7202FB03F30393636800
:104FA000B3F5827F11D0039B3BB1039B013B03937D
:104FB00023689B6813F0800FF5D104B070BD636D5A
:104FC00043F0200363650320F7E700962B46002299
:104FD00080212046FFF768FF0028EED0636D43F084
:104FE000200363650320E8E718000020819F5E1618
:104FF00010B582B004460B464168B1F5827F14D0EB
:105000006168B1F5827F2AD1A168B1F5806F19D0AE
:105010000092002280212046FFF746FF30B3636DE7
:1050200043F020036365032020E08168B1F5004F61
:1050300002D0B1F5806FE3D12068016821F0400112
:105040000160DDE70092002201212046FFF72CFFDE
:1050500060B1636D43F020036365032006E00092B6
:10506000002201212046FFF71FFF08B902B010BD42
:10507000636D43F0200363650320F7E700285AD0EF
:1050800010B50446436A33B94368B3F5827F05D04F
:105090000023C36102E00023036143610023A36294
:1050A00094F85130002B40D0022384F8513022680C
:1050B000136823F040031360636803F48273A268EB
:1050C00002F404421343E26802F4006213432269CB
:1050D00002F002021343626902F001021343A26963
:1050E00002F400721343E26902F038021343226AA9
:1050F00002F080021343A26A02F4005221681343B3
:105100000B60638B03F00403626A02F010022168F3
:1051100013434B602268D36923F40063D3610020FA
:105120006065012384F8513010BD84F8503020466A
:10513000FFF7D0F9B8E701207047000010B504462A
:1051400090F85100D4F804C001280DD05FFA80FE19
:10515000BCF5827F40F08880A068002840F08680FF
:10516000BEF1040F40F08480002900F08380002A03
:1051700000F08280002B00F0818094F8500001281C
:105180007ED0012084F8500094F85100042802D009
:10519000052084F85100002060652163A386E38622
:1051A000A263A387E3872064606494F85130042BE2
:1051B0001DD0E36C334A1A64E36C334ADA63E36C60
:1051C000324ADA64E36C00221A652168E38F9BB2ED
:1051D000A26B0C31E06CFCF7EFFF78B1636D43F02C
:1051E00010036365002384F8503001203DE0E36C38
:1051F000274A1A64E36C274ADA63E0E722685368B7
:1052000043F001035360A26C1064A26CD063A26CE3
:10521000D064A26C10652268E38E9BB20C32216BC5
:10522000A06CFCF7C9FFB0B923681A6812F0400FF0
:1052300003D11A6842F040021A60002384F850300B
:105240002268536843F0200353602268536843F098
:105250000203536009E0636D43F0100363650023AC
:1052600084F85030012000E0022010BD0220FCE74D
:105270000220FAE70120F8E70120F6E70120F4E731
:105280000220F2E7A553000841540008B15300087A
:1052900099530008D353000838B590F85130012BCA
:1052A0006CD10446DDB2002969D0002A67D080683D
:1052B00018B96368B3F5827F43D094F85030012B5E
:1052C0005FD0012384F85030042384F85130002348
:1052D0006365A163A287E28723646364A386E38690
:1052E000B0F5004F37D0E36C274A1A64E36C274AC5
:1052F000DA63E36C264ADA64E36C00221A652168FB
:10530000E38F9BB2A26B0C31E06CFCF755FF0146BA
:1053100060BB23681A6812F0400F03D11A6842F08C
:1053200040021A60002384F850302268536843F02A
:10533000200353602268536843F0010353600D4615
:105340001DE0042384F8513013460A462046FFF737
:10535000F5FE054613E02268136823F0400313604E
:105360002268136823F480431360BCE7636D43F045
:1053700010036365002384F8503000E002252846BE
:1053800038BD0225FBE700BF99530008D35300083E
:10539000B15300087047704708B5806BFFF7FBFFFB
:1053A00008BD704708B5806BFFF7FBFF08BD70476D
:1053B00008B5806B0268536823F003035360436DA4
:1053C00043F010034365012380F85130FFF7EFFFEE
:1053D00008BD38B50546846BFCF76AFD2B681B6871
:1053E00013F4807F1ED1024621684B6823F020030E
:1053F0004B60A3681BB96368B3F5827F16D0216840
:105400004B6823F001034B6064212046FFF7F0FD59
:1054100008B1202363650023E387012384F851301A
:10542000636D4BB92046FBF75DFC38BD21684B68C6
:1054300023F003034B60E7E72046FFF7B8FFF4E7EC
:1054400038B50546846BFCF733FD2B681B6813F4F5
:10545000807F1BD1024621684B6823F020034B60FC
:1054600064212046FFF784FD18B1636D43F02003EB
:1054700063652268536823F0030353600023E386C7
:10548000E387012384F85130636D1BB92046FFF791
:1054900081FF38BD2046FFF78AFFFAE710B584B0D8
:1054A0000446026851689368C3F3801013F0400FFC
:1054B00005D113F0010F02D011F0400F6DD113F0A0
:1054C000020F02D011F0800F6BD1C3F3401C13F018
:1054D000200F03D110B913F4807F65D011F0200F95
:1054E00062D070B194F8510003285FD0606D40F035
:1054F0000400606500200090D068009090680090E3
:105500000098BCF1000F0CD0606D40F001006065A8
:105510000020029090680290106820F04000106017
:10552000029A13F4807F09D0636D43F0080363652A
:105530000023039323689B680393039B636D002BF5
:1055400032D02268536823F0E0035360012384F8CB
:10555000513011F0020F02D111F0010F2ED022684C
:10556000536823F003035360E36C4BB1154A1A658B
:10557000E06CFCF756FE18B1636D43F040036365C1
:10558000A36C8BB10F4A1A65A06CFCF74AFE58B1A8
:10559000636D43F04003636506E0236C2046984743
:1055A00002E0636C2046984704B010BD00230193CD
:1055B000D368019393680193019BF5E72046FFF7B9
:1055C000F6FEF1E7C955000808B5806B0023C387D4
:1055D000C386FFF7ECFE08BDFEE7FEE7FEE7FEE749
:1055E000FEE7704708B5FCF757FC01F0E1F9012828
:1055F00000D108BDFBF7BEFDFBE7000008B502487F
:10560000FCF722FE08BD00BF4448002008B5024850
:10561000FFF744FF08BD00BF5C49002008B5024801
:10562000FFF73CFF08BD00BF0449002008B5024851
:10563000FCF70AFE08BD00BFA448002008B50248D8
:10564000FDF70BFF08BD00BF744F002082B00023A0
:105650000193019B01330193019BB3F1706F1CD83F
:105660000369002BF5DA0A23019302E0019B013B59
:105670000193019B002BF9D1036943F001030361FE
:10568000019B01330193019BB3F1706F08D803694B
:1056900013F0010FF4D1002000E0032002B07047A6
:1056A0000320FBE784B010B5044603A880E80E0091
:1056B0009DF81130012B21D1A36B23F48033A36318
:1056C000E36823F4840323F04003E360E36823F4F6
:1056D0004013E3609DF81830012B0AD02046FFF7F5
:1056E000B5FF9DF80E30012B1CD0BDE8104004B072
:1056F0007047E36843F48013E360EFE7E36843F047
:105700004003E3602046FFF7A1FF9DF8153023B961
:10571000A36B43F48033A363E3E7A36B23F48033E9
:10572000A363DEE7A36843F00603A360A36843F026
:105730002003A360D9E7836843F00103836000205E
:105740007047836823F0010383600020704782B0B4
:1057500000230193019B01330193019BB3F1706F0F
:1057600015D80369002BF5DA00230193890141F074
:1057700020010161019B01330193019BB3F1706F23
:1057800008D8036913F0200FF4D1002000E00320B3
:1057900002B070470320FBE782B000230193019B16
:1057A00001330193019BB3F1706F13D80369002B90
:1057B000F5DA0023019310230361019B0133019368
:1057C000019BB3F1706F08D8036913F0100FF4D187
:1057D000002000E0032002B070470320FBE710B573
:1057E00004469DF8080078B903334FEA930E8446C7
:1057F00008E004EB023303F5805351F8040B186002
:105800000CF1010CF445F4D3002010BD00B5844622
:1058100008464FEA920E02F00302002305E00CF561
:105820008051096840F8041B01337345F7D37AB1FE
:105830000CF5805CDCF800C00021CBB2DB002CFA58
:1058400003F300F8013B0131013A92B2002AF4D18E
:1058500000BD426980691040704700EB411000F5BF
:10586000A063D0F80805DB6818407047406900F075
:105870000100704738B50546C36823F0C043C360D4
:10588000012913D019BBC36843F08043C3600C46A1
:105890000A20FCF713FB0A342846FFF7E7FF08B19C
:1058A000C72CF5D9C82C14D0002038BDC36843F0EC
:1058B0000053C36000240A20FCF700FB0A3428468A
:1058C000FFF7D4FF0128EDD0C72CF4D9EAE7012077
:1058D000EBE70120E9E7000084B038B5044605A8ED
:1058E00080E80E000023C4F8003EA36B43F40013CD
:1058F000A363A36B23F40023A363A36B23F480238C
:10590000A363E36813F0400F11D19DF81730012B0A
:1059100006D0D4F8003423F00403C4F800340CE0BB
:10592000D4F8003443F00403C4F8003405E0D4F89C
:10593000003423F00403C4F8003410212046FFF79C
:1059400006FF054608B101231D462046FFF724FF48
:1059500008B101231D46002209E004EB42134FF079
:10596000FF31C3F808150021C3F80C1501329DF86A
:1059700015309342F1D80023A3614FF0FF336361E8
:10598000124B9C4217D08023636203F5C003A362CD
:105990000F4BC4F800319DF816301BB9A36943F0D2
:1059A0001003A361A2690B4B1343A3612846BDE812
:1059B000384004B070474FF40073636203F18073A2
:1059C000A362054BC4F80031E5E700BF00000440C6
:1059D000E0004000080020A30003E00000F5806C18
:1059E000D0F8003423F00303C0F80034D0F80034BA
:1059F00001F003021343C0F80034012907D0022943
:105A00000BD141F27073CCF80430002070474BF694
:105A10008033CCF80430002070470120704730B547
:105A200083B0044600250195D0F840340193019BD2
:105A300023F02E030193019B43F48073C0F840349C
:105A40006420FCF73BFA019B23F48073C4F84034D4
:105A50000A20FCF733FA284603B030BD82B0002399
:105A60000193D0F840340193019B23F02E0301935E
:105A7000019B13F4805F01D101290CD0019B13F429
:105A8000805F05D021B9019B23F48053C0F84034D6
:105A9000002002B07047019B43F48053C0F84034AB
:105AA000ECE782B000230193D0F8403401930198D1
:105AB000C0F3414002B0704700F58060806880B25A
:105AC000704700002DE9F843164698469DF824409B
:105AD00000EB411505F5A0634FF0FF329A60022CF0
